{
  "contractName": "FarmManager",
  "abi": [
    {
      "constant": true,
      "inputs": [
        {
          "name": "",
          "type": "address"
        }
      ],
      "name": "ownersByAddress",
      "outputs": [
        {
          "name": "name",
          "type": "string"
        },
        {
          "name": "ownerAddress",
          "type": "address"
        }
      ],
      "payable": false,
      "stateMutability": "view",
      "type": "function"
    },
    {
      "constant": true,
      "inputs": [
        {
          "name": "",
          "type": "uint256"
        }
      ],
      "name": "employees",
      "outputs": [
        {
          "name": "id",
          "type": "uint256"
        },
        {
          "name": "farmId",
          "type": "uint256"
        },
        {
          "name": "name",
          "type": "string"
        }
      ],
      "payable": false,
      "stateMutability": "view",
      "type": "function"
    },
    {
      "constant": false,
      "inputs": [],
      "name": "renounceOwnership",
      "outputs": [],
      "payable": false,
      "stateMutability": "nonpayable",
      "type": "function"
    },
    {
      "constant": true,
      "inputs": [
        {
          "name": "",
          "type": "uint256"
        }
      ],
      "name": "farms",
      "outputs": [
        {
          "name": "id",
          "type": "uint256"
        },
        {
          "name": "name",
          "type": "string"
        },
        {
          "name": "lat",
          "type": "int256"
        },
        {
          "name": "long",
          "type": "int256"
        },
        {
          "name": "description",
          "type": "string"
        },
        {
          "name": "ownerAddress",
          "type": "address"
        }
      ],
      "payable": false,
      "stateMutability": "view",
      "type": "function"
    },
    {
      "constant": true,
      "inputs": [],
      "name": "owner",
      "outputs": [
        {
          "name": "",
          "type": "address"
        }
      ],
      "payable": false,
      "stateMutability": "view",
      "type": "function"
    },
    {
      "constant": true,
      "inputs": [],
      "name": "isOwner",
      "outputs": [
        {
          "name": "",
          "type": "bool"
        }
      ],
      "payable": false,
      "stateMutability": "view",
      "type": "function"
    },
    {
      "constant": true,
      "inputs": [
        {
          "name": "",
          "type": "uint256"
        }
      ],
      "name": "farmOwnerList",
      "outputs": [
        {
          "name": "name",
          "type": "string"
        },
        {
          "name": "ownerAddress",
          "type": "address"
        }
      ],
      "payable": false,
      "stateMutability": "view",
      "type": "function"
    },
    {
      "constant": true,
      "inputs": [
        {
          "name": "",
          "type": "uint256"
        }
      ],
      "name": "stores",
      "outputs": [
        {
          "name": "id",
          "type": "uint256"
        },
        {
          "name": "farmId",
          "type": "uint256"
        },
        {
          "name": "name",
          "type": "string"
        },
        {
          "name": "temperature",
          "type": "int256"
        }
      ],
      "payable": false,
      "stateMutability": "view",
      "type": "function"
    },
    {
      "constant": false,
      "inputs": [
        {
          "name": "newOwner",
          "type": "address"
        }
      ],
      "name": "transferOwnership",
      "outputs": [],
      "payable": false,
      "stateMutability": "nonpayable",
      "type": "function"
    },
    {
      "inputs": [
        {
          "name": "supplyAddress",
          "type": "address"
        }
      ],
      "payable": false,
      "stateMutability": "nonpayable",
      "type": "constructor"
    },
    {
      "anonymous": false,
      "inputs": [
        {
          "indexed": false,
          "name": "farmId",
          "type": "uint256"
        },
        {
          "indexed": false,
          "name": "name",
          "type": "string"
        },
        {
          "indexed": false,
          "name": "lat",
          "type": "int256"
        },
        {
          "indexed": false,
          "name": "long",
          "type": "int256"
        },
        {
          "indexed": false,
          "name": "description",
          "type": "string"
        },
        {
          "indexed": false,
          "name": "ownerName",
          "type": "string"
        },
        {
          "indexed": false,
          "name": "ownerAddress",
          "type": "address"
        }
      ],
      "name": "AddedFarm",
      "type": "event"
    },
    {
      "anonymous": false,
      "inputs": [
        {
          "indexed": false,
          "name": "name",
          "type": "string"
        },
        {
          "indexed": false,
          "name": "farmOwner",
          "type": "address"
        }
      ],
      "name": "AddedFarmOwner",
      "type": "event"
    },
    {
      "anonymous": false,
      "inputs": [
        {
          "indexed": false,
          "name": "storeId",
          "type": "uint256"
        },
        {
          "indexed": false,
          "name": "farmId",
          "type": "uint256"
        },
        {
          "indexed": false,
          "name": "name",
          "type": "string"
        },
        {
          "indexed": false,
          "name": "temperature",
          "type": "int256"
        }
      ],
      "name": "AddedStore",
      "type": "event"
    },
    {
      "anonymous": false,
      "inputs": [
        {
          "indexed": false,
          "name": "employeeId",
          "type": "uint256"
        },
        {
          "indexed": false,
          "name": "farmId",
          "type": "uint256"
        },
        {
          "indexed": false,
          "name": "name",
          "type": "string"
        }
      ],
      "name": "AddedEmployee",
      "type": "event"
    },
    {
      "anonymous": false,
      "inputs": [
        {
          "indexed": true,
          "name": "previousOwner",
          "type": "address"
        },
        {
          "indexed": true,
          "name": "newOwner",
          "type": "address"
        }
      ],
      "name": "OwnershipTransferred",
      "type": "event"
    },
    {
      "constant": false,
      "inputs": [
        {
          "name": "name",
          "type": "string"
        },
        {
          "name": "farmOwner",
          "type": "address"
        }
      ],
      "name": "addFarmOwner",
      "outputs": [],
      "payable": false,
      "stateMutability": "nonpayable",
      "type": "function"
    },
    {
      "constant": true,
      "inputs": [
        {
          "name": "index",
          "type": "uint256"
        }
      ],
      "name": "isFarmOwner",
      "outputs": [
        {
          "name": "",
          "type": "bool"
        }
      ],
      "payable": false,
      "stateMutability": "view",
      "type": "function"
    },
    {
      "constant": true,
      "inputs": [],
      "name": "getFarmOwnerCount",
      "outputs": [
        {
          "name": "",
          "type": "uint256"
        }
      ],
      "payable": false,
      "stateMutability": "view",
      "type": "function"
    },
    {
      "constant": true,
      "inputs": [
        {
          "name": "index",
          "type": "uint256"
        }
      ],
      "name": "getFarmOwner",
      "outputs": [
        {
          "name": "",
          "type": "string"
        },
        {
          "name": "",
          "type": "address"
        }
      ],
      "payable": false,
      "stateMutability": "view",
      "type": "function"
    },
    {
      "constant": false,
      "inputs": [
        {
          "name": "name",
          "type": "string"
        },
        {
          "name": "lat",
          "type": "int256"
        },
        {
          "name": "long",
          "type": "int256"
        },
        {
          "name": "description",
          "type": "string"
        },
        {
          "name": "ownerAddress",
          "type": "address"
        }
      ],
      "name": "addFarm",
      "outputs": [],
      "payable": false,
      "stateMutability": "nonpayable",
      "type": "function"
    },
    {
      "constant": true,
      "inputs": [],
      "name": "getFarmCount",
      "outputs": [
        {
          "name": "",
          "type": "uint256"
        }
      ],
      "payable": false,
      "stateMutability": "view",
      "type": "function"
    },
    {
      "constant": true,
      "inputs": [
        {
          "name": "index",
          "type": "uint256"
        }
      ],
      "name": "getFarm",
      "outputs": [
        {
          "name": "",
          "type": "uint256"
        },
        {
          "name": "",
          "type": "string"
        },
        {
          "name": "",
          "type": "int256"
        },
        {
          "name": "",
          "type": "int256"
        },
        {
          "name": "",
          "type": "string"
        },
        {
          "name": "",
          "type": "string"
        },
        {
          "name": "",
          "type": "address"
        }
      ],
      "payable": false,
      "stateMutability": "view",
      "type": "function"
    },
    {
      "constant": true,
      "inputs": [
        {
          "name": "index",
          "type": "uint256"
        }
      ],
      "name": "getFarmName",
      "outputs": [
        {
          "name": "",
          "type": "string"
        }
      ],
      "payable": false,
      "stateMutability": "view",
      "type": "function"
    },
    {
      "constant": true,
      "inputs": [
        {
          "name": "index",
          "type": "uint256"
        }
      ],
      "name": "getFarmAddress",
      "outputs": [
        {
          "name": "",
          "type": "address"
        }
      ],
      "payable": false,
      "stateMutability": "view",
      "type": "function"
    },
    {
      "constant": false,
      "inputs": [
        {
          "name": "farmId",
          "type": "uint256"
        },
        {
          "name": "name",
          "type": "string"
        },
        {
          "name": "temperature",
          "type": "int256"
        }
      ],
      "name": "addFarmStorage",
      "outputs": [],
      "payable": false,
      "stateMutability": "nonpayable",
      "type": "function"
    },
    {
      "constant": true,
      "inputs": [],
      "name": "getFarmStorageCount",
      "outputs": [
        {
          "name": "",
          "type": "uint256"
        }
      ],
      "payable": false,
      "stateMutability": "view",
      "type": "function"
    },
    {
      "constant": true,
      "inputs": [
        {
          "name": "index",
          "type": "uint256"
        }
      ],
      "name": "getFarmStorage",
      "outputs": [
        {
          "name": "",
          "type": "uint256"
        },
        {
          "name": "",
          "type": "uint256"
        },
        {
          "name": "",
          "type": "string"
        },
        {
          "name": "",
          "type": "int256"
        }
      ],
      "payable": false,
      "stateMutability": "view",
      "type": "function"
    },
    {
      "constant": false,
      "inputs": [
        {
          "name": "farmId",
          "type": "uint256"
        },
        {
          "name": "name",
          "type": "string"
        }
      ],
      "name": "addEmployee",
      "outputs": [],
      "payable": false,
      "stateMutability": "nonpayable",
      "type": "function"
    },
    {
      "constant": true,
      "inputs": [],
      "name": "getEmployeeCount",
      "outputs": [
        {
          "name": "",
          "type": "uint256"
        }
      ],
      "payable": false,
      "stateMutability": "view",
      "type": "function"
    },
    {
      "constant": true,
      "inputs": [
        {
          "name": "index",
          "type": "uint256"
        }
      ],
      "name": "getEmployee",
      "outputs": [
        {
          "name": "",
          "type": "uint256"
        },
        {
          "name": "",
          "type": "uint256"
        },
        {
          "name": "",
          "type": "string"
        }
      ],
      "payable": false,
      "stateMutability": "view",
      "type": "function"
    },
    {
      "constant": false,
      "inputs": [
        {
          "name": "farmId",
          "type": "uint256"
        },
        {
          "name": "employeeId",
          "type": "uint256"
        },
        {
          "name": "plantId",
          "type": "uint256"
        },
        {
          "name": "date",
          "type": "uint256"
        }
      ],
      "name": "plantOnFarm",
      "outputs": [],
      "payable": false,
      "stateMutability": "nonpayable",
      "type": "function"
    }
  ],
  "bytecode": "0x60806040523480156200001157600080fd5b50604051602080620038f6833981018060405260208110156200003357600080fd5b8101908080519060200190929190505050620000546200015760201b60201c565b6000806101000a81548173ffffffffffffffffffffffffffffffffffffffff021916908373ffffffffffffffffffffffffffffffffffffffff1602179055506000809054906101000a900473ffffffffffffffffffffffffffffffffffffffff1673ffffffffffffffffffffffffffffffffffffffff16600073ffffffffffffffffffffffffffffffffffffffff167f8be0079c531659141344cd1fd0a4f28419497f9722a3daafe3b4186f6b6457e060405160405180910390a380600160006101000a81548173ffffffffffffffffffffffffffffffffffffffff021916908373ffffffffffffffffffffffffffffffffffffffff160217905550506200015f565b600033905090565b613787806200016f6000396000f3fe608060405234801561001057600080fd5b50600436106101735760003560e01c80638f32d59b116100de578063ce6dfadb11610097578063e2033fd211610071578063e2033fd214610e57578063e897106a14610f32578063e8a59cd814610fee578063f2fde38b146110aa57610173565b8063ce6dfadb14610c55578063d5063e0414610cc3578063d9a5ec6a14610d8857610173565b80638f32d59b14610905578063b30a262714610927578063b80f019514610a01578063bc7aa93314610aa8578063bca9a5c514610b82578063c2a63e3b14610c3757610173565b806372201a9e1161013057806372201a9e14610552578063770835c1146105705780637b4969ee146106f65780637da470ea14610714578063874aeb8a1461086f5780638da5cb5b146108bb57610173565b8063353caf4d14610178578063429692a7146102685780634739326b1461028657806353fd88bf1461033b5780636094039c14610502578063715018a614610548575b600080fd5b6101ba6004803603602081101561018e57600080fd5b81019080803573ffffffffffffffffffffffffffffffffffffffff1690602001909291905050506110ee565b60405180806020018373ffffffffffffffffffffffffffffffffffffffff1673ffffffffffffffffffffffffffffffffffffffff168152602001828103825284818151815260200191508051906020019080838360005b8381101561022c578082015181840152602081019050610211565b50505050905090810190601f1680156102595780820380516001836020036101000a031916815260200191505b50935050505060405180910390f35b6102706111ca565b6040518082815260200191505060405180910390f35b6102b26004803603602081101561029c57600080fd5b81019080803590602001909291905050506111d7565b6040518084815260200183815260200180602001828103825283818151815260200191508051906020019080838360005b838110156102fe5780820151818401526020810190506102e3565b50505050905090810190601f16801561032b5780820380516001836020036101000a031916815260200191505b5094505050505060405180910390f35b6103676004803603602081101561035157600080fd5b81019080803590602001909291905050506112a6565b604051808881526020018060200187815260200186815260200180602001806020018573ffffffffffffffffffffffffffffffffffffffff1673ffffffffffffffffffffffffffffffffffffffff16815260200184810384528a818151815260200191508051906020019080838360005b838110156103f35780820151818401526020810190506103d8565b50505050905090810190601f1680156104205780820380516001836020036101000a031916815260200191505b50848103835287818151815260200191508051906020019080838360005b8381101561045957808201518184015260208101905061043e565b50505050905090810190601f1680156104865780820380516001836020036101000a031916815260200191505b50848103825286818151815260200191508051906020019080838360005b838110156104bf5780820151818401526020810190506104a4565b50505050905090810190601f1680156104ec5780820380516001836020036101000a031916815260200191505b509a505050505050505050505060405180910390f35b61052e6004803603602081101561051857600080fd5b8101908080359060200190929190505050611631565b604051808215151515815260200191505060405180910390f35b6105506116a7565b005b61055a6117e0565b6040518082815260200191505060405180910390f35b6106f4600480360360a081101561058657600080fd5b81019080803590602001906401000000008111156105a357600080fd5b8201836020820111156105b557600080fd5b803590602001918460018302840111640100000000831117156105d757600080fd5b91908080601f016020809104026020016040519081016040528093929190818152602001838380828437600081840152601f19601f82011690508083019250505050505050919291929080359060200190929190803590602001909291908035906020019064010000000081111561064e57600080fd5b82018360208201111561066057600080fd5b8035906020019184600183028401116401000000008311171561068257600080fd5b91908080601f016020809104026020016040519081016040528093929190818152602001838380828437600081840152601f19601f820116905080830192505050505050509192919290803573ffffffffffffffffffffffffffffffffffffffff1690602001909291905050506117ed565b005b6106fe611ca8565b6040518082815260200191505060405180910390f35b6107406004803603602081101561072a57600080fd5b8101908080359060200190929190505050611cb5565b6040518087815260200180602001868152602001858152602001806020018473ffffffffffffffffffffffffffffffffffffffff1673ffffffffffffffffffffffffffffffffffffffff168152602001838103835288818151815260200191508051906020019080838360005b838110156107c85780820151818401526020810190506107ad565b50505050905090810190601f1680156107f55780820380516001836020036101000a031916815260200191505b50838103825285818151815260200191508051906020019080838360005b8381101561082e578082015181840152602081019050610813565b50505050905090810190601f16801561085b5780820380516001836020036101000a031916815260200191505b509850505050505050505060405180910390f35b6108b96004803603608081101561088557600080fd5b8101908080359060200190929190803590602001909291908035906020019092919080359060200190929190505050611e4e565b005b6108c36122eb565b604051808273ffffffffffffffffffffffffffffffffffffffff1673ffffffffffffffffffffffffffffffffffffffff16815260200191505060405180910390f35b61090d612314565b604051808215151515815260200191505060405180910390f35b6109536004803603602081101561093d57600080fd5b8101908080359060200190929190505050612372565b60405180806020018373ffffffffffffffffffffffffffffffffffffffff1673ffffffffffffffffffffffffffffffffffffffff168152602001828103825284818151815260200191508051906020019080838360005b838110156109c55780820151818401526020810190506109aa565b50505050905090810190601f1680156109f25780820380516001836020036101000a031916815260200191505b50935050505060405180910390f35b610a2d60048036036020811015610a1757600080fd5b810190808035906020019092919050505061245b565b6040518080602001828103825283818151815260200191508051906020019080838360005b83811015610a6d578082015181840152602081019050610a52565b50505050905090810190601f168015610a9a5780820380516001836020036101000a031916815260200191505b509250505060405180910390f35b610ad460048036036020811015610abe57600080fd5b8101908080359060200190929190505050612652565b60405180806020018373ffffffffffffffffffffffffffffffffffffffff1673ffffffffffffffffffffffffffffffffffffffff168152602001828103825284818151815260200191508051906020019080838360005b83811015610b46578082015181840152602081019050610b2b565b50505050905090810190601f168015610b735780820380516001836020036101000a031916815260200191505b50935050505060405180910390f35b610bae60048036036020811015610b9857600080fd5b8101908080359060200190929190505050612795565b6040518084815260200183815260200180602001828103825283818151815260200191508051906020019080838360005b83811015610bfa578082015181840152602081019050610bdf565b50505050905090810190601f168015610c275780820380516001836020036101000a031916815260200191505b5094505050505060405180910390f35b610c3f6128a0565b6040518082815260200191505060405180910390f35b610c8160048036036020811015610c6b57600080fd5b81019080803590602001909291905050506128ad565b604051808273ffffffffffffffffffffffffffffffffffffffff1673ffffffffffffffffffffffffffffffffffffffff16815260200191505060405180910390f35b610d8660048036036040811015610cd957600080fd5b810190808035906020019092919080359060200190640100000000811115610d0057600080fd5b820183602082011115610d1257600080fd5b80359060200191846001830284011164010000000083111715610d3457600080fd5b91908080601f016020809104026020016040519081016040528093929190818152602001838380828437600081840152601f19601f820116905080830192505050505050509192919290505050612aa4565b005b610e5560048036036060811015610d9e57600080fd5b810190808035906020019092919080359060200190640100000000811115610dc557600080fd5b820183602082011115610dd757600080fd5b80359060200191846001830284011164010000000083111715610df957600080fd5b91908080601f016020809104026020016040519081016040528093929190818152602001838380828437600081840152601f19601f82011690508083019250505050505050919291929080359060200190929190505050612bed565b005b610f3060048036036040811015610e6d57600080fd5b8101908080359060200190640100000000811115610e8a57600080fd5b820183602082011115610e9c57600080fd5b80359060200191846001830284011164010000000083111715610ebe57600080fd5b91908080601f016020809104026020016040519081016040528093929190818152602001838380828437600081840152601f19601f820116905080830192505050505050509192919290803573ffffffffffffffffffffffffffffffffffffffff169060200190929190505050612d4f565b005b610f5e60048036036020811015610f4857600080fd5b810190808035906020019092919050505061302b565b6040518085815260200184815260200180602001838152602001828103825284818151815260200191508051906020019080838360005b83811015610fb0578082015181840152602081019050610f95565b50505050905090810190601f168015610fdd5780820380516001836020036101000a031916815260200191505b509550505050505060405180910390f35b61101a6004803603602081101561100457600080fd5b8101908080359060200190929190505050613149565b6040518085815260200184815260200180602001838152602001828103825284818151815260200191508051906020019080838360005b8381101561106c578082015181840152602081019050611051565b50505050905090810190601f1680156110995780820380516001836020036101000a031916815260200191505b509550505050505060405180910390f35b6110ec600480360360208110156110c057600080fd5b81019080803573ffffffffffffffffffffffffffffffffffffffff16906020019092919050505061321e565b005b6007602052806000526040600020600091509050806000018054600181600116156101000203166002900480601f01602080910402602001604051908101604052809291908181526020018280546001816001161561010002031660029004801561119a5780601f1061116f5761010080835404028352916020019161119a565b820191906000526020600020905b81548152906001019060200180831161117d57829003601f168201915b5050505050908060010160009054906101000a900473ffffffffffffffffffffffffffffffffffffffff16905082565b6000600380549050905090565b600681815481106111e457fe5b9060005260206000209060030201600091509050806000015490806001015490806002018054600181600116156101000203166002900480601f01602080910402602001604051908101604052809291908181526020018280546001816001161561010002031660029004801561129c5780601f106112715761010080835404028352916020019161129c565b820191906000526020600020905b81548152906001019060200180831161127f57829003601f168201915b5050505050905083565b6000606060008060608060006112ba6135a9565b600389815481106112c757fe5b90600052602060002090600602016040518060c001604052908160008201548152602001600182018054600181600116156101000203166002900480601f0160208091040260200160405190810160405280929190818152602001828054600181600116156101000203166002900480156113835780601f1061135857610100808354040283529160200191611383565b820191906000526020600020905b81548152906001019060200180831161136657829003601f168201915b505050505081526020016002820154815260200160038201548152602001600482018054600181600116156101000203166002900480601f0160208091040260200160405190810160405280929190818152602001828054600181600116156101000203166002900480156114395780601f1061140e57610100808354040283529160200191611439565b820191906000526020600020905b81548152906001019060200180831161141c57829003601f168201915b505050505081526020016005820160009054906101000a900473ffffffffffffffffffffffffffffffffffffffff1673ffffffffffffffffffffffffffffffffffffffff1673ffffffffffffffffffffffffffffffffffffffff168152505090506114a26135f5565b600760008360a0015173ffffffffffffffffffffffffffffffffffffffff1673ffffffffffffffffffffffffffffffffffffffff168152602001908152602001600020604051806040016040529081600082018054600181600116156101000203166002900480601f0160208091040260200160405190810160405280929190818152602001828054600181600116156101000203166002900480156115895780601f1061155e57610100808354040283529160200191611589565b820191906000526020600020905b81548152906001019060200180831161156c57829003601f168201915b505050505081526020016001820160009054906101000a900473ffffffffffffffffffffffffffffffffffffffff1673ffffffffffffffffffffffffffffffffffffffff1673ffffffffffffffffffffffffffffffffffffffff168152505090508160000151826020015183604001518460600151856080015185600001518760a0015185955082925081915098509850985098509850985098505050919395979092949650565b60003373ffffffffffffffffffffffffffffffffffffffff166003838154811061165757fe5b906000526020600020906006020160050160009054906101000a900473ffffffffffffffffffffffffffffffffffffffff1673ffffffffffffffffffffffffffffffffffffffff16149050919050565b6116af612314565b611721576040517f08c379a00000000000000000000000000000000000000000000000000000000081526004018080602001828103825260208152602001807f4f776e61626c653a2063616c6c6572206973206e6f7420746865206f776e657281525060200191505060405180910390fd5b600073ffffffffffffffffffffffffffffffffffffffff166000809054906101000a900473ffffffffffffffffffffffffffffffffffffffff1673ffffffffffffffffffffffffffffffffffffffff167f8be0079c531659141344cd1fd0a4f28419497f9722a3daafe3b4186f6b6457e060405160405180910390a360008060006101000a81548173ffffffffffffffffffffffffffffffffffffffff021916908373ffffffffffffffffffffffffffffffffffffffff160217905550565b6000600480549050905090565b6117f5612314565b611867576040517f08c379a00000000000000000000000000000000000000000000000000000000081526004018080602001828103825260208152602001807f4f776e61626c653a2063616c6c6572206973206e6f7420746865206f776e657281525060200191505060405180910390fd5b61186f6135a9565b6040518060c0016040528060038054905081526020018781526020018681526020018581526020018481526020018373ffffffffffffffffffffffffffffffffffffffff1681525090506003819080600181540180825580915050906001820390600052602060002090600602016000909192909190915060008201518160000155602082015181600101908051906020019061190d929190613625565b506040820151816002015560608201518160030155608082015181600401908051906020019061193e929190613625565b5060a08201518160050160006101000a81548173ffffffffffffffffffffffffffffffffffffffff021916908373ffffffffffffffffffffffffffffffffffffffff1602179055505050506119916135f5565b600760008473ffffffffffffffffffffffffffffffffffffffff1673ffffffffffffffffffffffffffffffffffffffff168152602001908152602001600020604051806040016040529081600082018054600181600116156101000203166002900480601f016020809104026020016040519081016040528092919081815260200182805460018160011615610100020316600290048015611a745780601f10611a4957610100808354040283529160200191611a74565b820191906000526020600020905b815481529060010190602001808311611a5757829003601f168201915b505050505081526020016001820160009054906101000a900473ffffffffffffffffffffffffffffffffffffffff1673ffffffffffffffffffffffffffffffffffffffff1673ffffffffffffffffffffffffffffffffffffffff168152505090507f3e7672930642c1d29da74a605929d14f3502682dfcbb5181ffbbbf2c6f0a94a3826000015188888888866000015189604051808881526020018060200187815260200186815260200180602001806020018573ffffffffffffffffffffffffffffffffffffffff1673ffffffffffffffffffffffffffffffffffffffff16815260200184810384528a818151815260200191508051906020019080838360005b83811015611b91578082015181840152602081019050611b76565b50505050905090810190601f168015611bbe5780820380516001836020036101000a031916815260200191505b50848103835287818151815260200191508051906020019080838360005b83811015611bf7578082015181840152602081019050611bdc565b50505050905090810190601f168015611c245780820380516001836020036101000a031916815260200191505b50848103825286818151815260200191508051906020019080838360005b83811015611c5d578082015181840152602081019050611c42565b50505050905090810190601f168015611c8a5780820380516001836020036101000a031916815260200191505b509a505050505050505050505060405180910390a150505050505050565b6000600580549050905090565b60038181548110611cc257fe5b9060005260206000209060060201600091509050806000015490806001018054600181600116156101000203166002900480601f016020809104026020016040519081016040528092919081815260200182805460018160011615610100020316600290048015611d745780601f10611d4957610100808354040283529160200191611d74565b820191906000526020600020905b815481529060010190602001808311611d5757829003601f168201915b505050505090806002015490806003015490806004018054600181600116156101000203166002900480601f016020809104026020016040519081016040528092919081815260200182805460018160011615610100020316600290048015611e1e5780601f10611df357610100808354040283529160200191611e1e565b820191906000526020600020905b815481529060010190602001808311611e0157829003601f168201915b5050505050908060050160009054906101000a900473ffffffffffffffffffffffffffffffffffffffff16905086565b611e566136a5565b60068481548110611e6357fe5b90600052602060002090600302016040518060600160405290816000820154815260200160018201548152602001600282018054600181600116156101000203166002900480601f016020809104026020016040519081016040528092919081815260200182805460018160011615610100020316600290048015611f295780601f10611efe57610100808354040283529160200191611f29565b820191906000526020600020905b815481529060010190602001808311611f0c57829003601f168201915b5050505050815250509050611f3c6135a9565b60038681548110611f4957fe5b90600052602060002090600602016040518060c001604052908160008201548152602001600182018054600181600116156101000203166002900480601f0160208091040260200160405190810160405280929190818152602001828054600181600116156101000203166002900480156120055780601f10611fda57610100808354040283529160200191612005565b820191906000526020600020905b815481529060010190602001808311611fe857829003601f168201915b505050505081526020016002820154815260200160038201548152602001600482018054600181600116156101000203166002900480601f0160208091040260200160405190810160405280929190818152602001828054600181600116156101000203166002900480156120bb5780601f10612090576101008083540402835291602001916120bb565b820191906000526020600020905b81548152906001019060200180831161209e57829003601f168201915b505050505081526020016005820160009054906101000a900473ffffffffffffffffffffffffffffffffffffffff1673ffffffffffffffffffffffffffffffffffffffff1673ffffffffffffffffffffffffffffffffffffffff16815250509050600160009054906101000a900473ffffffffffffffffffffffffffffffffffffffff1673ffffffffffffffffffffffffffffffffffffffff16630cc438cd8583602001518460a001518560400151866060015188604001518a6040518863ffffffff1660e01b815260040180888152602001806020018773ffffffffffffffffffffffffffffffffffffffff1673ffffffffffffffffffffffffffffffffffffffff16815260200186815260200185815260200180602001848152602001838103835289818151815260200191508051906020019080838360005b838110156122125780820151818401526020810190506121f7565b50505050905090810190601f16801561223f5780820380516001836020036101000a031916815260200191505b50838103825285818151815260200191508051906020019080838360005b8381101561227857808201518184015260208101905061225d565b50505050905090810190601f1680156122a55780820380516001836020036101000a031916815260200191505b509950505050505050505050600060405180830381600087803b1580156122cb57600080fd5b505af11580156122df573d6000803e3d6000fd5b50505050505050505050565b60008060009054906101000a900473ffffffffffffffffffffffffffffffffffffffff16905090565b60008060009054906101000a900473ffffffffffffffffffffffffffffffffffffffff1673ffffffffffffffffffffffffffffffffffffffff166123566132a4565b73ffffffffffffffffffffffffffffffffffffffff1614905090565b6004818154811061237f57fe5b9060005260206000209060020201600091509050806000018054600181600116156101000203166002900480601f01602080910402602001604051908101604052809291908181526020018280546001816001161561010002031660029004801561242b5780601f106124005761010080835404028352916020019161242b565b820191906000526020600020905b81548152906001019060200180831161240e57829003601f168201915b5050505050908060010160009054906101000a900473ffffffffffffffffffffffffffffffffffffffff16905082565b60606124656135a9565b6003838154811061247257fe5b90600052602060002090600602016040518060c001604052908160008201548152602001600182018054600181600116156101000203166002900480601f01602080910402602001604051908101604052809291908181526020018280546001816001161561010002031660029004801561252e5780601f106125035761010080835404028352916020019161252e565b820191906000526020600020905b81548152906001019060200180831161251157829003601f168201915b505050505081526020016002820154815260200160038201548152602001600482018054600181600116156101000203166002900480601f0160208091040260200160405190810160405280929190818152602001828054600181600116156101000203166002900480156125e45780601f106125b9576101008083540402835291602001916125e4565b820191906000526020600020905b8154815290600101906020018083116125c757829003601f168201915b505050505081526020016005820160009054906101000a900473ffffffffffffffffffffffffffffffffffffffff1673ffffffffffffffffffffffffffffffffffffffff1673ffffffffffffffffffffffffffffffffffffffff168152505090508060200151915050919050565b6060600061265e6135f5565b6004848154811061266b57fe5b9060005260206000209060020201604051806040016040529081600082018054600181600116156101000203166002900480601f01602080910402602001604051908101604052809291908181526020018280546001816001161561010002031660029004801561271d5780601f106126f25761010080835404028352916020019161271d565b820191906000526020600020905b81548152906001019060200180831161270057829003601f168201915b505050505081526020016001820160009054906101000a900473ffffffffffffffffffffffffffffffffffffffff1673ffffffffffffffffffffffffffffffffffffffff1673ffffffffffffffffffffffffffffffffffffffff16815250509050806000015181602001518191509250925050915091565b60008060606127a26136a5565b600685815481106127af57fe5b90600052602060002090600302016040518060600160405290816000820154815260200160018201548152602001600282018054600181600116156101000203166002900480601f0160208091040260200160405190810160405280929190818152602001828054600181600116156101000203166002900480156128755780601f1061284a57610100808354040283529160200191612875565b820191906000526020600020905b81548152906001019060200180831161285857829003601f168201915b5050505050815250509050806000015181602001518260400151809050935093509350509193909250565b6000600680549050905090565b60006128b76135a9565b600383815481106128c457fe5b90600052602060002090600602016040518060c001604052908160008201548152602001600182018054600181600116156101000203166002900480601f0160208091040260200160405190810160405280929190818152602001828054600181600116156101000203166002900480156129805780601f1061295557610100808354040283529160200191612980565b820191906000526020600020905b81548152906001019060200180831161296357829003601f168201915b505050505081526020016002820154815260200160038201548152602001600482018054600181600116156101000203166002900480601f016020809104026020016040519081016040528092919081815260200182805460018160011615610100020316600290048015612a365780601f10612a0b57610100808354040283529160200191612a36565b820191906000526020600020905b815481529060010190602001808311612a1957829003601f168201915b505050505081526020016005820160009054906101000a900473ffffffffffffffffffffffffffffffffffffffff1673ffffffffffffffffffffffffffffffffffffffff1673ffffffffffffffffffffffffffffffffffffffff168152505090508060a00151915050919050565b612aac6136a5565b604051806060016040528060068054905081526020018481526020018381525090506006819080600181540180825580915050906001820390600052602060002090600302016000909192909190915060008201518160000155602082015181600101556040820151816002019080519060200190612b2c929190613625565b505050507fd67f9307fa77af8c55ea7904c3c2b4faa5a7b05187eba96b1af5763ddd1fa0e28160000151826020015183604001516040518084815260200183815260200180602001828103825283818151815260200191508051906020019080838360005b83811015612bac578082015181840152602081019050612b91565b50505050905090810190601f168015612bd95780820380516001836020036101000a031916815260200191505b5094505050505060405180910390a1505050565b612bf56136c6565b604051806080016040528060058054905081526020018581526020018481526020018381525090506005819080600181540180825580915050906001820390600052602060002090600402016000909192909190915060008201518160000155602082015181600101556040820151816002019080519060200190612c7b929190613625565b50606082015181600301555050507f4190789434adf076d190eb85845559980301bbea8c12c6f3914e6bbcbdaf3938816000015182602001518584606001516040518085815260200184815260200180602001838152602001828103825284818151815260200191508051906020019080838360005b83811015612d0c578082015181840152602081019050612cf1565b50505050905090810190601f168015612d395780820380516001836020036101000a031916815260200191505b509550505050505060405180910390a150505050565b612d57612314565b612dc9576040517f08c379a00000000000000000000000000000000000000000000000000000000081526004018080602001828103825260208152602001807f4f776e61626c653a2063616c6c6572206973206e6f7420746865206f776e657281525060200191505060405180910390fd5b612ddd8160026132ac90919063ffffffff16565b612de56135f5565b60405180604001604052808481526020018373ffffffffffffffffffffffffffffffffffffffff168152509050600481908060018154018082558091505090600182039060005260206000209060020201600090919290919091506000820151816000019080519060200190612e5c929190613625565b5060208201518160010160006101000a81548173ffffffffffffffffffffffffffffffffffffffff021916908373ffffffffffffffffffffffffffffffffffffffff16021790555050505080600760008473ffffffffffffffffffffffffffffffffffffffff1673ffffffffffffffffffffffffffffffffffffffff1681526020019081526020016000206000820151816000019080519060200190612f03929190613625565b5060208201518160010160006101000a81548173ffffffffffffffffffffffffffffffffffffffff021916908373ffffffffffffffffffffffffffffffffffffffff1602179055509050507f1019884191f1911c9d6a29d86255f39fd3a37e10528950c8ad926d2438bc234b8160000151826020015160405180806020018373ffffffffffffffffffffffffffffffffffffffff1673ffffffffffffffffffffffffffffffffffffffff168152602001828103825284818151815260200191508051906020019080838360005b83811015612feb578082015181840152602081019050612fd0565b50505050905090810190601f1680156130185780820380516001836020036101000a031916815260200191505b50935050505060405180910390a1505050565b6000806060600061303a6136c6565b6005868154811061304757fe5b90600052602060002090600402016040518060800160405290816000820154815260200160018201548152602001600282018054600181600116156101000203166002900480601f01602080910402602001604051908101604052809291908181526020018280546001816001161561010002031660029004801561310d5780601f106130e25761010080835404028352916020019161310d565b820191906000526020600020905b8154815290600101906020018083116130f057829003601f168201915b50505050508152602001600382015481525050905080600001518160200151826040015183606001518191509450945094509450509193509193565b6005818154811061315657fe5b9060005260206000209060040201600091509050806000015490806001015490806002018054600181600116156101000203166002900480601f01602080910402602001604051908101604052809291908181526020018280546001816001161561010002031660029004801561320e5780601f106131e35761010080835404028352916020019161320e565b820191906000526020600020905b8154815290600101906020018083116131f157829003601f168201915b5050505050908060030154905084565b613226612314565b613298576040517f08c379a00000000000000000000000000000000000000000000000000000000081526004018080602001828103825260208152602001807f4f776e61626c653a2063616c6c6572206973206e6f7420746865206f776e657281525060200191505060405180910390fd5b6132a181613387565b50565b600033905090565b6132b682826134cb565b15613329576040517f08c379a000000000000000000000000000000000000000000000000000000000815260040180806020018281038252601f8152602001807f526f6c65733a206163636f756e7420616c72656164792068617320726f6c650081525060200191505060405180910390fd5b60018260000160008373ffffffffffffffffffffffffffffffffffffffff1673ffffffffffffffffffffffffffffffffffffffff16815260200190815260200160002060006101000a81548160ff0219169083151502179055505050565b600073ffffffffffffffffffffffffffffffffffffffff168173ffffffffffffffffffffffffffffffffffffffff16141561340d576040517f08c379a00000000000000000000000000000000000000000000000000000000081526004018080602001828103825260268152602001806137146026913960400191505060405180910390fd5b8073ffffffffffffffffffffffffffffffffffffffff166000809054906101000a900473ffffffffffffffffffffffffffffffffffffffff1673ffffffffffffffffffffffffffffffffffffffff167f8be0079c531659141344cd1fd0a4f28419497f9722a3daafe3b4186f6b6457e060405160405180910390a3806000806101000a81548173ffffffffffffffffffffffffffffffffffffffff021916908373ffffffffffffffffffffffffffffffffffffffff16021790555050565b60008073ffffffffffffffffffffffffffffffffffffffff168273ffffffffffffffffffffffffffffffffffffffff161415613552576040517f08c379a000000000000000000000000000000000000000000000000000000000815260040180806020018281038252602281526020018061373a6022913960400191505060405180910390fd5b8260000160008373ffffffffffffffffffffffffffffffffffffffff1673ffffffffffffffffffffffffffffffffffffffff16815260200190815260200160002060009054906101000a900460ff16905092915050565b6040518060c001604052806000815260200160608152602001600081526020016000815260200160608152602001600073ffffffffffffffffffffffffffffffffffffffff1681525090565b604051806040016040528060608152602001600073ffffffffffffffffffffffffffffffffffffffff1681525090565b828054600181600116156101000203166002900490600052602060002090601f016020900481019282601f1061366657805160ff1916838001178555613694565b82800160010185558215613694579182015b82811115613693578251825591602001919060010190613678565b5b5090506136a191906136ee565b5090565b60405180606001604052806000815260200160008152602001606081525090565b6040518060800160405280600081526020016000815260200160608152602001600081525090565b61371091905b8082111561370c5760008160009055506001016136f4565b5090565b9056fe4f776e61626c653a206e6577206f776e657220697320746865207a65726f2061646472657373526f6c65733a206163636f756e7420697320746865207a65726f2061646472657373a165627a7a72305820d21d95f6665c6e5184405574fa09f05fce6648135d7e5e8d5c710bbf4bc3ce520029",
  "source": "pragma solidity  > 0.5.0;\n\nimport \"../node_modules/openzeppelin-solidity/contracts/access/Roles.sol\";\nimport \"../node_modules/openzeppelin-solidity/contracts/ownership/Ownable.sol\";\nimport \"./SupplyDataTypes.sol\";\nimport \"./Supply.sol\";\n\ncontract FarmManager is Ownable {\n  Supply supply;\n\n  using Roles for Roles.Role;\n\n  Roles.Role private farmOwners;\n\n  struct FarmStorage {\n    uint id;\n    uint farmId;\n    string name;\n    int temperature;\n  }\n\n  struct Employee {\n    uint id;\n    uint farmId;\n    string name;\n  }\n\n  SupplyDataTypes.Farm[] public farms;\n  SupplyDataTypes.Owner[] public farmOwnerList;\n  FarmStorage[] public stores;\n  Employee[] public employees;\n  mapping(address => SupplyDataTypes.Owner) public ownersByAddress;\n\n  event AddedFarm(uint farmId, string name, int lat, int long, string description, string ownerName, address ownerAddress);\n  event AddedFarmOwner(string name, address farmOwner);\n  event AddedStore(uint storeId, uint farmId, string name, int temperature);\n  event AddedEmployee(uint employeeId, uint farmId, string name);\n\n  constructor(address supplyAddress) public {\n    supply = Supply(supplyAddress);\n  }\n\n  function addFarmOwner(string memory name, address farmOwner) public onlyOwner {\n    farmOwners.add(farmOwner);\n    SupplyDataTypes.Owner memory owner = SupplyDataTypes.Owner(name, farmOwner);\n    farmOwnerList.push(owner);\n    ownersByAddress[farmOwner] = owner;\n    emit AddedFarmOwner(owner.name, owner.ownerAddress);\n  }\n\n  function isFarmOwner(uint index) public view returns(bool) {\n    return farms[index].ownerAddress == msg.sender;\n  }\n\n  function getFarmOwnerCount() public view returns(uint) {\n    return farmOwnerList.length;\n  }\n\n  function getFarmOwner(uint index) public view returns(string memory, address) {\n    SupplyDataTypes.Owner memory owner = farmOwnerList[index];\n    return (owner.name, owner.ownerAddress);\n  }\n\n  function addFarm(string memory name, int lat, int long, string memory description, address ownerAddress) public onlyOwner {\n    SupplyDataTypes.Farm memory farm = SupplyDataTypes.Farm(farms.length, name, lat, long, description, ownerAddress);\n    farms.push(farm);\n    SupplyDataTypes.Owner memory owner = ownersByAddress[ownerAddress];\n    emit AddedFarm(farm.id, name, lat, long, description, owner.name, ownerAddress);\n  }\n\n  function getFarmCount() public view returns(uint) {\n    return farms.length;\n  }\n\n  function getFarm(uint index) public view returns(uint, string memory, int, int, string memory, string memory, address) {\n    SupplyDataTypes.Farm memory farm = farms[index];\n    SupplyDataTypes.Owner memory owner = ownersByAddress[farm.ownerAddress];\n    return (farm.id, farm.name, farm.lat, farm.long, farm.description, owner.name, farm.ownerAddress);\n  }\n\n  function getFarmName(uint index) public view returns(string memory) {\n    SupplyDataTypes.Farm memory farm = farms[index];\n    return (farm.name);\n  }\n\n  function getFarmAddress(uint index) public view returns(address) {\n    SupplyDataTypes.Farm memory farm = farms[index];\n    return (farm.ownerAddress);\n  }\n\n  function addFarmStorage(uint farmId, string memory name, int temperature) public {\n    FarmStorage memory store = FarmStorage(stores.length, farmId, name, temperature);\n    stores.push(store);\n    emit AddedStore(store.id, store.farmId, name, store.temperature);\n  }\n\n  function getFarmStorageCount() public view returns(uint) {\n    return stores.length;\n  }\n\n  function getFarmStorage(uint index) public view returns(uint, uint, string memory, int) {\n    FarmStorage memory store = stores[index];\n    return (store.id, store.farmId, store.name, store.temperature);\n  }\n\n  function addEmployee(uint farmId, string memory name) public {\n    Employee memory employee = Employee(employees.length, farmId, name);\n    employees.push(employee);\n    emit AddedEmployee(employee.id, employee.farmId, employee.name);\n  }\n\n  function getEmployeeCount() public view returns(uint) {\n    return employees.length;\n  }\n\n  function getEmployee(uint index) public view returns(uint, uint, string memory) {\n    Employee memory employee = employees[index];\n    return (employee.id, employee.farmId, employee.name);\n  }\n\n  function plantOnFarm(uint farmId, uint employeeId, uint plantId, uint date) public {\n    Employee memory employee = employees[employeeId];\n    SupplyDataTypes.Farm memory farm = farms[farmId];\n\n    supply.plantOnFarm(plantId, farm.name, farm.ownerAddress, farm.lat, farm.long, employee.name, date);\n  }\n}",
  "sourcePath": "/home/gordon/projects/blockchain/basic/contracts/FarmManager.sol",
  "compiler": {
    "name": "solc",
    "version": "0.5.8+commit.23d335f2.Emscripten.clang"
  },
  "schemaVersion": "3.0.11",
  "updatedAt": "2020-04-03T10:55:25.418Z",
  "devdoc": {
    "methods": {
      "isOwner()": {
        "details": "Returns true if the caller is the current owner."
      },
      "owner()": {
        "details": "Returns the address of the current owner."
      },
      "renounceOwnership()": {
        "details": "Leaves the contract without owner. It will not be possible to call `onlyOwner` functions anymore. Can only be called by the current owner.     * NOTE: Renouncing ownership will leave the contract without an owner, thereby removing any functionality that is only available to the owner."
      },
      "transferOwnership(address)": {
        "details": "Transfers ownership of the contract to a new account (`newOwner`). Can only be called by the current owner."
      }
    }
  },
  "userdoc": {
    "methods": {}
  }
}