{
  "contractName": "FarmManager",
  "abi": [
    {
      "constant": true,
      "inputs": [
        {
          "name": "",
          "type": "address"
        }
      ],
      "name": "ownersByAddress",
      "outputs": [
        {
          "name": "name",
          "type": "string"
        },
        {
          "name": "ownerAddress",
          "type": "address"
        }
      ],
      "payable": false,
      "stateMutability": "view",
      "type": "function"
    },
    {
      "constant": false,
      "inputs": [],
      "name": "renounceOwnership",
      "outputs": [],
      "payable": false,
      "stateMutability": "nonpayable",
      "type": "function"
    },
    {
      "constant": true,
      "inputs": [
        {
          "name": "",
          "type": "uint256"
        }
      ],
      "name": "farms",
      "outputs": [
        {
          "name": "id",
          "type": "uint256"
        },
        {
          "name": "name",
          "type": "string"
        },
        {
          "name": "lat",
          "type": "int256"
        },
        {
          "name": "long",
          "type": "int256"
        },
        {
          "name": "description",
          "type": "string"
        },
        {
          "name": "ownerAddress",
          "type": "address"
        }
      ],
      "payable": false,
      "stateMutability": "view",
      "type": "function"
    },
    {
      "constant": true,
      "inputs": [],
      "name": "owner",
      "outputs": [
        {
          "name": "",
          "type": "address"
        }
      ],
      "payable": false,
      "stateMutability": "view",
      "type": "function"
    },
    {
      "constant": true,
      "inputs": [],
      "name": "isOwner",
      "outputs": [
        {
          "name": "",
          "type": "bool"
        }
      ],
      "payable": false,
      "stateMutability": "view",
      "type": "function"
    },
    {
      "constant": true,
      "inputs": [
        {
          "name": "",
          "type": "uint256"
        }
      ],
      "name": "farmOwnerList",
      "outputs": [
        {
          "name": "name",
          "type": "string"
        },
        {
          "name": "ownerAddress",
          "type": "address"
        }
      ],
      "payable": false,
      "stateMutability": "view",
      "type": "function"
    },
    {
      "constant": true,
      "inputs": [
        {
          "name": "",
          "type": "uint256"
        }
      ],
      "name": "stores",
      "outputs": [
        {
          "name": "id",
          "type": "uint256"
        },
        {
          "name": "farmId",
          "type": "uint256"
        },
        {
          "name": "name",
          "type": "string"
        },
        {
          "name": "temperature",
          "type": "int256"
        }
      ],
      "payable": false,
      "stateMutability": "view",
      "type": "function"
    },
    {
      "constant": false,
      "inputs": [
        {
          "name": "newOwner",
          "type": "address"
        }
      ],
      "name": "transferOwnership",
      "outputs": [],
      "payable": false,
      "stateMutability": "nonpayable",
      "type": "function"
    },
    {
      "inputs": [],
      "payable": false,
      "stateMutability": "nonpayable",
      "type": "constructor"
    },
    {
      "anonymous": false,
      "inputs": [
        {
          "indexed": false,
          "name": "farmId",
          "type": "uint256"
        },
        {
          "indexed": false,
          "name": "name",
          "type": "string"
        },
        {
          "indexed": false,
          "name": "lat",
          "type": "int256"
        },
        {
          "indexed": false,
          "name": "long",
          "type": "int256"
        },
        {
          "indexed": false,
          "name": "description",
          "type": "string"
        },
        {
          "indexed": false,
          "name": "ownerName",
          "type": "string"
        },
        {
          "indexed": false,
          "name": "ownerAddress",
          "type": "address"
        }
      ],
      "name": "AddedFarm",
      "type": "event"
    },
    {
      "anonymous": false,
      "inputs": [
        {
          "indexed": false,
          "name": "name",
          "type": "string"
        },
        {
          "indexed": false,
          "name": "farmOwner",
          "type": "address"
        }
      ],
      "name": "AddedFarmOwner",
      "type": "event"
    },
    {
      "anonymous": false,
      "inputs": [
        {
          "indexed": false,
          "name": "storeId",
          "type": "uint256"
        },
        {
          "indexed": false,
          "name": "farmId",
          "type": "uint256"
        },
        {
          "indexed": false,
          "name": "name",
          "type": "string"
        },
        {
          "indexed": false,
          "name": "temperature",
          "type": "int256"
        }
      ],
      "name": "AddedStore",
      "type": "event"
    },
    {
      "anonymous": false,
      "inputs": [
        {
          "indexed": true,
          "name": "previousOwner",
          "type": "address"
        },
        {
          "indexed": true,
          "name": "newOwner",
          "type": "address"
        }
      ],
      "name": "OwnershipTransferred",
      "type": "event"
    },
    {
      "constant": false,
      "inputs": [
        {
          "name": "name",
          "type": "string"
        },
        {
          "name": "farmOwner",
          "type": "address"
        }
      ],
      "name": "addFarmOwner",
      "outputs": [],
      "payable": false,
      "stateMutability": "nonpayable",
      "type": "function"
    },
    {
      "constant": true,
      "inputs": [
        {
          "name": "index",
          "type": "uint256"
        }
      ],
      "name": "isFarmOwner",
      "outputs": [
        {
          "name": "",
          "type": "bool"
        }
      ],
      "payable": false,
      "stateMutability": "view",
      "type": "function"
    },
    {
      "constant": true,
      "inputs": [],
      "name": "getFarmOwnerCount",
      "outputs": [
        {
          "name": "",
          "type": "uint256"
        }
      ],
      "payable": false,
      "stateMutability": "view",
      "type": "function"
    },
    {
      "constant": true,
      "inputs": [
        {
          "name": "index",
          "type": "uint256"
        }
      ],
      "name": "getFarmOwner",
      "outputs": [
        {
          "name": "",
          "type": "string"
        },
        {
          "name": "",
          "type": "address"
        }
      ],
      "payable": false,
      "stateMutability": "view",
      "type": "function"
    },
    {
      "constant": false,
      "inputs": [
        {
          "name": "name",
          "type": "string"
        },
        {
          "name": "lat",
          "type": "int256"
        },
        {
          "name": "long",
          "type": "int256"
        },
        {
          "name": "description",
          "type": "string"
        },
        {
          "name": "ownerAddress",
          "type": "address"
        }
      ],
      "name": "addFarm",
      "outputs": [],
      "payable": false,
      "stateMutability": "nonpayable",
      "type": "function"
    },
    {
      "constant": true,
      "inputs": [],
      "name": "getFarmCount",
      "outputs": [
        {
          "name": "",
          "type": "uint256"
        }
      ],
      "payable": false,
      "stateMutability": "view",
      "type": "function"
    },
    {
      "constant": true,
      "inputs": [
        {
          "name": "index",
          "type": "uint256"
        }
      ],
      "name": "getFarm",
      "outputs": [
        {
          "name": "",
          "type": "uint256"
        },
        {
          "name": "",
          "type": "string"
        },
        {
          "name": "",
          "type": "int256"
        },
        {
          "name": "",
          "type": "int256"
        },
        {
          "name": "",
          "type": "string"
        },
        {
          "name": "",
          "type": "string"
        },
        {
          "name": "",
          "type": "address"
        }
      ],
      "payable": false,
      "stateMutability": "view",
      "type": "function"
    },
    {
      "constant": true,
      "inputs": [
        {
          "name": "index",
          "type": "uint256"
        }
      ],
      "name": "getFarmName",
      "outputs": [
        {
          "name": "",
          "type": "string"
        }
      ],
      "payable": false,
      "stateMutability": "view",
      "type": "function"
    },
    {
      "constant": true,
      "inputs": [
        {
          "name": "index",
          "type": "uint256"
        }
      ],
      "name": "getFarmAddress",
      "outputs": [
        {
          "name": "",
          "type": "address"
        }
      ],
      "payable": false,
      "stateMutability": "view",
      "type": "function"
    },
    {
      "constant": false,
      "inputs": [
        {
          "name": "farmId",
          "type": "uint256"
        },
        {
          "name": "name",
          "type": "string"
        },
        {
          "name": "temperature",
          "type": "int256"
        }
      ],
      "name": "addFarmStorage",
      "outputs": [],
      "payable": false,
      "stateMutability": "nonpayable",
      "type": "function"
    },
    {
      "constant": true,
      "inputs": [],
      "name": "getFarmStorageCount",
      "outputs": [
        {
          "name": "",
          "type": "uint256"
        }
      ],
      "payable": false,
      "stateMutability": "view",
      "type": "function"
    },
    {
      "constant": true,
      "inputs": [
        {
          "name": "index",
          "type": "uint256"
        }
      ],
      "name": "getFarmStorage",
      "outputs": [
        {
          "name": "",
          "type": "uint256"
        },
        {
          "name": "",
          "type": "uint256"
        },
        {
          "name": "",
          "type": "string"
        },
        {
          "name": "",
          "type": "int256"
        }
      ],
      "payable": false,
      "stateMutability": "view",
      "type": "function"
    }
  ],
  "bytecode": "0x608060405234801561001057600080fd5b5061001f6100df60201b60201c565b6000806101000a81548173ffffffffffffffffffffffffffffffffffffffff021916908373ffffffffffffffffffffffffffffffffffffffff1602179055506000809054906101000a900473ffffffffffffffffffffffffffffffffffffffff1673ffffffffffffffffffffffffffffffffffffffff16600073ffffffffffffffffffffffffffffffffffffffff167f8be0079c531659141344cd1fd0a4f28419497f9722a3daafe3b4186f6b6457e060405160405180910390a36100e7565b600033905090565b612cb980620000f76000396000f3fe608060405234801561001057600080fd5b506004361061012c5760003560e01c80638f32d59b116100ad578063d9a5ec6a11610071578063d9a5ec6a14610aa8578063e2033fd214610b77578063e897106a14610c52578063e8a59cd814610d0e578063f2fde38b14610dca5761012c565b80638f32d59b146107bd578063b30a2627146107df578063b80f0195146108b9578063bc7aa93314610960578063ce6dfadb14610a3a5761012c565b806372201a9e116100f457806372201a9e14610456578063770835c1146104745780637b4969ee146105fa5780637da470ea146106185780638da5cb5b146107735761012c565b8063353caf4d14610131578063429692a71461022157806353fd88bf1461023f5780636094039c14610406578063715018a61461044c575b600080fd5b6101736004803603602081101561014757600080fd5b81019080803573ffffffffffffffffffffffffffffffffffffffff169060200190929190505050610e0e565b60405180806020018373ffffffffffffffffffffffffffffffffffffffff1673ffffffffffffffffffffffffffffffffffffffff168152602001828103825284818151815260200191508051906020019080838360005b838110156101e55780820151818401526020810190506101ca565b50505050905090810190601f1680156102125780820380516001836020036101000a031916815260200191505b50935050505060405180910390f35b610229610eea565b6040518082815260200191505060405180910390f35b61026b6004803603602081101561025557600080fd5b8101908080359060200190929190505050610ef7565b604051808881526020018060200187815260200186815260200180602001806020018573ffffffffffffffffffffffffffffffffffffffff1673ffffffffffffffffffffffffffffffffffffffff16815260200184810384528a818151815260200191508051906020019080838360005b838110156102f75780820151818401526020810190506102dc565b50505050905090810190601f1680156103245780820380516001836020036101000a031916815260200191505b50848103835287818151815260200191508051906020019080838360005b8381101561035d578082015181840152602081019050610342565b50505050905090810190601f16801561038a5780820380516001836020036101000a031916815260200191505b50848103825286818151815260200191508051906020019080838360005b838110156103c35780820151818401526020810190506103a8565b50505050905090810190601f1680156103f05780820380516001836020036101000a031916815260200191505b509a505050505050505050505060405180910390f35b6104326004803603602081101561041c57600080fd5b8101908080359060200190929190505050611282565b604051808215151515815260200191505060405180910390f35b6104546112f8565b005b61045e611431565b6040518082815260200191505060405180910390f35b6105f8600480360360a081101561048a57600080fd5b81019080803590602001906401000000008111156104a757600080fd5b8201836020820111156104b957600080fd5b803590602001918460018302840111640100000000831117156104db57600080fd5b91908080601f016020809104026020016040519081016040528093929190818152602001838380828437600081840152601f19601f82011690508083019250505050505050919291929080359060200190929190803590602001909291908035906020019064010000000081111561055257600080fd5b82018360208201111561056457600080fd5b8035906020019184600183028401116401000000008311171561058657600080fd5b91908080601f016020809104026020016040519081016040528093929190818152602001838380828437600081840152601f19601f820116905080830192505050505050509192919290803573ffffffffffffffffffffffffffffffffffffffff16906020019092919050505061143e565b005b6106026118f9565b6040518082815260200191505060405180910390f35b6106446004803603602081101561062e57600080fd5b8101908080359060200190929190505050611906565b6040518087815260200180602001868152602001858152602001806020018473ffffffffffffffffffffffffffffffffffffffff1673ffffffffffffffffffffffffffffffffffffffff168152602001838103835288818151815260200191508051906020019080838360005b838110156106cc5780820151818401526020810190506106b1565b50505050905090810190601f1680156106f95780820380516001836020036101000a031916815260200191505b50838103825285818151815260200191508051906020019080838360005b83811015610732578082015181840152602081019050610717565b50505050905090810190601f16801561075f5780820380516001836020036101000a031916815260200191505b509850505050505050505060405180910390f35b61077b611a9f565b604051808273ffffffffffffffffffffffffffffffffffffffff1673ffffffffffffffffffffffffffffffffffffffff16815260200191505060405180910390f35b6107c5611ac8565b604051808215151515815260200191505060405180910390f35b61080b600480360360208110156107f557600080fd5b8101908080359060200190929190505050611b26565b60405180806020018373ffffffffffffffffffffffffffffffffffffffff1673ffffffffffffffffffffffffffffffffffffffff168152602001828103825284818151815260200191508051906020019080838360005b8381101561087d578082015181840152602081019050610862565b50505050905090810190601f1680156108aa5780820380516001836020036101000a031916815260200191505b50935050505060405180910390f35b6108e5600480360360208110156108cf57600080fd5b8101908080359060200190929190505050611c0f565b6040518080602001828103825283818151815260200191508051906020019080838360005b8381101561092557808201518184015260208101905061090a565b50505050905090810190601f1680156109525780820380516001836020036101000a031916815260200191505b509250505060405180910390f35b61098c6004803603602081101561097657600080fd5b8101908080359060200190929190505050611e06565b60405180806020018373ffffffffffffffffffffffffffffffffffffffff1673ffffffffffffffffffffffffffffffffffffffff168152602001828103825284818151815260200191508051906020019080838360005b838110156109fe5780820151818401526020810190506109e3565b50505050905090810190601f168015610a2b5780820380516001836020036101000a031916815260200191505b50935050505060405180910390f35b610a6660048036036020811015610a5057600080fd5b8101908080359060200190929190505050611f49565b604051808273ffffffffffffffffffffffffffffffffffffffff1673ffffffffffffffffffffffffffffffffffffffff16815260200191505060405180910390f35b610b7560048036036060811015610abe57600080fd5b810190808035906020019092919080359060200190640100000000811115610ae557600080fd5b820183602082011115610af757600080fd5b80359060200191846001830284011164010000000083111715610b1957600080fd5b91908080601f016020809104026020016040519081016040528093929190818152602001838380828437600081840152601f19601f82011690508083019250505050505050919291929080359060200190929190505050612140565b005b610c5060048036036040811015610b8d57600080fd5b8101908080359060200190640100000000811115610baa57600080fd5b820183602082011115610bbc57600080fd5b80359060200191846001830284011164010000000083111715610bde57600080fd5b91908080601f016020809104026020016040519081016040528093929190818152602001838380828437600081840152601f19601f820116905080830192505050505050509192919290803573ffffffffffffffffffffffffffffffffffffffff1690602001909291905050506122a2565b005b610c7e60048036036020811015610c6857600080fd5b810190808035906020019092919050505061257e565b6040518085815260200184815260200180602001838152602001828103825284818151815260200191508051906020019080838360005b83811015610cd0578082015181840152602081019050610cb5565b50505050905090810190601f168015610cfd5780820380516001836020036101000a031916815260200191505b509550505050505060405180910390f35b610d3a60048036036020811015610d2457600080fd5b810190808035906020019092919050505061269c565b6040518085815260200184815260200180602001838152602001828103825284818151815260200191508051906020019080838360005b83811015610d8c578082015181840152602081019050610d71565b50505050905090810190601f168015610db95780820380516001836020036101000a031916815260200191505b509550505050505060405180910390f35b610e0c60048036036020811015610de057600080fd5b81019080803573ffffffffffffffffffffffffffffffffffffffff169060200190929190505050612771565b005b6005602052806000526040600020600091509050806000018054600181600116156101000203166002900480601f016020809104026020016040519081016040528092919081815260200182805460018160011615610100020316600290048015610eba5780601f10610e8f57610100808354040283529160200191610eba565b820191906000526020600020905b815481529060010190602001808311610e9d57829003601f168201915b5050505050908060010160009054906101000a900473ffffffffffffffffffffffffffffffffffffffff16905082565b6000600280549050905090565b600060606000806060806000610f0b612afc565b60028981548110610f1857fe5b90600052602060002090600602016040518060c001604052908160008201548152602001600182018054600181600116156101000203166002900480601f016020809104026020016040519081016040528092919081815260200182805460018160011615610100020316600290048015610fd45780601f10610fa957610100808354040283529160200191610fd4565b820191906000526020600020905b815481529060010190602001808311610fb757829003601f168201915b505050505081526020016002820154815260200160038201548152602001600482018054600181600116156101000203166002900480601f01602080910402602001604051908101604052809291908181526020018280546001816001161561010002031660029004801561108a5780601f1061105f5761010080835404028352916020019161108a565b820191906000526020600020905b81548152906001019060200180831161106d57829003601f168201915b505050505081526020016005820160009054906101000a900473ffffffffffffffffffffffffffffffffffffffff1673ffffffffffffffffffffffffffffffffffffffff1673ffffffffffffffffffffffffffffffffffffffff168152505090506110f3612b48565b600560008360a0015173ffffffffffffffffffffffffffffffffffffffff1673ffffffffffffffffffffffffffffffffffffffff168152602001908152602001600020604051806040016040529081600082018054600181600116156101000203166002900480601f0160208091040260200160405190810160405280929190818152602001828054600181600116156101000203166002900480156111da5780601f106111af576101008083540402835291602001916111da565b820191906000526020600020905b8154815290600101906020018083116111bd57829003601f168201915b505050505081526020016001820160009054906101000a900473ffffffffffffffffffffffffffffffffffffffff1673ffffffffffffffffffffffffffffffffffffffff1673ffffffffffffffffffffffffffffffffffffffff168152505090508160000151826020015183604001518460600151856080015185600001518760a0015185955082925081915098509850985098509850985098505050919395979092949650565b60003373ffffffffffffffffffffffffffffffffffffffff16600283815481106112a857fe5b906000526020600020906006020160050160009054906101000a900473ffffffffffffffffffffffffffffffffffffffff1673ffffffffffffffffffffffffffffffffffffffff16149050919050565b611300611ac8565b611372576040517f08c379a00000000000000000000000000000000000000000000000000000000081526004018080602001828103825260208152602001807f4f776e61626c653a2063616c6c6572206973206e6f7420746865206f776e657281525060200191505060405180910390fd5b600073ffffffffffffffffffffffffffffffffffffffff166000809054906101000a900473ffffffffffffffffffffffffffffffffffffffff1673ffffffffffffffffffffffffffffffffffffffff167f8be0079c531659141344cd1fd0a4f28419497f9722a3daafe3b4186f6b6457e060405160405180910390a360008060006101000a81548173ffffffffffffffffffffffffffffffffffffffff021916908373ffffffffffffffffffffffffffffffffffffffff160217905550565b6000600380549050905090565b611446611ac8565b6114b8576040517f08c379a00000000000000000000000000000000000000000000000000000000081526004018080602001828103825260208152602001807f4f776e61626c653a2063616c6c6572206973206e6f7420746865206f776e657281525060200191505060405180910390fd5b6114c0612afc565b6040518060c0016040528060028054905081526020018781526020018681526020018581526020018481526020018373ffffffffffffffffffffffffffffffffffffffff1681525090506002819080600181540180825580915050906001820390600052602060002090600602016000909192909190915060008201518160000155602082015181600101908051906020019061155e929190612b78565b506040820151816002015560608201518160030155608082015181600401908051906020019061158f929190612b78565b5060a08201518160050160006101000a81548173ffffffffffffffffffffffffffffffffffffffff021916908373ffffffffffffffffffffffffffffffffffffffff1602179055505050506115e2612b48565b600560008473ffffffffffffffffffffffffffffffffffffffff1673ffffffffffffffffffffffffffffffffffffffff168152602001908152602001600020604051806040016040529081600082018054600181600116156101000203166002900480601f0160208091040260200160405190810160405280929190818152602001828054600181600116156101000203166002900480156116c55780601f1061169a576101008083540402835291602001916116c5565b820191906000526020600020905b8154815290600101906020018083116116a857829003601f168201915b505050505081526020016001820160009054906101000a900473ffffffffffffffffffffffffffffffffffffffff1673ffffffffffffffffffffffffffffffffffffffff1673ffffffffffffffffffffffffffffffffffffffff168152505090507f3e7672930642c1d29da74a605929d14f3502682dfcbb5181ffbbbf2c6f0a94a3826000015188888888866000015189604051808881526020018060200187815260200186815260200180602001806020018573ffffffffffffffffffffffffffffffffffffffff1673ffffffffffffffffffffffffffffffffffffffff16815260200184810384528a818151815260200191508051906020019080838360005b838110156117e25780820151818401526020810190506117c7565b50505050905090810190601f16801561180f5780820380516001836020036101000a031916815260200191505b50848103835287818151815260200191508051906020019080838360005b8381101561184857808201518184015260208101905061182d565b50505050905090810190601f1680156118755780820380516001836020036101000a031916815260200191505b50848103825286818151815260200191508051906020019080838360005b838110156118ae578082015181840152602081019050611893565b50505050905090810190601f1680156118db5780820380516001836020036101000a031916815260200191505b509a505050505050505050505060405180910390a150505050505050565b6000600480549050905090565b6002818154811061191357fe5b9060005260206000209060060201600091509050806000015490806001018054600181600116156101000203166002900480601f0160208091040260200160405190810160405280929190818152602001828054600181600116156101000203166002900480156119c55780601f1061199a576101008083540402835291602001916119c5565b820191906000526020600020905b8154815290600101906020018083116119a857829003601f168201915b505050505090806002015490806003015490806004018054600181600116156101000203166002900480601f016020809104026020016040519081016040528092919081815260200182805460018160011615610100020316600290048015611a6f5780601f10611a4457610100808354040283529160200191611a6f565b820191906000526020600020905b815481529060010190602001808311611a5257829003601f168201915b5050505050908060050160009054906101000a900473ffffffffffffffffffffffffffffffffffffffff16905086565b60008060009054906101000a900473ffffffffffffffffffffffffffffffffffffffff16905090565b60008060009054906101000a900473ffffffffffffffffffffffffffffffffffffffff1673ffffffffffffffffffffffffffffffffffffffff16611b0a6127f7565b73ffffffffffffffffffffffffffffffffffffffff1614905090565b60038181548110611b3357fe5b9060005260206000209060020201600091509050806000018054600181600116156101000203166002900480601f016020809104026020016040519081016040528092919081815260200182805460018160011615610100020316600290048015611bdf5780601f10611bb457610100808354040283529160200191611bdf565b820191906000526020600020905b815481529060010190602001808311611bc257829003601f168201915b5050505050908060010160009054906101000a900473ffffffffffffffffffffffffffffffffffffffff16905082565b6060611c19612afc565b60028381548110611c2657fe5b90600052602060002090600602016040518060c001604052908160008201548152602001600182018054600181600116156101000203166002900480601f016020809104026020016040519081016040528092919081815260200182805460018160011615610100020316600290048015611ce25780601f10611cb757610100808354040283529160200191611ce2565b820191906000526020600020905b815481529060010190602001808311611cc557829003601f168201915b505050505081526020016002820154815260200160038201548152602001600482018054600181600116156101000203166002900480601f016020809104026020016040519081016040528092919081815260200182805460018160011615610100020316600290048015611d985780601f10611d6d57610100808354040283529160200191611d98565b820191906000526020600020905b815481529060010190602001808311611d7b57829003601f168201915b505050505081526020016005820160009054906101000a900473ffffffffffffffffffffffffffffffffffffffff1673ffffffffffffffffffffffffffffffffffffffff1673ffffffffffffffffffffffffffffffffffffffff168152505090508060200151915050919050565b60606000611e12612b48565b60038481548110611e1f57fe5b9060005260206000209060020201604051806040016040529081600082018054600181600116156101000203166002900480601f016020809104026020016040519081016040528092919081815260200182805460018160011615610100020316600290048015611ed15780601f10611ea657610100808354040283529160200191611ed1565b820191906000526020600020905b815481529060010190602001808311611eb457829003601f168201915b505050505081526020016001820160009054906101000a900473ffffffffffffffffffffffffffffffffffffffff1673ffffffffffffffffffffffffffffffffffffffff1673ffffffffffffffffffffffffffffffffffffffff16815250509050806000015181602001518191509250925050915091565b6000611f53612afc565b60028381548110611f6057fe5b90600052602060002090600602016040518060c001604052908160008201548152602001600182018054600181600116156101000203166002900480601f01602080910402602001604051908101604052809291908181526020018280546001816001161561010002031660029004801561201c5780601f10611ff15761010080835404028352916020019161201c565b820191906000526020600020905b815481529060010190602001808311611fff57829003601f168201915b505050505081526020016002820154815260200160038201548152602001600482018054600181600116156101000203166002900480601f0160208091040260200160405190810160405280929190818152602001828054600181600116156101000203166002900480156120d25780601f106120a7576101008083540402835291602001916120d2565b820191906000526020600020905b8154815290600101906020018083116120b557829003601f168201915b505050505081526020016005820160009054906101000a900473ffffffffffffffffffffffffffffffffffffffff1673ffffffffffffffffffffffffffffffffffffffff1673ffffffffffffffffffffffffffffffffffffffff168152505090508060a00151915050919050565b612148612bf8565b6040518060800160405280600480549050815260200185815260200184815260200183815250905060048190806001815401808255809150509060018203906000526020600020906004020160009091929091909150600082015181600001556020820151816001015560408201518160020190805190602001906121ce929190612b78565b50606082015181600301555050507f4190789434adf076d190eb85845559980301bbea8c12c6f3914e6bbcbdaf3938816000015182602001518584606001516040518085815260200184815260200180602001838152602001828103825284818151815260200191508051906020019080838360005b8381101561225f578082015181840152602081019050612244565b50505050905090810190601f16801561228c5780820380516001836020036101000a031916815260200191505b509550505050505060405180910390a150505050565b6122aa611ac8565b61231c576040517f08c379a00000000000000000000000000000000000000000000000000000000081526004018080602001828103825260208152602001807f4f776e61626c653a2063616c6c6572206973206e6f7420746865206f776e657281525060200191505060405180910390fd5b6123308160016127ff90919063ffffffff16565b612338612b48565b60405180604001604052808481526020018373ffffffffffffffffffffffffffffffffffffffff1681525090506003819080600181540180825580915050906001820390600052602060002090600202016000909192909190915060008201518160000190805190602001906123af929190612b78565b5060208201518160010160006101000a81548173ffffffffffffffffffffffffffffffffffffffff021916908373ffffffffffffffffffffffffffffffffffffffff16021790555050505080600560008473ffffffffffffffffffffffffffffffffffffffff1673ffffffffffffffffffffffffffffffffffffffff1681526020019081526020016000206000820151816000019080519060200190612456929190612b78565b5060208201518160010160006101000a81548173ffffffffffffffffffffffffffffffffffffffff021916908373ffffffffffffffffffffffffffffffffffffffff1602179055509050507f1019884191f1911c9d6a29d86255f39fd3a37e10528950c8ad926d2438bc234b8160000151826020015160405180806020018373ffffffffffffffffffffffffffffffffffffffff1673ffffffffffffffffffffffffffffffffffffffff168152602001828103825284818151815260200191508051906020019080838360005b8381101561253e578082015181840152602081019050612523565b50505050905090810190601f16801561256b5780820380516001836020036101000a031916815260200191505b50935050505060405180910390a1505050565b6000806060600061258d612bf8565b6004868154811061259a57fe5b90600052602060002090600402016040518060800160405290816000820154815260200160018201548152602001600282018054600181600116156101000203166002900480601f0160208091040260200160405190810160405280929190818152602001828054600181600116156101000203166002900480156126605780601f1061263557610100808354040283529160200191612660565b820191906000526020600020905b81548152906001019060200180831161264357829003601f168201915b50505050508152602001600382015481525050905080600001518160200151826040015183606001518191509450945094509450509193509193565b600481815481106126a957fe5b9060005260206000209060040201600091509050806000015490806001015490806002018054600181600116156101000203166002900480601f0160208091040260200160405190810160405280929190818152602001828054600181600116156101000203166002900480156127615780601f1061273657610100808354040283529160200191612761565b820191906000526020600020905b81548152906001019060200180831161274457829003601f168201915b5050505050908060030154905084565b612779611ac8565b6127eb576040517f08c379a00000000000000000000000000000000000000000000000000000000081526004018080602001828103825260208152602001807f4f776e61626c653a2063616c6c6572206973206e6f7420746865206f776e657281525060200191505060405180910390fd5b6127f4816128da565b50565b600033905090565b6128098282612a1e565b1561287c576040517f08c379a000000000000000000000000000000000000000000000000000000000815260040180806020018281038252601f8152602001807f526f6c65733a206163636f756e7420616c72656164792068617320726f6c650081525060200191505060405180910390fd5b60018260000160008373ffffffffffffffffffffffffffffffffffffffff1673ffffffffffffffffffffffffffffffffffffffff16815260200190815260200160002060006101000a81548160ff0219169083151502179055505050565b600073ffffffffffffffffffffffffffffffffffffffff168173ffffffffffffffffffffffffffffffffffffffff161415612960576040517f08c379a0000000000000000000000000000000000000000000000000000000008152600401808060200182810382526026815260200180612c466026913960400191505060405180910390fd5b8073ffffffffffffffffffffffffffffffffffffffff166000809054906101000a900473ffffffffffffffffffffffffffffffffffffffff1673ffffffffffffffffffffffffffffffffffffffff167f8be0079c531659141344cd1fd0a4f28419497f9722a3daafe3b4186f6b6457e060405160405180910390a3806000806101000a81548173ffffffffffffffffffffffffffffffffffffffff021916908373ffffffffffffffffffffffffffffffffffffffff16021790555050565b60008073ffffffffffffffffffffffffffffffffffffffff168273ffffffffffffffffffffffffffffffffffffffff161415612aa5576040517f08c379a0000000000000000000000000000000000000000000000000000000008152600401808060200182810382526022815260200180612c6c6022913960400191505060405180910390fd5b8260000160008373ffffffffffffffffffffffffffffffffffffffff1673ffffffffffffffffffffffffffffffffffffffff16815260200190815260200160002060009054906101000a900460ff16905092915050565b6040518060c001604052806000815260200160608152602001600081526020016000815260200160608152602001600073ffffffffffffffffffffffffffffffffffffffff1681525090565b604051806040016040528060608152602001600073ffffffffffffffffffffffffffffffffffffffff1681525090565b828054600181600116156101000203166002900490600052602060002090601f016020900481019282601f10612bb957805160ff1916838001178555612be7565b82800160010185558215612be7579182015b82811115612be6578251825591602001919060010190612bcb565b5b509050612bf49190612c20565b5090565b6040518060800160405280600081526020016000815260200160608152602001600081525090565b612c4291905b80821115612c3e576000816000905550600101612c26565b5090565b9056fe4f776e61626c653a206e6577206f776e657220697320746865207a65726f2061646472657373526f6c65733a206163636f756e7420697320746865207a65726f2061646472657373a165627a7a7230582030f9e9b00c41aabce59c73fbad609fe758a7985a1a908880b064f40db92565500029",
  "source": "pragma solidity  > 0.5.0;\n\nimport \"../node_modules/openzeppelin-solidity/contracts/access/Roles.sol\";\nimport \"../node_modules/openzeppelin-solidity/contracts/ownership/Ownable.sol\";\nimport \"./SupplyDataTypes.sol\";\n\ncontract FarmManager is Ownable {\n  using Roles for Roles.Role;\n\n  Roles.Role private farmOwners;\n\n  struct FarmStorage {\n    uint id;\n    uint farmId;\n    string name;\n    int temperature;\n  }\n\n  SupplyDataTypes.Farm[] public farms;\n  SupplyDataTypes.Owner[] public farmOwnerList;\n  FarmStorage[] public stores;\n  mapping(address => SupplyDataTypes.Owner) public ownersByAddress;\n\n  event AddedFarm(uint farmId, string name, int lat, int long, string description, string ownerName, address ownerAddress);\n  event AddedFarmOwner(string name, address farmOwner);\n  event AddedStore(uint storeId, uint farmId, string name, int temperature);\n\n  constructor() public {\n  }\n\n  function addFarmOwner(string memory name, address farmOwner) public onlyOwner {\n    farmOwners.add(farmOwner);\n    SupplyDataTypes.Owner memory owner = SupplyDataTypes.Owner(name, farmOwner);\n    farmOwnerList.push(owner);\n    ownersByAddress[farmOwner] = owner;\n    emit AddedFarmOwner(owner.name, owner.ownerAddress);\n  }\n\n  function isFarmOwner(uint index) public view returns(bool) {\n    return farms[index].ownerAddress == msg.sender;\n  }\n\n  function getFarmOwnerCount() public view returns(uint) {\n    return farmOwnerList.length;\n  }\n\n  function getFarmOwner(uint index) public view returns(string memory, address) {\n    SupplyDataTypes.Owner memory owner = farmOwnerList[index];\n    return (owner.name, owner.ownerAddress);\n  }\n\n  function addFarm(string memory name, int lat, int long, string memory description, address ownerAddress) public onlyOwner {\n    SupplyDataTypes.Farm memory farm = SupplyDataTypes.Farm(farms.length, name, lat, long, description, ownerAddress);\n    farms.push(farm);\n    SupplyDataTypes.Owner memory owner = ownersByAddress[ownerAddress];\n    emit AddedFarm(farm.id, name, lat, long, description, owner.name, ownerAddress);\n  }\n\n  function getFarmCount() public view returns(uint) {\n    return farms.length;\n  }\n\n  function getFarm(uint index) public view returns(uint, string memory, int, int, string memory, string memory, address) {\n    SupplyDataTypes.Farm memory farm = farms[index];\n    SupplyDataTypes.Owner memory owner = ownersByAddress[farm.ownerAddress];\n    return (farm.id, farm.name, farm.lat, farm.long, farm.description, owner.name, farm.ownerAddress);\n  }\n\n  function getFarmName(uint index) public view returns(string memory) {\n    SupplyDataTypes.Farm memory farm = farms[index];\n    return (farm.name);\n  }\n\n  function getFarmAddress(uint index) public view returns(address) {\n    SupplyDataTypes.Farm memory farm = farms[index];\n    return (farm.ownerAddress);\n  }\n\n  function addFarmStorage(uint farmId, string memory name, int temperature) public {\n    FarmStorage memory store = FarmStorage(stores.length, farmId, name, temperature);\n    stores.push(store);\n    emit AddedStore(store.id, store.farmId, name, store.temperature);\n  }\n\n  function getFarmStorageCount() public view returns(uint) {\n    return stores.length;\n  }\n\n  function getFarmStorage(uint index) public view returns(uint, uint, string memory, int) {\n    FarmStorage memory store = stores[index];\n    return (store.id, store.farmId, store.name, store.temperature);\n  }\n}",
  "sourcePath": "/home/gordon/projects/blockchain/basic/contracts/FarmManager.sol",
  "compiler": {
    "name": "solc",
    "version": "0.5.8+commit.23d335f2.Emscripten.clang"
  },
  "schemaVersion": "3.0.11",
  "updatedAt": "2020-04-03T05:51:44.182Z",
  "devdoc": {
    "methods": {
      "isOwner()": {
        "details": "Returns true if the caller is the current owner."
      },
      "owner()": {
        "details": "Returns the address of the current owner."
      },
      "renounceOwnership()": {
        "details": "Leaves the contract without owner. It will not be possible to call `onlyOwner` functions anymore. Can only be called by the current owner.     * NOTE: Renouncing ownership will leave the contract without an owner, thereby removing any functionality that is only available to the owner."
      },
      "transferOwnership(address)": {
        "details": "Transfers ownership of the contract to a new account (`newOwner`). Can only be called by the current owner."
      }
    }
  },
  "userdoc": {
    "methods": {}
  }
}