{
  "contractName": "OrderManager",
  "abi": [
    {
      "constant": false,
      "inputs": [],
      "name": "renounceOwnership",
      "outputs": [],
      "payable": false,
      "stateMutability": "nonpayable",
      "type": "function"
    },
    {
      "constant": true,
      "inputs": [],
      "name": "owner",
      "outputs": [
        {
          "name": "",
          "type": "address"
        }
      ],
      "payable": false,
      "stateMutability": "view",
      "type": "function"
    },
    {
      "constant": true,
      "inputs": [],
      "name": "isOwner",
      "outputs": [
        {
          "name": "",
          "type": "bool"
        }
      ],
      "payable": false,
      "stateMutability": "view",
      "type": "function"
    },
    {
      "constant": true,
      "inputs": [
        {
          "name": "",
          "type": "uint256"
        }
      ],
      "name": "orders",
      "outputs": [
        {
          "name": "orderId",
          "type": "uint256"
        },
        {
          "name": "nurseryId",
          "type": "uint256"
        },
        {
          "name": "farmId",
          "type": "uint256"
        },
        {
          "name": "quantity",
          "type": "uint256"
        },
        {
          "name": "state",
          "type": "uint8"
        },
        {
          "name": "updated",
          "type": "uint256"
        }
      ],
      "payable": false,
      "stateMutability": "view",
      "type": "function"
    },
    {
      "constant": false,
      "inputs": [
        {
          "name": "newOwner",
          "type": "address"
        }
      ],
      "name": "transferOwnership",
      "outputs": [],
      "payable": false,
      "stateMutability": "nonpayable",
      "type": "function"
    },
    {
      "inputs": [
        {
          "name": "nurseryManagerAddress",
          "type": "address"
        },
        {
          "name": "farmManagerAddress",
          "type": "address"
        },
        {
          "name": "supplyAddress",
          "type": "address"
        }
      ],
      "payable": false,
      "stateMutability": "nonpayable",
      "type": "constructor"
    },
    {
      "anonymous": false,
      "inputs": [
        {
          "indexed": false,
          "name": "orderId",
          "type": "uint256"
        },
        {
          "indexed": false,
          "name": "nurseryName",
          "type": "string"
        },
        {
          "indexed": false,
          "name": "farmName",
          "type": "string"
        },
        {
          "indexed": false,
          "name": "plantIds",
          "type": "uint256"
        },
        {
          "indexed": false,
          "name": "state",
          "type": "uint8"
        },
        {
          "indexed": false,
          "name": "placedDate",
          "type": "uint256"
        }
      ],
      "name": "OrderPlaced",
      "type": "event"
    },
    {
      "anonymous": false,
      "inputs": [
        {
          "indexed": false,
          "name": "orderId",
          "type": "uint256"
        },
        {
          "indexed": false,
          "name": "nurseryName",
          "type": "string"
        },
        {
          "indexed": false,
          "name": "farmName",
          "type": "string"
        },
        {
          "indexed": false,
          "name": "plantIds",
          "type": "uint256"
        },
        {
          "indexed": false,
          "name": "state",
          "type": "uint8"
        },
        {
          "indexed": false,
          "name": "dispatchedDate",
          "type": "uint256"
        }
      ],
      "name": "OrderDispatched",
      "type": "event"
    },
    {
      "anonymous": false,
      "inputs": [
        {
          "indexed": false,
          "name": "orderId",
          "type": "uint256"
        },
        {
          "indexed": false,
          "name": "nurseryName",
          "type": "string"
        },
        {
          "indexed": false,
          "name": "farmName",
          "type": "string"
        },
        {
          "indexed": false,
          "name": "plantIds",
          "type": "uint256"
        },
        {
          "indexed": false,
          "name": "state",
          "type": "uint8"
        },
        {
          "indexed": false,
          "name": "receivedDate",
          "type": "uint256"
        }
      ],
      "name": "OrderReceived",
      "type": "event"
    },
    {
      "anonymous": false,
      "inputs": [
        {
          "indexed": true,
          "name": "previousOwner",
          "type": "address"
        },
        {
          "indexed": true,
          "name": "newOwner",
          "type": "address"
        }
      ],
      "name": "OwnershipTransferred",
      "type": "event"
    },
    {
      "constant": true,
      "inputs": [],
      "name": "getOrderCount",
      "outputs": [
        {
          "name": "",
          "type": "uint256"
        }
      ],
      "payable": false,
      "stateMutability": "view",
      "type": "function"
    },
    {
      "constant": true,
      "inputs": [
        {
          "name": "index",
          "type": "uint256"
        }
      ],
      "name": "getOrder",
      "outputs": [
        {
          "name": "",
          "type": "uint256"
        },
        {
          "name": "",
          "type": "string"
        },
        {
          "name": "",
          "type": "string"
        },
        {
          "name": "",
          "type": "uint256"
        },
        {
          "name": "",
          "type": "uint8"
        },
        {
          "name": "",
          "type": "uint256"
        }
      ],
      "payable": false,
      "stateMutability": "view",
      "type": "function"
    },
    {
      "constant": false,
      "inputs": [
        {
          "name": "quantity",
          "type": "uint256"
        },
        {
          "name": "nurseryId",
          "type": "uint256"
        },
        {
          "name": "farmId",
          "type": "uint256"
        },
        {
          "name": "purchaseDate",
          "type": "uint256"
        }
      ],
      "name": "orderPlants",
      "outputs": [],
      "payable": false,
      "stateMutability": "nonpayable",
      "type": "function"
    },
    {
      "constant": false,
      "inputs": [
        {
          "name": "orderId",
          "type": "uint256"
        },
        {
          "name": "plantIds",
          "type": "uint256[]"
        },
        {
          "name": "dispatchedDate",
          "type": "uint256"
        },
        {
          "name": "farmName",
          "type": "string"
        },
        {
          "name": "nurseryName",
          "type": "string"
        },
        {
          "name": "lat",
          "type": "int256"
        },
        {
          "name": "long",
          "type": "int256"
        }
      ],
      "name": "dispatchOrder",
      "outputs": [],
      "payable": false,
      "stateMutability": "nonpayable",
      "type": "function"
    },
    {
      "constant": false,
      "inputs": [
        {
          "name": "orderId",
          "type": "uint256"
        },
        {
          "name": "receivedDate",
          "type": "uint256"
        }
      ],
      "name": "receiveOrder",
      "outputs": [],
      "payable": false,
      "stateMutability": "nonpayable",
      "type": "function"
    }
  ],
  "bytecode": "0x608060405234801561001057600080fd5b50604051606080611de28339810180604052606081101561003057600080fd5b810190808051906020019092919080519060200190929190805190602001909291905050506100636101e960201b60201c565b6000806101000a81548173ffffffffffffffffffffffffffffffffffffffff021916908373ffffffffffffffffffffffffffffffffffffffff1602179055506000809054906101000a900473ffffffffffffffffffffffffffffffffffffffff1673ffffffffffffffffffffffffffffffffffffffff16600073ffffffffffffffffffffffffffffffffffffffff167f8be0079c531659141344cd1fd0a4f28419497f9722a3daafe3b4186f6b6457e060405160405180910390a382600160006101000a81548173ffffffffffffffffffffffffffffffffffffffff021916908373ffffffffffffffffffffffffffffffffffffffff16021790555081600260006101000a81548173ffffffffffffffffffffffffffffffffffffffff021916908373ffffffffffffffffffffffffffffffffffffffff16021790555080600360006101000a81548173ffffffffffffffffffffffffffffffffffffffff021916908373ffffffffffffffffffffffffffffffffffffffff1602179055505050506101f1565b600033905090565b611be2806102006000396000f3fe608060405234801561001057600080fd5b506004361061009e5760003560e01c8063a85c38ef11610066578063a85c38ef14610345578063cec73560146103b8578063d09ef24114610404578063f2fde38b14610541578063f3ba7187146105855761009e565b8063715018a6146100a35780637dd24e92146100ad5780638d0a5fbb146102bb5780638da5cb5b146102d95780638f32d59b14610323575b600080fd5b6100ab6105bd565b005b6102b9600480360360e08110156100c357600080fd5b8101908080359060200190929190803590602001906401000000008111156100ea57600080fd5b8201836020820111156100fc57600080fd5b8035906020019184602083028401116401000000008311171561011e57600080fd5b919080806020026020016040519081016040528093929190818152602001838360200280828437600081840152601f19601f820116905080830192505050505050509192919290803590602001909291908035906020019064010000000081111561018857600080fd5b82018360208201111561019a57600080fd5b803590602001918460018302840111640100000000831117156101bc57600080fd5b91908080601f016020809104026020016040519081016040528093929190818152602001838380828437600081840152601f19601f8201169050808301925050505050505091929192908035906020019064010000000081111561021f57600080fd5b82018360208201111561023157600080fd5b8035906020019184600183028401116401000000008311171561025357600080fd5b91908080601f016020809104026020016040519081016040528093929190818152602001838380828437600081840152601f19601f82011690508083019250505050505050919291929080359060200190929190803590602001909291905050506106f6565b005b6102c3610a8e565b6040518082815260200191505060405180910390f35b6102e1610a9b565b604051808273ffffffffffffffffffffffffffffffffffffffff1673ffffffffffffffffffffffffffffffffffffffff16815260200191505060405180910390f35b61032b610ac4565b604051808215151515815260200191505060405180910390f35b6103716004803603602081101561035b57600080fd5b8101908080359060200190929190505050610b22565b6040518087815260200186815260200185815260200184815260200183600281111561039957fe5b60ff168152602001828152602001965050505050505060405180910390f35b610402600480360360808110156103ce57600080fd5b8101908080359060200190929190803590602001909291908035906020019092919080359060200190929190505050610b78565b005b6104306004803603602081101561041a57600080fd5b8101908080359060200190929190505050610fff565b60405180878152602001806020018060200186815260200185600281111561045457fe5b60ff168152602001848152602001838103835288818151815260200191508051906020019080838360005b8381101561049a57808201518184015260208101905061047f565b50505050905090810190601f1680156104c75780820380516001836020036101000a031916815260200191505b50838103825287818151815260200191508051906020019080838360005b838110156105005780820151818401526020810190506104e5565b50505050905090810190601f16801561052d5780820380516001836020036101000a031916815260200191505b509850505050505050505060405180910390f35b6105836004803603602081101561055757600080fd5b81019080803573ffffffffffffffffffffffffffffffffffffffff169060200190929190505050611336565b005b6105bb6004803603604081101561059b57600080fd5b8101908080359060200190929190803590602001909291905050506113bc565b005b6105c5610ac4565b610637576040517f08c379a00000000000000000000000000000000000000000000000000000000081526004018080602001828103825260208152602001807f4f776e61626c653a2063616c6c6572206973206e6f7420746865206f776e657281525060200191505060405180910390fd5b600073ffffffffffffffffffffffffffffffffffffffff166000809054906101000a900473ffffffffffffffffffffffffffffffffffffffff1673ffffffffffffffffffffffffffffffffffffffff167f8be0079c531659141344cd1fd0a4f28419497f9722a3daafe3b4186f6b6457e060405160405180910390a360008060006101000a81548173ffffffffffffffffffffffffffffffffffffffff021916908373ffffffffffffffffffffffffffffffffffffffff160217905550565b60006004888154811061070557fe5b9060005260206000209060070201905060018160050160006101000a81548160ff0219169083600281111561073657fe5b02179055508581600601819055508681600401908051906020019061075c929190611a89565b507fb51299e0a17abb6cb181a14b3d2e1008fc8a9d497e011441f1b50576ad71d6498160000154858784600301548560050160009054906101000a900460ff1686600601546040518087815260200180602001806020018681526020018560028111156107c557fe5b60ff168152602001848152602001838103835288818151815260200191508051906020019080838360005b8381101561080b5780820151818401526020810190506107f0565b50505050905090810190601f1680156108385780820380516001836020036101000a031916815260200191505b50838103825287818151815260200191508051906020019080838360005b83811015610871578082015181840152602081019050610856565b50505050905090810190601f16801561089e5780820380516001836020036101000a031916815260200191505b509850505050505050505060405180910390a160008090505b8751811015610a8357600360009054906101000a900473ffffffffffffffffffffffffffffffffffffffff1673ffffffffffffffffffffffffffffffffffffffff166386d6a0f389838151811061090a57fe5b6020026020010151846000015485600101548987600201548c8e8c8c6040518a63ffffffff1660e01b8152600401808a81526020018981526020018881526020018060200187815260200180602001868152602001858152602001848152602001838103835289818151815260200191508051906020019080838360005b838110156109a3578082015181840152602081019050610988565b50505050905090810190601f1680156109d05780820380516001836020036101000a031916815260200191505b50838103825287818151815260200191508051906020019080838360005b83811015610a095780820151818401526020810190506109ee565b50505050905090810190601f168015610a365780820380516001836020036101000a031916815260200191505b509b505050505050505050505050600060405180830381600087803b158015610a5e57600080fd5b505af1158015610a72573d6000803e3d6000fd5b5050505080806001019150506108b7565b505050505050505050565b6000600480549050905090565b60008060009054906101000a900473ffffffffffffffffffffffffffffffffffffffff16905090565b60008060009054906101000a900473ffffffffffffffffffffffffffffffffffffffff1673ffffffffffffffffffffffffffffffffffffffff16610b0661193d565b73ffffffffffffffffffffffffffffffffffffffff1614905090565b60048181548110610b2f57fe5b90600052602060002090600702016000915090508060000154908060010154908060020154908060030154908060050160009054906101000a900460ff16908060060154905086565b60006004805490509050606085604051908082528060200260200182016040528015610bb35781602001602082028038833980820191505090505b509050610bbe611ad6565b6040518060e0016040528084815260200187815260200186815260200188815260200183815260200160006002811115610bf457fe5b81526020018581525090506060600260009054906101000a900473ffffffffffffffffffffffffffffffffffffffff1673ffffffffffffffffffffffffffffffffffffffff1663b80f0195876040518263ffffffff1660e01b81526004018082815260200191505060006040518083038186803b158015610c7457600080fd5b505afa158015610c88573d6000803e3d6000fd5b505050506040513d6000823e3d601f19601f820116820180604052506020811015610cb257600080fd5b810190808051640100000000811115610cca57600080fd5b82810190506020810184811115610ce057600080fd5b8151856001820283011164010000000082111715610cfd57600080fd5b505092919050505090506060600160009054906101000a900473ffffffffffffffffffffffffffffffffffffffff1673ffffffffffffffffffffffffffffffffffffffff16633a72684e84602001516040518263ffffffff1660e01b81526004018082815260200191505060006040518083038186803b158015610d8057600080fd5b505afa158015610d94573d6000803e3d6000fd5b505050506040513d6000823e3d601f19601f820116820180604052506020811015610dbe57600080fd5b810190808051640100000000811115610dd657600080fd5b82810190506020810184811115610dec57600080fd5b8151856001820283011164010000000082111715610e0957600080fd5b505092919050505090507fcd5297d64fcae10e03c651177b65a53fc56dca7868826358e9a4a593e14c0c428582848c60008b604051808781526020018060200180602001868152602001856002811115610e5f57fe5b60ff168152602001848152602001838103835288818151815260200191508051906020019080838360005b83811015610ea5578082015181840152602081019050610e8a565b50505050905090810190601f168015610ed25780820380516001836020036101000a031916815260200191505b50838103825287818151815260200191508051906020019080838360005b83811015610f0b578082015181840152602081019050610ef0565b50505050905090810190601f168015610f385780820380516001836020036101000a031916815260200191505b509850505050505050505060405180910390a160048390806001815401808255809150509060018203906000526020600020906007020160009091929091909150600082015181600001556020820151816001015560408201518160020155606082015181600301556080820151816004019080519060200190610fbd929190611b1e565b5060a08201518160050160006101000a81548160ff02191690836002811115610fe257fe5b021790555060c08201518160060155505050505050505050505050565b60006060806000806000611011611ad6565b6004888154811061101e57fe5b90600052602060002090600702016040518060e001604052908160008201548152602001600182015481526020016002820154815260200160038201548152602001600482018054806020026020016040519081016040528092919081815260200182805480156110ae57602002820191906000526020600020905b81548152602001906001019080831161109a575b505050505081526020016005820160009054906101000a900460ff1660028111156110d557fe5b60028111156110e057fe5b815260200160068201548152505090506060600160009054906101000a900473ffffffffffffffffffffffffffffffffffffffff1673ffffffffffffffffffffffffffffffffffffffff16633a72684e83602001516040518263ffffffff1660e01b81526004018082815260200191505060006040518083038186803b15801561116957600080fd5b505afa15801561117d573d6000803e3d6000fd5b505050506040513d6000823e3d601f19601f8201168201806040525060208110156111a757600080fd5b8101908080516401000000008111156111bf57600080fd5b828101905060208101848111156111d557600080fd5b81518560018202830111640100000000821117156111f257600080fd5b505092919050505090506060600260009054906101000a900473ffffffffffffffffffffffffffffffffffffffff1673ffffffffffffffffffffffffffffffffffffffff1663b80f019584604001516040518263ffffffff1660e01b81526004018082815260200191505060006040518083038186803b15801561127557600080fd5b505afa158015611289573d6000803e3d6000fd5b505050506040513d6000823e3d601f19601f8201168201806040525060208110156112b357600080fd5b8101908080516401000000008111156112cb57600080fd5b828101905060208101848111156112e157600080fd5b81518560018202830111640100000000821117156112fe57600080fd5b505092919050505090508260000151828285606001518660a001518760c0015198509850985098509850985050505091939550919395565b61133e610ac4565b6113b0576040517f08c379a00000000000000000000000000000000000000000000000000000000081526004018080602001828103825260208152602001807f4f776e61626c653a2063616c6c6572206973206e6f7420746865206f776e657281525060200191505060405180910390fd5b6113b981611945565b50565b6000600483815481106113cb57fe5b9060005260206000209060070201905060028160050160006101000a81548160ff021916908360028111156113fc57fe5b02179055508181600601819055506060600260009054906101000a900473ffffffffffffffffffffffffffffffffffffffff1673ffffffffffffffffffffffffffffffffffffffff1663b80f019583600201546040518263ffffffff1660e01b81526004018082815260200191505060006040518083038186803b15801561148357600080fd5b505afa158015611497573d6000803e3d6000fd5b505050506040513d6000823e3d601f19601f8201168201806040525060208110156114c157600080fd5b8101908080516401000000008111156114d957600080fd5b828101905060208101848111156114ef57600080fd5b815185600182028301116401000000008211171561150c57600080fd5b505092919050505090506060600160009054906101000a900473ffffffffffffffffffffffffffffffffffffffff1673ffffffffffffffffffffffffffffffffffffffff16633a72684e84600101546040518263ffffffff1660e01b81526004018082815260200191505060006040518083038186803b15801561158f57600080fd5b505afa1580156115a3573d6000803e3d6000fd5b505050506040513d6000823e3d601f19601f8201168201806040525060208110156115cd57600080fd5b8101908080516401000000008111156115e557600080fd5b828101905060208101848111156115fb57600080fd5b815185600182028301116401000000008211171561161857600080fd5b505092919050505090506000600260009054906101000a900473ffffffffffffffffffffffffffffffffffffffff1673ffffffffffffffffffffffffffffffffffffffff1663ce6dfadb85600201546040518263ffffffff1660e01b81526004018082815260200191505060206040518083038186803b15801561169b57600080fd5b505afa1580156116af573d6000803e3d6000fd5b505050506040513d60208110156116c557600080fd5b810190808051906020019092919050505090507fb41ca9bc00aaec32851d1653bf95297fecaf3e58b89d1d0bca2df2e8438a84c48460000154838587600301548860050160009054906101000a900460ff16896006015460405180878152602001806020018060200186815260200185600281111561174057fe5b60ff168152602001848152602001838103835288818151815260200191508051906020019080838360005b8381101561178657808201518184015260208101905061176b565b50505050905090810190601f1680156117b35780820380516001836020036101000a031916815260200191505b50838103825287818151815260200191508051906020019080838360005b838110156117ec5780820151818401526020810190506117d1565b50505050905090810190601f1680156118195780820380516001836020036101000a031916815260200191505b509850505050505050505060405180910390a160008090505b846004018054905081101561193457600360009054906101000a900473ffffffffffffffffffffffffffffffffffffffff1673ffffffffffffffffffffffffffffffffffffffff166336d41df186600401838154811061188e57fe5b90600052602060002001548488600601546040518463ffffffff1660e01b8152600401808481526020018373ffffffffffffffffffffffffffffffffffffffff1673ffffffffffffffffffffffffffffffffffffffff1681526020018281526020019350505050600060405180830381600087803b15801561190f57600080fd5b505af1158015611923573d6000803e3d6000fd5b505050508080600101915050611832565b50505050505050565b600033905090565b600073ffffffffffffffffffffffffffffffffffffffff168173ffffffffffffffffffffffffffffffffffffffff1614156119cb576040517f08c379a0000000000000000000000000000000000000000000000000000000008152600401808060200182810382526026815260200180611b916026913960400191505060405180910390fd5b8073ffffffffffffffffffffffffffffffffffffffff166000809054906101000a900473ffffffffffffffffffffffffffffffffffffffff1673ffffffffffffffffffffffffffffffffffffffff167f8be0079c531659141344cd1fd0a4f28419497f9722a3daafe3b4186f6b6457e060405160405180910390a3806000806101000a81548173ffffffffffffffffffffffffffffffffffffffff021916908373ffffffffffffffffffffffffffffffffffffffff16021790555050565b828054828255906000526020600020908101928215611ac5579160200282015b82811115611ac4578251825591602001919060010190611aa9565b5b509050611ad29190611b6b565b5090565b6040518060e00160405280600081526020016000815260200160008152602001600081526020016060815260200160006002811115611b1157fe5b8152602001600081525090565b828054828255906000526020600020908101928215611b5a579160200282015b82811115611b59578251825591602001919060010190611b3e565b5b509050611b679190611b6b565b5090565b611b8d91905b80821115611b89576000816000905550600101611b71565b5090565b9056fe4f776e61626c653a206e6577206f776e657220697320746865207a65726f2061646472657373a165627a7a72305820b8245b2aef60186398f3175f9148c882d90315db36a2d905dbe7da0d0335c46e0029",
  "source": "pragma solidity  > 0.5.0;\n\nimport \"../node_modules/openzeppelin-solidity/contracts/ownership/Ownable.sol\";\nimport \"./SupplyDataTypes.sol\";\nimport \"./FarmManager.sol\";\nimport \"./NurseryManager.sol\";\nimport \"./Supply.sol\";\n\ncontract OrderManager is Ownable {\n  NurseryManager nurseryManager;\n  FarmManager farmManager;\n  Supply supply;\n\n  SupplyDataTypes.Order[] public orders;\n\n  event OrderPlaced(uint orderId, string nurseryName, string farmName, uint plantIds, SupplyDataTypes.OrderState state, uint placedDate);\n  event OrderDispatched(uint orderId, string nurseryName, string farmName, uint plantIds, SupplyDataTypes.OrderState state, uint dispatchedDate);\n  event OrderReceived(uint orderId, string nurseryName, string farmName, uint plantIds, SupplyDataTypes.OrderState state, uint receivedDate);\n\n  constructor(address nurseryManagerAddress, address farmManagerAddress, address supplyAddress) public {\n    nurseryManager = NurseryManager(nurseryManagerAddress);\n    farmManager = FarmManager(farmManagerAddress);\n    supply = Supply(supplyAddress);\n  }\n\n  function getOrderCount() public view returns(uint) {\n    return orders.length;\n  }\n\n  function getOrder(uint index) public view returns(uint, string memory, string memory, uint, SupplyDataTypes.OrderState, uint) {\n    SupplyDataTypes.Order memory order = orders[index];\n    string memory nurseryName = nurseryManager.getNurseryName(order.nurseryId);\n    string memory farmName = farmManager.getFarmName(order.farmId);\n    return (order.orderId, nurseryName, farmName, order.quantity, order.state, order.updated);\n  }\n\n  function orderPlants(uint quantity, uint nurseryId, uint farmId, uint purchaseDate) public {\n    uint orderId = orders.length;\n    uint[] memory plantIds = new uint[](quantity);\n    SupplyDataTypes.Order memory order = SupplyDataTypes.Order(orderId, nurseryId, farmId, quantity, plantIds, SupplyDataTypes.OrderState.Placed, purchaseDate);\n\n    string memory farmName = farmManager.getFarmName(farmId);\n    string memory nurseryName = nurseryManager.getNurseryName(order.nurseryId);\n\n    emit OrderPlaced(orderId, nurseryName, farmName, quantity, SupplyDataTypes.OrderState.Placed, purchaseDate);\n\n    orders.push(order);\n  }\n\n  function dispatchOrder(uint orderId, uint[] memory plantIds, uint dispatchedDate, string memory farmName, string memory nurseryName, int lat, int long) public {\n    SupplyDataTypes.Order storage order = orders[orderId];\n    order.state = SupplyDataTypes.OrderState.Dispatched;\n    order.updated = dispatchedDate;\n    order.plantIds = plantIds;\n\n    emit OrderDispatched(order.orderId, nurseryName, farmName, order.quantity, order.state, order.updated);\n\n    for (uint i = 0; i < plantIds.length; i++) {\n      supply.dispatchedByNursery(plantIds[i], order.orderId, order.nurseryId, nurseryName, order.farmId, farmName, dispatchedDate, lat, long);\n    }\n  }\n\n  function receiveOrder(uint orderId, uint receivedDate) public {\n    SupplyDataTypes.Order storage order = orders[orderId];\n    order.state = SupplyDataTypes.OrderState.Received;\n    order.updated = receivedDate;\n\n    string memory farmName = farmManager.getFarmName(order.farmId);\n    string memory nurseryName = nurseryManager.getNurseryName(order.nurseryId);\n    address farmAddress = farmManager.getFarmAddress(order.farmId);\n\n    emit OrderReceived(order.orderId, nurseryName, farmName, order.quantity, order.state, order.updated);\n\n    for (uint i = 0; i < order.plantIds.length; i++) {\n      supply.receivePlant(order.plantIds[i], farmAddress, order.updated);\n    }\n  }\n}",
  "sourcePath": "/home/gordon/projects/blockchain/basic/contracts/OrderManager.sol",
  "compiler": {
    "name": "solc",
    "version": "0.5.8+commit.23d335f2.Emscripten.clang"
  },
  "schemaVersion": "3.0.11",
  "updatedAt": "2020-04-01T09:34:19.035Z",
  "devdoc": {
    "methods": {
      "isOwner()": {
        "details": "Returns true if the caller is the current owner."
      },
      "owner()": {
        "details": "Returns the address of the current owner."
      },
      "renounceOwnership()": {
        "details": "Leaves the contract without owner. It will not be possible to call `onlyOwner` functions anymore. Can only be called by the current owner.     * NOTE: Renouncing ownership will leave the contract without an owner, thereby removing any functionality that is only available to the owner."
      },
      "transferOwnership(address)": {
        "details": "Transfers ownership of the contract to a new account (`newOwner`). Can only be called by the current owner."
      }
    }
  },
  "userdoc": {
    "methods": {}
  }
}