{
  "contractName": "OrderManager",
  "abi": [
    {
      "constant": false,
      "inputs": [],
      "name": "renounceOwnership",
      "outputs": [],
      "payable": false,
      "stateMutability": "nonpayable",
      "type": "function"
    },
    {
      "constant": true,
      "inputs": [],
      "name": "owner",
      "outputs": [
        {
          "name": "",
          "type": "address"
        }
      ],
      "payable": false,
      "stateMutability": "view",
      "type": "function"
    },
    {
      "constant": true,
      "inputs": [],
      "name": "isOwner",
      "outputs": [
        {
          "name": "",
          "type": "bool"
        }
      ],
      "payable": false,
      "stateMutability": "view",
      "type": "function"
    },
    {
      "constant": true,
      "inputs": [
        {
          "name": "",
          "type": "uint256"
        }
      ],
      "name": "orders",
      "outputs": [
        {
          "name": "orderId",
          "type": "uint256"
        },
        {
          "name": "nurseryId",
          "type": "uint256"
        },
        {
          "name": "farmId",
          "type": "uint256"
        },
        {
          "name": "quantity",
          "type": "uint256"
        },
        {
          "name": "state",
          "type": "uint8"
        },
        {
          "name": "updated",
          "type": "uint256"
        }
      ],
      "payable": false,
      "stateMutability": "view",
      "type": "function"
    },
    {
      "constant": false,
      "inputs": [
        {
          "name": "newOwner",
          "type": "address"
        }
      ],
      "name": "transferOwnership",
      "outputs": [],
      "payable": false,
      "stateMutability": "nonpayable",
      "type": "function"
    },
    {
      "inputs": [
        {
          "name": "nurseryManagerAddress",
          "type": "address"
        },
        {
          "name": "farmManagerAddress",
          "type": "address"
        },
        {
          "name": "supplyAddress",
          "type": "address"
        }
      ],
      "payable": false,
      "stateMutability": "nonpayable",
      "type": "constructor"
    },
    {
      "anonymous": false,
      "inputs": [
        {
          "indexed": false,
          "name": "orderId",
          "type": "uint256"
        },
        {
          "indexed": false,
          "name": "nurseryName",
          "type": "string"
        },
        {
          "indexed": false,
          "name": "farmName",
          "type": "string"
        },
        {
          "indexed": false,
          "name": "quantity",
          "type": "uint256"
        },
        {
          "indexed": false,
          "name": "state",
          "type": "uint8"
        },
        {
          "indexed": false,
          "name": "placedDate",
          "type": "uint256"
        }
      ],
      "name": "OrderPlaced",
      "type": "event"
    },
    {
      "anonymous": false,
      "inputs": [
        {
          "indexed": false,
          "name": "orderId",
          "type": "uint256"
        },
        {
          "indexed": false,
          "name": "nurseryName",
          "type": "string"
        },
        {
          "indexed": false,
          "name": "farmName",
          "type": "string"
        },
        {
          "indexed": false,
          "name": "quantity",
          "type": "uint256"
        },
        {
          "indexed": false,
          "name": "state",
          "type": "uint8"
        },
        {
          "indexed": false,
          "name": "dispatchedDate",
          "type": "uint256"
        }
      ],
      "name": "OrderDispatched",
      "type": "event"
    },
    {
      "anonymous": false,
      "inputs": [
        {
          "indexed": false,
          "name": "orderId",
          "type": "uint256"
        },
        {
          "indexed": false,
          "name": "nurseryName",
          "type": "string"
        },
        {
          "indexed": false,
          "name": "farmName",
          "type": "string"
        },
        {
          "indexed": false,
          "name": "quantity",
          "type": "uint256"
        },
        {
          "indexed": false,
          "name": "state",
          "type": "uint8"
        },
        {
          "indexed": false,
          "name": "receivedDate",
          "type": "uint256"
        }
      ],
      "name": "OrderReceived",
      "type": "event"
    },
    {
      "anonymous": false,
      "inputs": [
        {
          "indexed": true,
          "name": "previousOwner",
          "type": "address"
        },
        {
          "indexed": true,
          "name": "newOwner",
          "type": "address"
        }
      ],
      "name": "OwnershipTransferred",
      "type": "event"
    },
    {
      "constant": true,
      "inputs": [],
      "name": "getOrderCount",
      "outputs": [
        {
          "name": "",
          "type": "uint256"
        }
      ],
      "payable": false,
      "stateMutability": "view",
      "type": "function"
    },
    {
      "constant": true,
      "inputs": [
        {
          "name": "index",
          "type": "uint256"
        }
      ],
      "name": "getOrder",
      "outputs": [
        {
          "name": "",
          "type": "uint256"
        },
        {
          "name": "",
          "type": "string"
        },
        {
          "name": "",
          "type": "string"
        },
        {
          "name": "",
          "type": "uint256"
        },
        {
          "name": "",
          "type": "uint8"
        },
        {
          "name": "",
          "type": "uint256"
        }
      ],
      "payable": false,
      "stateMutability": "view",
      "type": "function"
    },
    {
      "constant": false,
      "inputs": [
        {
          "name": "quantity",
          "type": "uint256"
        },
        {
          "name": "nurseryId",
          "type": "uint256"
        },
        {
          "name": "farmId",
          "type": "uint256"
        },
        {
          "name": "purchaseDate",
          "type": "uint256"
        }
      ],
      "name": "orderPlants",
      "outputs": [],
      "payable": false,
      "stateMutability": "nonpayable",
      "type": "function"
    },
    {
      "constant": false,
      "inputs": [
        {
          "name": "orderId",
          "type": "uint256"
        },
        {
          "name": "plantIds",
          "type": "uint256[]"
        },
        {
          "name": "dispatchedDate",
          "type": "uint256"
        },
        {
          "name": "farmName",
          "type": "string"
        },
        {
          "name": "nurseryName",
          "type": "string"
        },
        {
          "name": "lat",
          "type": "int256"
        },
        {
          "name": "long",
          "type": "int256"
        }
      ],
      "name": "dispatchOrder",
      "outputs": [],
      "payable": false,
      "stateMutability": "nonpayable",
      "type": "function"
    },
    {
      "constant": false,
      "inputs": [
        {
          "name": "orderId",
          "type": "uint256"
        },
        {
          "name": "receivedDate",
          "type": "uint256"
        },
        {
          "name": "storeName",
          "type": "string"
        },
        {
          "name": "storeTemp",
          "type": "int256"
        }
      ],
      "name": "receiveOrder",
      "outputs": [],
      "payable": false,
      "stateMutability": "nonpayable",
      "type": "function"
    }
  ],
  "bytecode": "0x608060405234801561001057600080fd5b50604051606080611efa8339810180604052606081101561003057600080fd5b810190808051906020019092919080519060200190929190805190602001909291905050506100636101e960201b60201c565b6000806101000a81548173ffffffffffffffffffffffffffffffffffffffff021916908373ffffffffffffffffffffffffffffffffffffffff1602179055506000809054906101000a900473ffffffffffffffffffffffffffffffffffffffff1673ffffffffffffffffffffffffffffffffffffffff16600073ffffffffffffffffffffffffffffffffffffffff167f8be0079c531659141344cd1fd0a4f28419497f9722a3daafe3b4186f6b6457e060405160405180910390a382600160006101000a81548173ffffffffffffffffffffffffffffffffffffffff021916908373ffffffffffffffffffffffffffffffffffffffff16021790555081600260006101000a81548173ffffffffffffffffffffffffffffffffffffffff021916908373ffffffffffffffffffffffffffffffffffffffff16021790555080600360006101000a81548173ffffffffffffffffffffffffffffffffffffffff021916908373ffffffffffffffffffffffffffffffffffffffff1602179055505050506101f1565b600033905090565b611cfa806102006000396000f3fe608060405234801561001057600080fd5b506004361061009e5760003560e01c80638f32d59b116100665780638f32d59b146103fc578063a85c38ef1461041e578063cec7356014610491578063d09ef241146104dd578063f2fde38b1461061a5761009e565b806311ce5b90146100a3578063715018a61461017c5780637dd24e92146101865780638d0a5fbb146103945780638da5cb5b146103b2575b600080fd5b61017a600480360360808110156100b957600080fd5b810190808035906020019092919080359060200190929190803590602001906401000000008111156100ea57600080fd5b8201836020820111156100fc57600080fd5b8035906020019184600183028401116401000000008311171561011e57600080fd5b91908080601f016020809104026020016040519081016040528093929190818152602001838380828437600081840152601f19601f8201169050808301925050505050505091929192908035906020019092919050505061065e565b005b610184610c56565b005b610392600480360360e081101561019c57600080fd5b8101908080359060200190929190803590602001906401000000008111156101c357600080fd5b8201836020820111156101d557600080fd5b803590602001918460208302840111640100000000831117156101f757600080fd5b919080806020026020016040519081016040528093929190818152602001838360200280828437600081840152601f19601f820116905080830192505050505050509192919290803590602001909291908035906020019064010000000081111561026157600080fd5b82018360208201111561027357600080fd5b8035906020019184600183028401116401000000008311171561029557600080fd5b91908080601f016020809104026020016040519081016040528093929190818152602001838380828437600081840152601f19601f820116905080830192505050505050509192919290803590602001906401000000008111156102f857600080fd5b82018360208201111561030a57600080fd5b8035906020019184600183028401116401000000008311171561032c57600080fd5b91908080601f016020809104026020016040519081016040528093929190818152602001838380828437600081840152601f19601f8201169050808301925050505050505091929192908035906020019092919080359060200190929190505050610d8f565b005b61039c611127565b6040518082815260200191505060405180910390f35b6103ba611134565b604051808273ffffffffffffffffffffffffffffffffffffffff1673ffffffffffffffffffffffffffffffffffffffff16815260200191505060405180910390f35b61040461115d565b604051808215151515815260200191505060405180910390f35b61044a6004803603602081101561043457600080fd5b81019080803590602001909291905050506111bb565b6040518087815260200186815260200185815260200184815260200183600281111561047257fe5b60ff168152602001828152602001965050505050505060405180910390f35b6104db600480360360808110156104a757600080fd5b8101908080359060200190929190803590602001909291908035906020019092919080359060200190929190505050611211565b005b610509600480360360208110156104f357600080fd5b8101908080359060200190929190505050611698565b60405180878152602001806020018060200186815260200185600281111561052d57fe5b60ff168152602001848152602001838103835288818151815260200191508051906020019080838360005b83811015610573578082015181840152602081019050610558565b50505050905090810190601f1680156105a05780820380516001836020036101000a031916815260200191505b50838103825287818151815260200191508051906020019080838360005b838110156105d95780820151818401526020810190506105be565b50505050905090810190601f1680156106065780820380516001836020036101000a031916815260200191505b509850505050505050505060405180910390f35b61065c6004803603602081101561063057600080fd5b81019080803573ffffffffffffffffffffffffffffffffffffffff1690602001909291905050506119cf565b005b60006004858154811061066d57fe5b9060005260206000209060070201905060028160050160006101000a81548160ff0219169083600281111561069e57fe5b02179055508381600601819055506060600260009054906101000a900473ffffffffffffffffffffffffffffffffffffffff1673ffffffffffffffffffffffffffffffffffffffff1663b80f019583600201546040518263ffffffff1660e01b81526004018082815260200191505060006040518083038186803b15801561072557600080fd5b505afa158015610739573d6000803e3d6000fd5b505050506040513d6000823e3d601f19601f82011682018060405250602081101561076357600080fd5b81019080805164010000000081111561077b57600080fd5b8281019050602081018481111561079157600080fd5b81518560018202830111640100000000821117156107ae57600080fd5b505092919050505090506060600160009054906101000a900473ffffffffffffffffffffffffffffffffffffffff1673ffffffffffffffffffffffffffffffffffffffff16633a72684e84600101546040518263ffffffff1660e01b81526004018082815260200191505060006040518083038186803b15801561083157600080fd5b505afa158015610845573d6000803e3d6000fd5b505050506040513d6000823e3d601f19601f82011682018060405250602081101561086f57600080fd5b81019080805164010000000081111561088757600080fd5b8281019050602081018481111561089d57600080fd5b81518560018202830111640100000000821117156108ba57600080fd5b505092919050505090506000600260009054906101000a900473ffffffffffffffffffffffffffffffffffffffff1673ffffffffffffffffffffffffffffffffffffffff1663ce6dfadb85600201546040518263ffffffff1660e01b81526004018082815260200191505060206040518083038186803b15801561093d57600080fd5b505afa158015610951573d6000803e3d6000fd5b505050506040513d602081101561096757600080fd5b810190808051906020019092919050505090507fb41ca9bc00aaec32851d1653bf95297fecaf3e58b89d1d0bca2df2e8438a84c48460000154838587600301548860050160009054906101000a900460ff1689600601546040518087815260200180602001806020018681526020018560028111156109e257fe5b60ff168152602001848152602001838103835288818151815260200191508051906020019080838360005b83811015610a28578082015181840152602081019050610a0d565b50505050905090810190601f168015610a555780820380516001836020036101000a031916815260200191505b50838103825287818151815260200191508051906020019080838360005b83811015610a8e578082015181840152602081019050610a73565b50505050905090810190601f168015610abb5780820380516001836020036101000a031916815260200191505b509850505050505050505060405180910390a160008090505b8460040180549050811015610c4b57600360009054906101000a900473ffffffffffffffffffffffffffffffffffffffff1673ffffffffffffffffffffffffffffffffffffffff166359c4a94e866004018381548110610b3057fe5b90600052602060002001548488600601548b8b6040518663ffffffff1660e01b8152600401808681526020018573ffffffffffffffffffffffffffffffffffffffff1673ffffffffffffffffffffffffffffffffffffffff16815260200184815260200180602001838152602001828103825284818151815260200191508051906020019080838360005b83811015610bd6578082015181840152602081019050610bbb565b50505050905090810190601f168015610c035780820380516001836020036101000a031916815260200191505b509650505050505050600060405180830381600087803b158015610c2657600080fd5b505af1158015610c3a573d6000803e3d6000fd5b505050508080600101915050610ad4565b505050505050505050565b610c5e61115d565b610cd0576040517f08c379a00000000000000000000000000000000000000000000000000000000081526004018080602001828103825260208152602001807f4f776e61626c653a2063616c6c6572206973206e6f7420746865206f776e657281525060200191505060405180910390fd5b600073ffffffffffffffffffffffffffffffffffffffff166000809054906101000a900473ffffffffffffffffffffffffffffffffffffffff1673ffffffffffffffffffffffffffffffffffffffff167f8be0079c531659141344cd1fd0a4f28419497f9722a3daafe3b4186f6b6457e060405160405180910390a360008060006101000a81548173ffffffffffffffffffffffffffffffffffffffff021916908373ffffffffffffffffffffffffffffffffffffffff160217905550565b600060048881548110610d9e57fe5b9060005260206000209060070201905060018160050160006101000a81548160ff02191690836002811115610dcf57fe5b021790555085816006018190555086816004019080519060200190610df5929190611ba1565b507fb51299e0a17abb6cb181a14b3d2e1008fc8a9d497e011441f1b50576ad71d6498160000154858784600301548560050160009054906101000a900460ff168660060154604051808781526020018060200180602001868152602001856002811115610e5e57fe5b60ff168152602001848152602001838103835288818151815260200191508051906020019080838360005b83811015610ea4578082015181840152602081019050610e89565b50505050905090810190601f168015610ed15780820380516001836020036101000a031916815260200191505b50838103825287818151815260200191508051906020019080838360005b83811015610f0a578082015181840152602081019050610eef565b50505050905090810190601f168015610f375780820380516001836020036101000a031916815260200191505b509850505050505050505060405180910390a160008090505b875181101561111c57600360009054906101000a900473ffffffffffffffffffffffffffffffffffffffff1673ffffffffffffffffffffffffffffffffffffffff166386d6a0f3898381518110610fa357fe5b6020026020010151846000015485600101548987600201548c8e8c8c6040518a63ffffffff1660e01b8152600401808a81526020018981526020018881526020018060200187815260200180602001868152602001858152602001848152602001838103835289818151815260200191508051906020019080838360005b8381101561103c578082015181840152602081019050611021565b50505050905090810190601f1680156110695780820380516001836020036101000a031916815260200191505b50838103825287818151815260200191508051906020019080838360005b838110156110a2578082015181840152602081019050611087565b50505050905090810190601f1680156110cf5780820380516001836020036101000a031916815260200191505b509b505050505050505050505050600060405180830381600087803b1580156110f757600080fd5b505af115801561110b573d6000803e3d6000fd5b505050508080600101915050610f50565b505050505050505050565b6000600480549050905090565b60008060009054906101000a900473ffffffffffffffffffffffffffffffffffffffff16905090565b60008060009054906101000a900473ffffffffffffffffffffffffffffffffffffffff1673ffffffffffffffffffffffffffffffffffffffff1661119f611a55565b73ffffffffffffffffffffffffffffffffffffffff1614905090565b600481815481106111c857fe5b90600052602060002090600702016000915090508060000154908060010154908060020154908060030154908060050160009054906101000a900460ff16908060060154905086565b6000600480549050905060608560405190808252806020026020018201604052801561124c5781602001602082028038833980820191505090505b509050611257611bee565b6040518060e001604052808481526020018781526020018681526020018881526020018381526020016000600281111561128d57fe5b81526020018581525090506060600260009054906101000a900473ffffffffffffffffffffffffffffffffffffffff1673ffffffffffffffffffffffffffffffffffffffff1663b80f0195876040518263ffffffff1660e01b81526004018082815260200191505060006040518083038186803b15801561130d57600080fd5b505afa158015611321573d6000803e3d6000fd5b505050506040513d6000823e3d601f19601f82011682018060405250602081101561134b57600080fd5b81019080805164010000000081111561136357600080fd5b8281019050602081018481111561137957600080fd5b815185600182028301116401000000008211171561139657600080fd5b505092919050505090506060600160009054906101000a900473ffffffffffffffffffffffffffffffffffffffff1673ffffffffffffffffffffffffffffffffffffffff16633a72684e84602001516040518263ffffffff1660e01b81526004018082815260200191505060006040518083038186803b15801561141957600080fd5b505afa15801561142d573d6000803e3d6000fd5b505050506040513d6000823e3d601f19601f82011682018060405250602081101561145757600080fd5b81019080805164010000000081111561146f57600080fd5b8281019050602081018481111561148557600080fd5b81518560018202830111640100000000821117156114a257600080fd5b505092919050505090507fcd5297d64fcae10e03c651177b65a53fc56dca7868826358e9a4a593e14c0c428582848c60008b6040518087815260200180602001806020018681526020018560028111156114f857fe5b60ff168152602001848152602001838103835288818151815260200191508051906020019080838360005b8381101561153e578082015181840152602081019050611523565b50505050905090810190601f16801561156b5780820380516001836020036101000a031916815260200191505b50838103825287818151815260200191508051906020019080838360005b838110156115a4578082015181840152602081019050611589565b50505050905090810190601f1680156115d15780820380516001836020036101000a031916815260200191505b509850505050505050505060405180910390a160048390806001815401808255809150509060018203906000526020600020906007020160009091929091909150600082015181600001556020820151816001015560408201518160020155606082015181600301556080820151816004019080519060200190611656929190611c36565b5060a08201518160050160006101000a81548160ff0219169083600281111561167b57fe5b021790555060c08201518160060155505050505050505050505050565b600060608060008060006116aa611bee565b600488815481106116b757fe5b90600052602060002090600702016040518060e0016040529081600082015481526020016001820154815260200160028201548152602001600382015481526020016004820180548060200260200160405190810160405280929190818152602001828054801561174757602002820191906000526020600020905b815481526020019060010190808311611733575b505050505081526020016005820160009054906101000a900460ff16600281111561176e57fe5b600281111561177957fe5b815260200160068201548152505090506060600160009054906101000a900473ffffffffffffffffffffffffffffffffffffffff1673ffffffffffffffffffffffffffffffffffffffff16633a72684e83602001516040518263ffffffff1660e01b81526004018082815260200191505060006040518083038186803b15801561180257600080fd5b505afa158015611816573d6000803e3d6000fd5b505050506040513d6000823e3d601f19601f82011682018060405250602081101561184057600080fd5b81019080805164010000000081111561185857600080fd5b8281019050602081018481111561186e57600080fd5b815185600182028301116401000000008211171561188b57600080fd5b505092919050505090506060600260009054906101000a900473ffffffffffffffffffffffffffffffffffffffff1673ffffffffffffffffffffffffffffffffffffffff1663b80f019584604001516040518263ffffffff1660e01b81526004018082815260200191505060006040518083038186803b15801561190e57600080fd5b505afa158015611922573d6000803e3d6000fd5b505050506040513d6000823e3d601f19601f82011682018060405250602081101561194c57600080fd5b81019080805164010000000081111561196457600080fd5b8281019050602081018481111561197a57600080fd5b815185600182028301116401000000008211171561199757600080fd5b505092919050505090508260000151828285606001518660a001518760c0015198509850985098509850985050505091939550919395565b6119d761115d565b611a49576040517f08c379a00000000000000000000000000000000000000000000000000000000081526004018080602001828103825260208152602001807f4f776e61626c653a2063616c6c6572206973206e6f7420746865206f776e657281525060200191505060405180910390fd5b611a5281611a5d565b50565b600033905090565b600073ffffffffffffffffffffffffffffffffffffffff168173ffffffffffffffffffffffffffffffffffffffff161415611ae3576040517f08c379a0000000000000000000000000000000000000000000000000000000008152600401808060200182810382526026815260200180611ca96026913960400191505060405180910390fd5b8073ffffffffffffffffffffffffffffffffffffffff166000809054906101000a900473ffffffffffffffffffffffffffffffffffffffff1673ffffffffffffffffffffffffffffffffffffffff167f8be0079c531659141344cd1fd0a4f28419497f9722a3daafe3b4186f6b6457e060405160405180910390a3806000806101000a81548173ffffffffffffffffffffffffffffffffffffffff021916908373ffffffffffffffffffffffffffffffffffffffff16021790555050565b828054828255906000526020600020908101928215611bdd579160200282015b82811115611bdc578251825591602001919060010190611bc1565b5b509050611bea9190611c83565b5090565b6040518060e00160405280600081526020016000815260200160008152602001600081526020016060815260200160006002811115611c2957fe5b8152602001600081525090565b828054828255906000526020600020908101928215611c72579160200282015b82811115611c71578251825591602001919060010190611c56565b5b509050611c7f9190611c83565b5090565b611ca591905b80821115611ca1576000816000905550600101611c89565b5090565b9056fe4f776e61626c653a206e6577206f776e657220697320746865207a65726f2061646472657373a165627a7a7230582044b128005602b048fd3e3c581163ee26bcd68cf4795108443c156b68fa6981b10029",
  "source": "pragma solidity  > 0.5.0;\n\nimport \"../node_modules/openzeppelin-solidity/contracts/ownership/Ownable.sol\";\nimport \"./SupplyDataTypes.sol\";\nimport \"./FarmManager.sol\";\nimport \"./NurseryManager.sol\";\nimport \"./Supply.sol\";\n\ncontract OrderManager is Ownable {\n  NurseryManager nurseryManager;\n  FarmManager farmManager;\n  Supply supply;\n\n  SupplyDataTypes.Order[] public orders;\n\n  event OrderPlaced(uint orderId, string nurseryName, string farmName, uint quantity, SupplyDataTypes.OrderState state, uint placedDate);\n  event OrderDispatched(uint orderId, string nurseryName, string farmName, uint quantity, SupplyDataTypes.OrderState state, uint dispatchedDate);\n  event OrderReceived(uint orderId, string nurseryName, string farmName, uint quantity, SupplyDataTypes.OrderState state, uint receivedDate);\n\n  constructor(address nurseryManagerAddress, address farmManagerAddress, address supplyAddress) public {\n    nurseryManager = NurseryManager(nurseryManagerAddress);\n    farmManager = FarmManager(farmManagerAddress);\n    supply = Supply(supplyAddress);\n  }\n\n  function getOrderCount() public view returns(uint) {\n    return orders.length;\n  }\n\n  function getOrder(uint index) public view returns(uint, string memory, string memory, uint, SupplyDataTypes.OrderState, uint) {\n    SupplyDataTypes.Order memory order = orders[index];\n    string memory nurseryName = nurseryManager.getNurseryName(order.nurseryId);\n    string memory farmName = farmManager.getFarmName(order.farmId);\n    return (order.orderId, nurseryName, farmName, order.quantity, order.state, order.updated);\n  }\n\n  function orderPlants(uint quantity, uint nurseryId, uint farmId, uint purchaseDate) public {\n    uint orderId = orders.length;\n    uint[] memory plantIds = new uint[](quantity);\n    SupplyDataTypes.Order memory order = SupplyDataTypes.Order(orderId, nurseryId, farmId, quantity, plantIds, SupplyDataTypes.OrderState.Placed, purchaseDate);\n\n    string memory farmName = farmManager.getFarmName(farmId);\n    string memory nurseryName = nurseryManager.getNurseryName(order.nurseryId);\n\n    emit OrderPlaced(orderId, nurseryName, farmName, quantity, SupplyDataTypes.OrderState.Placed, purchaseDate);\n\n    orders.push(order);\n  }\n\n  function dispatchOrder(uint orderId, uint[] memory plantIds, uint dispatchedDate, string memory farmName, string memory nurseryName, int lat, int long) public {\n    SupplyDataTypes.Order storage order = orders[orderId];\n    order.state = SupplyDataTypes.OrderState.Dispatched;\n    order.updated = dispatchedDate;\n    order.plantIds = plantIds;\n\n    emit OrderDispatched(order.orderId, nurseryName, farmName, order.quantity, order.state, order.updated);\n\n    for (uint i = 0; i < plantIds.length; i++) {\n      supply.dispatchedByNursery(plantIds[i], order.orderId, order.nurseryId, nurseryName, order.farmId, farmName, dispatchedDate, lat, long);\n    }\n  }\n\n  function receiveOrder(uint orderId, uint receivedDate, string memory storeName, int storeTemp) public {\n    SupplyDataTypes.Order storage order = orders[orderId];\n    order.state = SupplyDataTypes.OrderState.Received;\n    order.updated = receivedDate;\n\n    string memory farmName = farmManager.getFarmName(order.farmId);\n    string memory nurseryName = nurseryManager.getNurseryName(order.nurseryId);\n    address farmAddress = farmManager.getFarmAddress(order.farmId);\n\n    emit OrderReceived(order.orderId, nurseryName, farmName, order.quantity, order.state, order.updated);\n\n    for (uint i = 0; i < order.plantIds.length; i++) {\n      supply.receivePlant(order.plantIds[i], farmAddress, order.updated, storeName, storeTemp);\n    }\n  }\n}",
  "sourcePath": "/home/gordon/projects/blockchain/basic/contracts/OrderManager.sol",
  "compiler": {
    "name": "solc",
    "version": "0.5.8+commit.23d335f2.Emscripten.clang"
  },
  "schemaVersion": "3.0.11",
  "updatedAt": "2020-04-03T10:55:25.437Z",
  "devdoc": {
    "methods": {
      "isOwner()": {
        "details": "Returns true if the caller is the current owner."
      },
      "owner()": {
        "details": "Returns the address of the current owner."
      },
      "renounceOwnership()": {
        "details": "Leaves the contract without owner. It will not be possible to call `onlyOwner` functions anymore. Can only be called by the current owner.     * NOTE: Renouncing ownership will leave the contract without an owner, thereby removing any functionality that is only available to the owner."
      },
      "transferOwnership(address)": {
        "details": "Transfers ownership of the contract to a new account (`newOwner`). Can only be called by the current owner."
      }
    }
  },
  "userdoc": {
    "methods": {}
  }
}