{
  "contractName": "OrderManager",
  "abi": [
    {
      "constant": false,
      "inputs": [],
      "name": "renounceOwnership",
      "outputs": [],
      "payable": false,
      "stateMutability": "nonpayable",
      "type": "function"
    },
    {
      "constant": true,
      "inputs": [],
      "name": "owner",
      "outputs": [
        {
          "name": "",
          "type": "address"
        }
      ],
      "payable": false,
      "stateMutability": "view",
      "type": "function"
    },
    {
      "constant": true,
      "inputs": [],
      "name": "isOwner",
      "outputs": [
        {
          "name": "",
          "type": "bool"
        }
      ],
      "payable": false,
      "stateMutability": "view",
      "type": "function"
    },
    {
      "constant": true,
      "inputs": [
        {
          "name": "",
          "type": "uint256"
        }
      ],
      "name": "orders",
      "outputs": [
        {
          "name": "orderId",
          "type": "uint256"
        },
        {
          "name": "nurseryId",
          "type": "uint256"
        },
        {
          "name": "farmId",
          "type": "uint256"
        },
        {
          "name": "quantity",
          "type": "uint256"
        },
        {
          "name": "state",
          "type": "uint8"
        },
        {
          "name": "updated",
          "type": "uint256"
        }
      ],
      "payable": false,
      "stateMutability": "view",
      "type": "function"
    },
    {
      "constant": false,
      "inputs": [
        {
          "name": "newOwner",
          "type": "address"
        }
      ],
      "name": "transferOwnership",
      "outputs": [],
      "payable": false,
      "stateMutability": "nonpayable",
      "type": "function"
    },
    {
      "inputs": [
        {
          "name": "nurseryManagerAddress",
          "type": "address"
        },
        {
          "name": "farmManagerAddress",
          "type": "address"
        }
      ],
      "payable": false,
      "stateMutability": "nonpayable",
      "type": "constructor"
    },
    {
      "anonymous": false,
      "inputs": [
        {
          "indexed": false,
          "name": "orderId",
          "type": "uint256"
        },
        {
          "indexed": false,
          "name": "nurseryName",
          "type": "string"
        },
        {
          "indexed": false,
          "name": "farmName",
          "type": "string"
        },
        {
          "indexed": false,
          "name": "plantIds",
          "type": "uint256"
        },
        {
          "indexed": false,
          "name": "state",
          "type": "uint8"
        },
        {
          "indexed": false,
          "name": "placedDate",
          "type": "uint256"
        }
      ],
      "name": "OrderPlaced",
      "type": "event"
    },
    {
      "anonymous": false,
      "inputs": [
        {
          "indexed": false,
          "name": "orderId",
          "type": "uint256"
        },
        {
          "indexed": false,
          "name": "nurseryName",
          "type": "string"
        },
        {
          "indexed": false,
          "name": "farmName",
          "type": "string"
        },
        {
          "indexed": false,
          "name": "plantIds",
          "type": "uint256"
        },
        {
          "indexed": false,
          "name": "state",
          "type": "uint8"
        },
        {
          "indexed": false,
          "name": "dispatchedDate",
          "type": "uint256"
        }
      ],
      "name": "OrderDispatched",
      "type": "event"
    },
    {
      "anonymous": false,
      "inputs": [
        {
          "indexed": true,
          "name": "plantId",
          "type": "uint256"
        },
        {
          "indexed": false,
          "name": "orderId",
          "type": "uint256"
        },
        {
          "indexed": false,
          "name": "nurseryId",
          "type": "uint256"
        },
        {
          "indexed": false,
          "name": "nurseryName",
          "type": "string"
        },
        {
          "indexed": false,
          "name": "farmId",
          "type": "uint256"
        },
        {
          "indexed": false,
          "name": "farmName",
          "type": "string"
        },
        {
          "indexed": false,
          "name": "date",
          "type": "uint256"
        },
        {
          "indexed": false,
          "name": "lat",
          "type": "int256"
        },
        {
          "indexed": false,
          "name": "long",
          "type": "int256"
        }
      ],
      "name": "PurchasedByFarmer",
      "type": "event"
    },
    {
      "anonymous": false,
      "inputs": [
        {
          "indexed": true,
          "name": "plantId",
          "type": "uint256"
        },
        {
          "indexed": false,
          "name": "orderId",
          "type": "uint256"
        },
        {
          "indexed": false,
          "name": "nurseryId",
          "type": "uint256"
        },
        {
          "indexed": false,
          "name": "nurseryName",
          "type": "string"
        },
        {
          "indexed": false,
          "name": "farmId",
          "type": "uint256"
        },
        {
          "indexed": false,
          "name": "farmName",
          "type": "string"
        },
        {
          "indexed": false,
          "name": "date",
          "type": "uint256"
        },
        {
          "indexed": false,
          "name": "lat",
          "type": "int256"
        },
        {
          "indexed": false,
          "name": "long",
          "type": "int256"
        }
      ],
      "name": "DispatchedByNursery",
      "type": "event"
    },
    {
      "anonymous": false,
      "inputs": [
        {
          "indexed": true,
          "name": "previousOwner",
          "type": "address"
        },
        {
          "indexed": true,
          "name": "newOwner",
          "type": "address"
        }
      ],
      "name": "OwnershipTransferred",
      "type": "event"
    },
    {
      "constant": true,
      "inputs": [],
      "name": "getOrderCount",
      "outputs": [
        {
          "name": "",
          "type": "uint256"
        }
      ],
      "payable": false,
      "stateMutability": "view",
      "type": "function"
    },
    {
      "constant": true,
      "inputs": [
        {
          "name": "index",
          "type": "uint256"
        }
      ],
      "name": "getOrder",
      "outputs": [
        {
          "name": "",
          "type": "uint256"
        },
        {
          "name": "",
          "type": "string"
        },
        {
          "name": "",
          "type": "string"
        },
        {
          "name": "",
          "type": "uint256"
        },
        {
          "name": "",
          "type": "uint8"
        },
        {
          "name": "",
          "type": "uint256"
        }
      ],
      "payable": false,
      "stateMutability": "view",
      "type": "function"
    },
    {
      "constant": false,
      "inputs": [
        {
          "name": "quantity",
          "type": "uint256"
        },
        {
          "name": "nurseryId",
          "type": "uint256"
        },
        {
          "name": "farmId",
          "type": "uint256"
        },
        {
          "name": "purchaseDate",
          "type": "uint256"
        }
      ],
      "name": "orderPlants",
      "outputs": [],
      "payable": false,
      "stateMutability": "nonpayable",
      "type": "function"
    },
    {
      "constant": false,
      "inputs": [
        {
          "name": "orderId",
          "type": "uint256"
        },
        {
          "name": "plantIds",
          "type": "uint256[]"
        },
        {
          "name": "dispatchedDate",
          "type": "uint256"
        },
        {
          "name": "farmName",
          "type": "string"
        },
        {
          "name": "nurseryName",
          "type": "string"
        },
        {
          "name": "lat",
          "type": "int256"
        },
        {
          "name": "long",
          "type": "int256"
        }
      ],
      "name": "dispatchOrder",
      "outputs": [],
      "payable": false,
      "stateMutability": "nonpayable",
      "type": "function"
    }
  ],
  "bytecode": "0x608060405234801561001057600080fd5b5060405160408061186c8339810180604052604081101561003057600080fd5b81019080805190602001909291908051906020019092919050505061005961019d60201b60201c565b6000806101000a81548173ffffffffffffffffffffffffffffffffffffffff021916908373ffffffffffffffffffffffffffffffffffffffff1602179055506000809054906101000a900473ffffffffffffffffffffffffffffffffffffffff1673ffffffffffffffffffffffffffffffffffffffff16600073ffffffffffffffffffffffffffffffffffffffff167f8be0079c531659141344cd1fd0a4f28419497f9722a3daafe3b4186f6b6457e060405160405180910390a381600160006101000a81548173ffffffffffffffffffffffffffffffffffffffff021916908373ffffffffffffffffffffffffffffffffffffffff16021790555080600260006101000a81548173ffffffffffffffffffffffffffffffffffffffff021916908373ffffffffffffffffffffffffffffffffffffffff16021790555050506101a5565b600033905090565b6116b8806101b46000396000f3fe608060405234801561001057600080fd5b50600436106100935760003560e01c80638f32d59b116100665780638f32d59b14610318578063a85c38ef1461033a578063cec73560146103ad578063d09ef241146103f9578063f2fde38b1461053657610093565b8063715018a6146100985780637dd24e92146100a25780638d0a5fbb146102b05780638da5cb5b146102ce575b600080fd5b6100a061057a565b005b6102ae600480360360e08110156100b857600080fd5b8101908080359060200190929190803590602001906401000000008111156100df57600080fd5b8201836020820111156100f157600080fd5b8035906020019184602083028401116401000000008311171561011357600080fd5b919080806020026020016040519081016040528093929190818152602001838360200280828437600081840152601f19601f820116905080830192505050505050509192919290803590602001909291908035906020019064010000000081111561017d57600080fd5b82018360208201111561018f57600080fd5b803590602001918460018302840111640100000000831117156101b157600080fd5b91908080601f016020809104026020016040519081016040528093929190818152602001838380828437600081840152601f19601f8201169050808301925050505050505091929192908035906020019064010000000081111561021457600080fd5b82018360208201111561022657600080fd5b8035906020019184600183028401116401000000008311171561024857600080fd5b91908080601f016020809104026020016040519081016040528093929190818152602001838380828437600081840152601f19601f82011690508083019250505050505050919291929080359060200190929190803590602001909291905050506106b3565b005b6102b8610b32565b6040518082815260200191505060405180910390f35b6102d6610b3f565b604051808273ffffffffffffffffffffffffffffffffffffffff1673ffffffffffffffffffffffffffffffffffffffff16815260200191505060405180910390f35b610320610b68565b604051808215151515815260200191505060405180910390f35b6103666004803603602081101561035057600080fd5b8101908080359060200190929190505050610bc6565b6040518087815260200186815260200185815260200184815260200183600281111561038e57fe5b60ff168152602001828152602001965050505050505060405180910390f35b6103f7600480360360808110156103c357600080fd5b8101908080359060200190929190803590602001909291908035906020019092919080359060200190929190505050610c1c565b005b6104256004803603602081101561040f57600080fd5b81019080803590602001909291905050506110a3565b60405180878152602001806020018060200186815260200185600281111561044957fe5b60ff168152602001848152602001838103835288818151815260200191508051906020019080838360005b8381101561048f578082015181840152602081019050610474565b50505050905090810190601f1680156104bc5780820380516001836020036101000a031916815260200191505b50838103825287818151815260200191508051906020019080838360005b838110156104f55780820151818401526020810190506104da565b50505050905090810190601f1680156105225780820380516001836020036101000a031916815260200191505b509850505050505050505060405180910390f35b6105786004803603602081101561054c57600080fd5b81019080803573ffffffffffffffffffffffffffffffffffffffff1690602001909291905050506113da565b005b610582610b68565b6105f4576040517f08c379a00000000000000000000000000000000000000000000000000000000081526004018080602001828103825260208152602001807f4f776e61626c653a2063616c6c6572206973206e6f7420746865206f776e657281525060200191505060405180910390fd5b600073ffffffffffffffffffffffffffffffffffffffff166000809054906101000a900473ffffffffffffffffffffffffffffffffffffffff1673ffffffffffffffffffffffffffffffffffffffff167f8be0079c531659141344cd1fd0a4f28419497f9722a3daafe3b4186f6b6457e060405160405180910390a360008060006101000a81548173ffffffffffffffffffffffffffffffffffffffff021916908373ffffffffffffffffffffffffffffffffffffffff160217905550565b6000600388815481106106c257fe5b9060005260206000209060070201905060018160050160006101000a81548160ff021916908360028111156106f357fe5b02179055508581600601819055507fb51299e0a17abb6cb181a14b3d2e1008fc8a9d497e011441f1b50576ad71d6498160000154858784600301548560050160009054906101000a900460ff16866006015460405180878152602001806020018060200186815260200185600281111561076957fe5b60ff168152602001848152602001838103835288818151815260200191508051906020019080838360005b838110156107af578082015181840152602081019050610794565b50505050905090810190601f1680156107dc5780820380516001836020036101000a031916815260200191505b50838103825287818151815260200191508051906020019080838360005b838110156108155780820151818401526020810190506107fa565b50505050905090810190601f1680156108425780820380516001836020036101000a031916815260200191505b509850505050505050505060405180910390a160008760008151811061086457fe5b602002602001015190505b87518860008151811061087e57fe5b602002602001015101811015610b2757807fed26eb219c0005d6fc97736d901bfe7bcaf24d50b2003ecf76daae656ee36ae3836000015484600101548886600201548b8d8b8b604051808981526020018881526020018060200187815260200180602001868152602001858152602001848152602001838103835289818151815260200191508051906020019080838360005b8381101561092c578082015181840152602081019050610911565b50505050905090810190601f1680156109595780820380516001836020036101000a031916815260200191505b50838103825287818151815260200191508051906020019080838360005b83811015610992578082015181840152602081019050610977565b50505050905090810190601f1680156109bf5780820380516001836020036101000a031916815260200191505b509a505050505050505050505060405180910390a2807ff72594244eb9888b64eb1b4014a7d25c1958dea2a149d0a7aa905c22f437650d836000015484600101548886600201548b8d8b8b604051808981526020018881526020018060200187815260200180602001868152602001858152602001848152602001838103835289818151815260200191508051906020019080838360005b83811015610a72578082015181840152602081019050610a57565b50505050905090810190601f168015610a9f5780820380516001836020036101000a031916815260200191505b50838103825287818151815260200191508051906020019080838360005b83811015610ad8578082015181840152602081019050610abd565b50505050905090810190601f168015610b055780820380516001836020036101000a031916815260200191505b509a505050505050505050505060405180910390a2808060010191505061086f565b505050505050505050565b6000600380549050905090565b60008060009054906101000a900473ffffffffffffffffffffffffffffffffffffffff16905090565b60008060009054906101000a900473ffffffffffffffffffffffffffffffffffffffff1673ffffffffffffffffffffffffffffffffffffffff16610baa611460565b73ffffffffffffffffffffffffffffffffffffffff1614905090565b60038181548110610bd357fe5b90600052602060002090600702016000915090508060000154908060010154908060020154908060030154908060050160009054906101000a900460ff16908060060154905086565b60006003805490509050606085604051908082528060200260200182016040528015610c575781602001602082028038833980820191505090505b509050610c626115ac565b6040518060e0016040528084815260200187815260200186815260200188815260200183815260200160006002811115610c9857fe5b81526020018581525090506060600260009054906101000a900473ffffffffffffffffffffffffffffffffffffffff1673ffffffffffffffffffffffffffffffffffffffff1663b80f0195876040518263ffffffff1660e01b81526004018082815260200191505060006040518083038186803b158015610d1857600080fd5b505afa158015610d2c573d6000803e3d6000fd5b505050506040513d6000823e3d601f19601f820116820180604052506020811015610d5657600080fd5b810190808051640100000000811115610d6e57600080fd5b82810190506020810184811115610d8457600080fd5b8151856001820283011164010000000082111715610da157600080fd5b505092919050505090506060600160009054906101000a900473ffffffffffffffffffffffffffffffffffffffff1673ffffffffffffffffffffffffffffffffffffffff16633a72684e84602001516040518263ffffffff1660e01b81526004018082815260200191505060006040518083038186803b158015610e2457600080fd5b505afa158015610e38573d6000803e3d6000fd5b505050506040513d6000823e3d601f19601f820116820180604052506020811015610e6257600080fd5b810190808051640100000000811115610e7a57600080fd5b82810190506020810184811115610e9057600080fd5b8151856001820283011164010000000082111715610ead57600080fd5b505092919050505090507fcd5297d64fcae10e03c651177b65a53fc56dca7868826358e9a4a593e14c0c428582848c60008b604051808781526020018060200180602001868152602001856002811115610f0357fe5b60ff168152602001848152602001838103835288818151815260200191508051906020019080838360005b83811015610f49578082015181840152602081019050610f2e565b50505050905090810190601f168015610f765780820380516001836020036101000a031916815260200191505b50838103825287818151815260200191508051906020019080838360005b83811015610faf578082015181840152602081019050610f94565b50505050905090810190601f168015610fdc5780820380516001836020036101000a031916815260200191505b509850505050505050505060405180910390a1600383908060018154018082558091505090600182039060005260206000209060070201600090919290919091506000820151816000015560208201518160010155604082015181600201556060820151816003015560808201518160040190805190602001906110619291906115f4565b5060a08201518160050160006101000a81548160ff0219169083600281111561108657fe5b021790555060c08201518160060155505050505050505050505050565b600060608060008060006110b56115ac565b600388815481106110c257fe5b90600052602060002090600702016040518060e0016040529081600082015481526020016001820154815260200160028201548152602001600382015481526020016004820180548060200260200160405190810160405280929190818152602001828054801561115257602002820191906000526020600020905b81548152602001906001019080831161113e575b505050505081526020016005820160009054906101000a900460ff16600281111561117957fe5b600281111561118457fe5b815260200160068201548152505090506060600160009054906101000a900473ffffffffffffffffffffffffffffffffffffffff1673ffffffffffffffffffffffffffffffffffffffff16633a72684e83602001516040518263ffffffff1660e01b81526004018082815260200191505060006040518083038186803b15801561120d57600080fd5b505afa158015611221573d6000803e3d6000fd5b505050506040513d6000823e3d601f19601f82011682018060405250602081101561124b57600080fd5b81019080805164010000000081111561126357600080fd5b8281019050602081018481111561127957600080fd5b815185600182028301116401000000008211171561129657600080fd5b505092919050505090506060600260009054906101000a900473ffffffffffffffffffffffffffffffffffffffff1673ffffffffffffffffffffffffffffffffffffffff1663b80f019584604001516040518263ffffffff1660e01b81526004018082815260200191505060006040518083038186803b15801561131957600080fd5b505afa15801561132d573d6000803e3d6000fd5b505050506040513d6000823e3d601f19601f82011682018060405250602081101561135757600080fd5b81019080805164010000000081111561136f57600080fd5b8281019050602081018481111561138557600080fd5b81518560018202830111640100000000821117156113a257600080fd5b505092919050505090508260000151828285606001518660a001518760c0015198509850985098509850985050505091939550919395565b6113e2610b68565b611454576040517f08c379a00000000000000000000000000000000000000000000000000000000081526004018080602001828103825260208152602001807f4f776e61626c653a2063616c6c6572206973206e6f7420746865206f776e657281525060200191505060405180910390fd5b61145d81611468565b50565b600033905090565b600073ffffffffffffffffffffffffffffffffffffffff168173ffffffffffffffffffffffffffffffffffffffff1614156114ee576040517f08c379a00000000000000000000000000000000000000000000000000000000081526004018080602001828103825260268152602001806116676026913960400191505060405180910390fd5b8073ffffffffffffffffffffffffffffffffffffffff166000809054906101000a900473ffffffffffffffffffffffffffffffffffffffff1673ffffffffffffffffffffffffffffffffffffffff167f8be0079c531659141344cd1fd0a4f28419497f9722a3daafe3b4186f6b6457e060405160405180910390a3806000806101000a81548173ffffffffffffffffffffffffffffffffffffffff021916908373ffffffffffffffffffffffffffffffffffffffff16021790555050565b6040518060e001604052806000815260200160008152602001600081526020016000815260200160608152602001600060028111156115e757fe5b8152602001600081525090565b828054828255906000526020600020908101928215611630579160200282015b8281111561162f578251825591602001919060010190611614565b5b50905061163d9190611641565b5090565b61166391905b8082111561165f576000816000905550600101611647565b5090565b9056fe4f776e61626c653a206e6577206f776e657220697320746865207a65726f2061646472657373a165627a7a72305820a19cca8232ed64131339a8321108618df172b780b24c4202b8270bdf6fedc25d0029",
  "source": "pragma solidity  > 0.5.0;\n\nimport \"../node_modules/openzeppelin-solidity/contracts/ownership/Ownable.sol\";\nimport \"./SupplyDataTypes.sol\";\nimport \"./FarmManager.sol\";\nimport \"./NurseryManager.sol\";\n\ncontract OrderManager is Ownable {\n  NurseryManager nurseryManager;\n  FarmManager farmManager;\n\n  SupplyDataTypes.Order[] public orders;\n\n  event OrderPlaced(uint orderId, string nurseryName, string farmName, uint plantIds, SupplyDataTypes.OrderState state, uint placedDate);\n  event OrderDispatched(uint orderId, string nurseryName, string farmName, uint plantIds, SupplyDataTypes.OrderState state, uint dispatchedDate);\n  event PurchasedByFarmer(uint indexed plantId, uint orderId, uint nurseryId, string nurseryName, uint farmId, string farmName, uint date, int lat, int long);\n  event DispatchedByNursery(uint indexed plantId, uint orderId, uint nurseryId, string nurseryName, uint farmId, string farmName, uint date, int lat, int long);\n\n  constructor(address nurseryManagerAddress, address farmManagerAddress) public {\n    nurseryManager = NurseryManager(nurseryManagerAddress);\n    farmManager = FarmManager(farmManagerAddress);\n  }\n\n  function getOrderCount() public view returns(uint) {\n    return orders.length;\n  }\n\n  function getOrder(uint index) public view returns(uint, string memory, string memory, uint, SupplyDataTypes.OrderState, uint) {\n    SupplyDataTypes.Order memory order = orders[index];\n    string memory nurseryName = nurseryManager.getNurseryName(order.nurseryId);\n    string memory farmName = farmManager.getFarmName(order.farmId);\n    return (order.orderId, nurseryName, farmName, order.quantity, order.state, order.updated);\n  }\n\n  function orderPlants(uint quantity, uint nurseryId, uint farmId, uint purchaseDate) public {\n    uint orderId = orders.length;\n    uint[] memory plantIds = new uint[](quantity);\n    SupplyDataTypes.Order memory order = SupplyDataTypes.Order(orderId, nurseryId, farmId, quantity, plantIds, SupplyDataTypes.OrderState.Placed, purchaseDate);\n\n    string memory farmName = farmManager.getFarmName(farmId);\n    string memory nurseryName = nurseryManager.getNurseryName(order.nurseryId);\n\n    emit OrderPlaced(orderId, nurseryName, farmName, quantity, SupplyDataTypes.OrderState.Placed, purchaseDate);\n\n    orders.push(order);\n  }\n\n  function dispatchOrder(uint orderId, uint[] memory plantIds, uint dispatchedDate, string memory farmName, string memory nurseryName, int lat, int long) public {\n    SupplyDataTypes.Order storage order = orders[orderId];\n    order.state = SupplyDataTypes.OrderState.Dispatched;\n    order.updated = dispatchedDate;\n\n    emit OrderDispatched(order.orderId, nurseryName, farmName, order.quantity, order.state, order.updated);\n\n    for (uint i = plantIds[0]; i < plantIds[0] + plantIds.length; i++) {\n      emit PurchasedByFarmer(i, order.orderId, order.nurseryId, nurseryName, order.farmId, farmName, dispatchedDate, lat, long);\n      emit DispatchedByNursery(i, order.orderId, order.nurseryId, nurseryName, order.farmId, farmName, dispatchedDate, lat, long);\n    }\n  }\n}",
  "sourcePath": "/home/gordon/projects/blockchain/basic/contracts/OrderManager.sol",
  "compiler": {
    "name": "solc",
    "version": "0.5.8+commit.23d335f2.Emscripten.clang"
  },
  "schemaVersion": "3.0.11",
  "updatedAt": "2020-03-31T14:02:43.555Z",
  "devdoc": {
    "methods": {
      "isOwner()": {
        "details": "Returns true if the caller is the current owner."
      },
      "owner()": {
        "details": "Returns the address of the current owner."
      },
      "renounceOwnership()": {
        "details": "Leaves the contract without owner. It will not be possible to call `onlyOwner` functions anymore. Can only be called by the current owner.     * NOTE: Renouncing ownership will leave the contract without an owner, thereby removing any functionality that is only available to the owner."
      },
      "transferOwnership(address)": {
        "details": "Transfers ownership of the contract to a new account (`newOwner`). Can only be called by the current owner."
      }
    }
  },
  "userdoc": {
    "methods": {}
  }
}