{
  "contractName": "Supply",
  "abi": [
    {
      "constant": true,
      "inputs": [
        {
          "name": "",
          "type": "uint256"
        }
      ],
      "name": "nurseries",
      "outputs": [
        {
          "name": "id",
          "type": "uint256"
        },
        {
          "name": "name",
          "type": "string"
        },
        {
          "name": "lat",
          "type": "int256"
        },
        {
          "name": "long",
          "type": "int256"
        },
        {
          "name": "description",
          "type": "string"
        },
        {
          "name": "ownerId",
          "type": "uint256"
        }
      ],
      "payable": false,
      "stateMutability": "view",
      "type": "function"
    },
    {
      "constant": true,
      "inputs": [
        {
          "name": "",
          "type": "uint256"
        }
      ],
      "name": "nurseryOwnerList",
      "outputs": [
        {
          "name": "id",
          "type": "uint256"
        },
        {
          "name": "name",
          "type": "string"
        },
        {
          "name": "ownerAddress",
          "type": "address"
        }
      ],
      "payable": false,
      "stateMutability": "view",
      "type": "function"
    },
    {
      "constant": false,
      "inputs": [],
      "name": "renounceOwnership",
      "outputs": [],
      "payable": false,
      "stateMutability": "nonpayable",
      "type": "function"
    },
    {
      "constant": true,
      "inputs": [
        {
          "name": "",
          "type": "uint256"
        }
      ],
      "name": "farms",
      "outputs": [
        {
          "name": "id",
          "type": "uint256"
        },
        {
          "name": "name",
          "type": "string"
        },
        {
          "name": "lat",
          "type": "int256"
        },
        {
          "name": "long",
          "type": "int256"
        },
        {
          "name": "farmer",
          "type": "address"
        }
      ],
      "payable": false,
      "stateMutability": "view",
      "type": "function"
    },
    {
      "constant": true,
      "inputs": [],
      "name": "owner",
      "outputs": [
        {
          "name": "",
          "type": "address"
        }
      ],
      "payable": false,
      "stateMutability": "view",
      "type": "function"
    },
    {
      "constant": true,
      "inputs": [
        {
          "name": "",
          "type": "uint256"
        }
      ],
      "name": "plants",
      "outputs": [
        {
          "name": "id",
          "type": "uint256"
        },
        {
          "name": "state",
          "type": "uint8"
        },
        {
          "name": "plantedDate",
          "type": "uint256"
        },
        {
          "name": "lat",
          "type": "int256"
        },
        {
          "name": "long",
          "type": "int256"
        },
        {
          "name": "sourceNursery",
          "type": "string"
        },
        {
          "name": "variety",
          "type": "string"
        },
        {
          "name": "ownerId",
          "type": "uint256"
        }
      ],
      "payable": false,
      "stateMutability": "view",
      "type": "function"
    },
    {
      "constant": true,
      "inputs": [],
      "name": "isOwner",
      "outputs": [
        {
          "name": "",
          "type": "bool"
        }
      ],
      "payable": false,
      "stateMutability": "view",
      "type": "function"
    },
    {
      "constant": true,
      "inputs": [
        {
          "name": "",
          "type": "address"
        }
      ],
      "name": "farmsByOwners",
      "outputs": [
        {
          "name": "id",
          "type": "uint256"
        },
        {
          "name": "name",
          "type": "string"
        },
        {
          "name": "lat",
          "type": "int256"
        },
        {
          "name": "long",
          "type": "int256"
        },
        {
          "name": "farmer",
          "type": "address"
        }
      ],
      "payable": false,
      "stateMutability": "view",
      "type": "function"
    },
    {
      "constant": true,
      "inputs": [
        {
          "name": "",
          "type": "uint256"
        }
      ],
      "name": "orders",
      "outputs": [
        {
          "name": "orderId",
          "type": "uint256"
        },
        {
          "name": "nursery",
          "type": "address"
        },
        {
          "name": "farmer",
          "type": "address"
        },
        {
          "name": "state",
          "type": "uint8"
        }
      ],
      "payable": false,
      "stateMutability": "view",
      "type": "function"
    },
    {
      "constant": true,
      "inputs": [
        {
          "name": "",
          "type": "address"
        }
      ],
      "name": "nurseriesByOwners",
      "outputs": [
        {
          "name": "id",
          "type": "uint256"
        },
        {
          "name": "name",
          "type": "string"
        },
        {
          "name": "lat",
          "type": "int256"
        },
        {
          "name": "long",
          "type": "int256"
        },
        {
          "name": "description",
          "type": "string"
        },
        {
          "name": "ownerId",
          "type": "uint256"
        }
      ],
      "payable": false,
      "stateMutability": "view",
      "type": "function"
    },
    {
      "constant": true,
      "inputs": [
        {
          "name": "",
          "type": "uint256"
        }
      ],
      "name": "farmOwnerList",
      "outputs": [
        {
          "name": "id",
          "type": "uint256"
        },
        {
          "name": "name",
          "type": "string"
        },
        {
          "name": "ownerAddress",
          "type": "address"
        }
      ],
      "payable": false,
      "stateMutability": "view",
      "type": "function"
    },
    {
      "constant": true,
      "inputs": [
        {
          "name": "",
          "type": "uint256"
        }
      ],
      "name": "ownerList",
      "outputs": [
        {
          "name": "id",
          "type": "uint256"
        },
        {
          "name": "name",
          "type": "string"
        },
        {
          "name": "ownerAddress",
          "type": "address"
        }
      ],
      "payable": false,
      "stateMutability": "view",
      "type": "function"
    },
    {
      "constant": false,
      "inputs": [
        {
          "name": "newOwner",
          "type": "address"
        }
      ],
      "name": "transferOwnership",
      "outputs": [],
      "payable": false,
      "stateMutability": "nonpayable",
      "type": "function"
    },
    {
      "inputs": [],
      "payable": false,
      "stateMutability": "nonpayable",
      "type": "constructor"
    },
    {
      "anonymous": false,
      "inputs": [
        {
          "indexed": false,
          "name": "name",
          "type": "string"
        },
        {
          "indexed": false,
          "name": "nurseryOwner",
          "type": "address"
        }
      ],
      "name": "AddedNurseryOwner",
      "type": "event"
    },
    {
      "anonymous": false,
      "inputs": [
        {
          "indexed": false,
          "name": "name",
          "type": "string"
        },
        {
          "indexed": false,
          "name": "farmOwner",
          "type": "address"
        }
      ],
      "name": "AddedFarmOwner",
      "type": "event"
    },
    {
      "anonymous": false,
      "inputs": [
        {
          "indexed": false,
          "name": "nurseryId",
          "type": "uint256"
        },
        {
          "indexed": false,
          "name": "nurseryName",
          "type": "string"
        },
        {
          "indexed": false,
          "name": "lat",
          "type": "int256"
        },
        {
          "indexed": false,
          "name": "long",
          "type": "int256"
        },
        {
          "indexed": false,
          "name": "description",
          "type": "string"
        },
        {
          "indexed": false,
          "name": "ownerId",
          "type": "uint256"
        },
        {
          "indexed": false,
          "name": "ownerName",
          "type": "string"
        }
      ],
      "name": "AddedNursery",
      "type": "event"
    },
    {
      "anonymous": false,
      "inputs": [
        {
          "indexed": true,
          "name": "plantId",
          "type": "uint256"
        },
        {
          "indexed": false,
          "name": "state",
          "type": "uint8"
        },
        {
          "indexed": false,
          "name": "date",
          "type": "uint256"
        },
        {
          "indexed": false,
          "name": "lat",
          "type": "int256"
        },
        {
          "indexed": false,
          "name": "long",
          "type": "int256"
        },
        {
          "indexed": false,
          "name": "name",
          "type": "string"
        },
        {
          "indexed": false,
          "name": "variety",
          "type": "string"
        },
        {
          "indexed": true,
          "name": "ownerId",
          "type": "uint256"
        }
      ],
      "name": "PropogatedByNursery",
      "type": "event"
    },
    {
      "anonymous": false,
      "inputs": [
        {
          "indexed": true,
          "name": "plantId",
          "type": "uint256"
        },
        {
          "indexed": false,
          "name": "plantOwner",
          "type": "address"
        },
        {
          "indexed": false,
          "name": "nurseryName",
          "type": "string"
        },
        {
          "indexed": false,
          "name": "farmName",
          "type": "string"
        },
        {
          "indexed": false,
          "name": "date",
          "type": "uint256"
        },
        {
          "indexed": false,
          "name": "lat",
          "type": "int256"
        },
        {
          "indexed": false,
          "name": "long",
          "type": "int256"
        }
      ],
      "name": "PurchasedByFarmer",
      "type": "event"
    },
    {
      "anonymous": false,
      "inputs": [
        {
          "indexed": true,
          "name": "plantId",
          "type": "uint256"
        },
        {
          "indexed": false,
          "name": "plantOwner",
          "type": "address"
        },
        {
          "indexed": false,
          "name": "date",
          "type": "uint256"
        }
      ],
      "name": "ShippedByNursery",
      "type": "event"
    },
    {
      "anonymous": false,
      "inputs": [
        {
          "indexed": true,
          "name": "plantId",
          "type": "uint256"
        },
        {
          "indexed": false,
          "name": "plantOwner",
          "type": "address"
        },
        {
          "indexed": false,
          "name": "date",
          "type": "uint256"
        }
      ],
      "name": "ReceivedByFarmer",
      "type": "event"
    },
    {
      "anonymous": false,
      "inputs": [
        {
          "indexed": true,
          "name": "plantId",
          "type": "uint256"
        },
        {
          "indexed": false,
          "name": "plantOwner",
          "type": "address"
        },
        {
          "indexed": false,
          "name": "date",
          "type": "uint256"
        }
      ],
      "name": "PlantedByFarmer",
      "type": "event"
    },
    {
      "anonymous": false,
      "inputs": [
        {
          "indexed": true,
          "name": "previousOwner",
          "type": "address"
        },
        {
          "indexed": true,
          "name": "newOwner",
          "type": "address"
        }
      ],
      "name": "OwnershipTransferred",
      "type": "event"
    },
    {
      "constant": true,
      "inputs": [],
      "name": "getOwnerCount",
      "outputs": [
        {
          "name": "",
          "type": "uint256"
        }
      ],
      "payable": false,
      "stateMutability": "view",
      "type": "function"
    },
    {
      "constant": false,
      "inputs": [
        {
          "name": "name",
          "type": "string"
        },
        {
          "name": "nurseryOwner",
          "type": "address"
        }
      ],
      "name": "addNurseryOwner",
      "outputs": [],
      "payable": false,
      "stateMutability": "nonpayable",
      "type": "function"
    },
    {
      "constant": true,
      "inputs": [],
      "name": "getNurseryOwnerCount",
      "outputs": [
        {
          "name": "",
          "type": "uint256"
        }
      ],
      "payable": false,
      "stateMutability": "view",
      "type": "function"
    },
    {
      "constant": true,
      "inputs": [
        {
          "name": "index",
          "type": "uint256"
        }
      ],
      "name": "getNurseryOwner",
      "outputs": [
        {
          "name": "",
          "type": "uint256"
        },
        {
          "name": "",
          "type": "string"
        },
        {
          "name": "",
          "type": "address"
        }
      ],
      "payable": false,
      "stateMutability": "view",
      "type": "function"
    },
    {
      "constant": false,
      "inputs": [
        {
          "name": "name",
          "type": "string"
        },
        {
          "name": "lat",
          "type": "int256"
        },
        {
          "name": "long",
          "type": "int256"
        },
        {
          "name": "nurseryDescription",
          "type": "string"
        },
        {
          "name": "ownerId",
          "type": "uint256"
        }
      ],
      "name": "addNursery",
      "outputs": [],
      "payable": false,
      "stateMutability": "nonpayable",
      "type": "function"
    },
    {
      "constant": true,
      "inputs": [],
      "name": "getNurseryCount",
      "outputs": [
        {
          "name": "",
          "type": "uint256"
        }
      ],
      "payable": false,
      "stateMutability": "view",
      "type": "function"
    },
    {
      "constant": true,
      "inputs": [
        {
          "name": "index",
          "type": "uint256"
        }
      ],
      "name": "getNursery",
      "outputs": [
        {
          "name": "",
          "type": "uint256"
        },
        {
          "name": "",
          "type": "string"
        },
        {
          "name": "",
          "type": "int256"
        },
        {
          "name": "",
          "type": "int256"
        },
        {
          "name": "",
          "type": "string"
        },
        {
          "name": "",
          "type": "string"
        },
        {
          "name": "",
          "type": "uint256"
        }
      ],
      "payable": false,
      "stateMutability": "view",
      "type": "function"
    },
    {
      "constant": false,
      "inputs": [
        {
          "name": "date",
          "type": "uint256"
        },
        {
          "name": "variety",
          "type": "string"
        },
        {
          "name": "quantity",
          "type": "int256"
        }
      ],
      "name": "propogatePlants",
      "outputs": [],
      "payable": false,
      "stateMutability": "nonpayable",
      "type": "function"
    },
    {
      "constant": false,
      "inputs": [
        {
          "name": "name",
          "type": "string"
        },
        {
          "name": "farmOwner",
          "type": "address"
        }
      ],
      "name": "addFarmOwner",
      "outputs": [],
      "payable": false,
      "stateMutability": "nonpayable",
      "type": "function"
    },
    {
      "constant": true,
      "inputs": [],
      "name": "getFarmOwnerCount",
      "outputs": [
        {
          "name": "",
          "type": "uint256"
        }
      ],
      "payable": false,
      "stateMutability": "view",
      "type": "function"
    },
    {
      "constant": true,
      "inputs": [
        {
          "name": "index",
          "type": "uint256"
        }
      ],
      "name": "getFarmOwner",
      "outputs": [
        {
          "name": "",
          "type": "string"
        },
        {
          "name": "",
          "type": "address"
        }
      ],
      "payable": false,
      "stateMutability": "view",
      "type": "function"
    },
    {
      "constant": false,
      "inputs": [
        {
          "name": "id",
          "type": "uint256"
        },
        {
          "name": "name",
          "type": "string"
        },
        {
          "name": "lat",
          "type": "int256"
        },
        {
          "name": "long",
          "type": "int256"
        },
        {
          "name": "farmer",
          "type": "address"
        }
      ],
      "name": "addFarm",
      "outputs": [],
      "payable": false,
      "stateMutability": "nonpayable",
      "type": "function"
    },
    {
      "constant": false,
      "inputs": [
        {
          "name": "id",
          "type": "uint256"
        },
        {
          "name": "_state",
          "type": "uint8"
        },
        {
          "name": "_date",
          "type": "uint256"
        },
        {
          "name": "_lat",
          "type": "int256"
        },
        {
          "name": "_long",
          "type": "int256"
        },
        {
          "name": "_nursery",
          "type": "string"
        },
        {
          "name": "variety",
          "type": "string"
        },
        {
          "name": "ownerId",
          "type": "uint256"
        }
      ],
      "name": "addPlant",
      "outputs": [],
      "payable": false,
      "stateMutability": "nonpayable",
      "type": "function"
    },
    {
      "constant": true,
      "inputs": [],
      "name": "getPlantCount",
      "outputs": [
        {
          "name": "",
          "type": "uint256"
        }
      ],
      "payable": false,
      "stateMutability": "view",
      "type": "function"
    },
    {
      "constant": true,
      "inputs": [
        {
          "name": "index",
          "type": "uint256"
        }
      ],
      "name": "getPlant",
      "outputs": [
        {
          "name": "",
          "type": "uint256"
        },
        {
          "name": "",
          "type": "uint8"
        },
        {
          "name": "",
          "type": "uint256"
        },
        {
          "name": "",
          "type": "int256"
        },
        {
          "name": "",
          "type": "int256"
        },
        {
          "name": "",
          "type": "string"
        },
        {
          "name": "",
          "type": "string"
        },
        {
          "name": "ownerId",
          "type": "uint256"
        }
      ],
      "payable": false,
      "stateMutability": "view",
      "type": "function"
    },
    {
      "constant": true,
      "inputs": [],
      "name": "isNurseryOwner",
      "outputs": [
        {
          "name": "",
          "type": "bool"
        }
      ],
      "payable": false,
      "stateMutability": "view",
      "type": "function"
    },
    {
      "constant": true,
      "inputs": [],
      "name": "isFarmer",
      "outputs": [
        {
          "name": "",
          "type": "bool"
        }
      ],
      "payable": false,
      "stateMutability": "view",
      "type": "function"
    },
    {
      "constant": true,
      "inputs": [],
      "name": "getOrderCount",
      "outputs": [
        {
          "name": "",
          "type": "uint256"
        }
      ],
      "payable": false,
      "stateMutability": "view",
      "type": "function"
    },
    {
      "constant": false,
      "inputs": [
        {
          "name": "plantIds",
          "type": "uint256[]"
        },
        {
          "name": "nurseryOwner",
          "type": "address"
        },
        {
          "name": "purchaseDate",
          "type": "uint256"
        }
      ],
      "name": "orderPlants",
      "outputs": [],
      "payable": false,
      "stateMutability": "nonpayable",
      "type": "function"
    }
  ],
  "bytecode": "0x60806040523480156200001157600080fd5b5062000022620000e360201b60201c565b6000806101000a81548173ffffffffffffffffffffffffffffffffffffffff021916908373ffffffffffffffffffffffffffffffffffffffff1602179055506000809054906101000a900473ffffffffffffffffffffffffffffffffffffffff1673ffffffffffffffffffffffffffffffffffffffff16600073ffffffffffffffffffffffffffffffffffffffff167f8be0079c531659141344cd1fd0a4f28419497f9722a3daafe3b4186f6b6457e060405160405180910390a3620000eb565b600033905090565b614d1c80620000fb6000396000f3fe608060405234801561001057600080fd5b50600436106101f05760003560e01c80639ff7ddf11161010f578063c0d3e1f9116100a2578063ea2a33a111610071578063ea2a33a114611617578063ed0b1f5f14611710578063ef18374a1461185b578063f2fde38b14611879576101f0565b8063c0d3e1f9146112ab578063def79ab5146112c9578063e2033fd2146113aa578063e5121e8214611485576101f0565b8063aef7076d116100de578063aef7076d14610f62578063b30a262714610f80578063b4986ba514611061578063bc7aa933146111d1576101f0565b80639ff7ddf114610ac0578063a38921e814610bc5578063a85c38ef14610d60578063aa68256214610e1d576101f0565b806375d019e1116101875780638dd2361c116101565780638dd2361c146108535780638f32d59b1461099e578063954aba9f146109c05780639f46626814610aa2576101f0565b806375d019e1146106215780637da470ea146106fc5780638d0a5fbb146107eb5780638da5cb5b14610809576101f0565b80635f28d0df116101c35780635f28d0df146104375780636b8180b214610518578063715018a6146105f957806372201a9e14610603576101f0565b80630d5881a4146101f5578063116fe555146102c45780631422f222146103f357806354db274414610415575b600080fd5b6102c26004803603606081101561020b57600080fd5b81019080803590602001909291908035906020019064010000000081111561023257600080fd5b82018360208201111561024457600080fd5b8035906020019184600183028401116401000000008311171561026657600080fd5b91908080601f016020809104026020016040519081016040528093929190818152602001838380828437600081840152601f19601f820116905080830192505050505050509192919290803590602001909291905050506118bd565b005b6102f0600480360360208110156102da57600080fd5b8101908080359060200190929190505050611c86565b604051808781526020018060200186815260200185815260200180602001848152602001838103835288818151815260200191508051906020019080838360005b8381101561034c578082015181840152602081019050610331565b50505050905090810190601f1680156103795780820380516001836020036101000a031916815260200191505b50838103825285818151815260200191508051906020019080838360005b838110156103b2578082015181840152602081019050610397565b50505050905090810190601f1680156103df5780820380516001836020036101000a031916815260200191505b509850505050505050505060405180910390f35b6103fb611dff565b604051808215151515815260200191505060405180910390f35b61041d611e1a565b604051808215151515815260200191505060405180910390f35b6104636004803603602081101561044d57600080fd5b8101908080359060200190929190505050611e35565b60405180848152602001806020018373ffffffffffffffffffffffffffffffffffffffff1673ffffffffffffffffffffffffffffffffffffffff168152602001828103825284818151815260200191508051906020019080838360005b838110156104db5780820151818401526020810190506104c0565b50505050905090810190601f1680156105085780820380516001836020036101000a031916815260200191505b5094505050505060405180910390f35b6105446004803603602081101561052e57600080fd5b8101908080359060200190929190505050611f24565b60405180848152602001806020018373ffffffffffffffffffffffffffffffffffffffff1673ffffffffffffffffffffffffffffffffffffffff168152602001828103825284818151815260200191508051906020019080838360005b838110156105bc5780820151818401526020810190506105a1565b50505050905090810190601f1680156105e95780820380516001836020036101000a031916815260200191505b5094505050505060405180910390f35b61060161207c565b005b61060b6121b5565b6040518082815260200191505060405180910390f35b6106fa6004803603604081101561063757600080fd5b810190808035906020019064010000000081111561065457600080fd5b82018360208201111561066657600080fd5b8035906020019184600183028401116401000000008311171561068857600080fd5b91908080601f016020809104026020016040519081016040528093929190818152602001838380828437600081840152601f19601f820116905080830192505050505050509192919290803573ffffffffffffffffffffffffffffffffffffffff1690602001909291905050506121c2565b005b6107286004803603602081101561071257600080fd5b81019080803590602001909291905050506124a3565b60405180868152602001806020018581526020018481526020018373ffffffffffffffffffffffffffffffffffffffff1673ffffffffffffffffffffffffffffffffffffffff168152602001828103825286818151815260200191508051906020019080838360005b838110156107ac578082015181840152602081019050610791565b50505050905090810190601f1680156107d95780820380516001836020036101000a031916815260200191505b50965050505050505060405180910390f35b6107f361259e565b6040518082815260200191505060405180910390f35b6108116125ab565b604051808273ffffffffffffffffffffffffffffffffffffffff1673ffffffffffffffffffffffffffffffffffffffff16815260200191505060405180910390f35b61087f6004803603602081101561086957600080fd5b81019080803590602001909291905050506125d4565b6040518089815260200188600b81111561089557fe5b60ff1681526020018781526020018681526020018581526020018060200180602001848152602001838103835286818151815260200191508051906020019080838360005b838110156108f55780820151818401526020810190506108da565b50505050905090810190601f1680156109225780820380516001836020036101000a031916815260200191505b50838103825285818151815260200191508051906020019080838360005b8381101561095b578082015181840152602081019050610940565b50505050905090810190601f1680156109885780820380516001836020036101000a031916815260200191505b509a505050505050505050505060405180910390f35b6109a6612766565b604051808215151515815260200191505060405180910390f35b610aa0600480360360608110156109d657600080fd5b81019080803590602001906401000000008111156109f357600080fd5b820183602082011115610a0557600080fd5b80359060200191846020830284011164010000000083111715610a2757600080fd5b919080806020026020016040519081016040528093929190818152602001838360200280828437600081840152601f19601f820116905080830192505050505050509192919290803573ffffffffffffffffffffffffffffffffffffffff169060200190929190803590602001909291905050506127c4565b005b610aaa612eec565b6040518082815260200191505060405180910390f35b610b0260048036036020811015610ad657600080fd5b81019080803573ffffffffffffffffffffffffffffffffffffffff169060200190929190505050612ef9565b60405180868152602001806020018581526020018481526020018373ffffffffffffffffffffffffffffffffffffffff1673ffffffffffffffffffffffffffffffffffffffff168152602001828103825286818151815260200191508051906020019080838360005b83811015610b86578082015181840152602081019050610b6b565b50505050905090810190601f168015610bb35780820380516001836020036101000a031916815260200191505b50965050505050505060405180910390f35b610bf160048036036020811015610bdb57600080fd5b8101908080359060200190929190505050612fe7565b6040518088815260200180602001878152602001868152602001806020018060200185815260200184810384528a818151815260200191508051906020019080838360005b83811015610c51578082015181840152602081019050610c36565b50505050905090810190601f168015610c7e5780820380516001836020036101000a031916815260200191505b50848103835287818151815260200191508051906020019080838360005b83811015610cb7578082015181840152602081019050610c9c565b50505050905090810190601f168015610ce45780820380516001836020036101000a031916815260200191505b50848103825286818151815260200191508051906020019080838360005b83811015610d1d578082015181840152602081019050610d02565b50505050905090810190601f168015610d4a5780820380516001836020036101000a031916815260200191505b509a505050505050505050505060405180910390f35b610d8c60048036036020811015610d7657600080fd5b810190808035906020019092919050505061330c565b604051808581526020018473ffffffffffffffffffffffffffffffffffffffff1673ffffffffffffffffffffffffffffffffffffffff1681526020018373ffffffffffffffffffffffffffffffffffffffff1673ffffffffffffffffffffffffffffffffffffffff168152602001826002811115610e0657fe5b60ff16815260200194505050505060405180910390f35b610e5f60048036036020811015610e3357600080fd5b81019080803573ffffffffffffffffffffffffffffffffffffffff169060200190929190505050613396565b604051808781526020018060200186815260200185815260200180602001848152602001838103835288818151815260200191508051906020019080838360005b83811015610ebb578082015181840152602081019050610ea0565b50505050905090810190601f168015610ee85780820380516001836020036101000a031916815260200191505b50838103825285818151815260200191508051906020019080838360005b83811015610f21578082015181840152602081019050610f06565b50505050905090810190601f168015610f4e5780820380516001836020036101000a031916815260200191505b509850505050505050505060405180910390f35b610f6a613502565b6040518082815260200191505060405180910390f35b610fac60048036036020811015610f9657600080fd5b810190808035906020019092919050505061350f565b60405180848152602001806020018373ffffffffffffffffffffffffffffffffffffffff1673ffffffffffffffffffffffffffffffffffffffff168152602001828103825284818151815260200191508051906020019080838360005b83811015611024578082015181840152602081019050611009565b50505050905090810190601f1680156110515780820380516001836020036101000a031916815260200191505b5094505050505060405180910390f35b6111cf600480360360a081101561107757600080fd5b810190808035906020019064010000000081111561109457600080fd5b8201836020820111156110a657600080fd5b803590602001918460018302840111640100000000831117156110c857600080fd5b91908080601f016020809104026020016040519081016040528093929190818152602001838380828437600081840152601f19601f82011690508083019250505050505050919291929080359060200190929190803590602001909291908035906020019064010000000081111561113f57600080fd5b82018360208201111561115157600080fd5b8035906020019184600183028401116401000000008311171561117357600080fd5b91908080601f016020809104026020016040519081016040528093929190818152602001838380828437600081840152601f19601f820116905080830192505050505050509192919290803590602001909291905050506135fe565b005b6111fd600480360360208110156111e757600080fd5b8101908080359060200190929190505050613b53565b60405180806020018373ffffffffffffffffffffffffffffffffffffffff1673ffffffffffffffffffffffffffffffffffffffff168152602001828103825284818151815260200191508051906020019080838360005b8381101561126f578082015181840152602081019050611254565b50505050905090810190601f16801561129c5780820380516001836020036101000a031916815260200191505b50935050505060405180910390f35b6112b3613ca0565b6040518082815260200191505060405180910390f35b6112f5600480360360208110156112df57600080fd5b8101908080359060200190929190505050613cad565b60405180848152602001806020018373ffffffffffffffffffffffffffffffffffffffff1673ffffffffffffffffffffffffffffffffffffffff168152602001828103825284818151815260200191508051906020019080838360005b8381101561136d578082015181840152602081019050611352565b50505050905090810190601f16801561139a5780820380516001836020036101000a031916815260200191505b5094505050505060405180910390f35b611483600480360360408110156113c057600080fd5b81019080803590602001906401000000008111156113dd57600080fd5b8201836020820111156113ef57600080fd5b8035906020019184600183028401116401000000008311171561141157600080fd5b91908080601f016020809104026020016040519081016040528093929190818152602001838380828437600081840152601f19601f820116905080830192505050505050509192919290803573ffffffffffffffffffffffffffffffffffffffff169060200190929190505050613d9c565b005b611615600480360361010081101561149c57600080fd5b8101908080359060200190929190803560ff169060200190929190803590602001909291908035906020019092919080359060200190929190803590602001906401000000008111156114ee57600080fd5b82018360208201111561150057600080fd5b8035906020019184600183028401116401000000008311171561152257600080fd5b91908080601f016020809104026020016040519081016040528093929190818152602001838380828437600081840152601f19601f8201169050808301925050505050505091929192908035906020019064010000000081111561158557600080fd5b82018360208201111561159757600080fd5b803590602001918460018302840111640100000000831117156115b957600080fd5b91908080601f016020809104026020016040519081016040528093929190818152602001838380828437600081840152601f19601f8201169050808301925050505050505091929192908035906020019092919050505061407d565b005b61170e600480360360a081101561162d57600080fd5b81019080803590602001909291908035906020019064010000000081111561165457600080fd5b82018360208201111561166657600080fd5b8035906020019184600183028401116401000000008311171561168857600080fd5b91908080601f016020809104026020016040519081016040528093929190818152602001838380828437600081840152601f19601f8201169050808301925050505050505091929192908035906020019092919080359060200190929190803573ffffffffffffffffffffffffffffffffffffffff16906020019092919050505061419d565b005b61173c6004803603602081101561172657600080fd5b8101908080359060200190929190505050614464565b6040518089815260200188600b81111561175257fe5b60ff1681526020018781526020018681526020018581526020018060200180602001848152602001838103835286818151815260200191508051906020019080838360005b838110156117b2578082015181840152602081019050611797565b50505050905090810190601f1680156117df5780820380516001836020036101000a031916815260200191505b50838103825285818151815260200191508051906020019080838360005b838110156118185780820151818401526020810190506117fd565b50505050905090810190601f1680156118455780820380516001836020036101000a031916815260200191505b509a505050505050505050505060405180910390f35b61186361468f565b6040518082815260200191505060405180910390f35b6118bb6004803603602081101561188f57600080fd5b81019080803573ffffffffffffffffffffffffffffffffffffffff16906020019092919050505061469c565b005b6118d133600161472290919063ffffffff16565b611926576040517f08c379a0000000000000000000000000000000000000000000000000000000008152600401808060200182810382526027815260200180614ca86027913960400191505060405180910390fd5b61192e614a27565b600760003373ffffffffffffffffffffffffffffffffffffffff1673ffffffffffffffffffffffffffffffffffffffff1681526020019081526020016000206040518060c001604052908160008201548152602001600182018054600181600116156101000203166002900480601f016020809104026020016040519081016040528092919081815260200182805460018160011615610100020316600290048015611a1b5780601f106119f057610100808354040283529160200191611a1b565b820191906000526020600020905b8154815290600101906020018083116119fe57829003601f168201915b505050505081526020016002820154815260200160038201548152602001600482018054600181600116156101000203166002900480601f016020809104026020016040519081016040528092919081815260200182805460018160011615610100020316600290048015611ad15780601f10611aa657610100808354040283529160200191611ad1565b820191906000526020600020905b815481529060010190602001808311611ab457829003601f168201915b5050505050815260200160058201548152505090506000600880549050905060008090505b83811215611c7e57611b1f826000888660400151876060015188602001518b8a60a0015161407d565b8260a00151827f928b48d40e57406bd662d6e71d66cd5b567fabbe55980e647b2dfe5de55d29716000898760400151886060015189602001518c6040518087600b811115611b6957fe5b60ff1681526020018681526020018581526020018481526020018060200180602001838103835285818151815260200191508051906020019080838360005b83811015611bc3578082015181840152602081019050611ba8565b50505050905090810190601f168015611bf05780820380516001836020036101000a031916815260200191505b50838103825284818151815260200191508051906020019080838360005b83811015611c29578082015181840152602081019050611c0e565b50505050905090810190601f168015611c565780820380516001836020036101000a031916815260200191505b509850505050505050505060405180910390a381806001019250508080600101915050611af6565b505050505050565b60068181548110611c9357fe5b9060005260206000209060060201600091509050806000015490806001018054600181600116156101000203166002900480601f016020809104026020016040519081016040528092919081815260200182805460018160011615610100020316600290048015611d455780601f10611d1a57610100808354040283529160200191611d45565b820191906000526020600020905b815481529060010190602001808311611d2857829003601f168201915b505050505090806002015490806003015490806004018054600181600116156101000203166002900480601f016020809104026020016040519081016040528092919081815260200182805460018160011615610100020316600290048015611def5780601f10611dc457610100808354040283529160200191611def565b820191906000526020600020905b815481529060010190602001808311611dd257829003601f168201915b5050505050908060050154905086565b6000611e1533600161472290919063ffffffff16565b905090565b6000611e3033600261472290919063ffffffff16565b905090565b60038181548110611e4257fe5b9060005260206000209060030201600091509050806000015490806001018054600181600116156101000203166002900480601f016020809104026020016040519081016040528092919081815260200182805460018160011615610100020316600290048015611ef45780601f10611ec957610100808354040283529160200191611ef4565b820191906000526020600020905b815481529060010190602001808311611ed757829003601f168201915b5050505050908060020160009054906101000a900473ffffffffffffffffffffffffffffffffffffffff16905083565b600060606000611f32614a5d565b60038581548110611f3f57fe5b906000526020600020906003020160405180606001604052908160008201548152602001600182018054600181600116156101000203166002900480601f016020809104026020016040519081016040528092919081815260200182805460018160011615610100020316600290048015611ffb5780601f10611fd057610100808354040283529160200191611ffb565b820191906000526020600020905b815481529060010190602001808311611fde57829003601f168201915b505050505081526020016002820160009054906101000a900473ffffffffffffffffffffffffffffffffffffffff1673ffffffffffffffffffffffffffffffffffffffff1673ffffffffffffffffffffffffffffffffffffffff16815250509050806000015181602001518260400151819150935093509350509193909250565b612084612766565b6120f6576040517f08c379a00000000000000000000000000000000000000000000000000000000081526004018080602001828103825260208152602001807f4f776e61626c653a2063616c6c6572206973206e6f7420746865206f776e657281525060200191505060405180910390fd5b600073ffffffffffffffffffffffffffffffffffffffff166000809054906101000a900473ffffffffffffffffffffffffffffffffffffffff1673ffffffffffffffffffffffffffffffffffffffff167f8be0079c531659141344cd1fd0a4f28419497f9722a3daafe3b4186f6b6457e060405160405180910390a360008060006101000a81548173ffffffffffffffffffffffffffffffffffffffff021916908373ffffffffffffffffffffffffffffffffffffffff160217905550565b6000600480549050905090565b6121ca612766565b61223c576040517f08c379a00000000000000000000000000000000000000000000000000000000081526004018080602001828103825260208152602001807f4f776e61626c653a2063616c6c6572206973206e6f7420746865206f776e657281525060200191505060405180910390fd5b61225081600161480090919063ffffffff16565b612258614a5d565b604051806060016040528060058054905081526020018481526020018373ffffffffffffffffffffffffffffffffffffffff168152509050600581908060018154018082558091505090600182039060005260206000209060030201600090919290919091506000820151816000015560208201518160010190805190602001906122e4929190614a94565b5060408201518160020160006101000a81548173ffffffffffffffffffffffffffffffffffffffff021916908373ffffffffffffffffffffffffffffffffffffffff16021790555050505060038190806001815401808255809150509060018203906000526020600020906003020160009091929091909150600082015181600001556020820151816001019080519060200190612383929190614a94565b5060408201518160020160006101000a81548173ffffffffffffffffffffffffffffffffffffffff021916908373ffffffffffffffffffffffffffffffffffffffff1602179055505050507f02558f2ae393cac7270a7f9a8dfaefb76eeb51ca6f7652ace69fad261d4bf69d838360405180806020018373ffffffffffffffffffffffffffffffffffffffff1673ffffffffffffffffffffffffffffffffffffffff168152602001828103825284818151815260200191508051906020019080838360005b83811015612463578082015181840152602081019050612448565b50505050905090810190601f1680156124905780820380516001836020036101000a031916815260200191505b50935050505060405180910390a1505050565b600a81815481106124b057fe5b9060005260206000209060050201600091509050806000015490806001018054600181600116156101000203166002900480601f0160208091040260200160405190810160405280929190818152602001828054600181600116156101000203166002900480156125625780601f1061253757610100808354040283529160200191612562565b820191906000526020600020905b81548152906001019060200180831161254557829003601f168201915b5050505050908060020154908060030154908060040160009054906101000a900473ffffffffffffffffffffffffffffffffffffffff16905085565b6000600980549050905090565b60008060009054906101000a900473ffffffffffffffffffffffffffffffffffffffff16905090565b600881815481106125e157fe5b90600052602060002090600802016000915090508060000154908060010160009054906101000a900460ff1690806002015490806003015490806004015490806005018054600181600116156101000203166002900480601f0160208091040260200160405190810160405280929190818152602001828054600181600116156101000203166002900480156126b85780601f1061268d576101008083540402835291602001916126b8565b820191906000526020600020905b81548152906001019060200180831161269b57829003601f168201915b505050505090806006018054600181600116156101000203166002900480601f0160208091040260200160405190810160405280929190818152602001828054600181600116156101000203166002900480156127565780601f1061272b57610100808354040283529160200191612756565b820191906000526020600020905b81548152906001019060200180831161273957829003601f168201915b5050505050908060070154905088565b60008060009054906101000a900473ffffffffffffffffffffffffffffffffffffffff1673ffffffffffffffffffffffffffffffffffffffff166127a86148db565b73ffffffffffffffffffffffffffffffffffffffff1614905090565b6127d833600261472290919063ffffffff16565b61284a576040517f08c379a00000000000000000000000000000000000000000000000000000000081526004018080602001828103825260178152602001807f61646472657373206973206e6f742061206661726d657200000000000000000081525060200191505060405180910390fd5b6000600980549050905061285c614b14565b6040518060a001604052808381526020018573ffffffffffffffffffffffffffffffffffffffff1681526020013373ffffffffffffffffffffffffffffffffffffffff168152602001868152602001600060028111156128b857fe5b81525090506128c5614b7a565b600b60003373ffffffffffffffffffffffffffffffffffffffff1673ffffffffffffffffffffffffffffffffffffffff1681526020019081526020016000206040518060a001604052908160008201548152602001600182018054600181600116156101000203166002900480601f0160208091040260200160405190810160405280929190818152602001828054600181600116156101000203166002900480156129b25780601f10612987576101008083540402835291602001916129b2565b820191906000526020600020905b81548152906001019060200180831161299557829003601f168201915b5050505050815260200160028201548152602001600382015481526020016004820160009054906101000a900473ffffffffffffffffffffffffffffffffffffffff1673ffffffffffffffffffffffffffffffffffffffff1673ffffffffffffffffffffffffffffffffffffffff16815250509050612a2f614a27565b600760008773ffffffffffffffffffffffffffffffffffffffff1673ffffffffffffffffffffffffffffffffffffffff1681526020019081526020016000206040518060c001604052908160008201548152602001600182018054600181600116156101000203166002900480601f016020809104026020016040519081016040528092919081815260200182805460018160011615610100020316600290048015612b1c5780601f10612af157610100808354040283529160200191612b1c565b820191906000526020600020905b815481529060010190602001808311612aff57829003601f168201915b505050505081526020016002820154815260200160038201548152602001600482018054600181600116156101000203166002900480601f016020809104026020016040519081016040528092919081815260200182805460018160011615610100020316600290048015612bd25780601f10612ba757610100808354040283529160200191612bd2565b820191906000526020600020905b815481529060010190602001808311612bb557829003601f168201915b505050505081526020016005820154815250509050600087600081518110612bf657fe5b602002602001015190505b875188600081518110612c1057fe5b602002602001015101811015612dd357600160088281548110612c2f57fe5b906000526020600020906008020160010160006101000a81548160ff0219169083600b811115612c5b57fe5b0217905550807febebf7373f5f00bf4b6ce952f765f1c296eafd71c4e1468646c8f785131de90688846020015186602001518a87604001518860600151604051808773ffffffffffffffffffffffffffffffffffffffff1673ffffffffffffffffffffffffffffffffffffffff1681526020018060200180602001868152602001858152602001848152602001838103835288818151815260200191508051906020019080838360005b83811015612d20578082015181840152602081019050612d05565b50505050905090810190601f168015612d4d5780820380516001836020036101000a031916815260200191505b50838103825287818151815260200191508051906020019080838360005b83811015612d86578082015181840152602081019050612d6b565b50505050905090810190601f168015612db35780820380516001836020036101000a031916815260200191505b509850505050505050505060405180910390a28080600101915050612c01565b50600983908060018154018082558091505090600182039060005260206000209060050201600090919290919091506000820151816000015560208201518160010160006101000a81548173ffffffffffffffffffffffffffffffffffffffff021916908373ffffffffffffffffffffffffffffffffffffffff16021790555060408201518160020160006101000a81548173ffffffffffffffffffffffffffffffffffffffff021916908373ffffffffffffffffffffffffffffffffffffffff1602179055506060820151816003019080519060200190612eb6929190614bbf565b5060808201518160040160006101000a81548160ff02191690836002811115612edb57fe5b021790555050505050505050505050565b6000600680549050905090565b600b602052806000526040600020600091509050806000015490806001018054600181600116156101000203166002900480601f016020809104026020016040519081016040528092919081815260200182805460018160011615610100020316600290048015612fab5780601f10612f8057610100808354040283529160200191612fab565b820191906000526020600020905b815481529060010190602001808311612f8e57829003601f168201915b5050505050908060020154908060030154908060040160009054906101000a900473ffffffffffffffffffffffffffffffffffffffff16905085565b600060606000806060806000612ffb614a27565b6006898154811061300857fe5b90600052602060002090600602016040518060c001604052908160008201548152602001600182018054600181600116156101000203166002900480601f0160208091040260200160405190810160405280929190818152602001828054600181600116156101000203166002900480156130c45780601f10613099576101008083540402835291602001916130c4565b820191906000526020600020905b8154815290600101906020018083116130a757829003601f168201915b505050505081526020016002820154815260200160038201548152602001600482018054600181600116156101000203166002900480601f01602080910402602001604051908101604052809291908181526020018280546001816001161561010002031660029004801561317a5780601f1061314f5761010080835404028352916020019161317a565b820191906000526020600020905b81548152906001019060200180831161315d57829003601f168201915b505050505081526020016005820154815250509050613197614a5d565b60058260a00151815481106131a857fe5b906000526020600020906003020160405180606001604052908160008201548152602001600182018054600181600116156101000203166002900480601f0160208091040260200160405190810160405280929190818152602001828054600181600116156101000203166002900480156132645780601f1061323957610100808354040283529160200191613264565b820191906000526020600020905b81548152906001019060200180831161324757829003601f168201915b505050505081526020016002820160009054906101000a900473ffffffffffffffffffffffffffffffffffffffff1673ffffffffffffffffffffffffffffffffffffffff1673ffffffffffffffffffffffffffffffffffffffff168152505090508160000151826020015183604001518460600151856080015185602001518760a0015185955082925081915098509850985098509850985098505050919395979092949650565b6009818154811061331957fe5b90600052602060002090600502016000915090508060000154908060010160009054906101000a900473ffffffffffffffffffffffffffffffffffffffff16908060020160009054906101000a900473ffffffffffffffffffffffffffffffffffffffff16908060040160009054906101000a900460ff16905084565b6007602052806000526040600020600091509050806000015490806001018054600181600116156101000203166002900480601f0160208091040260200160405190810160405280929190818152602001828054600181600116156101000203166002900480156134485780601f1061341d57610100808354040283529160200191613448565b820191906000526020600020905b81548152906001019060200180831161342b57829003601f168201915b505050505090806002015490806003015490806004018054600181600116156101000203166002900480601f0160208091040260200160405190810160405280929190818152602001828054600181600116156101000203166002900480156134f25780601f106134c7576101008083540402835291602001916134f2565b820191906000526020600020905b8154815290600101906020018083116134d557829003601f168201915b5050505050908060050154905086565b6000600380549050905090565b6004818154811061351c57fe5b9060005260206000209060030201600091509050806000015490806001018054600181600116156101000203166002900480601f0160208091040260200160405190810160405280929190818152602001828054600181600116156101000203166002900480156135ce5780601f106135a3576101008083540402835291602001916135ce565b820191906000526020600020905b8154815290600101906020018083116135b157829003601f168201915b5050505050908060020160009054906101000a900473ffffffffffffffffffffffffffffffffffffffff16905083565b613606612766565b613678576040517f08c379a00000000000000000000000000000000000000000000000000000000081526004018080602001828103825260208152602001807f4f776e61626c653a2063616c6c6572206973206e6f7420746865206f776e657281525060200191505060405180910390fd5b613680614a5d565b6005828154811061368d57fe5b906000526020600020906003020160405180606001604052908160008201548152602001600182018054600181600116156101000203166002900480601f0160208091040260200160405190810160405280929190818152602001828054600181600116156101000203166002900480156137495780601f1061371e57610100808354040283529160200191613749565b820191906000526020600020905b81548152906001019060200180831161372c57829003601f168201915b505050505081526020016002820160009054906101000a900473ffffffffffffffffffffffffffffffffffffffff1673ffffffffffffffffffffffffffffffffffffffff1673ffffffffffffffffffffffffffffffffffffffff168152505090506137c28160400151600161472290919063ffffffff16565b613834576040517f08c379a000000000000000000000000000000000000000000000000000000000815260040180806020018281038252601e8152602001807f61646472657373206973206e6f742061206e757273657279206f776e6572000081525060200191505060405180910390fd5b61383c614a27565b6040518060c001604052806006805490508152602001888152602001878152602001868152602001858152602001848152509050600681908060018154018082558091505090600182039060005260206000209060060201600090919290919091506000820151816000015560208201518160010190805190602001906138c4929190614a94565b50604082015181600201556060820151816003015560808201518160040190805190602001906138f5929190614a94565b5060a082015181600501555050508060076000846040015173ffffffffffffffffffffffffffffffffffffffff1673ffffffffffffffffffffffffffffffffffffffff16815260200190815260200160002060008201518160000155602082015181600101908051906020019061396d929190614a94565b506040820151816002015560608201518160030155608082015181600401908051906020019061399e929190614a94565b5060a082015181600501559050507ffc1acac544ebb719e7d2343474251d4af9564a4d09f8209a7e3c249af25458a38160000151888888888888602001516040518088815260200180602001878152602001868152602001806020018581526020018060200184810384528a818151815260200191508051906020019080838360005b83811015613a3c578082015181840152602081019050613a21565b50505050905090810190601f168015613a695780820380516001836020036101000a031916815260200191505b50848103835287818151815260200191508051906020019080838360005b83811015613aa2578082015181840152602081019050613a87565b50505050905090810190601f168015613acf5780820380516001836020036101000a031916815260200191505b50848103825285818151815260200191508051906020019080838360005b83811015613b08578082015181840152602081019050613aed565b50505050905090810190601f168015613b355780820380516001836020036101000a031916815260200191505b509a505050505050505050505060405180910390a150505050505050565b60606000613b5f614a5d565b60048481548110613b6c57fe5b906000526020600020906003020160405180606001604052908160008201548152602001600182018054600181600116156101000203166002900480601f016020809104026020016040519081016040528092919081815260200182805460018160011615610100020316600290048015613c285780601f10613bfd57610100808354040283529160200191613c28565b820191906000526020600020905b815481529060010190602001808311613c0b57829003601f168201915b505050505081526020016002820160009054906101000a900473ffffffffffffffffffffffffffffffffffffffff1673ffffffffffffffffffffffffffffffffffffffff1673ffffffffffffffffffffffffffffffffffffffff16815250509050806020015181604001518191509250925050915091565b6000600880549050905090565b60058181548110613cba57fe5b9060005260206000209060030201600091509050806000015490806001018054600181600116156101000203166002900480601f016020809104026020016040519081016040528092919081815260200182805460018160011615610100020316600290048015613d6c5780601f10613d4157610100808354040283529160200191613d6c565b820191906000526020600020905b815481529060010190602001808311613d4f57829003601f168201915b5050505050908060020160009054906101000a900473ffffffffffffffffffffffffffffffffffffffff16905083565b613da4612766565b613e16576040517f08c379a00000000000000000000000000000000000000000000000000000000081526004018080602001828103825260208152602001807f4f776e61626c653a2063616c6c6572206973206e6f7420746865206f776e657281525060200191505060405180910390fd5b613e2a81600261480090919063ffffffff16565b613e32614a5d565b604051806060016040528060058054905081526020018481526020018373ffffffffffffffffffffffffffffffffffffffff16815250905060058190806001815401808255809150509060018203906000526020600020906003020160009091929091909150600082015181600001556020820151816001019080519060200190613ebe929190614a94565b5060408201518160020160006101000a81548173ffffffffffffffffffffffffffffffffffffffff021916908373ffffffffffffffffffffffffffffffffffffffff16021790555050505060048190806001815401808255809150509060018203906000526020600020906003020160009091929091909150600082015181600001556020820151816001019080519060200190613f5d929190614a94565b5060408201518160020160006101000a81548173ffffffffffffffffffffffffffffffffffffffff021916908373ffffffffffffffffffffffffffffffffffffffff1602179055505050507f1019884191f1911c9d6a29d86255f39fd3a37e10528950c8ad926d2438bc234b838360405180806020018373ffffffffffffffffffffffffffffffffffffffff1673ffffffffffffffffffffffffffffffffffffffff168152602001828103825284818151815260200191508051906020019080838360005b8381101561403d578082015181840152602081019050614022565b50505050905090810190601f16801561406a5780820380516001836020036101000a031916815260200191505b50935050505060405180910390a1505050565b614085614c0c565b6040518061010001604052808a815260200189600b8111156140a357fe5b8152602001888152602001878152602001868152602001858152602001848152602001838152509050600881908060018154018082558091505090600182039060005260206000209060080201600090919290919091506000820151816000015560208201518160010160006101000a81548160ff0219169083600b81111561412857fe5b021790555060408201518160020155606082015181600301556080820151816004015560a0820151816005019080519060200190614167929190614a94565b5060c0820151816006019080519060200190614184929190614a94565b5060e08201518160070155505050505050505050505050565b6141a5612766565b614217576040517f08c379a00000000000000000000000000000000000000000000000000000000081526004018080602001828103825260208152602001807f4f776e61626c653a2063616c6c6572206973206e6f7420746865206f776e657281525060200191505060405180910390fd5b61422b81600261472290919063ffffffff16565b61429d576040517f08c379a00000000000000000000000000000000000000000000000000000000081526004018080602001828103825260178152602001807f61646472657373206973206e6f742061206661726d657200000000000000000081525060200191505060405180910390fd5b6142a5614b7a565b6040518060a001604052808781526020018681526020018581526020018481526020018373ffffffffffffffffffffffffffffffffffffffff168152509050600a8190806001815401808255809150509060018203906000526020600020906005020160009091929091909150600082015181600001556020820151816001019080519060200190614338929190614a94565b50604082015181600201556060820151816003015560808201518160040160006101000a81548173ffffffffffffffffffffffffffffffffffffffff021916908373ffffffffffffffffffffffffffffffffffffffff16021790555050505080600b60008473ffffffffffffffffffffffffffffffffffffffff1673ffffffffffffffffffffffffffffffffffffffff1681526020019081526020016000206000820151816000015560208201518160010190805190602001906143fd929190614a94565b50604082015181600201556060820151816003015560808201518160040160006101000a81548173ffffffffffffffffffffffffffffffffffffffff021916908373ffffffffffffffffffffffffffffffffffffffff160217905550905050505050505050565b60008060008060006060806000614479614c0c565b60088a8154811061448657fe5b906000526020600020906008020160405180610100016040529081600082015481526020016001820160009054906101000a900460ff16600b8111156144c857fe5b600b8111156144d357fe5b8152602001600282015481526020016003820154815260200160048201548152602001600582018054600181600116156101000203166002900480601f01602080910402602001604051908101604052809291908181526020018280546001816001161561010002031660029004801561458e5780601f106145635761010080835404028352916020019161458e565b820191906000526020600020905b81548152906001019060200180831161457157829003601f168201915b50505050508152602001600682018054600181600116156101000203166002900480601f0160208091040260200160405190810160405280929190818152602001828054600181600116156101000203166002900480156146305780601f1061460557610100808354040283529160200191614630565b820191906000526020600020905b81548152906001019060200180831161461357829003601f168201915b505050505081526020016007820154815250509050806000015181602001518260400151836060015184608001518560a001518660c001518760e001518292508191509850985098509850985098509850985050919395975091939597565b6000600580549050905090565b6146a4612766565b614716576040517f08c379a00000000000000000000000000000000000000000000000000000000081526004018080602001828103825260208152602001807f4f776e61626c653a2063616c6c6572206973206e6f7420746865206f776e657281525060200191505060405180910390fd5b61471f816148e3565b50565b60008073ffffffffffffffffffffffffffffffffffffffff168273ffffffffffffffffffffffffffffffffffffffff1614156147a9576040517f08c379a0000000000000000000000000000000000000000000000000000000008152600401808060200182810382526022815260200180614ccf6022913960400191505060405180910390fd5b8260000160008373ffffffffffffffffffffffffffffffffffffffff1673ffffffffffffffffffffffffffffffffffffffff16815260200190815260200160002060009054906101000a900460ff16905092915050565b61480a8282614722565b1561487d576040517f08c379a000000000000000000000000000000000000000000000000000000000815260040180806020018281038252601f8152602001807f526f6c65733a206163636f756e7420616c72656164792068617320726f6c650081525060200191505060405180910390fd5b60018260000160008373ffffffffffffffffffffffffffffffffffffffff1673ffffffffffffffffffffffffffffffffffffffff16815260200190815260200160002060006101000a81548160ff0219169083151502179055505050565b600033905090565b600073ffffffffffffffffffffffffffffffffffffffff168173ffffffffffffffffffffffffffffffffffffffff161415614969576040517f08c379a0000000000000000000000000000000000000000000000000000000008152600401808060200182810382526026815260200180614c826026913960400191505060405180910390fd5b8073ffffffffffffffffffffffffffffffffffffffff166000809054906101000a900473ffffffffffffffffffffffffffffffffffffffff1673ffffffffffffffffffffffffffffffffffffffff167f8be0079c531659141344cd1fd0a4f28419497f9722a3daafe3b4186f6b6457e060405160405180910390a3806000806101000a81548173ffffffffffffffffffffffffffffffffffffffff021916908373ffffffffffffffffffffffffffffffffffffffff16021790555050565b6040518060c001604052806000815260200160608152602001600081526020016000815260200160608152602001600081525090565b60405180606001604052806000815260200160608152602001600073ffffffffffffffffffffffffffffffffffffffff1681525090565b828054600181600116156101000203166002900490600052602060002090601f016020900481019282601f10614ad557805160ff1916838001178555614b03565b82800160010185558215614b03579182015b82811115614b02578251825591602001919060010190614ae7565b5b509050614b109190614c5c565b5090565b6040518060a0016040528060008152602001600073ffffffffffffffffffffffffffffffffffffffff168152602001600073ffffffffffffffffffffffffffffffffffffffff1681526020016060815260200160006002811115614b7457fe5b81525090565b6040518060a0016040528060008152602001606081526020016000815260200160008152602001600073ffffffffffffffffffffffffffffffffffffffff1681525090565b828054828255906000526020600020908101928215614bfb579160200282015b82811115614bfa578251825591602001919060010190614bdf565b5b509050614c089190614c5c565b5090565b604051806101000160405280600081526020016000600b811115614c2c57fe5b81526020016000815260200160008152602001600081526020016060815260200160608152602001600081525090565b614c7e91905b80821115614c7a576000816000905550600101614c62565b5090565b9056fe4f776e61626c653a206e6577206f776e657220697320746865207a65726f20616464726573736f6e6c79206e757273657279206f776e65722063616e2070726f706f6761746520706c616e7473526f6c65733a206163636f756e7420697320746865207a65726f2061646472657373a165627a7a723058204bc8279bd760fd93da5922f9c4eb74cd2a3f13f08491cfbf601515e4eac63bee0029",
  "source": "pragma solidity  > 0.5.0;\n\nimport \"../node_modules/openzeppelin-solidity/contracts/access/Roles.sol\";\nimport \"../node_modules/openzeppelin-solidity/contracts/ownership/Ownable.sol\";\n\ncontract Supply is Ownable {\n  using Roles for Roles.Role;\n\n  Roles.Role private nurseryOwners;\n  Roles.Role private farmers;\n\n  Owner[] public nurseryOwnerList;\n  Owner[] public farmOwnerList;\n  Owner[] public ownerList;\n\n  enum State { Propogated, Purchased, Shipped, Received, Planted, Harvested, Packed, Weighed, Stored, AtDistribution, Distributed, Sold }\n\n  enum OrderState { Ordered, Dispatched, Recevied }\n\n  struct Owner {\n    uint id;\n    string name;\n    address ownerAddress;\n  }\n\n  struct Nursery {\n    uint id;\n    string name;\n    int lat;\n    int long;\n    string description;\n    uint ownerId;\n  }\n\n  struct Plant {\n    uint id; // id of the plant\n    State state; // the state of the plant in the supply chain\n    uint plantedDate; // date the plant was planeted\n    int lat; // Latitute of plant location\n    int long; // Longitude of plant location\n    string sourceNursery; // Nursery plant was grown at\n    string variety;\n    uint ownerId;\n  }\n\n  struct Farm {\n    uint id;\n    string name;\n    int lat;\n    int long;\n    address farmer;\n  }\n\n  struct Order {\n    uint orderId;\n    address nursery;\n    address farmer;\n    uint[] plantIds;\n    OrderState state;\n  }\n\n  Nursery[] public nurseries;\n  mapping(address => Nursery) public nurseriesByOwners;\n\n  // Dynamically sized plant array\n  Plant[] public plants;\n\n  Order[] public orders;\n\n  Farm[] public farms;\n  mapping(address => Farm) public farmsByOwners;\n\n  event AddedNurseryOwner(string name, address nurseryOwner);\n  event AddedFarmOwner(string name, address farmOwner);\n  event AddedNursery(uint nurseryId, string nurseryName, int lat, int long, string description, uint ownerId, string ownerName);\n  event PropogatedByNursery(uint indexed plantId, Supply.State state, uint date, int lat, int long, string name, string variety, uint indexed ownerId);\n  event PurchasedByFarmer(uint indexed plantId, address plantOwner, string nurseryName, string farmName, uint date, int lat, int long);\n  event ShippedByNursery(uint indexed plantId, address plantOwner, uint date);\n  event ReceivedByFarmer(uint indexed plantId, address plantOwner, uint date);\n  event PlantedByFarmer(uint indexed plantId, address plantOwner, uint date);\n\n  constructor() public {\n    // addNurseryOwner(0x21111104e6933e6fb2bB4dc99AB5B65439226043);\n    // addNursery(0, \"Raspberry Nursery\", 56, 3, \"Small nursery for raspberries\", 0x21111104e6933e6fb2bB4dc99AB5B65439226043);\n    // addFarmer(0xdacF2A85BEbdD88e49DF032A61b5d7679eafb25E);\n    // addFarm(0, \"Invergowrie\", 56, 3, 0xdacF2A85BEbdD88e49DF032A61b5d7679eafb25E);\n  }\n\n  function getOwnerCount() public view returns(uint) {\n    return ownerList.length;\n  }\n\n  function addNurseryOwner(string memory name, address nurseryOwner) public onlyOwner {\n    nurseryOwners.add(nurseryOwner);\n    Owner memory owner = Owner(ownerList.length, name, nurseryOwner);\n    ownerList.push(owner);\n    nurseryOwnerList.push(owner);\n    emit AddedNurseryOwner(name, nurseryOwner);\n  }\n\n  function getNurseryOwnerCount() public view returns(uint) {\n    return nurseryOwnerList.length;\n  }\n\n  function getNurseryOwner(uint index) public view returns(uint, string memory, address) {\n    Owner memory nurseryOwner = nurseryOwnerList[index];\n    return (nurseryOwner.id, nurseryOwner.name, nurseryOwner.ownerAddress);\n  }\n\n  function addNursery(string memory name, int lat, int long, string memory nurseryDescription, uint ownerId) public onlyOwner {\n    Owner memory owner = ownerList[ownerId];\n    require(nurseryOwners.has(owner.ownerAddress), \"address is not a nursery owner\");\n    Nursery memory nursery = Nursery(nurseries.length, name, lat, long, nurseryDescription, ownerId);\n    nurseries.push(nursery);\n    nurseriesByOwners[owner.ownerAddress] = nursery;\n    emit AddedNursery(nursery.id, name, lat, long, nurseryDescription, ownerId, owner.name);\n  }\n\n  function getNurseryCount() public view returns(uint) {\n    return nurseries.length;\n  }\n\n  function getNursery(uint index) public view returns(uint, string memory, int, int, string memory, string memory, uint) {\n    Nursery memory nursery = nurseries[index];\n    Owner memory owner = ownerList[nursery.ownerId];\n    return (nursery.id, nursery.name, nursery.lat, nursery.long, nursery.description, owner.name, nursery.ownerId);\n  }\n\n  function propogatePlants(uint date, string memory variety, int quantity) public {\n    require(nurseryOwners.has(msg.sender), \"only nursery owner can propogate plants\");\n    Nursery memory nursery = nurseriesByOwners[msg.sender];\n    uint plantId = plants.length;\n    for (int i = 0; i < quantity; i++) {\n      addPlant(plantId, State.Propogated, date, nursery.lat, nursery.long, nursery.name, variety, nursery.ownerId);\n      emit PropogatedByNursery(plantId, State.Propogated, date, nursery.lat, nursery.long, nursery.name, variety, nursery.ownerId);\n      plantId++;\n    }\n  }\n\n   function addFarmOwner(string memory name, address farmOwner) public onlyOwner {\n    farmers.add(farmOwner);\n    Owner memory owner = Owner(ownerList.length, name, farmOwner);\n    ownerList.push(owner);\n    farmOwnerList.push(owner);\n    emit AddedFarmOwner(name, farmOwner);\n  }\n\n  function getFarmOwnerCount() public view returns(uint) {\n    return farmOwnerList.length;\n  }\n\n  function getFarmOwner(uint index) public view returns(string memory, address) {\n    Owner memory farmOwner = farmOwnerList[index];\n    return (farmOwner.name, farmOwner.ownerAddress);\n  }\n\n  function addFarm(uint id, string memory name, int lat, int long, address farmer) public onlyOwner {\n    require(farmers.has(farmer), \"address is not a farmer\");\n    Farm memory farm = Farm(id, name, lat, long, farmer);\n    farms.push(farm);\n    farmsByOwners[farmer] = farm;\n  }\n\n  function addPlant(uint id, State _state, uint _date, int _lat, int _long, string memory _nursery, string memory variety, uint ownerId) public {\n    Plant memory plant = Plant(id, _state, _date, _lat, _long, _nursery, variety, ownerId);\n    plants.push(plant);\n  }\n\n  function getPlantCount() public view returns(uint) {\n    return plants.length;\n  }\n\n  function getPlant(uint index) public view returns(uint, State, uint, int, int, string memory, string memory, uint ownerId) {\n    Plant memory plant = plants[index];\n    return (plant.id, plant.state, plant.plantedDate, plant.lat, plant.long, plant.sourceNursery, plant.variety, plant.ownerId);\n  }\n\n  modifier purchasedByFarmer(uint id) {\n    require(plants[id].state == State.Purchased, \"the state of the plant in this function must be Purchased\");\n    _;\n  }\n\n  function isNurseryOwner() public view returns(bool) {\n    return nurseryOwners.has(msg.sender);\n  }\n\n  function isFarmer() public view returns(bool) {\n    return farmers.has(msg.sender);\n  }\n\n  function getOrderCount() public view returns(uint) {\n    return orders.length;\n  }\n\n  function orderPlants(uint[] memory plantIds, address nurseryOwner, uint purchaseDate) public {\n    require(farmers.has(msg.sender), \"address is not a farmer\");\n    uint orderId = orders.length;\n    Order memory order = Order(orderId, nurseryOwner, msg.sender, plantIds, OrderState.Ordered);\n\n    Farm memory farm = farmsByOwners[msg.sender];\n    Nursery memory nursery = nurseriesByOwners[nurseryOwner];\n\n    for (uint i = plantIds[0]; i < plantIds[0] + plantIds.length; i++) {\n      plants[i].state = State.Purchased;\n      emit PurchasedByFarmer(i, nurseryOwner, nursery.name, farm.name, purchaseDate, nursery.lat, nursery.long);\n    }\n\n    orders.push(order);\n  }\n}",
  "sourcePath": "/home/gordon/projects/blockchain/basic/contracts/Supply.sol",
  "compiler": {
    "name": "solc",
    "version": "0.5.8+commit.23d335f2.Emscripten.clang"
  },
  "schemaVersion": "3.0.11",
  "updatedAt": "2020-03-18T10:07:29.648Z",
  "devdoc": {
    "methods": {
      "isOwner()": {
        "details": "Returns true if the caller is the current owner."
      },
      "owner()": {
        "details": "Returns the address of the current owner."
      },
      "renounceOwnership()": {
        "details": "Leaves the contract without owner. It will not be possible to call `onlyOwner` functions anymore. Can only be called by the current owner.     * NOTE: Renouncing ownership will leave the contract without an owner, thereby removing any functionality that is only available to the owner."
      },
      "transferOwnership(address)": {
        "details": "Transfers ownership of the contract to a new account (`newOwner`). Can only be called by the current owner."
      }
    }
  },
  "userdoc": {
    "methods": {}
  }
}