{
  "contractName": "Supply",
  "abi": [
    {
      "constant": true,
      "inputs": [
        {
          "name": "",
          "type": "uint256"
        }
      ],
      "name": "nurseries",
      "outputs": [
        {
          "name": "id",
          "type": "uint256"
        },
        {
          "name": "name",
          "type": "string"
        },
        {
          "name": "lat",
          "type": "int256"
        },
        {
          "name": "long",
          "type": "int256"
        },
        {
          "name": "description",
          "type": "string"
        },
        {
          "name": "nurseryOwner",
          "type": "address"
        }
      ],
      "payable": false,
      "stateMutability": "view",
      "type": "function"
    },
    {
      "constant": false,
      "inputs": [],
      "name": "renounceOwnership",
      "outputs": [],
      "payable": false,
      "stateMutability": "nonpayable",
      "type": "function"
    },
    {
      "constant": true,
      "inputs": [
        {
          "name": "",
          "type": "uint256"
        }
      ],
      "name": "farms",
      "outputs": [
        {
          "name": "id",
          "type": "uint256"
        },
        {
          "name": "name",
          "type": "string"
        },
        {
          "name": "lat",
          "type": "int256"
        },
        {
          "name": "long",
          "type": "int256"
        },
        {
          "name": "farmer",
          "type": "address"
        }
      ],
      "payable": false,
      "stateMutability": "view",
      "type": "function"
    },
    {
      "constant": true,
      "inputs": [],
      "name": "owner",
      "outputs": [
        {
          "name": "",
          "type": "address"
        }
      ],
      "payable": false,
      "stateMutability": "view",
      "type": "function"
    },
    {
      "constant": true,
      "inputs": [
        {
          "name": "",
          "type": "uint256"
        }
      ],
      "name": "plants",
      "outputs": [
        {
          "name": "id",
          "type": "uint256"
        },
        {
          "name": "state",
          "type": "uint8"
        },
        {
          "name": "plantedDate",
          "type": "uint256"
        },
        {
          "name": "lat",
          "type": "int256"
        },
        {
          "name": "long",
          "type": "int256"
        },
        {
          "name": "sourceNursery",
          "type": "string"
        },
        {
          "name": "variety",
          "type": "string"
        },
        {
          "name": "plantOwner",
          "type": "address"
        }
      ],
      "payable": false,
      "stateMutability": "view",
      "type": "function"
    },
    {
      "constant": true,
      "inputs": [],
      "name": "isOwner",
      "outputs": [
        {
          "name": "",
          "type": "bool"
        }
      ],
      "payable": false,
      "stateMutability": "view",
      "type": "function"
    },
    {
      "constant": true,
      "inputs": [
        {
          "name": "",
          "type": "address"
        }
      ],
      "name": "farmsByOwners",
      "outputs": [
        {
          "name": "id",
          "type": "uint256"
        },
        {
          "name": "name",
          "type": "string"
        },
        {
          "name": "lat",
          "type": "int256"
        },
        {
          "name": "long",
          "type": "int256"
        },
        {
          "name": "farmer",
          "type": "address"
        }
      ],
      "payable": false,
      "stateMutability": "view",
      "type": "function"
    },
    {
      "constant": true,
      "inputs": [
        {
          "name": "",
          "type": "uint256"
        }
      ],
      "name": "orders",
      "outputs": [
        {
          "name": "orderId",
          "type": "uint256"
        },
        {
          "name": "nursery",
          "type": "address"
        },
        {
          "name": "farmer",
          "type": "address"
        },
        {
          "name": "state",
          "type": "uint8"
        }
      ],
      "payable": false,
      "stateMutability": "view",
      "type": "function"
    },
    {
      "constant": true,
      "inputs": [
        {
          "name": "",
          "type": "address"
        }
      ],
      "name": "nurseriesByOwners",
      "outputs": [
        {
          "name": "id",
          "type": "uint256"
        },
        {
          "name": "name",
          "type": "string"
        },
        {
          "name": "lat",
          "type": "int256"
        },
        {
          "name": "long",
          "type": "int256"
        },
        {
          "name": "description",
          "type": "string"
        },
        {
          "name": "nurseryOwner",
          "type": "address"
        }
      ],
      "payable": false,
      "stateMutability": "view",
      "type": "function"
    },
    {
      "constant": false,
      "inputs": [
        {
          "name": "newOwner",
          "type": "address"
        }
      ],
      "name": "transferOwnership",
      "outputs": [],
      "payable": false,
      "stateMutability": "nonpayable",
      "type": "function"
    },
    {
      "inputs": [],
      "payable": false,
      "stateMutability": "nonpayable",
      "type": "constructor"
    },
    {
      "anonymous": false,
      "inputs": [
        {
          "indexed": true,
          "name": "plantId",
          "type": "uint256"
        },
        {
          "indexed": false,
          "name": "plantOwner",
          "type": "address"
        },
        {
          "indexed": false,
          "name": "nurseryName",
          "type": "string"
        },
        {
          "indexed": false,
          "name": "date",
          "type": "uint256"
        },
        {
          "indexed": false,
          "name": "lat",
          "type": "int256"
        },
        {
          "indexed": false,
          "name": "long",
          "type": "int256"
        }
      ],
      "name": "PropogatedByNursery",
      "type": "event"
    },
    {
      "anonymous": false,
      "inputs": [
        {
          "indexed": true,
          "name": "plantId",
          "type": "uint256"
        },
        {
          "indexed": false,
          "name": "plantOwner",
          "type": "address"
        },
        {
          "indexed": false,
          "name": "nurseryName",
          "type": "string"
        },
        {
          "indexed": false,
          "name": "farmName",
          "type": "string"
        },
        {
          "indexed": false,
          "name": "date",
          "type": "uint256"
        },
        {
          "indexed": false,
          "name": "lat",
          "type": "int256"
        },
        {
          "indexed": false,
          "name": "long",
          "type": "int256"
        }
      ],
      "name": "PurchasedByFarmer",
      "type": "event"
    },
    {
      "anonymous": false,
      "inputs": [
        {
          "indexed": true,
          "name": "plantId",
          "type": "uint256"
        },
        {
          "indexed": false,
          "name": "plantOwner",
          "type": "address"
        },
        {
          "indexed": false,
          "name": "date",
          "type": "uint256"
        }
      ],
      "name": "ShippedByNursery",
      "type": "event"
    },
    {
      "anonymous": false,
      "inputs": [
        {
          "indexed": true,
          "name": "plantId",
          "type": "uint256"
        },
        {
          "indexed": false,
          "name": "plantOwner",
          "type": "address"
        },
        {
          "indexed": false,
          "name": "date",
          "type": "uint256"
        }
      ],
      "name": "ReceivedByFarmer",
      "type": "event"
    },
    {
      "anonymous": false,
      "inputs": [
        {
          "indexed": true,
          "name": "plantId",
          "type": "uint256"
        },
        {
          "indexed": false,
          "name": "plantOwner",
          "type": "address"
        },
        {
          "indexed": false,
          "name": "date",
          "type": "uint256"
        }
      ],
      "name": "PlantedByFarmer",
      "type": "event"
    },
    {
      "anonymous": false,
      "inputs": [
        {
          "indexed": true,
          "name": "previousOwner",
          "type": "address"
        },
        {
          "indexed": true,
          "name": "newOwner",
          "type": "address"
        }
      ],
      "name": "OwnershipTransferred",
      "type": "event"
    },
    {
      "constant": false,
      "inputs": [
        {
          "name": "nurseryOwner",
          "type": "address"
        }
      ],
      "name": "addNurseryOwner",
      "outputs": [],
      "payable": false,
      "stateMutability": "nonpayable",
      "type": "function"
    },
    {
      "constant": false,
      "inputs": [
        {
          "name": "id",
          "type": "uint256"
        },
        {
          "name": "name",
          "type": "string"
        },
        {
          "name": "lat",
          "type": "int256"
        },
        {
          "name": "long",
          "type": "int256"
        },
        {
          "name": "nurseryDescription",
          "type": "string"
        },
        {
          "name": "nurseryOwner",
          "type": "address"
        }
      ],
      "name": "addNursery",
      "outputs": [],
      "payable": false,
      "stateMutability": "nonpayable",
      "type": "function"
    },
    {
      "constant": true,
      "inputs": [],
      "name": "getNurseryCount",
      "outputs": [
        {
          "name": "",
          "type": "uint256"
        }
      ],
      "payable": false,
      "stateMutability": "view",
      "type": "function"
    },
    {
      "constant": true,
      "inputs": [
        {
          "name": "index",
          "type": "uint256"
        }
      ],
      "name": "getNursery",
      "outputs": [
        {
          "name": "",
          "type": "uint256"
        },
        {
          "name": "",
          "type": "string"
        },
        {
          "name": "",
          "type": "int256"
        },
        {
          "name": "",
          "type": "int256"
        },
        {
          "name": "",
          "type": "string"
        },
        {
          "name": "",
          "type": "address"
        }
      ],
      "payable": false,
      "stateMutability": "view",
      "type": "function"
    },
    {
      "constant": false,
      "inputs": [
        {
          "name": "date",
          "type": "uint256"
        }
      ],
      "name": "propogatePlant",
      "outputs": [],
      "payable": false,
      "stateMutability": "nonpayable",
      "type": "function"
    },
    {
      "constant": false,
      "inputs": [
        {
          "name": "farmer",
          "type": "address"
        }
      ],
      "name": "addFarmer",
      "outputs": [],
      "payable": false,
      "stateMutability": "nonpayable",
      "type": "function"
    },
    {
      "constant": false,
      "inputs": [
        {
          "name": "id",
          "type": "uint256"
        },
        {
          "name": "name",
          "type": "string"
        },
        {
          "name": "lat",
          "type": "int256"
        },
        {
          "name": "long",
          "type": "int256"
        },
        {
          "name": "farmer",
          "type": "address"
        }
      ],
      "name": "addFarm",
      "outputs": [],
      "payable": false,
      "stateMutability": "nonpayable",
      "type": "function"
    },
    {
      "constant": false,
      "inputs": [
        {
          "name": "id",
          "type": "uint256"
        },
        {
          "name": "_state",
          "type": "uint8"
        },
        {
          "name": "_date",
          "type": "uint256"
        },
        {
          "name": "_lat",
          "type": "int256"
        },
        {
          "name": "_long",
          "type": "int256"
        },
        {
          "name": "_nursery",
          "type": "string"
        },
        {
          "name": "variety",
          "type": "string"
        },
        {
          "name": "plantOwner",
          "type": "address"
        }
      ],
      "name": "addPlant",
      "outputs": [],
      "payable": false,
      "stateMutability": "nonpayable",
      "type": "function"
    },
    {
      "constant": true,
      "inputs": [],
      "name": "getPlantCount",
      "outputs": [
        {
          "name": "",
          "type": "uint256"
        }
      ],
      "payable": false,
      "stateMutability": "view",
      "type": "function"
    },
    {
      "constant": true,
      "inputs": [
        {
          "name": "index",
          "type": "uint256"
        }
      ],
      "name": "getPlant",
      "outputs": [
        {
          "name": "",
          "type": "uint256"
        },
        {
          "name": "",
          "type": "uint8"
        },
        {
          "name": "",
          "type": "uint256"
        },
        {
          "name": "",
          "type": "int256"
        },
        {
          "name": "",
          "type": "int256"
        },
        {
          "name": "",
          "type": "string"
        },
        {
          "name": "",
          "type": "string"
        },
        {
          "name": "plantOwner",
          "type": "address"
        }
      ],
      "payable": false,
      "stateMutability": "view",
      "type": "function"
    },
    {
      "constant": true,
      "inputs": [],
      "name": "isNurseryOwner",
      "outputs": [
        {
          "name": "",
          "type": "bool"
        }
      ],
      "payable": false,
      "stateMutability": "view",
      "type": "function"
    },
    {
      "constant": true,
      "inputs": [],
      "name": "isFarmer",
      "outputs": [
        {
          "name": "",
          "type": "bool"
        }
      ],
      "payable": false,
      "stateMutability": "view",
      "type": "function"
    },
    {
      "constant": true,
      "inputs": [],
      "name": "getOrderCount",
      "outputs": [
        {
          "name": "",
          "type": "uint256"
        }
      ],
      "payable": false,
      "stateMutability": "view",
      "type": "function"
    },
    {
      "constant": false,
      "inputs": [
        {
          "name": "plantIds",
          "type": "uint256[]"
        },
        {
          "name": "nurseryOwner",
          "type": "address"
        },
        {
          "name": "purchaseDate",
          "type": "uint256"
        }
      ],
      "name": "orderPlants",
      "outputs": [],
      "payable": false,
      "stateMutability": "nonpayable",
      "type": "function"
    }
  ],
  "bytecode": "0x60806040523480156200001157600080fd5b50620000226200022560201b60201c565b6000806101000a81548173ffffffffffffffffffffffffffffffffffffffff021916908373ffffffffffffffffffffffffffffffffffffffff1602179055506000809054906101000a900473ffffffffffffffffffffffffffffffffffffffff1673ffffffffffffffffffffffffffffffffffffffff16600073ffffffffffffffffffffffffffffffffffffffff167f8be0079c531659141344cd1fd0a4f28419497f9722a3daafe3b4186f6b6457e060405160405180910390a3620001027321111104e6933e6fb2bb4dc99ab5b654392260436200022d60201b60201c565b6200019960006040518060400160405280600981526020017f476c656e646f69636b0000000000000000000000000000000000000000000000815250603860036040518060400160405280601d81526020017f536d616c6c206e75727365727920666f722072617370626572726965730000008152507321111104e6933e6fb2bb4dc99ab5b65439226043620002ce60201b60201c565b620001be73dacf2a85bebdd88e49df032a61b5d7679eafb25e620005f160201b60201c565b6200021f60006040518060400160405280600b81526020017f496e766572676f777269650000000000000000000000000000000000000000008152506038600373dacf2a85bebdd88e49df032a61b5d7679eafb25e6200069260201b60201c565b62000cda565b600033905090565b6200023d6200097060201b60201c565b620002b0576040517f08c379a00000000000000000000000000000000000000000000000000000000081526004018080602001828103825260208152602001807f4f776e61626c653a2063616c6c6572206973206e6f7420746865206f776e657281525060200191505060405180910390fd5b620002cb816001620009d660201b620035561790919060201c565b50565b620002de6200097060201b60201c565b62000351576040517f08c379a00000000000000000000000000000000000000000000000000000000081526004018080602001828103825260208152602001807f4f776e61626c653a2063616c6c6572206973206e6f7420746865206f776e657281525060200191505060405180910390fd5b6200036c81600162000aba60201b620034781790919060201c565b620003df576040517f08c379a000000000000000000000000000000000000000000000000000000000815260040180806020018281038252601e8152602001807f61646472657373206973206e6f742061206e757273657279206f776e6572000081525060200191505060405180910390fd5b620003e962000b9a565b6040518060c001604052808881526020018781526020018681526020018581526020018481526020018373ffffffffffffffffffffffffffffffffffffffff168152509050600381908060018154018082558091505090600182039060005260206000209060060201600090919290919091506000820151816000015560208201518160010190805190602001906200048492919062000be6565b5060408201518160020155606082015181600301556080820151816004019080519060200190620004b792919062000be6565b5060a08201518160050160006101000a81548173ffffffffffffffffffffffffffffffffffffffff021916908373ffffffffffffffffffffffffffffffffffffffff16021790555050505080600460008473ffffffffffffffffffffffffffffffffffffffff1673ffffffffffffffffffffffffffffffffffffffff1681526020019081526020016000206000820151816000015560208201518160010190805190602001906200056a92919062000be6565b50604082015181600201556060820151816003015560808201518160040190805190602001906200059d92919062000be6565b5060a08201518160050160006101000a81548173ffffffffffffffffffffffffffffffffffffffff021916908373ffffffffffffffffffffffffffffffffffffffff16021790555090505050505050505050565b620006016200097060201b60201c565b62000674576040517f08c379a00000000000000000000000000000000000000000000000000000000081526004018080602001828103825260208152602001807f4f776e61626c653a2063616c6c6572206973206e6f7420746865206f776e657281525060200191505060405180910390fd5b6200068f816002620009d660201b620035561790919060201c565b50565b620006a26200097060201b60201c565b62000715576040517f08c379a00000000000000000000000000000000000000000000000000000000081526004018080602001828103825260208152602001807f4f776e61626c653a2063616c6c6572206973206e6f7420746865206f776e657281525060200191505060405180910390fd5b6200073081600262000aba60201b620034781790919060201c565b620007a3576040517f08c379a00000000000000000000000000000000000000000000000000000000081526004018080602001828103825260178152602001807f61646472657373206973206e6f742061206661726d657200000000000000000081525060200191505060405180910390fd5b620007ad62000c6d565b6040518060a001604052808781526020018681526020018581526020018481526020018373ffffffffffffffffffffffffffffffffffffffff168152509050600781908060018154018082558091505090600182039060005260206000209060050201600090919290919091506000820151816000015560208201518160010190805190602001906200084292919062000be6565b50604082015181600201556060820151816003015560808201518160040160006101000a81548173ffffffffffffffffffffffffffffffffffffffff021916908373ffffffffffffffffffffffffffffffffffffffff16021790555050505080600860008473ffffffffffffffffffffffffffffffffffffffff1673ffffffffffffffffffffffffffffffffffffffff1681526020019081526020016000206000820151816000015560208201518160010190805190602001906200090992919062000be6565b50604082015181600201556060820151816003015560808201518160040160006101000a81548173ffffffffffffffffffffffffffffffffffffffff021916908373ffffffffffffffffffffffffffffffffffffffff160217905550905050505050505050565b60008060009054906101000a900473ffffffffffffffffffffffffffffffffffffffff1673ffffffffffffffffffffffffffffffffffffffff16620009ba6200022560201b60201c565b73ffffffffffffffffffffffffffffffffffffffff1614905090565b620009e8828262000aba60201b60201c565b1562000a5c576040517f08c379a000000000000000000000000000000000000000000000000000000000815260040180806020018281038252601f8152602001807f526f6c65733a206163636f756e7420616c72656164792068617320726f6c650081525060200191505060405180910390fd5b60018260000160008373ffffffffffffffffffffffffffffffffffffffff1673ffffffffffffffffffffffffffffffffffffffff16815260200190815260200160002060006101000a81548160ff0219169083151502179055505050565b60008073ffffffffffffffffffffffffffffffffffffffff168273ffffffffffffffffffffffffffffffffffffffff16141562000b43576040517f08c379a0000000000000000000000000000000000000000000000000000000008152600401808060200182810382526022815260200180620047516022913960400191505060405180910390fd5b8260000160008373ffffffffffffffffffffffffffffffffffffffff1673ffffffffffffffffffffffffffffffffffffffff16815260200190815260200160002060009054906101000a900460ff16905092915050565b6040518060c001604052806000815260200160608152602001600081526020016000815260200160608152602001600073ffffffffffffffffffffffffffffffffffffffff1681525090565b828054600181600116156101000203166002900490600052602060002090601f016020900481019282601f1062000c2957805160ff191683800117855562000c5a565b8280016001018555821562000c5a579182015b8281111562000c5957825182559160200191906001019062000c3c565b5b50905062000c69919062000cb2565b5090565b6040518060a0016040528060008152602001606081526020016000815260200160008152602001600073ffffffffffffffffffffffffffffffffffffffff1681525090565b62000cd791905b8082111562000cd357600081600090555060010162000cb9565b5090565b90565b613a678062000cea6000396000f3fe608060405234801561001057600080fd5b50600436106101585760003560e01c80639f466268116100c3578063c0d3e1f91161007c578063c0d3e1f914610f00578063cdd78d3314610f1e578063e753eb1e14610f62578063ea2a33a114610f90578063ed0b1f5f14611089578063f2fde38b1461120057610158565b80639f466268146108c45780639ff7ddf1146108e2578063a38921e8146109e7578063a85c38ef14610b42578063a9bfa3bc14610bff578063aa68256214610d8f57610158565b806382b691f11161011557806382b691f1146104395780638d0a5fbb146105e15780638da5cb5b146105ff5780638dd2361c146106495780638f32d59b146107c0578063954aba9f146107e257610158565b8063116fe5551461015d5780631422f222146102b857806354db2744146102da578063715018a6146102fc5780637da470ea1461030657806380c3f96d146103f5575b600080fd5b6101896004803603602081101561017357600080fd5b8101908080359060200190929190505050611244565b6040518087815260200180602001868152602001858152602001806020018473ffffffffffffffffffffffffffffffffffffffff1673ffffffffffffffffffffffffffffffffffffffff168152602001838103835288818151815260200191508051906020019080838360005b838110156102115780820151818401526020810190506101f6565b50505050905090810190601f16801561023e5780820380516001836020036101000a031916815260200191505b50838103825285818151815260200191508051906020019080838360005b8381101561027757808201518184015260208101905061025c565b50505050905090810190601f1680156102a45780820380516001836020036101000a031916815260200191505b509850505050505050505060405180910390f35b6102c06113dd565b604051808215151515815260200191505060405180910390f35b6102e26113f8565b604051808215151515815260200191505060405180910390f35b610304611413565b005b6103326004803603602081101561031c57600080fd5b810190808035906020019092919050505061154c565b60405180868152602001806020018581526020018481526020018373ffffffffffffffffffffffffffffffffffffffff1673ffffffffffffffffffffffffffffffffffffffff168152602001828103825286818151815260200191508051906020019080838360005b838110156103b657808201518184015260208101905061039b565b50505050905090810190601f1680156103e35780820380516001836020036101000a031916815260200191505b50965050505050505060405180910390f35b6104376004803603602081101561040b57600080fd5b81019080803573ffffffffffffffffffffffffffffffffffffffff169060200190929190505050611647565b005b6105df600480360361010081101561045057600080fd5b8101908080359060200190929190803560ff169060200190929190803590602001909291908035906020019092919080359060200190929190803590602001906401000000008111156104a257600080fd5b8201836020820111156104b457600080fd5b803590602001918460018302840111640100000000831117156104d657600080fd5b91908080601f016020809104026020016040519081016040528093929190818152602001838380828437600081840152601f19601f8201169050808301925050505050505091929192908035906020019064010000000081111561053957600080fd5b82018360208201111561054b57600080fd5b8035906020019184600183028401116401000000008311171561056d57600080fd5b91908080601f016020809104026020016040519081016040528093929190818152602001838380828437600081840152601f19601f820116905080830192505050505050509192919290803573ffffffffffffffffffffffffffffffffffffffff1690602001909291905050506116d8565b005b6105e961184b565b6040518082815260200191505060405180910390f35b610607611858565b604051808273ffffffffffffffffffffffffffffffffffffffff1673ffffffffffffffffffffffffffffffffffffffff16815260200191505060405180910390f35b6106756004803603602081101561065f57600080fd5b8101908080359060200190929190505050611881565b6040518089815260200188600b81111561068b57fe5b60ff16815260200187815260200186815260200185815260200180602001806020018473ffffffffffffffffffffffffffffffffffffffff1673ffffffffffffffffffffffffffffffffffffffff168152602001838103835286818151815260200191508051906020019080838360005b838110156107175780820151818401526020810190506106fc565b50505050905090810190601f1680156107445780820380516001836020036101000a031916815260200191505b50838103825285818151815260200191508051906020019080838360005b8381101561077d578082015181840152602081019050610762565b50505050905090810190601f1680156107aa5780820380516001836020036101000a031916815260200191505b509a505050505050505050505060405180910390f35b6107c8611a33565b604051808215151515815260200191505060405180910390f35b6108c2600480360360608110156107f857600080fd5b810190808035906020019064010000000081111561081557600080fd5b82018360208201111561082757600080fd5b8035906020019184602083028401116401000000008311171561084957600080fd5b919080806020026020016040519081016040528093929190818152602001838360200280828437600081840152601f19601f820116905080830192505050505050509192919290803573ffffffffffffffffffffffffffffffffffffffff16906020019092919080359060200190929190505050611a91565b005b6108cc612205565b6040518082815260200191505060405180910390f35b610924600480360360208110156108f857600080fd5b81019080803573ffffffffffffffffffffffffffffffffffffffff169060200190929190505050612212565b60405180868152602001806020018581526020018481526020018373ffffffffffffffffffffffffffffffffffffffff1673ffffffffffffffffffffffffffffffffffffffff168152602001828103825286818151815260200191508051906020019080838360005b838110156109a857808201518184015260208101905061098d565b50505050905090810190601f1680156109d55780820380516001836020036101000a031916815260200191505b50965050505050505060405180910390f35b610a13600480360360208110156109fd57600080fd5b8101908080359060200190929190505050612300565b6040518087815260200180602001868152602001858152602001806020018473ffffffffffffffffffffffffffffffffffffffff1673ffffffffffffffffffffffffffffffffffffffff168152602001838103835288818151815260200191508051906020019080838360005b83811015610a9b578082015181840152602081019050610a80565b50505050905090810190601f168015610ac85780820380516001836020036101000a031916815260200191505b50838103825285818151815260200191508051906020019080838360005b83811015610b01578082015181840152602081019050610ae6565b50505050905090810190601f168015610b2e5780820380516001836020036101000a031916815260200191505b509850505050505050505060405180910390f35b610b6e60048036036020811015610b5857600080fd5b810190808035906020019092919050505061252d565b604051808581526020018473ffffffffffffffffffffffffffffffffffffffff1673ffffffffffffffffffffffffffffffffffffffff1681526020018373ffffffffffffffffffffffffffffffffffffffff1673ffffffffffffffffffffffffffffffffffffffff168152602001826002811115610be857fe5b60ff16815260200194505050505060405180910390f35b610d8d600480360360c0811015610c1557600080fd5b810190808035906020019092919080359060200190640100000000811115610c3c57600080fd5b820183602082011115610c4e57600080fd5b80359060200191846001830284011164010000000083111715610c7057600080fd5b91908080601f016020809104026020016040519081016040528093929190818152602001838380828437600081840152601f19601f820116905080830192505050505050509192919290803590602001909291908035906020019092919080359060200190640100000000811115610ce757600080fd5b820183602082011115610cf957600080fd5b80359060200191846001830284011164010000000083111715610d1b57600080fd5b91908080601f016020809104026020016040519081016040528093929190818152602001838380828437600081840152601f19601f820116905080830192505050505050509192919290803573ffffffffffffffffffffffffffffffffffffffff1690602001909291905050506125b7565b005b610dd160048036036020811015610da557600080fd5b81019080803573ffffffffffffffffffffffffffffffffffffffff1690602001909291905050506128bf565b6040518087815260200180602001868152602001858152602001806020018473ffffffffffffffffffffffffffffffffffffffff1673ffffffffffffffffffffffffffffffffffffffff168152602001838103835288818151815260200191508051906020019080838360005b83811015610e59578082015181840152602081019050610e3e565b50505050905090810190601f168015610e865780820380516001836020036101000a031916815260200191505b50838103825285818151815260200191508051906020019080838360005b83811015610ebf578082015181840152602081019050610ea4565b50505050905090810190601f168015610eec5780820380516001836020036101000a031916815260200191505b509850505050505050505060405180910390f35b610f08612a4b565b6040518082815260200191505060405180910390f35b610f6060048036036020811015610f3457600080fd5b81019080803573ffffffffffffffffffffffffffffffffffffffff169060200190929190505050612a58565b005b610f8e60048036036020811015610f7857600080fd5b8101908080359060200190929190505050612ae9565b005b611087600480360360a0811015610fa657600080fd5b810190808035906020019092919080359060200190640100000000811115610fcd57600080fd5b820183602082011115610fdf57600080fd5b8035906020019184600183028401116401000000008311171561100157600080fd5b91908080601f016020809104026020016040519081016040528093929190818152602001838380828437600081840152601f19601f8201169050808301925050505050505091929192908035906020019092919080359060200190929190803573ffffffffffffffffffffffffffffffffffffffff169060200190929190505050612eb4565b005b6110b56004803603602081101561109f57600080fd5b810190808035906020019092919050505061317b565b6040518089815260200188600b8111156110cb57fe5b60ff16815260200187815260200186815260200185815260200180602001806020018473ffffffffffffffffffffffffffffffffffffffff1673ffffffffffffffffffffffffffffffffffffffff168152602001838103835286818151815260200191508051906020019080838360005b8381101561115757808201518184015260208101905061113c565b50505050905090810190601f1680156111845780820380516001836020036101000a031916815260200191505b50838103825285818151815260200191508051906020019080838360005b838110156111bd5780820151818401526020810190506111a2565b50505050905090810190601f1680156111ea5780820380516001836020036101000a031916815260200191505b509a505050505050505050505060405180910390f35b6112426004803603602081101561121657600080fd5b81019080803573ffffffffffffffffffffffffffffffffffffffff1690602001909291905050506133f2565b005b6003818154811061125157fe5b9060005260206000209060060201600091509050806000015490806001018054600181600116156101000203166002900480601f0160208091040260200160405190810160405280929190818152602001828054600181600116156101000203166002900480156113035780601f106112d857610100808354040283529160200191611303565b820191906000526020600020905b8154815290600101906020018083116112e657829003601f168201915b505050505090806002015490806003015490806004018054600181600116156101000203166002900480601f0160208091040260200160405190810160405280929190818152602001828054600181600116156101000203166002900480156113ad5780601f10611382576101008083540402835291602001916113ad565b820191906000526020600020905b81548152906001019060200180831161139057829003601f168201915b5050505050908060050160009054906101000a900473ffffffffffffffffffffffffffffffffffffffff16905086565b60006113f333600161347890919063ffffffff16565b905090565b600061140e33600261347890919063ffffffff16565b905090565b61141b611a33565b61148d576040517f08c379a00000000000000000000000000000000000000000000000000000000081526004018080602001828103825260208152602001807f4f776e61626c653a2063616c6c6572206973206e6f7420746865206f776e657281525060200191505060405180910390fd5b600073ffffffffffffffffffffffffffffffffffffffff166000809054906101000a900473ffffffffffffffffffffffffffffffffffffffff1673ffffffffffffffffffffffffffffffffffffffff167f8be0079c531659141344cd1fd0a4f28419497f9722a3daafe3b4186f6b6457e060405160405180910390a360008060006101000a81548173ffffffffffffffffffffffffffffffffffffffff021916908373ffffffffffffffffffffffffffffffffffffffff160217905550565b6007818154811061155957fe5b9060005260206000209060050201600091509050806000015490806001018054600181600116156101000203166002900480601f01602080910402602001604051908101604052809291908181526020018280546001816001161561010002031660029004801561160b5780601f106115e05761010080835404028352916020019161160b565b820191906000526020600020905b8154815290600101906020018083116115ee57829003601f168201915b5050505050908060020154908060030154908060040160009054906101000a900473ffffffffffffffffffffffffffffffffffffffff16905085565b61164f611a33565b6116c1576040517f08c379a00000000000000000000000000000000000000000000000000000000081526004018080602001828103825260208152602001807f4f776e61626c653a2063616c6c6572206973206e6f7420746865206f776e657281525060200191505060405180910390fd5b6116d581600261355690919063ffffffff16565b50565b6116e061377d565b6040518061010001604052808a815260200189600b8111156116fe57fe5b81526020018881526020018781526020018681526020018581526020018481526020018373ffffffffffffffffffffffffffffffffffffffff168152509050600581908060018154018082558091505090600182039060005260206000209060080201600090919290919091506000820151816000015560208201518160010160006101000a81548160ff0219169083600b81111561179957fe5b021790555060408201518160020155606082015181600301556080820151816004015560a08201518160050190805190602001906117d89291906137e3565b5060c08201518160060190805190602001906117f59291906137e3565b5060e08201518160070160006101000a81548173ffffffffffffffffffffffffffffffffffffffff021916908373ffffffffffffffffffffffffffffffffffffffff160217905550505050505050505050505050565b6000600680549050905090565b60008060009054906101000a900473ffffffffffffffffffffffffffffffffffffffff16905090565b6005818154811061188e57fe5b90600052602060002090600802016000915090508060000154908060010160009054906101000a900460ff1690806002015490806003015490806004015490806005018054600181600116156101000203166002900480601f0160208091040260200160405190810160405280929190818152602001828054600181600116156101000203166002900480156119655780601f1061193a57610100808354040283529160200191611965565b820191906000526020600020905b81548152906001019060200180831161194857829003601f168201915b505050505090806006018054600181600116156101000203166002900480601f016020809104026020016040519081016040528092919081815260200182805460018160011615610100020316600290048015611a035780601f106119d857610100808354040283529160200191611a03565b820191906000526020600020905b8154815290600101906020018083116119e657829003601f168201915b5050505050908060070160009054906101000a900473ffffffffffffffffffffffffffffffffffffffff16905088565b60008060009054906101000a900473ffffffffffffffffffffffffffffffffffffffff1673ffffffffffffffffffffffffffffffffffffffff16611a75613631565b73ffffffffffffffffffffffffffffffffffffffff1614905090565b611aa533600261347890919063ffffffff16565b611b17576040517f08c379a00000000000000000000000000000000000000000000000000000000081526004018080602001828103825260178152602001807f61646472657373206973206e6f742061206661726d657200000000000000000081525060200191505060405180910390fd5b60006006805490509050611b29613863565b6040518060a001604052808381526020018573ffffffffffffffffffffffffffffffffffffffff1681526020013373ffffffffffffffffffffffffffffffffffffffff16815260200186815260200160006002811115611b8557fe5b8152509050611b926138c9565b600860003373ffffffffffffffffffffffffffffffffffffffff1673ffffffffffffffffffffffffffffffffffffffff1681526020019081526020016000206040518060a001604052908160008201548152602001600182018054600181600116156101000203166002900480601f016020809104026020016040519081016040528092919081815260200182805460018160011615610100020316600290048015611c7f5780601f10611c5457610100808354040283529160200191611c7f565b820191906000526020600020905b815481529060010190602001808311611c6257829003601f168201915b5050505050815260200160028201548152602001600382015481526020016004820160009054906101000a900473ffffffffffffffffffffffffffffffffffffffff1673ffffffffffffffffffffffffffffffffffffffff1673ffffffffffffffffffffffffffffffffffffffff16815250509050611cfc61390e565b600460008773ffffffffffffffffffffffffffffffffffffffff1673ffffffffffffffffffffffffffffffffffffffff1681526020019081526020016000206040518060c001604052908160008201548152602001600182018054600181600116156101000203166002900480601f016020809104026020016040519081016040528092919081815260200182805460018160011615610100020316600290048015611de95780601f10611dbe57610100808354040283529160200191611de9565b820191906000526020600020905b815481529060010190602001808311611dcc57829003601f168201915b505050505081526020016002820154815260200160038201548152602001600482018054600181600116156101000203166002900480601f016020809104026020016040519081016040528092919081815260200182805460018160011615610100020316600290048015611e9f5780601f10611e7457610100808354040283529160200191611e9f565b820191906000526020600020905b815481529060010190602001808311611e8257829003601f168201915b505050505081526020016005820160009054906101000a900473ffffffffffffffffffffffffffffffffffffffff1673ffffffffffffffffffffffffffffffffffffffff1673ffffffffffffffffffffffffffffffffffffffff16815250509050600087600081518110611f0f57fe5b602002602001015190505b875188600081518110611f2957fe5b6020026020010151018110156120ec57600160058281548110611f4857fe5b906000526020600020906008020160010160006101000a81548160ff0219169083600b811115611f7457fe5b0217905550807febebf7373f5f00bf4b6ce952f765f1c296eafd71c4e1468646c8f785131de90688846020015186602001518a87604001518860600151604051808773ffffffffffffffffffffffffffffffffffffffff1673ffffffffffffffffffffffffffffffffffffffff1681526020018060200180602001868152602001858152602001848152602001838103835288818151815260200191508051906020019080838360005b8381101561203957808201518184015260208101905061201e565b50505050905090810190601f1680156120665780820380516001836020036101000a031916815260200191505b50838103825287818151815260200191508051906020019080838360005b8381101561209f578082015181840152602081019050612084565b50505050905090810190601f1680156120cc5780820380516001836020036101000a031916815260200191505b509850505050505050505060405180910390a28080600101915050611f1a565b50600683908060018154018082558091505090600182039060005260206000209060050201600090919290919091506000820151816000015560208201518160010160006101000a81548173ffffffffffffffffffffffffffffffffffffffff021916908373ffffffffffffffffffffffffffffffffffffffff16021790555060408201518160020160006101000a81548173ffffffffffffffffffffffffffffffffffffffff021916908373ffffffffffffffffffffffffffffffffffffffff16021790555060608201518160030190805190602001906121cf92919061395a565b5060808201518160040160006101000a81548160ff021916908360028111156121f457fe5b021790555050505050505050505050565b6000600380549050905090565b6008602052806000526040600020600091509050806000015490806001018054600181600116156101000203166002900480601f0160208091040260200160405190810160405280929190818152602001828054600181600116156101000203166002900480156122c45780601f10612299576101008083540402835291602001916122c4565b820191906000526020600020905b8154815290600101906020018083116122a757829003601f168201915b5050505050908060020154908060030154908060040160009054906101000a900473ffffffffffffffffffffffffffffffffffffffff16905085565b600060606000806060600061231361390e565b6003888154811061232057fe5b90600052602060002090600602016040518060c001604052908160008201548152602001600182018054600181600116156101000203166002900480601f0160208091040260200160405190810160405280929190818152602001828054600181600116156101000203166002900480156123dc5780601f106123b1576101008083540402835291602001916123dc565b820191906000526020600020905b8154815290600101906020018083116123bf57829003601f168201915b505050505081526020016002820154815260200160038201548152602001600482018054600181600116156101000203166002900480601f0160208091040260200160405190810160405280929190818152602001828054600181600116156101000203166002900480156124925780601f1061246757610100808354040283529160200191612492565b820191906000526020600020905b81548152906001019060200180831161247557829003601f168201915b505050505081526020016005820160009054906101000a900473ffffffffffffffffffffffffffffffffffffffff1673ffffffffffffffffffffffffffffffffffffffff1673ffffffffffffffffffffffffffffffffffffffff16815250509050806000015181602001518260400151836060015184608001518560a001518494508191509650965096509650965096505091939550919395565b6006818154811061253a57fe5b90600052602060002090600502016000915090508060000154908060010160009054906101000a900473ffffffffffffffffffffffffffffffffffffffff16908060020160009054906101000a900473ffffffffffffffffffffffffffffffffffffffff16908060040160009054906101000a900460ff16905084565b6125bf611a33565b612631576040517f08c379a00000000000000000000000000000000000000000000000000000000081526004018080602001828103825260208152602001807f4f776e61626c653a2063616c6c6572206973206e6f7420746865206f776e657281525060200191505060405180910390fd5b61264581600161347890919063ffffffff16565b6126b7576040517f08c379a000000000000000000000000000000000000000000000000000000000815260040180806020018281038252601e8152602001807f61646472657373206973206e6f742061206e757273657279206f776e6572000081525060200191505060405180910390fd5b6126bf61390e565b6040518060c001604052808881526020018781526020018681526020018581526020018481526020018373ffffffffffffffffffffffffffffffffffffffff168152509050600381908060018154018082558091505090600182039060005260206000209060060201600090919290919091506000820151816000015560208201518160010190805190602001906127589291906137e3565b50604082015181600201556060820151816003015560808201518160040190805190602001906127899291906137e3565b5060a08201518160050160006101000a81548173ffffffffffffffffffffffffffffffffffffffff021916908373ffffffffffffffffffffffffffffffffffffffff16021790555050505080600460008473ffffffffffffffffffffffffffffffffffffffff1673ffffffffffffffffffffffffffffffffffffffff16815260200190815260200160002060008201518160000155602082015181600101908051906020019061283a9291906137e3565b506040820151816002015560608201518160030155608082015181600401908051906020019061286b9291906137e3565b5060a08201518160050160006101000a81548173ffffffffffffffffffffffffffffffffffffffff021916908373ffffffffffffffffffffffffffffffffffffffff16021790555090505050505050505050565b6004602052806000526040600020600091509050806000015490806001018054600181600116156101000203166002900480601f0160208091040260200160405190810160405280929190818152602001828054600181600116156101000203166002900480156129715780601f1061294657610100808354040283529160200191612971565b820191906000526020600020905b81548152906001019060200180831161295457829003601f168201915b505050505090806002015490806003015490806004018054600181600116156101000203166002900480601f016020809104026020016040519081016040528092919081815260200182805460018160011615610100020316600290048015612a1b5780601f106129f057610100808354040283529160200191612a1b565b820191906000526020600020905b8154815290600101906020018083116129fe57829003601f168201915b5050505050908060050160009054906101000a900473ffffffffffffffffffffffffffffffffffffffff16905086565b6000600580549050905090565b612a60611a33565b612ad2576040517f08c379a00000000000000000000000000000000000000000000000000000000081526004018080602001828103825260208152602001807f4f776e61626c653a2063616c6c6572206973206e6f7420746865206f776e657281525060200191505060405180910390fd5b612ae681600161355690919063ffffffff16565b50565b612afd33600161347890919063ffffffff16565b612b52576040517f08c379a00000000000000000000000000000000000000000000000000000000081526004018080602001828103825260278152602001806139f36027913960400191505060405180910390fd5b612b5a61390e565b600460003373ffffffffffffffffffffffffffffffffffffffff1673ffffffffffffffffffffffffffffffffffffffff1681526020019081526020016000206040518060c001604052908160008201548152602001600182018054600181600116156101000203166002900480601f016020809104026020016040519081016040528092919081815260200182805460018160011615610100020316600290048015612c475780601f10612c1c57610100808354040283529160200191612c47565b820191906000526020600020905b815481529060010190602001808311612c2a57829003601f168201915b505050505081526020016002820154815260200160038201548152602001600482018054600181600116156101000203166002900480601f016020809104026020016040519081016040528092919081815260200182805460018160011615610100020316600290048015612cfd5780601f10612cd257610100808354040283529160200191612cfd565b820191906000526020600020905b815481529060010190602001808311612ce057829003601f168201915b505050505081526020016005820160009054906101000a900473ffffffffffffffffffffffffffffffffffffffff1673ffffffffffffffffffffffffffffffffffffffff1673ffffffffffffffffffffffffffffffffffffffff1681525050905060006005805490509050612dba816000858560400151866060015187602001516040518060400160405280600881526020017f476c656e204d6f79000000000000000000000000000000000000000000000000815250336116d8565b807fea8a60e825f42ce9a9de8f9482350a671c8b01a7699ea9601b9df06b2aed6c743384602001518686604001518760600151604051808673ffffffffffffffffffffffffffffffffffffffff1673ffffffffffffffffffffffffffffffffffffffff16815260200180602001858152602001848152602001838152602001828103825286818151815260200191508051906020019080838360005b83811015612e71578082015181840152602081019050612e56565b50505050905090810190601f168015612e9e5780820380516001836020036101000a031916815260200191505b50965050505050505060405180910390a2505050565b612ebc611a33565b612f2e576040517f08c379a00000000000000000000000000000000000000000000000000000000081526004018080602001828103825260208152602001807f4f776e61626c653a2063616c6c6572206973206e6f7420746865206f776e657281525060200191505060405180910390fd5b612f4281600261347890919063ffffffff16565b612fb4576040517f08c379a00000000000000000000000000000000000000000000000000000000081526004018080602001828103825260178152602001807f61646472657373206973206e6f742061206661726d657200000000000000000081525060200191505060405180910390fd5b612fbc6138c9565b6040518060a001604052808781526020018681526020018581526020018481526020018373ffffffffffffffffffffffffffffffffffffffff1681525090506007819080600181540180825580915050906001820390600052602060002090600502016000909192909190915060008201518160000155602082015181600101908051906020019061304f9291906137e3565b50604082015181600201556060820151816003015560808201518160040160006101000a81548173ffffffffffffffffffffffffffffffffffffffff021916908373ffffffffffffffffffffffffffffffffffffffff16021790555050505080600860008473ffffffffffffffffffffffffffffffffffffffff1673ffffffffffffffffffffffffffffffffffffffff1681526020019081526020016000206000820151816000015560208201518160010190805190602001906131149291906137e3565b50604082015181600201556060820151816003015560808201518160040160006101000a81548173ffffffffffffffffffffffffffffffffffffffff021916908373ffffffffffffffffffffffffffffffffffffffff160217905550905050505050505050565b6000806000806000606080600061319061377d565b60058a8154811061319d57fe5b906000526020600020906008020160405180610100016040529081600082015481526020016001820160009054906101000a900460ff16600b8111156131df57fe5b600b8111156131ea57fe5b8152602001600282015481526020016003820154815260200160048201548152602001600582018054600181600116156101000203166002900480601f0160208091040260200160405190810160405280929190818152602001828054600181600116156101000203166002900480156132a55780601f1061327a576101008083540402835291602001916132a5565b820191906000526020600020905b81548152906001019060200180831161328857829003601f168201915b50505050508152602001600682018054600181600116156101000203166002900480601f0160208091040260200160405190810160405280929190818152602001828054600181600116156101000203166002900480156133475780601f1061331c57610100808354040283529160200191613347565b820191906000526020600020905b81548152906001019060200180831161332a57829003601f168201915b505050505081526020016007820160009054906101000a900473ffffffffffffffffffffffffffffffffffffffff1673ffffffffffffffffffffffffffffffffffffffff1673ffffffffffffffffffffffffffffffffffffffff16815250509050806000015181602001518260400151836060015184608001518560a001518660c001518760e001518292508191509850985098509850985098509850985050919395975091939597565b6133fa611a33565b61346c576040517f08c379a00000000000000000000000000000000000000000000000000000000081526004018080602001828103825260208152602001807f4f776e61626c653a2063616c6c6572206973206e6f7420746865206f776e657281525060200191505060405180910390fd5b61347581613639565b50565b60008073ffffffffffffffffffffffffffffffffffffffff168273ffffffffffffffffffffffffffffffffffffffff1614156134ff576040517f08c379a0000000000000000000000000000000000000000000000000000000008152600401808060200182810382526022815260200180613a1a6022913960400191505060405180910390fd5b8260000160008373ffffffffffffffffffffffffffffffffffffffff1673ffffffffffffffffffffffffffffffffffffffff16815260200190815260200160002060009054906101000a900460ff16905092915050565b6135608282613478565b156135d3576040517f08c379a000000000000000000000000000000000000000000000000000000000815260040180806020018281038252601f8152602001807f526f6c65733a206163636f756e7420616c72656164792068617320726f6c650081525060200191505060405180910390fd5b60018260000160008373ffffffffffffffffffffffffffffffffffffffff1673ffffffffffffffffffffffffffffffffffffffff16815260200190815260200160002060006101000a81548160ff0219169083151502179055505050565b600033905090565b600073ffffffffffffffffffffffffffffffffffffffff168173ffffffffffffffffffffffffffffffffffffffff1614156136bf576040517f08c379a00000000000000000000000000000000000000000000000000000000081526004018080602001828103825260268152602001806139cd6026913960400191505060405180910390fd5b8073ffffffffffffffffffffffffffffffffffffffff166000809054906101000a900473ffffffffffffffffffffffffffffffffffffffff1673ffffffffffffffffffffffffffffffffffffffff167f8be0079c531659141344cd1fd0a4f28419497f9722a3daafe3b4186f6b6457e060405160405180910390a3806000806101000a81548173ffffffffffffffffffffffffffffffffffffffff021916908373ffffffffffffffffffffffffffffffffffffffff16021790555050565b604051806101000160405280600081526020016000600b81111561379d57fe5b81526020016000815260200160008152602001600081526020016060815260200160608152602001600073ffffffffffffffffffffffffffffffffffffffff1681525090565b828054600181600116156101000203166002900490600052602060002090601f016020900481019282601f1061382457805160ff1916838001178555613852565b82800160010185558215613852579182015b82811115613851578251825591602001919060010190613836565b5b50905061385f91906139a7565b5090565b6040518060a0016040528060008152602001600073ffffffffffffffffffffffffffffffffffffffff168152602001600073ffffffffffffffffffffffffffffffffffffffff16815260200160608152602001600060028111156138c357fe5b81525090565b6040518060a0016040528060008152602001606081526020016000815260200160008152602001600073ffffffffffffffffffffffffffffffffffffffff1681525090565b6040518060c001604052806000815260200160608152602001600081526020016000815260200160608152602001600073ffffffffffffffffffffffffffffffffffffffff1681525090565b828054828255906000526020600020908101928215613996579160200282015b8281111561399557825182559160200191906001019061397a565b5b5090506139a391906139a7565b5090565b6139c991905b808211156139c55760008160009055506001016139ad565b5090565b9056fe4f776e61626c653a206e6577206f776e657220697320746865207a65726f20616464726573736f6e6c79206e757273657279206f776e65722063616e2070726f706f6761746520706c616e7473526f6c65733a206163636f756e7420697320746865207a65726f2061646472657373a165627a7a7230582011152fb5a29c7c2657759003b3c35b70c4a7f1400d7d792b01da166964c5b7a30029526f6c65733a206163636f756e7420697320746865207a65726f2061646472657373",
  "source": "pragma solidity  > 0.5.0;\n\nimport \"../node_modules/openzeppelin-solidity/contracts/access/Roles.sol\";\nimport \"../node_modules/openzeppelin-solidity/contracts/ownership/Ownable.sol\";\n\ncontract Supply is Ownable {\n  using Roles for Roles.Role;\n\n  Roles.Role private nurseryOwners;\n  Roles.Role private farmers;\n\n  enum State { Propogated, Purchased, Shipped, Received, Planted, Harvested, Packed, Weighed, Stored, AtDistribution, Distributed, Sold }\n\n  enum OrderState { Ordered, Dispatched, Recevied }\n\n  struct Owner {\n    string friendlyName;\n    uint date;\n  }\n\n  struct Nursery {\n    uint id;\n    string name;\n    int lat;\n    int long;\n    string description;\n    address nurseryOwner;\n  }\n\n  struct Plant {\n    uint id; // id of the plant\n    State state; // the state of the plant in the supply chain\n    uint plantedDate; // date the plant was planeted\n    int lat; // Latitute of plant location\n    int long; // Longitude of plant location\n    string sourceNursery; // Nursery plant was grown at\n    string variety;\n    address plantOwner;\n  }\n\n  struct Farm {\n    uint id;\n    string name;\n    int lat;\n    int long;\n    address farmer;\n  }\n\n  struct Order {\n    uint orderId;\n    address nursery;\n    address farmer;\n    uint[] plantIds;\n    OrderState state;\n  }\n\n  Nursery[] public nurseries;\n  mapping(address => Nursery) public nurseriesByOwners;\n\n  // Dynamically sized plant array\n  Plant[] public plants;\n\n  Order[] public orders;\n\n  Farm[] public farms;\n  mapping(address => Farm) public farmsByOwners;\n\n  event PropogatedByNursery(uint indexed plantId, address plantOwner, string nurseryName, uint date, int lat, int long);\n  event PurchasedByFarmer(uint indexed plantId, address plantOwner, string nurseryName, string farmName, uint date, int lat, int long);\n  event ShippedByNursery(uint indexed plantId, address plantOwner, uint date);\n  event ReceivedByFarmer(uint indexed plantId, address plantOwner, uint date);\n  event PlantedByFarmer(uint indexed plantId, address plantOwner, uint date);\n\n  constructor() public {\n    addNurseryOwner(0x21111104e6933e6fb2bB4dc99AB5B65439226043);\n    addNursery(0, \"Glendoick\", 56, 3, \"Small nursery for raspberries\", 0x21111104e6933e6fb2bB4dc99AB5B65439226043);\n    addFarmer(0xdacF2A85BEbdD88e49DF032A61b5d7679eafb25E);\n    addFarm(0, \"Invergowrie\", 56, 3, 0xdacF2A85BEbdD88e49DF032A61b5d7679eafb25E);\n  }\n\n  function addNurseryOwner(address nurseryOwner) public onlyOwner {\n    nurseryOwners.add(nurseryOwner);\n  }\n\n  function addNursery(uint id, string memory name, int lat, int long, string memory nurseryDescription, address nurseryOwner) public onlyOwner {\n    require(nurseryOwners.has(nurseryOwner), \"address is not a nursery owner\");\n    Nursery memory nursery = Nursery(id, name, lat, long, nurseryDescription, nurseryOwner);\n    nurseries.push(nursery);\n    nurseriesByOwners[nurseryOwner] = nursery;\n  }\n\n  function getNurseryCount() public view returns(uint) {\n    return nurseries.length;\n  }\n\n  function getNursery(uint index) public view returns(uint, string memory, int, int, string memory, address) {\n    Nursery memory nursery = nurseries[index];\n    return (nursery.id, nursery.name, nursery.lat, nursery.long, nursery.description, nursery.nurseryOwner);\n  }\n\n  function propogatePlant(uint date) public {\n    require(nurseryOwners.has(msg.sender), \"only nursery owner can propogate plants\");\n    Nursery memory nursery = nurseriesByOwners[msg.sender];\n    uint plantId = plants.length;\n    addPlant(plantId, State.Propogated, date, nursery.lat, nursery.long, nursery.name, \"Glen Moy\", msg.sender);\n    emit PropogatedByNursery(plantId, msg.sender, nursery.name, date, nursery.lat, nursery.long);\n  }\n\n   function addFarmer(address farmer) public onlyOwner {\n    farmers.add(farmer);\n  }\n\n  function addFarm(uint id, string memory name, int lat, int long, address farmer) public onlyOwner {\n    require(farmers.has(farmer), \"address is not a farmer\");\n    Farm memory farm = Farm(id, name, lat, long, farmer);\n    farms.push(farm);\n    farmsByOwners[farmer] = farm;\n  }\n\n  function addPlant(uint id, State _state, uint _date, int _lat, int _long, string memory _nursery, string memory variety, address plantOwner) public {\n    Plant memory plant = Plant(id, _state, _date, _lat, _long, _nursery, variety, plantOwner);\n    plants.push(plant);\n  }\n\n  function getPlantCount() public view returns(uint) {\n    return plants.length;\n  }\n\n  function getPlant(uint index) public view returns(uint, State, uint, int, int, string memory, string memory, address plantOwner) {\n    Plant memory plant = plants[index];\n    return (plant.id, plant.state, plant.plantedDate, plant.lat, plant.long, plant.sourceNursery, plant.variety, plant.plantOwner);\n  }\n\n  modifier purchasedByFarmer(uint id) {\n    require(plants[id].state == State.Purchased, \"the state of the plant in this function must be Purchased\");\n    _;\n  }\n\n  function isNurseryOwner() public view returns(bool) {\n    return nurseryOwners.has(msg.sender);\n  }\n\n  function isFarmer() public view returns(bool) {\n    return farmers.has(msg.sender);\n  }\n\n  function getOrderCount() public view returns(uint) {\n    return orders.length;\n  }\n\n  function orderPlants(uint[] memory plantIds, address nurseryOwner, uint purchaseDate) public {\n    require(farmers.has(msg.sender), \"address is not a farmer\");\n    uint orderId = orders.length;\n    Order memory order = Order(orderId, nurseryOwner, msg.sender, plantIds, OrderState.Ordered);\n\n    Farm memory farm = farmsByOwners[msg.sender];\n    Nursery memory nursery = nurseriesByOwners[nurseryOwner];\n\n    for (uint i = plantIds[0]; i < plantIds[0] + plantIds.length; i++) {\n      plants[i].state = State.Purchased;\n      emit PurchasedByFarmer(i, nurseryOwner, nursery.name, farm.name, purchaseDate, nursery.lat, nursery.long);\n    }\n\n    orders.push(order);\n  }\n}",
  "sourcePath": "/home/gordon/projects/blockchain/basic/contracts/Supply.sol",
  "compiler": {
    "name": "solc",
    "version": "0.5.8+commit.23d335f2.Emscripten.clang"
  },
  "schemaVersion": "3.0.11",
  "updatedAt": "2020-03-03T10:10:08.539Z",
  "devdoc": {
    "methods": {
      "isOwner()": {
        "details": "Returns true if the caller is the current owner."
      },
      "owner()": {
        "details": "Returns the address of the current owner."
      },
      "renounceOwnership()": {
        "details": "Leaves the contract without owner. It will not be possible to call `onlyOwner` functions anymore. Can only be called by the current owner.     * NOTE: Renouncing ownership will leave the contract without an owner, thereby removing any functionality that is only available to the owner."
      },
      "transferOwnership(address)": {
        "details": "Transfers ownership of the contract to a new account (`newOwner`). Can only be called by the current owner."
      }
    }
  },
  "userdoc": {
    "methods": {}
  }
}