{
  "contractName": "Supply",
  "abi": [
    {
      "constant": true,
      "inputs": [
        {
          "name": "",
          "type": "uint256"
        }
      ],
      "name": "plants",
      "outputs": [
        {
          "name": "id",
          "type": "uint256"
        },
        {
          "name": "state",
          "type": "uint8"
        },
        {
          "name": "plantedDate",
          "type": "uint256"
        },
        {
          "name": "lat",
          "type": "int256"
        },
        {
          "name": "long",
          "type": "int256"
        },
        {
          "name": "sourceNursery",
          "type": "string"
        }
      ],
      "payable": false,
      "stateMutability": "view",
      "type": "function"
    },
    {
      "inputs": [],
      "payable": false,
      "stateMutability": "nonpayable",
      "type": "constructor"
    },
    {
      "constant": false,
      "inputs": [
        {
          "name": "id",
          "type": "uint256"
        },
        {
          "name": "_state",
          "type": "uint8"
        },
        {
          "name": "_date",
          "type": "uint256"
        },
        {
          "name": "_lat",
          "type": "int256"
        },
        {
          "name": "_long",
          "type": "int256"
        },
        {
          "name": "_nursery",
          "type": "string"
        }
      ],
      "name": "addPlant",
      "outputs": [],
      "payable": false,
      "stateMutability": "nonpayable",
      "type": "function"
    },
    {
      "constant": true,
      "inputs": [],
      "name": "firstPlantedDate",
      "outputs": [
        {
          "name": "date_",
          "type": "uint256"
        }
      ],
      "payable": false,
      "stateMutability": "view",
      "type": "function"
    },
    {
      "constant": true,
      "inputs": [],
      "name": "getPlantCount",
      "outputs": [
        {
          "name": "",
          "type": "uint256"
        }
      ],
      "payable": false,
      "stateMutability": "view",
      "type": "function"
    },
    {
      "constant": true,
      "inputs": [
        {
          "name": "index",
          "type": "uint256"
        }
      ],
      "name": "getPlant",
      "outputs": [
        {
          "name": "",
          "type": "uint256"
        },
        {
          "name": "",
          "type": "uint8"
        },
        {
          "name": "",
          "type": "uint256"
        },
        {
          "name": "",
          "type": "int256"
        },
        {
          "name": "",
          "type": "int256"
        },
        {
          "name": "",
          "type": "string"
        }
      ],
      "payable": false,
      "stateMutability": "view",
      "type": "function"
    }
  ],
  "bytecode": "0x608060405234801561001057600080fd5b50610061600080635d5d1f01603860036040518060400160405280600b81526020017f496e766572676f7772696500000000000000000000000000000000000000000081525061006660201b60201c565b610236565b61006e610150565b6040518060c0016040528088815260200187600281111561008b57fe5b8152602001868152602001858152602001848152602001838152509050600081908060018154018082558091505090600182039060005260206000209060060201600090919290919091506000820151816000015560208201518160010160006101000a81548160ff0219169083600281111561010457fe5b021790555060408201518160020155606082015181600301556080820151816004015560a0820151816005019080519060200190610143929190610191565b5050505050505050505050565b6040518060c00160405280600081526020016000600281111561016f57fe5b8152602001600081526020016000815260200160008152602001606081525090565b828054600181600116156101000203166002900490600052602060002090601f016020900481019282601f106101d257805160ff1916838001178555610200565b82800160010185558215610200579182015b828111156101ff5782518255916020019190600101906101e4565b5b50905061020d9190610211565b5090565b61023391905b8082111561022f576000816000905550600101610217565b5090565b90565b6107bc806102456000396000f3fe608060405234801561001057600080fd5b50600436106100575760003560e01c80638dd2361c1461005c578063a509324914610134578063c0d3e1f914610224578063ed0b1f5f14610242578063f32fea771461031a575b600080fd5b6100886004803603602081101561007257600080fd5b8101908080359060200190929190505050610338565b6040518087815260200186600281111561009e57fe5b60ff16815260200185815260200184815260200183815260200180602001828103825283818151815260200191508051906020019080838360005b838110156100f45780820151818401526020810190506100d9565b50505050905090810190601f1680156101215780820380516001836020036101000a031916815260200191505b5097505050505050505060405180910390f35b610222600480360360c081101561014a57600080fd5b8101908080359060200190929190803560ff1690602001909291908035906020019092919080359060200190929190803590602001909291908035906020019064010000000081111561019c57600080fd5b8201836020820111156101ae57600080fd5b803590602001918460018302840111640100000000831117156101d057600080fd5b91908080601f016020809104026020016040519081016040528093929190818152602001838380828437600081840152601f19601f820116905080830192505050505050509192919290505050610426565b005b61022c610510565b6040518082815260200191505060405180910390f35b61026e6004803603602081101561025857600080fd5b810190808035906020019092919050505061051c565b6040518087815260200186600281111561028457fe5b60ff16815260200185815260200184815260200183815260200180602001828103825283818151815260200191508051906020019080838360005b838110156102da5780820151818401526020810190506102bf565b50505050905090810190601f1680156103075780820380516001836020036101000a031916815260200191505b5097505050505050505060405180910390f35b610322610684565b6040518082815260200191505060405180910390f35b6000818154811061034557fe5b90600052602060002090600602016000915090508060000154908060010160009054906101000a900460ff1690806002015490806003015490806004015490806005018054600181600116156101000203166002900480601f01602080910402602001604051908101604052809291908181526020018280546001816001161561010002031660029004801561041c5780601f106103f15761010080835404028352916020019161041c565b820191906000526020600020905b8154815290600101906020018083116103ff57829003601f168201915b5050505050905086565b61042e6106aa565b6040518060c0016040528088815260200187600281111561044b57fe5b8152602001868152602001858152602001848152602001838152509050600081908060018154018082558091505090600182039060005260206000209060060201600090919290919091506000820151816000015560208201518160010160006101000a81548160ff021916908360028111156104c457fe5b021790555060408201518160020155606082015181600301556080820151816004015560a08201518160050190805190602001906105039291906106eb565b5050505050505050505050565b60008080549050905090565b6000806000806000606061052e6106aa565b6000888154811061053b57fe5b90600052602060002090600602016040518060c0016040529081600082015481526020016001820160009054906101000a900460ff16600281111561057c57fe5b600281111561058757fe5b8152602001600282015481526020016003820154815260200160048201548152602001600582018054600181600116156101000203166002900480601f0160208091040260200160405190810160405280929190818152602001828054600181600116156101000203166002900480156106425780601f1061061757610100808354040283529160200191610642565b820191906000526020600020905b81548152906001019060200180831161062557829003601f168201915b5050505050815250509050806000015181602001518260400151836060015184608001518560a001518090509650965096509650965096505091939550919395565b60008060008154811061069357fe5b906000526020600020906006020160020154905090565b6040518060c0016040528060008152602001600060028111156106c957fe5b8152602001600081526020016000815260200160008152602001606081525090565b828054600181600116156101000203166002900490600052602060002090601f016020900481019282601f1061072c57805160ff191683800117855561075a565b8280016001018555821561075a579182015b8281111561075957825182559160200191906001019061073e565b5b509050610767919061076b565b5090565b61078d91905b80821115610789576000816000905550600101610771565b5090565b9056fea165627a7a7230582050fe75bb1ab29a8566374a02232b9fa4534a05298eb98c1d3844dd56ea3958160029",
  "source": "pragma solidity >=0.4.22 <0.7.0;\n\ncontract Supply {\n  enum State { Planted, Harvested, Weighted }\n\n  struct Plant {\n    uint id; // id of the plant\n    State state; // the state of the plant in the supply chain\n    uint plantedDate; // date the plant was planeted\n    int lat; // Latitute of plant location\n    int long; // Longitude of plant location\n    string sourceNursery; // Nursery plant was grown at\n  }\n\n  // Dynamically sized plant array\n  Plant[] public plants;\n\n  constructor() public {\n    addPlant(0, State.Planted, 1566383873, 56, 3, \"Invergowrie\");\n  }\n\n  function addPlant(uint id, State _state, uint _date, int _lat, int _long, string memory _nursery) public {\n    Plant memory plant = Plant(id, _state, _date, _lat, _long, _nursery);\n    plants.push(plant);\n  }\n\n  function firstPlantedDate() public view returns (uint date_)\n  {\n    date_ = plants[0].plantedDate;\n  }\n\n  function getPlantCount() public view returns(uint) {\n    return plants.length;\n  }\n\n  function getPlant(uint index) public view returns(uint, State, uint, int, int, string memory) {\n    Plant memory plant = plants[index];\n    return (plant.id, plant.state, plant.plantedDate, plant.lat, plant.long, plant.sourceNursery);\n  }\n}",
  "sourcePath": "/home/gordon/projects/blockchain/basic/contracts/Supply.sol",
  "compiler": {
    "name": "solc",
    "version": "0.5.8+commit.23d335f2.Emscripten.clang"
  },
  "schemaVersion": "3.0.11",
  "updatedAt": "2019-09-12T14:53:08.289Z",
  "devdoc": {
    "methods": {}
  },
  "userdoc": {
    "methods": {}
  }
}