{
  "contractName": "Supply",
  "abi": [
    {
      "constant": true,
      "inputs": [
        {
          "name": "",
          "type": "uint256"
        }
      ],
      "name": "nurseries",
      "outputs": [
        {
          "name": "id",
          "type": "uint256"
        },
        {
          "name": "name",
          "type": "string"
        },
        {
          "name": "lat",
          "type": "int256"
        },
        {
          "name": "long",
          "type": "int256"
        },
        {
          "name": "description",
          "type": "string"
        },
        {
          "name": "ownerId",
          "type": "uint256"
        }
      ],
      "payable": false,
      "stateMutability": "view",
      "type": "function"
    },
    {
      "constant": true,
      "inputs": [
        {
          "name": "",
          "type": "uint256"
        }
      ],
      "name": "nurseryOwnerList",
      "outputs": [
        {
          "name": "id",
          "type": "uint256"
        },
        {
          "name": "name",
          "type": "string"
        },
        {
          "name": "ownerAddress",
          "type": "address"
        }
      ],
      "payable": false,
      "stateMutability": "view",
      "type": "function"
    },
    {
      "constant": false,
      "inputs": [],
      "name": "renounceOwnership",
      "outputs": [],
      "payable": false,
      "stateMutability": "nonpayable",
      "type": "function"
    },
    {
      "constant": true,
      "inputs": [
        {
          "name": "",
          "type": "uint256"
        }
      ],
      "name": "farms",
      "outputs": [
        {
          "name": "id",
          "type": "uint256"
        },
        {
          "name": "name",
          "type": "string"
        },
        {
          "name": "lat",
          "type": "int256"
        },
        {
          "name": "long",
          "type": "int256"
        },
        {
          "name": "description",
          "type": "string"
        },
        {
          "name": "ownerId",
          "type": "uint256"
        }
      ],
      "payable": false,
      "stateMutability": "view",
      "type": "function"
    },
    {
      "constant": true,
      "inputs": [],
      "name": "owner",
      "outputs": [
        {
          "name": "",
          "type": "address"
        }
      ],
      "payable": false,
      "stateMutability": "view",
      "type": "function"
    },
    {
      "constant": true,
      "inputs": [
        {
          "name": "",
          "type": "uint256"
        }
      ],
      "name": "plants",
      "outputs": [
        {
          "name": "id",
          "type": "uint256"
        },
        {
          "name": "state",
          "type": "uint8"
        },
        {
          "name": "plantedDate",
          "type": "uint256"
        },
        {
          "name": "lat",
          "type": "int256"
        },
        {
          "name": "long",
          "type": "int256"
        },
        {
          "name": "sourceNursery",
          "type": "string"
        },
        {
          "name": "variety",
          "type": "string"
        },
        {
          "name": "ownerId",
          "type": "uint256"
        }
      ],
      "payable": false,
      "stateMutability": "view",
      "type": "function"
    },
    {
      "constant": true,
      "inputs": [],
      "name": "isOwner",
      "outputs": [
        {
          "name": "",
          "type": "bool"
        }
      ],
      "payable": false,
      "stateMutability": "view",
      "type": "function"
    },
    {
      "constant": true,
      "inputs": [
        {
          "name": "",
          "type": "address"
        }
      ],
      "name": "farmsByOwners",
      "outputs": [
        {
          "name": "id",
          "type": "uint256"
        },
        {
          "name": "name",
          "type": "string"
        },
        {
          "name": "lat",
          "type": "int256"
        },
        {
          "name": "long",
          "type": "int256"
        },
        {
          "name": "description",
          "type": "string"
        },
        {
          "name": "ownerId",
          "type": "uint256"
        }
      ],
      "payable": false,
      "stateMutability": "view",
      "type": "function"
    },
    {
      "constant": true,
      "inputs": [
        {
          "name": "",
          "type": "uint256"
        }
      ],
      "name": "orders",
      "outputs": [
        {
          "name": "orderId",
          "type": "uint256"
        },
        {
          "name": "nursery",
          "type": "address"
        },
        {
          "name": "farmer",
          "type": "address"
        },
        {
          "name": "state",
          "type": "uint8"
        }
      ],
      "payable": false,
      "stateMutability": "view",
      "type": "function"
    },
    {
      "constant": true,
      "inputs": [
        {
          "name": "",
          "type": "address"
        }
      ],
      "name": "nurseriesByOwners",
      "outputs": [
        {
          "name": "id",
          "type": "uint256"
        },
        {
          "name": "name",
          "type": "string"
        },
        {
          "name": "lat",
          "type": "int256"
        },
        {
          "name": "long",
          "type": "int256"
        },
        {
          "name": "description",
          "type": "string"
        },
        {
          "name": "ownerId",
          "type": "uint256"
        }
      ],
      "payable": false,
      "stateMutability": "view",
      "type": "function"
    },
    {
      "constant": true,
      "inputs": [
        {
          "name": "",
          "type": "uint256"
        }
      ],
      "name": "farmOwnerList",
      "outputs": [
        {
          "name": "id",
          "type": "uint256"
        },
        {
          "name": "name",
          "type": "string"
        },
        {
          "name": "ownerAddress",
          "type": "address"
        }
      ],
      "payable": false,
      "stateMutability": "view",
      "type": "function"
    },
    {
      "constant": true,
      "inputs": [
        {
          "name": "",
          "type": "uint256"
        }
      ],
      "name": "ownerList",
      "outputs": [
        {
          "name": "id",
          "type": "uint256"
        },
        {
          "name": "name",
          "type": "string"
        },
        {
          "name": "ownerAddress",
          "type": "address"
        }
      ],
      "payable": false,
      "stateMutability": "view",
      "type": "function"
    },
    {
      "constant": false,
      "inputs": [
        {
          "name": "newOwner",
          "type": "address"
        }
      ],
      "name": "transferOwnership",
      "outputs": [],
      "payable": false,
      "stateMutability": "nonpayable",
      "type": "function"
    },
    {
      "inputs": [],
      "payable": false,
      "stateMutability": "nonpayable",
      "type": "constructor"
    },
    {
      "anonymous": false,
      "inputs": [
        {
          "indexed": false,
          "name": "name",
          "type": "string"
        },
        {
          "indexed": false,
          "name": "nurseryOwner",
          "type": "address"
        }
      ],
      "name": "AddedNurseryOwner",
      "type": "event"
    },
    {
      "anonymous": false,
      "inputs": [
        {
          "indexed": false,
          "name": "name",
          "type": "string"
        },
        {
          "indexed": false,
          "name": "farmOwner",
          "type": "address"
        }
      ],
      "name": "AddedFarmOwner",
      "type": "event"
    },
    {
      "anonymous": false,
      "inputs": [
        {
          "indexed": false,
          "name": "nurseryId",
          "type": "uint256"
        },
        {
          "indexed": false,
          "name": "nurseryName",
          "type": "string"
        },
        {
          "indexed": false,
          "name": "lat",
          "type": "int256"
        },
        {
          "indexed": false,
          "name": "long",
          "type": "int256"
        },
        {
          "indexed": false,
          "name": "description",
          "type": "string"
        },
        {
          "indexed": false,
          "name": "ownerId",
          "type": "uint256"
        },
        {
          "indexed": false,
          "name": "ownerName",
          "type": "string"
        }
      ],
      "name": "AddedNursery",
      "type": "event"
    },
    {
      "anonymous": false,
      "inputs": [
        {
          "indexed": false,
          "name": "farmId",
          "type": "uint256"
        },
        {
          "indexed": false,
          "name": "farmName",
          "type": "string"
        },
        {
          "indexed": false,
          "name": "lat",
          "type": "int256"
        },
        {
          "indexed": false,
          "name": "long",
          "type": "int256"
        },
        {
          "indexed": false,
          "name": "description",
          "type": "string"
        },
        {
          "indexed": false,
          "name": "ownerId",
          "type": "uint256"
        },
        {
          "indexed": false,
          "name": "ownerName",
          "type": "string"
        }
      ],
      "name": "AddedFarm",
      "type": "event"
    },
    {
      "anonymous": false,
      "inputs": [
        {
          "indexed": true,
          "name": "plantId",
          "type": "uint256"
        },
        {
          "indexed": false,
          "name": "state",
          "type": "uint8"
        },
        {
          "indexed": false,
          "name": "date",
          "type": "uint256"
        },
        {
          "indexed": false,
          "name": "lat",
          "type": "int256"
        },
        {
          "indexed": false,
          "name": "long",
          "type": "int256"
        },
        {
          "indexed": false,
          "name": "name",
          "type": "string"
        },
        {
          "indexed": false,
          "name": "variety",
          "type": "string"
        },
        {
          "indexed": true,
          "name": "ownerId",
          "type": "uint256"
        }
      ],
      "name": "PropogatedByNursery",
      "type": "event"
    },
    {
      "anonymous": false,
      "inputs": [
        {
          "indexed": true,
          "name": "plantId",
          "type": "uint256"
        },
        {
          "indexed": false,
          "name": "plantOwner",
          "type": "address"
        },
        {
          "indexed": false,
          "name": "nurseryName",
          "type": "string"
        },
        {
          "indexed": false,
          "name": "farmName",
          "type": "string"
        },
        {
          "indexed": false,
          "name": "date",
          "type": "uint256"
        },
        {
          "indexed": false,
          "name": "lat",
          "type": "int256"
        },
        {
          "indexed": false,
          "name": "long",
          "type": "int256"
        }
      ],
      "name": "PurchasedByFarmer",
      "type": "event"
    },
    {
      "anonymous": false,
      "inputs": [
        {
          "indexed": true,
          "name": "plantId",
          "type": "uint256"
        },
        {
          "indexed": false,
          "name": "plantOwner",
          "type": "address"
        },
        {
          "indexed": false,
          "name": "date",
          "type": "uint256"
        }
      ],
      "name": "ShippedByNursery",
      "type": "event"
    },
    {
      "anonymous": false,
      "inputs": [
        {
          "indexed": true,
          "name": "plantId",
          "type": "uint256"
        },
        {
          "indexed": false,
          "name": "plantOwner",
          "type": "address"
        },
        {
          "indexed": false,
          "name": "date",
          "type": "uint256"
        }
      ],
      "name": "ReceivedByFarmer",
      "type": "event"
    },
    {
      "anonymous": false,
      "inputs": [
        {
          "indexed": true,
          "name": "plantId",
          "type": "uint256"
        },
        {
          "indexed": false,
          "name": "plantOwner",
          "type": "address"
        },
        {
          "indexed": false,
          "name": "date",
          "type": "uint256"
        }
      ],
      "name": "PlantedByFarmer",
      "type": "event"
    },
    {
      "anonymous": false,
      "inputs": [
        {
          "indexed": true,
          "name": "previousOwner",
          "type": "address"
        },
        {
          "indexed": true,
          "name": "newOwner",
          "type": "address"
        }
      ],
      "name": "OwnershipTransferred",
      "type": "event"
    },
    {
      "constant": true,
      "inputs": [],
      "name": "getOwnerCount",
      "outputs": [
        {
          "name": "",
          "type": "uint256"
        }
      ],
      "payable": false,
      "stateMutability": "view",
      "type": "function"
    },
    {
      "constant": false,
      "inputs": [
        {
          "name": "name",
          "type": "string"
        },
        {
          "name": "nurseryOwner",
          "type": "address"
        }
      ],
      "name": "addNurseryOwner",
      "outputs": [],
      "payable": false,
      "stateMutability": "nonpayable",
      "type": "function"
    },
    {
      "constant": true,
      "inputs": [],
      "name": "getNurseryOwnerCount",
      "outputs": [
        {
          "name": "",
          "type": "uint256"
        }
      ],
      "payable": false,
      "stateMutability": "view",
      "type": "function"
    },
    {
      "constant": true,
      "inputs": [
        {
          "name": "index",
          "type": "uint256"
        }
      ],
      "name": "getNurseryOwner",
      "outputs": [
        {
          "name": "",
          "type": "uint256"
        },
        {
          "name": "",
          "type": "string"
        },
        {
          "name": "",
          "type": "address"
        }
      ],
      "payable": false,
      "stateMutability": "view",
      "type": "function"
    },
    {
      "constant": false,
      "inputs": [
        {
          "name": "name",
          "type": "string"
        },
        {
          "name": "lat",
          "type": "int256"
        },
        {
          "name": "long",
          "type": "int256"
        },
        {
          "name": "nurseryDescription",
          "type": "string"
        },
        {
          "name": "ownerId",
          "type": "uint256"
        }
      ],
      "name": "addNursery",
      "outputs": [],
      "payable": false,
      "stateMutability": "nonpayable",
      "type": "function"
    },
    {
      "constant": true,
      "inputs": [],
      "name": "getNurseryCount",
      "outputs": [
        {
          "name": "",
          "type": "uint256"
        }
      ],
      "payable": false,
      "stateMutability": "view",
      "type": "function"
    },
    {
      "constant": true,
      "inputs": [
        {
          "name": "index",
          "type": "uint256"
        }
      ],
      "name": "getNursery",
      "outputs": [
        {
          "name": "",
          "type": "uint256"
        },
        {
          "name": "",
          "type": "string"
        },
        {
          "name": "",
          "type": "int256"
        },
        {
          "name": "",
          "type": "int256"
        },
        {
          "name": "",
          "type": "string"
        },
        {
          "name": "",
          "type": "string"
        },
        {
          "name": "",
          "type": "uint256"
        }
      ],
      "payable": false,
      "stateMutability": "view",
      "type": "function"
    },
    {
      "constant": false,
      "inputs": [
        {
          "name": "date",
          "type": "uint256"
        },
        {
          "name": "variety",
          "type": "string"
        },
        {
          "name": "quantity",
          "type": "int256"
        }
      ],
      "name": "propogatePlants",
      "outputs": [],
      "payable": false,
      "stateMutability": "nonpayable",
      "type": "function"
    },
    {
      "constant": false,
      "inputs": [
        {
          "name": "name",
          "type": "string"
        },
        {
          "name": "farmOwner",
          "type": "address"
        }
      ],
      "name": "addFarmOwner",
      "outputs": [],
      "payable": false,
      "stateMutability": "nonpayable",
      "type": "function"
    },
    {
      "constant": true,
      "inputs": [],
      "name": "getFarmOwnerCount",
      "outputs": [
        {
          "name": "",
          "type": "uint256"
        }
      ],
      "payable": false,
      "stateMutability": "view",
      "type": "function"
    },
    {
      "constant": true,
      "inputs": [
        {
          "name": "index",
          "type": "uint256"
        }
      ],
      "name": "getFarmOwner",
      "outputs": [
        {
          "name": "",
          "type": "uint256"
        },
        {
          "name": "",
          "type": "string"
        },
        {
          "name": "",
          "type": "address"
        }
      ],
      "payable": false,
      "stateMutability": "view",
      "type": "function"
    },
    {
      "constant": false,
      "inputs": [
        {
          "name": "name",
          "type": "string"
        },
        {
          "name": "lat",
          "type": "int256"
        },
        {
          "name": "long",
          "type": "int256"
        },
        {
          "name": "description",
          "type": "string"
        },
        {
          "name": "ownerId",
          "type": "uint256"
        }
      ],
      "name": "addFarm",
      "outputs": [],
      "payable": false,
      "stateMutability": "nonpayable",
      "type": "function"
    },
    {
      "constant": true,
      "inputs": [],
      "name": "getFarmCount",
      "outputs": [
        {
          "name": "",
          "type": "uint256"
        }
      ],
      "payable": false,
      "stateMutability": "view",
      "type": "function"
    },
    {
      "constant": true,
      "inputs": [
        {
          "name": "index",
          "type": "uint256"
        }
      ],
      "name": "getFarm",
      "outputs": [
        {
          "name": "",
          "type": "uint256"
        },
        {
          "name": "",
          "type": "string"
        },
        {
          "name": "",
          "type": "int256"
        },
        {
          "name": "",
          "type": "int256"
        },
        {
          "name": "",
          "type": "string"
        },
        {
          "name": "",
          "type": "string"
        },
        {
          "name": "",
          "type": "uint256"
        }
      ],
      "payable": false,
      "stateMutability": "view",
      "type": "function"
    },
    {
      "constant": false,
      "inputs": [
        {
          "name": "id",
          "type": "uint256"
        },
        {
          "name": "_state",
          "type": "uint8"
        },
        {
          "name": "_date",
          "type": "uint256"
        },
        {
          "name": "_lat",
          "type": "int256"
        },
        {
          "name": "_long",
          "type": "int256"
        },
        {
          "name": "_nursery",
          "type": "string"
        },
        {
          "name": "variety",
          "type": "string"
        },
        {
          "name": "ownerId",
          "type": "uint256"
        }
      ],
      "name": "addPlant",
      "outputs": [],
      "payable": false,
      "stateMutability": "nonpayable",
      "type": "function"
    },
    {
      "constant": true,
      "inputs": [],
      "name": "getPlantCount",
      "outputs": [
        {
          "name": "",
          "type": "uint256"
        }
      ],
      "payable": false,
      "stateMutability": "view",
      "type": "function"
    },
    {
      "constant": true,
      "inputs": [
        {
          "name": "index",
          "type": "uint256"
        }
      ],
      "name": "getPlant",
      "outputs": [
        {
          "name": "",
          "type": "uint256"
        },
        {
          "name": "",
          "type": "uint8"
        },
        {
          "name": "",
          "type": "uint256"
        },
        {
          "name": "",
          "type": "int256"
        },
        {
          "name": "",
          "type": "int256"
        },
        {
          "name": "",
          "type": "string"
        },
        {
          "name": "",
          "type": "string"
        },
        {
          "name": "ownerId",
          "type": "uint256"
        }
      ],
      "payable": false,
      "stateMutability": "view",
      "type": "function"
    },
    {
      "constant": true,
      "inputs": [],
      "name": "isNurseryOwner",
      "outputs": [
        {
          "name": "",
          "type": "bool"
        }
      ],
      "payable": false,
      "stateMutability": "view",
      "type": "function"
    },
    {
      "constant": true,
      "inputs": [],
      "name": "isFarmer",
      "outputs": [
        {
          "name": "",
          "type": "bool"
        }
      ],
      "payable": false,
      "stateMutability": "view",
      "type": "function"
    },
    {
      "constant": true,
      "inputs": [],
      "name": "getOrderCount",
      "outputs": [
        {
          "name": "",
          "type": "uint256"
        }
      ],
      "payable": false,
      "stateMutability": "view",
      "type": "function"
    },
    {
      "constant": false,
      "inputs": [
        {
          "name": "plantIds",
          "type": "uint256[]"
        },
        {
          "name": "nurseryOwner",
          "type": "address"
        },
        {
          "name": "purchaseDate",
          "type": "uint256"
        }
      ],
      "name": "orderPlants",
      "outputs": [],
      "payable": false,
      "stateMutability": "nonpayable",
      "type": "function"
    }
  ],
  "bytecode": "0x60806040523480156200001157600080fd5b5062000022620000e360201b60201c565b6000806101000a81548173ffffffffffffffffffffffffffffffffffffffff021916908373ffffffffffffffffffffffffffffffffffffffff1602179055506000809054906101000a900473ffffffffffffffffffffffffffffffffffffffff1673ffffffffffffffffffffffffffffffffffffffff16600073ffffffffffffffffffffffffffffffffffffffff167f8be0079c531659141344cd1fd0a4f28419497f9722a3daafe3b4186f6b6457e060405160405180910390a3620000eb565b600033905090565b6156f780620000fb6000396000f3fe608060405234801561001057600080fd5b50600436106102065760003560e01c8063954aba9f1161011a578063b4986ba5116100ad578063e2033fd21161007c578063e2033fd214611770578063e5121e821461184b578063ed0b1f5f146119dd578063ef18374a14611b28578063f2fde38b14611b4657610206565b8063b4986ba514611420578063bc7aa93314611590578063c0d3e1f914611671578063def79ab51461168f57610206565b8063a85c38ef116100e9578063a85c38ef1461111f578063aa682562146111dc578063aef7076d14611321578063b30a26271461133f57610206565b8063954aba9f14610d3f5780639f46626814610e215780639ff7ddf114610e3f578063a38921e814610f8457610206565b80636b8180b21161019d5780637da470ea1161016c5780637da470ea14610a3b5780638d0a5fbb14610b6a5780638da5cb5b14610b885780638dd2361c14610bd25780638f32d59b14610d1d57610206565b80636b8180b214610857578063715018a61461093857806372201a9e1461094257806375d019e11461096057610206565b8063429692a7116101d9578063429692a71461059b57806353fd88bf146105b957806354db2744146107545780635f28d0df1461077657610206565b80630d5881a41461020b578063116fe555146102da5780631422f2221461040957806319de18fb1461042b575b600080fd5b6102d86004803603606081101561022157600080fd5b81019080803590602001909291908035906020019064010000000081111561024857600080fd5b82018360208201111561025a57600080fd5b8035906020019184600183028401116401000000008311171561027c57600080fd5b91908080601f016020809104026020016040519081016040528093929190818152602001838380828437600081840152601f19601f82011690508083019250505050505050919291929080359060200190929190505050611b8a565b005b610306600480360360208110156102f057600080fd5b8101908080359060200190929190505050611f53565b604051808781526020018060200186815260200185815260200180602001848152602001838103835288818151815260200191508051906020019080838360005b83811015610362578082015181840152602081019050610347565b50505050905090810190601f16801561038f5780820380516001836020036101000a031916815260200191505b50838103825285818151815260200191508051906020019080838360005b838110156103c85780820151818401526020810190506103ad565b50505050905090810190601f1680156103f55780820380516001836020036101000a031916815260200191505b509850505050505050505060405180910390f35b6104116120cc565b604051808215151515815260200191505060405180910390f35b610599600480360360a081101561044157600080fd5b810190808035906020019064010000000081111561045e57600080fd5b82018360208201111561047057600080fd5b8035906020019184600183028401116401000000008311171561049257600080fd5b91908080601f016020809104026020016040519081016040528093929190818152602001838380828437600081840152601f19601f82011690508083019250505050505050919291929080359060200190929190803590602001909291908035906020019064010000000081111561050957600080fd5b82018360208201111561051b57600080fd5b8035906020019184600183028401116401000000008311171561053d57600080fd5b91908080601f016020809104026020016040519081016040528093929190818152602001838380828437600081840152601f19601f820116905080830192505050505050509192919290803590602001909291905050506120e7565b005b6105a361263c565b6040518082815260200191505060405180910390f35b6105e5600480360360208110156105cf57600080fd5b8101908080359060200190929190505050612649565b6040518088815260200180602001878152602001868152602001806020018060200185815260200184810384528a818151815260200191508051906020019080838360005b8381101561064557808201518184015260208101905061062a565b50505050905090810190601f1680156106725780820380516001836020036101000a031916815260200191505b50848103835287818151815260200191508051906020019080838360005b838110156106ab578082015181840152602081019050610690565b50505050905090810190601f1680156106d85780820380516001836020036101000a031916815260200191505b50848103825286818151815260200191508051906020019080838360005b838110156107115780820151818401526020810190506106f6565b50505050905090810190601f16801561073e5780820380516001836020036101000a031916815260200191505b509a505050505050505050505060405180910390f35b61075c61296e565b604051808215151515815260200191505060405180910390f35b6107a26004803603602081101561078c57600080fd5b8101908080359060200190929190505050612989565b60405180848152602001806020018373ffffffffffffffffffffffffffffffffffffffff1673ffffffffffffffffffffffffffffffffffffffff168152602001828103825284818151815260200191508051906020019080838360005b8381101561081a5780820151818401526020810190506107ff565b50505050905090810190601f1680156108475780820380516001836020036101000a031916815260200191505b5094505050505060405180910390f35b6108836004803603602081101561086d57600080fd5b8101908080359060200190929190505050612a78565b60405180848152602001806020018373ffffffffffffffffffffffffffffffffffffffff1673ffffffffffffffffffffffffffffffffffffffff168152602001828103825284818151815260200191508051906020019080838360005b838110156108fb5780820151818401526020810190506108e0565b50505050905090810190601f1680156109285780820380516001836020036101000a031916815260200191505b5094505050505060405180910390f35b610940612bd0565b005b61094a612d09565b6040518082815260200191505060405180910390f35b610a396004803603604081101561097657600080fd5b810190808035906020019064010000000081111561099357600080fd5b8201836020820111156109a557600080fd5b803590602001918460018302840111640100000000831117156109c757600080fd5b91908080601f016020809104026020016040519081016040528093929190818152602001838380828437600081840152601f19601f820116905080830192505050505050509192919290803573ffffffffffffffffffffffffffffffffffffffff169060200190929190505050612d16565b005b610a6760048036036020811015610a5157600080fd5b8101908080359060200190929190505050612ff7565b604051808781526020018060200186815260200185815260200180602001848152602001838103835288818151815260200191508051906020019080838360005b83811015610ac3578082015181840152602081019050610aa8565b50505050905090810190601f168015610af05780820380516001836020036101000a031916815260200191505b50838103825285818151815260200191508051906020019080838360005b83811015610b29578082015181840152602081019050610b0e565b50505050905090810190601f168015610b565780820380516001836020036101000a031916815260200191505b509850505050505050505060405180910390f35b610b72613170565b6040518082815260200191505060405180910390f35b610b9061317d565b604051808273ffffffffffffffffffffffffffffffffffffffff1673ffffffffffffffffffffffffffffffffffffffff16815260200191505060405180910390f35b610bfe60048036036020811015610be857600080fd5b81019080803590602001909291905050506131a6565b6040518089815260200188600b811115610c1457fe5b60ff1681526020018781526020018681526020018581526020018060200180602001848152602001838103835286818151815260200191508051906020019080838360005b83811015610c74578082015181840152602081019050610c59565b50505050905090810190601f168015610ca15780820380516001836020036101000a031916815260200191505b50838103825285818151815260200191508051906020019080838360005b83811015610cda578082015181840152602081019050610cbf565b50505050905090810190601f168015610d075780820380516001836020036101000a031916815260200191505b509a505050505050505050505060405180910390f35b610d25613338565b604051808215151515815260200191505060405180910390f35b610e1f60048036036060811015610d5557600080fd5b8101908080359060200190640100000000811115610d7257600080fd5b820183602082011115610d8457600080fd5b80359060200191846020830284011164010000000083111715610da657600080fd5b919080806020026020016040519081016040528093929190818152602001838360200280828437600081840152601f19601f820116905080830192505050505050509192919290803573ffffffffffffffffffffffffffffffffffffffff16906020019092919080359060200190929190505050613396565b005b610e29613b14565b6040518082815260200191505060405180910390f35b610e8160048036036020811015610e5557600080fd5b81019080803573ffffffffffffffffffffffffffffffffffffffff169060200190929190505050613b21565b604051808781526020018060200186815260200185815260200180602001848152602001838103835288818151815260200191508051906020019080838360005b83811015610edd578082015181840152602081019050610ec2565b50505050905090810190601f168015610f0a5780820380516001836020036101000a031916815260200191505b50838103825285818151815260200191508051906020019080838360005b83811015610f43578082015181840152602081019050610f28565b50505050905090810190601f168015610f705780820380516001836020036101000a031916815260200191505b509850505050505050505060405180910390f35b610fb060048036036020811015610f9a57600080fd5b8101908080359060200190929190505050613c8d565b6040518088815260200180602001878152602001868152602001806020018060200185815260200184810384528a818151815260200191508051906020019080838360005b83811015611010578082015181840152602081019050610ff5565b50505050905090810190601f16801561103d5780820380516001836020036101000a031916815260200191505b50848103835287818151815260200191508051906020019080838360005b8381101561107657808201518184015260208101905061105b565b50505050905090810190601f1680156110a35780820380516001836020036101000a031916815260200191505b50848103825286818151815260200191508051906020019080838360005b838110156110dc5780820151818401526020810190506110c1565b50505050905090810190601f1680156111095780820380516001836020036101000a031916815260200191505b509a505050505050505050505060405180910390f35b61114b6004803603602081101561113557600080fd5b8101908080359060200190929190505050613fb2565b604051808581526020018473ffffffffffffffffffffffffffffffffffffffff1673ffffffffffffffffffffffffffffffffffffffff1681526020018373ffffffffffffffffffffffffffffffffffffffff1673ffffffffffffffffffffffffffffffffffffffff1681526020018260028111156111c557fe5b60ff16815260200194505050505060405180910390f35b61121e600480360360208110156111f257600080fd5b81019080803573ffffffffffffffffffffffffffffffffffffffff16906020019092919050505061403c565b604051808781526020018060200186815260200185815260200180602001848152602001838103835288818151815260200191508051906020019080838360005b8381101561127a57808201518184015260208101905061125f565b50505050905090810190601f1680156112a75780820380516001836020036101000a031916815260200191505b50838103825285818151815260200191508051906020019080838360005b838110156112e05780820151818401526020810190506112c5565b50505050905090810190601f16801561130d5780820380516001836020036101000a031916815260200191505b509850505050505050505060405180910390f35b6113296141a8565b6040518082815260200191505060405180910390f35b61136b6004803603602081101561135557600080fd5b81019080803590602001909291905050506141b5565b60405180848152602001806020018373ffffffffffffffffffffffffffffffffffffffff1673ffffffffffffffffffffffffffffffffffffffff168152602001828103825284818151815260200191508051906020019080838360005b838110156113e35780820151818401526020810190506113c8565b50505050905090810190601f1680156114105780820380516001836020036101000a031916815260200191505b5094505050505060405180910390f35b61158e600480360360a081101561143657600080fd5b810190808035906020019064010000000081111561145357600080fd5b82018360208201111561146557600080fd5b8035906020019184600183028401116401000000008311171561148757600080fd5b91908080601f016020809104026020016040519081016040528093929190818152602001838380828437600081840152601f19601f8201169050808301925050505050505091929192908035906020019092919080359060200190929190803590602001906401000000008111156114fe57600080fd5b82018360208201111561151057600080fd5b8035906020019184600183028401116401000000008311171561153257600080fd5b91908080601f016020809104026020016040519081016040528093929190818152602001838380828437600081840152601f19601f820116905080830192505050505050509192919290803590602001909291905050506142a4565b005b6115bc600480360360208110156115a657600080fd5b81019080803590602001909291905050506147f9565b60405180848152602001806020018373ffffffffffffffffffffffffffffffffffffffff1673ffffffffffffffffffffffffffffffffffffffff168152602001828103825284818151815260200191508051906020019080838360005b83811015611634578082015181840152602081019050611619565b50505050905090810190601f1680156116615780820380516001836020036101000a031916815260200191505b5094505050505060405180910390f35b611679614951565b6040518082815260200191505060405180910390f35b6116bb600480360360208110156116a557600080fd5b810190808035906020019092919050505061495e565b60405180848152602001806020018373ffffffffffffffffffffffffffffffffffffffff1673ffffffffffffffffffffffffffffffffffffffff168152602001828103825284818151815260200191508051906020019080838360005b83811015611733578082015181840152602081019050611718565b50505050905090810190601f1680156117605780820380516001836020036101000a031916815260200191505b5094505050505060405180910390f35b6118496004803603604081101561178657600080fd5b81019080803590602001906401000000008111156117a357600080fd5b8201836020820111156117b557600080fd5b803590602001918460018302840111640100000000831117156117d757600080fd5b91908080601f016020809104026020016040519081016040528093929190818152602001838380828437600081840152601f19601f820116905080830192505050505050509192919290803573ffffffffffffffffffffffffffffffffffffffff169060200190929190505050614a4d565b005b6119db600480360361010081101561186257600080fd5b8101908080359060200190929190803560ff169060200190929190803590602001909291908035906020019092919080359060200190929190803590602001906401000000008111156118b457600080fd5b8201836020820111156118c657600080fd5b803590602001918460018302840111640100000000831117156118e857600080fd5b91908080601f016020809104026020016040519081016040528093929190818152602001838380828437600081840152601f19601f8201169050808301925050505050505091929192908035906020019064010000000081111561194b57600080fd5b82018360208201111561195d57600080fd5b8035906020019184600183028401116401000000008311171561197f57600080fd5b91908080601f016020809104026020016040519081016040528093929190818152602001838380828437600081840152601f19601f82011690508083019250505050505050919291929080359060200190929190505050614d2e565b005b611a09600480360360208110156119f357600080fd5b8101908080359060200190929190505050614e4e565b6040518089815260200188600b811115611a1f57fe5b60ff1681526020018781526020018681526020018581526020018060200180602001848152602001838103835286818151815260200191508051906020019080838360005b83811015611a7f578082015181840152602081019050611a64565b50505050905090810190601f168015611aac5780820380516001836020036101000a031916815260200191505b50838103825285818151815260200191508051906020019080838360005b83811015611ae5578082015181840152602081019050611aca565b50505050905090810190601f168015611b125780820380516001836020036101000a031916815260200191505b509a505050505050505050505060405180910390f35b611b30615079565b6040518082815260200191505060405180910390f35b611b8860048036036020811015611b5c57600080fd5b81019080803573ffffffffffffffffffffffffffffffffffffffff169060200190929190505050615086565b005b611b9e33600161510c90919063ffffffff16565b611bf3576040517f08c379a00000000000000000000000000000000000000000000000000000000081526004018080602001828103825260278152602001806156836027913960400191505060405180910390fd5b611bfb615411565b600760003373ffffffffffffffffffffffffffffffffffffffff1673ffffffffffffffffffffffffffffffffffffffff1681526020019081526020016000206040518060c001604052908160008201548152602001600182018054600181600116156101000203166002900480601f016020809104026020016040519081016040528092919081815260200182805460018160011615610100020316600290048015611ce85780601f10611cbd57610100808354040283529160200191611ce8565b820191906000526020600020905b815481529060010190602001808311611ccb57829003601f168201915b505050505081526020016002820154815260200160038201548152602001600482018054600181600116156101000203166002900480601f016020809104026020016040519081016040528092919081815260200182805460018160011615610100020316600290048015611d9e5780601f10611d7357610100808354040283529160200191611d9e565b820191906000526020600020905b815481529060010190602001808311611d8157829003601f168201915b5050505050815260200160058201548152505090506000600880549050905060008090505b83811215611f4b57611dec826000888660400151876060015188602001518b8a60a00151614d2e565b8260a00151827f928b48d40e57406bd662d6e71d66cd5b567fabbe55980e647b2dfe5de55d29716000898760400151886060015189602001518c6040518087600b811115611e3657fe5b60ff1681526020018681526020018581526020018481526020018060200180602001838103835285818151815260200191508051906020019080838360005b83811015611e90578082015181840152602081019050611e75565b50505050905090810190601f168015611ebd5780820380516001836020036101000a031916815260200191505b50838103825284818151815260200191508051906020019080838360005b83811015611ef6578082015181840152602081019050611edb565b50505050905090810190601f168015611f235780820380516001836020036101000a031916815260200191505b509850505050505050505060405180910390a381806001019250508080600101915050611dc3565b505050505050565b60068181548110611f6057fe5b9060005260206000209060060201600091509050806000015490806001018054600181600116156101000203166002900480601f0160208091040260200160405190810160405280929190818152602001828054600181600116156101000203166002900480156120125780601f10611fe757610100808354040283529160200191612012565b820191906000526020600020905b815481529060010190602001808311611ff557829003601f168201915b505050505090806002015490806003015490806004018054600181600116156101000203166002900480601f0160208091040260200160405190810160405280929190818152602001828054600181600116156101000203166002900480156120bc5780601f10612091576101008083540402835291602001916120bc565b820191906000526020600020905b81548152906001019060200180831161209f57829003601f168201915b5050505050908060050154905086565b60006120e233600161510c90919063ffffffff16565b905090565b6120ef613338565b612161576040517f08c379a00000000000000000000000000000000000000000000000000000000081526004018080602001828103825260208152602001807f4f776e61626c653a2063616c6c6572206973206e6f7420746865206f776e657281525060200191505060405180910390fd5b612169615447565b6005828154811061217657fe5b906000526020600020906003020160405180606001604052908160008201548152602001600182018054600181600116156101000203166002900480601f0160208091040260200160405190810160405280929190818152602001828054600181600116156101000203166002900480156122325780601f1061220757610100808354040283529160200191612232565b820191906000526020600020905b81548152906001019060200180831161221557829003601f168201915b505050505081526020016002820160009054906101000a900473ffffffffffffffffffffffffffffffffffffffff1673ffffffffffffffffffffffffffffffffffffffff1673ffffffffffffffffffffffffffffffffffffffff168152505090506122ab8160400151600261510c90919063ffffffff16565b61231d576040517f08c379a00000000000000000000000000000000000000000000000000000000081526004018080602001828103825260178152602001807f61646472657373206973206e6f742061206661726d657200000000000000000081525060200191505060405180910390fd5b61232561547e565b6040518060c00160405280600a805490508152602001888152602001878152602001868152602001858152602001848152509050600a81908060018154018082558091505090600182039060005260206000209060060201600090919290919091506000820151816000015560208201518160010190805190602001906123ad9291906154b4565b50604082015181600201556060820151816003015560808201518160040190805190602001906123de9291906154b4565b5060a0820151816005015550505080600b6000846040015173ffffffffffffffffffffffffffffffffffffffff1673ffffffffffffffffffffffffffffffffffffffff1681526020019081526020016000206000820151816000015560208201518160010190805190602001906124569291906154b4565b50604082015181600201556060820151816003015560808201518160040190805190602001906124879291906154b4565b5060a082015181600501559050507feaa3f827d910fde55a7f7316b4466ba61eda21ef3b6ce6f1079ca070c85b294c8160000151888888888888602001516040518088815260200180602001878152602001868152602001806020018581526020018060200184810384528a818151815260200191508051906020019080838360005b8381101561252557808201518184015260208101905061250a565b50505050905090810190601f1680156125525780820380516001836020036101000a031916815260200191505b50848103835287818151815260200191508051906020019080838360005b8381101561258b578082015181840152602081019050612570565b50505050905090810190601f1680156125b85780820380516001836020036101000a031916815260200191505b50848103825285818151815260200191508051906020019080838360005b838110156125f15780820151818401526020810190506125d6565b50505050905090810190601f16801561261e5780820380516001836020036101000a031916815260200191505b509a505050505050505050505060405180910390a150505050505050565b6000600a80549050905090565b60006060600080606080600061265d61547e565b600a898154811061266a57fe5b90600052602060002090600602016040518060c001604052908160008201548152602001600182018054600181600116156101000203166002900480601f0160208091040260200160405190810160405280929190818152602001828054600181600116156101000203166002900480156127265780601f106126fb57610100808354040283529160200191612726565b820191906000526020600020905b81548152906001019060200180831161270957829003601f168201915b505050505081526020016002820154815260200160038201548152602001600482018054600181600116156101000203166002900480601f0160208091040260200160405190810160405280929190818152602001828054600181600116156101000203166002900480156127dc5780601f106127b1576101008083540402835291602001916127dc565b820191906000526020600020905b8154815290600101906020018083116127bf57829003601f168201915b5050505050815260200160058201548152505090506127f9615447565b60058260a001518154811061280a57fe5b906000526020600020906003020160405180606001604052908160008201548152602001600182018054600181600116156101000203166002900480601f0160208091040260200160405190810160405280929190818152602001828054600181600116156101000203166002900480156128c65780601f1061289b576101008083540402835291602001916128c6565b820191906000526020600020905b8154815290600101906020018083116128a957829003601f168201915b505050505081526020016002820160009054906101000a900473ffffffffffffffffffffffffffffffffffffffff1673ffffffffffffffffffffffffffffffffffffffff1673ffffffffffffffffffffffffffffffffffffffff168152505090508160000151826020015183604001518460600151856080015185602001518760a0015185955082925081915098509850985098509850985098505050919395979092949650565b600061298433600261510c90919063ffffffff16565b905090565b6003818154811061299657fe5b9060005260206000209060030201600091509050806000015490806001018054600181600116156101000203166002900480601f016020809104026020016040519081016040528092919081815260200182805460018160011615610100020316600290048015612a485780601f10612a1d57610100808354040283529160200191612a48565b820191906000526020600020905b815481529060010190602001808311612a2b57829003601f168201915b5050505050908060020160009054906101000a900473ffffffffffffffffffffffffffffffffffffffff16905083565b600060606000612a86615447565b60038581548110612a9357fe5b906000526020600020906003020160405180606001604052908160008201548152602001600182018054600181600116156101000203166002900480601f016020809104026020016040519081016040528092919081815260200182805460018160011615610100020316600290048015612b4f5780601f10612b2457610100808354040283529160200191612b4f565b820191906000526020600020905b815481529060010190602001808311612b3257829003601f168201915b505050505081526020016002820160009054906101000a900473ffffffffffffffffffffffffffffffffffffffff1673ffffffffffffffffffffffffffffffffffffffff1673ffffffffffffffffffffffffffffffffffffffff16815250509050806000015181602001518260400151819150935093509350509193909250565b612bd8613338565b612c4a576040517f08c379a00000000000000000000000000000000000000000000000000000000081526004018080602001828103825260208152602001807f4f776e61626c653a2063616c6c6572206973206e6f7420746865206f776e657281525060200191505060405180910390fd5b600073ffffffffffffffffffffffffffffffffffffffff166000809054906101000a900473ffffffffffffffffffffffffffffffffffffffff1673ffffffffffffffffffffffffffffffffffffffff167f8be0079c531659141344cd1fd0a4f28419497f9722a3daafe3b4186f6b6457e060405160405180910390a360008060006101000a81548173ffffffffffffffffffffffffffffffffffffffff021916908373ffffffffffffffffffffffffffffffffffffffff160217905550565b6000600480549050905090565b612d1e613338565b612d90576040517f08c379a00000000000000000000000000000000000000000000000000000000081526004018080602001828103825260208152602001807f4f776e61626c653a2063616c6c6572206973206e6f7420746865206f776e657281525060200191505060405180910390fd5b612da48160016151ea90919063ffffffff16565b612dac615447565b604051806060016040528060058054905081526020018481526020018373ffffffffffffffffffffffffffffffffffffffff16815250905060058190806001815401808255809150509060018203906000526020600020906003020160009091929091909150600082015181600001556020820151816001019080519060200190612e389291906154b4565b5060408201518160020160006101000a81548173ffffffffffffffffffffffffffffffffffffffff021916908373ffffffffffffffffffffffffffffffffffffffff16021790555050505060038190806001815401808255809150509060018203906000526020600020906003020160009091929091909150600082015181600001556020820151816001019080519060200190612ed79291906154b4565b5060408201518160020160006101000a81548173ffffffffffffffffffffffffffffffffffffffff021916908373ffffffffffffffffffffffffffffffffffffffff1602179055505050507f02558f2ae393cac7270a7f9a8dfaefb76eeb51ca6f7652ace69fad261d4bf69d838360405180806020018373ffffffffffffffffffffffffffffffffffffffff1673ffffffffffffffffffffffffffffffffffffffff168152602001828103825284818151815260200191508051906020019080838360005b83811015612fb7578082015181840152602081019050612f9c565b50505050905090810190601f168015612fe45780820380516001836020036101000a031916815260200191505b50935050505060405180910390a1505050565b600a818154811061300457fe5b9060005260206000209060060201600091509050806000015490806001018054600181600116156101000203166002900480601f0160208091040260200160405190810160405280929190818152602001828054600181600116156101000203166002900480156130b65780601f1061308b576101008083540402835291602001916130b6565b820191906000526020600020905b81548152906001019060200180831161309957829003601f168201915b505050505090806002015490806003015490806004018054600181600116156101000203166002900480601f0160208091040260200160405190810160405280929190818152602001828054600181600116156101000203166002900480156131605780601f1061313557610100808354040283529160200191613160565b820191906000526020600020905b81548152906001019060200180831161314357829003601f168201915b5050505050908060050154905086565b6000600980549050905090565b60008060009054906101000a900473ffffffffffffffffffffffffffffffffffffffff16905090565b600881815481106131b357fe5b90600052602060002090600802016000915090508060000154908060010160009054906101000a900460ff1690806002015490806003015490806004015490806005018054600181600116156101000203166002900480601f01602080910402602001604051908101604052809291908181526020018280546001816001161561010002031660029004801561328a5780601f1061325f5761010080835404028352916020019161328a565b820191906000526020600020905b81548152906001019060200180831161326d57829003601f168201915b505050505090806006018054600181600116156101000203166002900480601f0160208091040260200160405190810160405280929190818152602001828054600181600116156101000203166002900480156133285780601f106132fd57610100808354040283529160200191613328565b820191906000526020600020905b81548152906001019060200180831161330b57829003601f168201915b5050505050908060070154905088565b60008060009054906101000a900473ffffffffffffffffffffffffffffffffffffffff1673ffffffffffffffffffffffffffffffffffffffff1661337a6152c5565b73ffffffffffffffffffffffffffffffffffffffff1614905090565b6133aa33600261510c90919063ffffffff16565b61341c576040517f08c379a00000000000000000000000000000000000000000000000000000000081526004018080602001828103825260178152602001807f61646472657373206973206e6f742061206661726d657200000000000000000081525060200191505060405180910390fd5b6000600980549050905061342e615534565b6040518060a001604052808381526020018573ffffffffffffffffffffffffffffffffffffffff1681526020013373ffffffffffffffffffffffffffffffffffffffff1681526020018681526020016000600281111561348a57fe5b815250905061349761547e565b600b60003373ffffffffffffffffffffffffffffffffffffffff1673ffffffffffffffffffffffffffffffffffffffff1681526020019081526020016000206040518060c001604052908160008201548152602001600182018054600181600116156101000203166002900480601f0160208091040260200160405190810160405280929190818152602001828054600181600116156101000203166002900480156135845780601f1061355957610100808354040283529160200191613584565b820191906000526020600020905b81548152906001019060200180831161356757829003601f168201915b505050505081526020016002820154815260200160038201548152602001600482018054600181600116156101000203166002900480601f01602080910402602001604051908101604052809291908181526020018280546001816001161561010002031660029004801561363a5780601f1061360f5761010080835404028352916020019161363a565b820191906000526020600020905b81548152906001019060200180831161361d57829003601f168201915b505050505081526020016005820154815250509050613657615411565b600760008773ffffffffffffffffffffffffffffffffffffffff1673ffffffffffffffffffffffffffffffffffffffff1681526020019081526020016000206040518060c001604052908160008201548152602001600182018054600181600116156101000203166002900480601f0160208091040260200160405190810160405280929190818152602001828054600181600116156101000203166002900480156137445780601f1061371957610100808354040283529160200191613744565b820191906000526020600020905b81548152906001019060200180831161372757829003601f168201915b505050505081526020016002820154815260200160038201548152602001600482018054600181600116156101000203166002900480601f0160208091040260200160405190810160405280929190818152602001828054600181600116156101000203166002900480156137fa5780601f106137cf576101008083540402835291602001916137fa565b820191906000526020600020905b8154815290600101906020018083116137dd57829003601f168201915b50505050508152602001600582015481525050905060008760008151811061381e57fe5b602002602001015190505b87518860008151811061383857fe5b6020026020010151018110156139fb5760016008828154811061385757fe5b906000526020600020906008020160010160006101000a81548160ff0219169083600b81111561388357fe5b0217905550807febebf7373f5f00bf4b6ce952f765f1c296eafd71c4e1468646c8f785131de90688846020015186602001518a87604001518860600151604051808773ffffffffffffffffffffffffffffffffffffffff1673ffffffffffffffffffffffffffffffffffffffff1681526020018060200180602001868152602001858152602001848152602001838103835288818151815260200191508051906020019080838360005b8381101561394857808201518184015260208101905061392d565b50505050905090810190601f1680156139755780820380516001836020036101000a031916815260200191505b50838103825287818151815260200191508051906020019080838360005b838110156139ae578082015181840152602081019050613993565b50505050905090810190601f1680156139db5780820380516001836020036101000a031916815260200191505b509850505050505050505060405180910390a28080600101915050613829565b50600983908060018154018082558091505090600182039060005260206000209060050201600090919290919091506000820151816000015560208201518160010160006101000a81548173ffffffffffffffffffffffffffffffffffffffff021916908373ffffffffffffffffffffffffffffffffffffffff16021790555060408201518160020160006101000a81548173ffffffffffffffffffffffffffffffffffffffff021916908373ffffffffffffffffffffffffffffffffffffffff1602179055506060820151816003019080519060200190613ade92919061559a565b5060808201518160040160006101000a81548160ff02191690836002811115613b0357fe5b021790555050505050505050505050565b6000600680549050905090565b600b602052806000526040600020600091509050806000015490806001018054600181600116156101000203166002900480601f016020809104026020016040519081016040528092919081815260200182805460018160011615610100020316600290048015613bd35780601f10613ba857610100808354040283529160200191613bd3565b820191906000526020600020905b815481529060010190602001808311613bb657829003601f168201915b505050505090806002015490806003015490806004018054600181600116156101000203166002900480601f016020809104026020016040519081016040528092919081815260200182805460018160011615610100020316600290048015613c7d5780601f10613c5257610100808354040283529160200191613c7d565b820191906000526020600020905b815481529060010190602001808311613c6057829003601f168201915b5050505050908060050154905086565b600060606000806060806000613ca1615411565b60068981548110613cae57fe5b90600052602060002090600602016040518060c001604052908160008201548152602001600182018054600181600116156101000203166002900480601f016020809104026020016040519081016040528092919081815260200182805460018160011615610100020316600290048015613d6a5780601f10613d3f57610100808354040283529160200191613d6a565b820191906000526020600020905b815481529060010190602001808311613d4d57829003601f168201915b505050505081526020016002820154815260200160038201548152602001600482018054600181600116156101000203166002900480601f016020809104026020016040519081016040528092919081815260200182805460018160011615610100020316600290048015613e205780601f10613df557610100808354040283529160200191613e20565b820191906000526020600020905b815481529060010190602001808311613e0357829003601f168201915b505050505081526020016005820154815250509050613e3d615447565b60058260a0015181548110613e4e57fe5b906000526020600020906003020160405180606001604052908160008201548152602001600182018054600181600116156101000203166002900480601f016020809104026020016040519081016040528092919081815260200182805460018160011615610100020316600290048015613f0a5780601f10613edf57610100808354040283529160200191613f0a565b820191906000526020600020905b815481529060010190602001808311613eed57829003601f168201915b505050505081526020016002820160009054906101000a900473ffffffffffffffffffffffffffffffffffffffff1673ffffffffffffffffffffffffffffffffffffffff1673ffffffffffffffffffffffffffffffffffffffff168152505090508160000151826020015183604001518460600151856080015185602001518760a0015185955082925081915098509850985098509850985098505050919395979092949650565b60098181548110613fbf57fe5b90600052602060002090600502016000915090508060000154908060010160009054906101000a900473ffffffffffffffffffffffffffffffffffffffff16908060020160009054906101000a900473ffffffffffffffffffffffffffffffffffffffff16908060040160009054906101000a900460ff16905084565b6007602052806000526040600020600091509050806000015490806001018054600181600116156101000203166002900480601f0160208091040260200160405190810160405280929190818152602001828054600181600116156101000203166002900480156140ee5780601f106140c3576101008083540402835291602001916140ee565b820191906000526020600020905b8154815290600101906020018083116140d157829003601f168201915b505050505090806002015490806003015490806004018054600181600116156101000203166002900480601f0160208091040260200160405190810160405280929190818152602001828054600181600116156101000203166002900480156141985780601f1061416d57610100808354040283529160200191614198565b820191906000526020600020905b81548152906001019060200180831161417b57829003601f168201915b5050505050908060050154905086565b6000600380549050905090565b600481815481106141c257fe5b9060005260206000209060030201600091509050806000015490806001018054600181600116156101000203166002900480601f0160208091040260200160405190810160405280929190818152602001828054600181600116156101000203166002900480156142745780601f1061424957610100808354040283529160200191614274565b820191906000526020600020905b81548152906001019060200180831161425757829003601f168201915b5050505050908060020160009054906101000a900473ffffffffffffffffffffffffffffffffffffffff16905083565b6142ac613338565b61431e576040517f08c379a00000000000000000000000000000000000000000000000000000000081526004018080602001828103825260208152602001807f4f776e61626c653a2063616c6c6572206973206e6f7420746865206f776e657281525060200191505060405180910390fd5b614326615447565b6005828154811061433357fe5b906000526020600020906003020160405180606001604052908160008201548152602001600182018054600181600116156101000203166002900480601f0160208091040260200160405190810160405280929190818152602001828054600181600116156101000203166002900480156143ef5780601f106143c4576101008083540402835291602001916143ef565b820191906000526020600020905b8154815290600101906020018083116143d257829003601f168201915b505050505081526020016002820160009054906101000a900473ffffffffffffffffffffffffffffffffffffffff1673ffffffffffffffffffffffffffffffffffffffff1673ffffffffffffffffffffffffffffffffffffffff168152505090506144688160400151600161510c90919063ffffffff16565b6144da576040517f08c379a000000000000000000000000000000000000000000000000000000000815260040180806020018281038252601e8152602001807f61646472657373206973206e6f742061206e757273657279206f776e6572000081525060200191505060405180910390fd5b6144e2615411565b6040518060c0016040528060068054905081526020018881526020018781526020018681526020018581526020018481525090506006819080600181540180825580915050906001820390600052602060002090600602016000909192909190915060008201518160000155602082015181600101908051906020019061456a9291906154b4565b506040820151816002015560608201518160030155608082015181600401908051906020019061459b9291906154b4565b5060a082015181600501555050508060076000846040015173ffffffffffffffffffffffffffffffffffffffff1673ffffffffffffffffffffffffffffffffffffffff1681526020019081526020016000206000820151816000015560208201518160010190805190602001906146139291906154b4565b50604082015181600201556060820151816003015560808201518160040190805190602001906146449291906154b4565b5060a082015181600501559050507ffc1acac544ebb719e7d2343474251d4af9564a4d09f8209a7e3c249af25458a38160000151888888888888602001516040518088815260200180602001878152602001868152602001806020018581526020018060200184810384528a818151815260200191508051906020019080838360005b838110156146e25780820151818401526020810190506146c7565b50505050905090810190601f16801561470f5780820380516001836020036101000a031916815260200191505b50848103835287818151815260200191508051906020019080838360005b8381101561474857808201518184015260208101905061472d565b50505050905090810190601f1680156147755780820380516001836020036101000a031916815260200191505b50848103825285818151815260200191508051906020019080838360005b838110156147ae578082015181840152602081019050614793565b50505050905090810190601f1680156147db5780820380516001836020036101000a031916815260200191505b509a505050505050505050505060405180910390a150505050505050565b600060606000614807615447565b6004858154811061481457fe5b906000526020600020906003020160405180606001604052908160008201548152602001600182018054600181600116156101000203166002900480601f0160208091040260200160405190810160405280929190818152602001828054600181600116156101000203166002900480156148d05780601f106148a5576101008083540402835291602001916148d0565b820191906000526020600020905b8154815290600101906020018083116148b357829003601f168201915b505050505081526020016002820160009054906101000a900473ffffffffffffffffffffffffffffffffffffffff1673ffffffffffffffffffffffffffffffffffffffff1673ffffffffffffffffffffffffffffffffffffffff16815250509050806000015181602001518260400151819150935093509350509193909250565b6000600880549050905090565b6005818154811061496b57fe5b9060005260206000209060030201600091509050806000015490806001018054600181600116156101000203166002900480601f016020809104026020016040519081016040528092919081815260200182805460018160011615610100020316600290048015614a1d5780601f106149f257610100808354040283529160200191614a1d565b820191906000526020600020905b815481529060010190602001808311614a0057829003601f168201915b5050505050908060020160009054906101000a900473ffffffffffffffffffffffffffffffffffffffff16905083565b614a55613338565b614ac7576040517f08c379a00000000000000000000000000000000000000000000000000000000081526004018080602001828103825260208152602001807f4f776e61626c653a2063616c6c6572206973206e6f7420746865206f776e657281525060200191505060405180910390fd5b614adb8160026151ea90919063ffffffff16565b614ae3615447565b604051806060016040528060058054905081526020018481526020018373ffffffffffffffffffffffffffffffffffffffff16815250905060058190806001815401808255809150509060018203906000526020600020906003020160009091929091909150600082015181600001556020820151816001019080519060200190614b6f9291906154b4565b5060408201518160020160006101000a81548173ffffffffffffffffffffffffffffffffffffffff021916908373ffffffffffffffffffffffffffffffffffffffff16021790555050505060048190806001815401808255809150509060018203906000526020600020906003020160009091929091909150600082015181600001556020820151816001019080519060200190614c0e9291906154b4565b5060408201518160020160006101000a81548173ffffffffffffffffffffffffffffffffffffffff021916908373ffffffffffffffffffffffffffffffffffffffff1602179055505050507f1019884191f1911c9d6a29d86255f39fd3a37e10528950c8ad926d2438bc234b838360405180806020018373ffffffffffffffffffffffffffffffffffffffff1673ffffffffffffffffffffffffffffffffffffffff168152602001828103825284818151815260200191508051906020019080838360005b83811015614cee578082015181840152602081019050614cd3565b50505050905090810190601f168015614d1b5780820380516001836020036101000a031916815260200191505b50935050505060405180910390a1505050565b614d366155e7565b6040518061010001604052808a815260200189600b811115614d5457fe5b8152602001888152602001878152602001868152602001858152602001848152602001838152509050600881908060018154018082558091505090600182039060005260206000209060080201600090919290919091506000820151816000015560208201518160010160006101000a81548160ff0219169083600b811115614dd957fe5b021790555060408201518160020155606082015181600301556080820151816004015560a0820151816005019080519060200190614e189291906154b4565b5060c0820151816006019080519060200190614e359291906154b4565b5060e08201518160070155505050505050505050505050565b60008060008060006060806000614e636155e7565b60088a81548110614e7057fe5b906000526020600020906008020160405180610100016040529081600082015481526020016001820160009054906101000a900460ff16600b811115614eb257fe5b600b811115614ebd57fe5b8152602001600282015481526020016003820154815260200160048201548152602001600582018054600181600116156101000203166002900480601f016020809104026020016040519081016040528092919081815260200182805460018160011615610100020316600290048015614f785780601f10614f4d57610100808354040283529160200191614f78565b820191906000526020600020905b815481529060010190602001808311614f5b57829003601f168201915b50505050508152602001600682018054600181600116156101000203166002900480601f01602080910402602001604051908101604052809291908181526020018280546001816001161561010002031660029004801561501a5780601f10614fef5761010080835404028352916020019161501a565b820191906000526020600020905b815481529060010190602001808311614ffd57829003601f168201915b505050505081526020016007820154815250509050806000015181602001518260400151836060015184608001518560a001518660c001518760e001518292508191509850985098509850985098509850985050919395975091939597565b6000600580549050905090565b61508e613338565b615100576040517f08c379a00000000000000000000000000000000000000000000000000000000081526004018080602001828103825260208152602001807f4f776e61626c653a2063616c6c6572206973206e6f7420746865206f776e657281525060200191505060405180910390fd5b615109816152cd565b50565b60008073ffffffffffffffffffffffffffffffffffffffff168273ffffffffffffffffffffffffffffffffffffffff161415615193576040517f08c379a00000000000000000000000000000000000000000000000000000000081526004018080602001828103825260228152602001806156aa6022913960400191505060405180910390fd5b8260000160008373ffffffffffffffffffffffffffffffffffffffff1673ffffffffffffffffffffffffffffffffffffffff16815260200190815260200160002060009054906101000a900460ff16905092915050565b6151f4828261510c565b15615267576040517f08c379a000000000000000000000000000000000000000000000000000000000815260040180806020018281038252601f8152602001807f526f6c65733a206163636f756e7420616c72656164792068617320726f6c650081525060200191505060405180910390fd5b60018260000160008373ffffffffffffffffffffffffffffffffffffffff1673ffffffffffffffffffffffffffffffffffffffff16815260200190815260200160002060006101000a81548160ff0219169083151502179055505050565b600033905090565b600073ffffffffffffffffffffffffffffffffffffffff168173ffffffffffffffffffffffffffffffffffffffff161415615353576040517f08c379a000000000000000000000000000000000000000000000000000000000815260040180806020018281038252602681526020018061565d6026913960400191505060405180910390fd5b8073ffffffffffffffffffffffffffffffffffffffff166000809054906101000a900473ffffffffffffffffffffffffffffffffffffffff1673ffffffffffffffffffffffffffffffffffffffff167f8be0079c531659141344cd1fd0a4f28419497f9722a3daafe3b4186f6b6457e060405160405180910390a3806000806101000a81548173ffffffffffffffffffffffffffffffffffffffff021916908373ffffffffffffffffffffffffffffffffffffffff16021790555050565b6040518060c001604052806000815260200160608152602001600081526020016000815260200160608152602001600081525090565b60405180606001604052806000815260200160608152602001600073ffffffffffffffffffffffffffffffffffffffff1681525090565b6040518060c001604052806000815260200160608152602001600081526020016000815260200160608152602001600081525090565b828054600181600116156101000203166002900490600052602060002090601f016020900481019282601f106154f557805160ff1916838001178555615523565b82800160010185558215615523579182015b82811115615522578251825591602001919060010190615507565b5b5090506155309190615637565b5090565b6040518060a0016040528060008152602001600073ffffffffffffffffffffffffffffffffffffffff168152602001600073ffffffffffffffffffffffffffffffffffffffff168152602001606081526020016000600281111561559457fe5b81525090565b8280548282559060005260206000209081019282156155d6579160200282015b828111156155d55782518255916020019190600101906155ba565b5b5090506155e39190615637565b5090565b604051806101000160405280600081526020016000600b81111561560757fe5b81526020016000815260200160008152602001600081526020016060815260200160608152602001600081525090565b61565991905b8082111561565557600081600090555060010161563d565b5090565b9056fe4f776e61626c653a206e6577206f776e657220697320746865207a65726f20616464726573736f6e6c79206e757273657279206f776e65722063616e2070726f706f6761746520706c616e7473526f6c65733a206163636f756e7420697320746865207a65726f2061646472657373a165627a7a7230582016e1268c03e2836b421d6d2dc8a335338f81a7373b0e6b7a64e7666442ec5d800029",
  "source": "pragma solidity  > 0.5.0;\n\nimport \"../node_modules/openzeppelin-solidity/contracts/access/Roles.sol\";\nimport \"../node_modules/openzeppelin-solidity/contracts/ownership/Ownable.sol\";\n\ncontract Supply is Ownable {\n  using Roles for Roles.Role;\n\n  Roles.Role private nurseryOwners;\n  Roles.Role private farmers;\n\n  Owner[] public nurseryOwnerList;\n  Owner[] public farmOwnerList;\n  Owner[] public ownerList;\n\n  enum State { Propogated, Purchased, Shipped, Received, Planted, Harvested, Packed, Weighed, Stored, AtDistribution, Distributed, Sold }\n\n  enum OrderState { Ordered, Dispatched, Recevied }\n\n  struct Owner {\n    uint id;\n    string name;\n    address ownerAddress;\n  }\n\n  struct Nursery {\n    uint id;\n    string name;\n    int lat;\n    int long;\n    string description;\n    uint ownerId;\n  }\n\n  struct Plant {\n    uint id; // id of the plant\n    State state; // the state of the plant in the supply chain\n    uint plantedDate; // date the plant was planeted\n    int lat; // Latitute of plant location\n    int long; // Longitude of plant location\n    string sourceNursery; // Nursery plant was grown at\n    string variety;\n    uint ownerId;\n  }\n\n  struct Farm {\n    uint id;\n    string name;\n    int lat;\n    int long;\n    string description;\n    uint ownerId;\n  }\n\n  struct Order {\n    uint orderId;\n    address nursery;\n    address farmer;\n    uint[] plantIds;\n    OrderState state;\n  }\n\n  Nursery[] public nurseries;\n  mapping(address => Nursery) public nurseriesByOwners;\n\n  // Dynamically sized plant array\n  Plant[] public plants;\n\n  Order[] public orders;\n\n  Farm[] public farms;\n  mapping(address => Farm) public farmsByOwners;\n\n  event AddedNurseryOwner(string name, address nurseryOwner);\n  event AddedFarmOwner(string name, address farmOwner);\n  event AddedNursery(uint nurseryId, string nurseryName, int lat, int long, string description, uint ownerId, string ownerName);\n  event AddedFarm(uint farmId, string farmName, int lat, int long, string description, uint ownerId, string ownerName);\n  event PropogatedByNursery(uint indexed plantId, Supply.State state, uint date, int lat, int long, string name, string variety, uint indexed ownerId);\n  event PurchasedByFarmer(uint indexed plantId, address plantOwner, string nurseryName, string farmName, uint date, int lat, int long);\n  event ShippedByNursery(uint indexed plantId, address plantOwner, uint date);\n  event ReceivedByFarmer(uint indexed plantId, address plantOwner, uint date);\n  event PlantedByFarmer(uint indexed plantId, address plantOwner, uint date);\n\n  constructor() public {\n    // addNurseryOwner(0x21111104e6933e6fb2bB4dc99AB5B65439226043);\n    // addNursery(0, \"Raspberry Nursery\", 56, 3, \"Small nursery for raspberries\", 0x21111104e6933e6fb2bB4dc99AB5B65439226043);\n    // addFarmer(0xdacF2A85BEbdD88e49DF032A61b5d7679eafb25E);\n    // addFarm(0, \"Invergowrie\", 56, 3, 0xdacF2A85BEbdD88e49DF032A61b5d7679eafb25E);\n  }\n\n  function getOwnerCount() public view returns(uint) {\n    return ownerList.length;\n  }\n\n  function addNurseryOwner(string memory name, address nurseryOwner) public onlyOwner {\n    nurseryOwners.add(nurseryOwner);\n    Owner memory owner = Owner(ownerList.length, name, nurseryOwner);\n    ownerList.push(owner);\n    nurseryOwnerList.push(owner);\n    emit AddedNurseryOwner(name, nurseryOwner);\n  }\n\n  function getNurseryOwnerCount() public view returns(uint) {\n    return nurseryOwnerList.length;\n  }\n\n  function getNurseryOwner(uint index) public view returns(uint, string memory, address) {\n    Owner memory nurseryOwner = nurseryOwnerList[index];\n    return (nurseryOwner.id, nurseryOwner.name, nurseryOwner.ownerAddress);\n  }\n\n  function addNursery(string memory name, int lat, int long, string memory nurseryDescription, uint ownerId) public onlyOwner {\n    Owner memory owner = ownerList[ownerId];\n    require(nurseryOwners.has(owner.ownerAddress), \"address is not a nursery owner\");\n    Nursery memory nursery = Nursery(nurseries.length, name, lat, long, nurseryDescription, ownerId);\n    nurseries.push(nursery);\n    nurseriesByOwners[owner.ownerAddress] = nursery;\n    emit AddedNursery(nursery.id, name, lat, long, nurseryDescription, ownerId, owner.name);\n  }\n\n  function getNurseryCount() public view returns(uint) {\n    return nurseries.length;\n  }\n\n  function getNursery(uint index) public view returns(uint, string memory, int, int, string memory, string memory, uint) {\n    Nursery memory nursery = nurseries[index];\n    Owner memory owner = ownerList[nursery.ownerId];\n    return (nursery.id, nursery.name, nursery.lat, nursery.long, nursery.description, owner.name, nursery.ownerId);\n  }\n\n  function propogatePlants(uint date, string memory variety, int quantity) public {\n    require(nurseryOwners.has(msg.sender), \"only nursery owner can propogate plants\");\n    Nursery memory nursery = nurseriesByOwners[msg.sender];\n    uint plantId = plants.length;\n    for (int i = 0; i < quantity; i++) {\n      addPlant(plantId, State.Propogated, date, nursery.lat, nursery.long, nursery.name, variety, nursery.ownerId);\n      emit PropogatedByNursery(plantId, State.Propogated, date, nursery.lat, nursery.long, nursery.name, variety, nursery.ownerId);\n      plantId++;\n    }\n  }\n\n   function addFarmOwner(string memory name, address farmOwner) public onlyOwner {\n    farmers.add(farmOwner);\n    Owner memory owner = Owner(ownerList.length, name, farmOwner);\n    ownerList.push(owner);\n    farmOwnerList.push(owner);\n    emit AddedFarmOwner(name, farmOwner);\n  }\n\n  function getFarmOwnerCount() public view returns(uint) {\n    return farmOwnerList.length;\n  }\n\n  function getFarmOwner(uint index) public view returns(uint, string memory, address) {\n    Owner memory farmOwner = farmOwnerList[index];\n    return (farmOwner.id, farmOwner.name, farmOwner.ownerAddress);\n  }\n\n  function addFarm(string memory name, int lat, int long, string memory description, uint ownerId) public onlyOwner {\n    Owner memory owner = ownerList[ownerId];\n    require(farmers.has(owner.ownerAddress), \"address is not a farmer\");\n    Farm memory farm = Farm(farms.length, name, lat, long, description, ownerId);\n    farms.push(farm);\n    farmsByOwners[owner.ownerAddress] = farm;\n    emit AddedFarm(farm.id, name, lat, long, description, ownerId, owner.name);\n  }\n\n  function getFarmCount() public view returns(uint) {\n    return farms.length;\n  }\n\n  function getFarm(uint index) public view returns(uint, string memory, int, int, string memory, string memory, uint) {\n    Farm memory farm = farms[index];\n    Owner memory owner = ownerList[farm.ownerId];\n    return (farm.id, farm.name, farm.lat, farm.long, farm.description, owner.name, farm.ownerId);\n  }\n\n  function addPlant(uint id, State _state, uint _date, int _lat, int _long, string memory _nursery, string memory variety, uint ownerId) public {\n    Plant memory plant = Plant(id, _state, _date, _lat, _long, _nursery, variety, ownerId);\n    plants.push(plant);\n  }\n\n  function getPlantCount() public view returns(uint) {\n    return plants.length;\n  }\n\n  function getPlant(uint index) public view returns(uint, State, uint, int, int, string memory, string memory, uint ownerId) {\n    Plant memory plant = plants[index];\n    return (plant.id, plant.state, plant.plantedDate, plant.lat, plant.long, plant.sourceNursery, plant.variety, plant.ownerId);\n  }\n\n  modifier purchasedByFarmer(uint id) {\n    require(plants[id].state == State.Purchased, \"the state of the plant in this function must be Purchased\");\n    _;\n  }\n\n  function isNurseryOwner() public view returns(bool) {\n    return nurseryOwners.has(msg.sender);\n  }\n\n  function isFarmer() public view returns(bool) {\n    return farmers.has(msg.sender);\n  }\n\n  function getOrderCount() public view returns(uint) {\n    return orders.length;\n  }\n\n  function orderPlants(uint[] memory plantIds, address nurseryOwner, uint purchaseDate) public {\n    require(farmers.has(msg.sender), \"address is not a farmer\");\n    uint orderId = orders.length;\n    Order memory order = Order(orderId, nurseryOwner, msg.sender, plantIds, OrderState.Ordered);\n\n    Farm memory farm = farmsByOwners[msg.sender];\n    Nursery memory nursery = nurseriesByOwners[nurseryOwner];\n\n    for (uint i = plantIds[0]; i < plantIds[0] + plantIds.length; i++) {\n      plants[i].state = State.Purchased;\n      emit PurchasedByFarmer(i, nurseryOwner, nursery.name, farm.name, purchaseDate, nursery.lat, nursery.long);\n    }\n\n    orders.push(order);\n  }\n}",
  "sourcePath": "/home/gordon/projects/blockchain/basic/contracts/Supply.sol",
  "compiler": {
    "name": "solc",
    "version": "0.5.8+commit.23d335f2.Emscripten.clang"
  },
  "schemaVersion": "3.0.11",
  "updatedAt": "2020-03-19T15:02:42.243Z",
  "devdoc": {
    "methods": {
      "isOwner()": {
        "details": "Returns true if the caller is the current owner."
      },
      "owner()": {
        "details": "Returns the address of the current owner."
      },
      "renounceOwnership()": {
        "details": "Leaves the contract without owner. It will not be possible to call `onlyOwner` functions anymore. Can only be called by the current owner.     * NOTE: Renouncing ownership will leave the contract without an owner, thereby removing any functionality that is only available to the owner."
      },
      "transferOwnership(address)": {
        "details": "Transfers ownership of the contract to a new account (`newOwner`). Can only be called by the current owner."
      }
    }
  },
  "userdoc": {
    "methods": {}
  }
}