{
  "contractName": "Supply",
  "abi": [
    {
      "constant": false,
      "inputs": [],
      "name": "renounceOwnership",
      "outputs": [],
      "payable": false,
      "stateMutability": "nonpayable",
      "type": "function"
    },
    {
      "constant": true,
      "inputs": [],
      "name": "owner",
      "outputs": [
        {
          "name": "",
          "type": "address"
        }
      ],
      "payable": false,
      "stateMutability": "view",
      "type": "function"
    },
    {
      "constant": true,
      "inputs": [
        {
          "name": "",
          "type": "uint256"
        }
      ],
      "name": "plants",
      "outputs": [
        {
          "name": "id",
          "type": "uint256"
        },
        {
          "name": "state",
          "type": "uint8"
        },
        {
          "name": "plantedDate",
          "type": "uint256"
        },
        {
          "name": "lat",
          "type": "int256"
        },
        {
          "name": "long",
          "type": "int256"
        },
        {
          "name": "sourceNursery",
          "type": "string"
        },
        {
          "name": "variety",
          "type": "string"
        },
        {
          "name": "ownerAddress",
          "type": "address"
        }
      ],
      "payable": false,
      "stateMutability": "view",
      "type": "function"
    },
    {
      "constant": true,
      "inputs": [],
      "name": "isOwner",
      "outputs": [
        {
          "name": "",
          "type": "bool"
        }
      ],
      "payable": false,
      "stateMutability": "view",
      "type": "function"
    },
    {
      "constant": false,
      "inputs": [
        {
          "name": "newOwner",
          "type": "address"
        }
      ],
      "name": "transferOwnership",
      "outputs": [],
      "payable": false,
      "stateMutability": "nonpayable",
      "type": "function"
    },
    {
      "inputs": [],
      "payable": false,
      "stateMutability": "nonpayable",
      "type": "constructor"
    },
    {
      "anonymous": false,
      "inputs": [
        {
          "indexed": true,
          "name": "plantId",
          "type": "uint256"
        },
        {
          "indexed": false,
          "name": "state",
          "type": "uint8"
        },
        {
          "indexed": false,
          "name": "date",
          "type": "uint256"
        },
        {
          "indexed": false,
          "name": "lat",
          "type": "int256"
        },
        {
          "indexed": false,
          "name": "long",
          "type": "int256"
        },
        {
          "indexed": false,
          "name": "name",
          "type": "string"
        },
        {
          "indexed": false,
          "name": "variety",
          "type": "string"
        },
        {
          "indexed": true,
          "name": "ownerAddress",
          "type": "address"
        }
      ],
      "name": "PropogatedByNursery",
      "type": "event"
    },
    {
      "anonymous": false,
      "inputs": [
        {
          "indexed": true,
          "name": "plantId",
          "type": "uint256"
        },
        {
          "indexed": false,
          "name": "orderId",
          "type": "uint256"
        },
        {
          "indexed": false,
          "name": "nurseryName",
          "type": "string"
        },
        {
          "indexed": false,
          "name": "farmName",
          "type": "string"
        }
      ],
      "name": "AssignedToOrder",
      "type": "event"
    },
    {
      "anonymous": false,
      "inputs": [
        {
          "indexed": true,
          "name": "plantId",
          "type": "uint256"
        },
        {
          "indexed": false,
          "name": "orderId",
          "type": "uint256"
        },
        {
          "indexed": false,
          "name": "nurseryId",
          "type": "uint256"
        },
        {
          "indexed": false,
          "name": "nurseryName",
          "type": "string"
        },
        {
          "indexed": false,
          "name": "farmId",
          "type": "uint256"
        },
        {
          "indexed": false,
          "name": "farmName",
          "type": "string"
        },
        {
          "indexed": false,
          "name": "date",
          "type": "uint256"
        },
        {
          "indexed": false,
          "name": "lat",
          "type": "int256"
        },
        {
          "indexed": false,
          "name": "long",
          "type": "int256"
        }
      ],
      "name": "PurchasedByFarmer",
      "type": "event"
    },
    {
      "anonymous": false,
      "inputs": [
        {
          "indexed": true,
          "name": "plantId",
          "type": "uint256"
        },
        {
          "indexed": false,
          "name": "orderId",
          "type": "uint256"
        },
        {
          "indexed": false,
          "name": "nurseryId",
          "type": "uint256"
        },
        {
          "indexed": false,
          "name": "nurseryName",
          "type": "string"
        },
        {
          "indexed": false,
          "name": "farmId",
          "type": "uint256"
        },
        {
          "indexed": false,
          "name": "farmName",
          "type": "string"
        },
        {
          "indexed": false,
          "name": "date",
          "type": "uint256"
        },
        {
          "indexed": false,
          "name": "lat",
          "type": "int256"
        },
        {
          "indexed": false,
          "name": "long",
          "type": "int256"
        }
      ],
      "name": "DispatchedByNursery",
      "type": "event"
    },
    {
      "anonymous": false,
      "inputs": [
        {
          "indexed": true,
          "name": "plantId",
          "type": "uint256"
        },
        {
          "indexed": false,
          "name": "plantOwner",
          "type": "address"
        },
        {
          "indexed": false,
          "name": "date",
          "type": "uint256"
        },
        {
          "indexed": false,
          "name": "storeName",
          "type": "string"
        },
        {
          "indexed": false,
          "name": "storeTemp",
          "type": "int256"
        }
      ],
      "name": "StoredByFarmer",
      "type": "event"
    },
    {
      "anonymous": false,
      "inputs": [
        {
          "indexed": true,
          "name": "plantId",
          "type": "uint256"
        },
        {
          "indexed": false,
          "name": "plantOwner",
          "type": "address"
        },
        {
          "indexed": false,
          "name": "date",
          "type": "uint256"
        },
        {
          "indexed": false,
          "name": "farmName",
          "type": "string"
        },
        {
          "indexed": false,
          "name": "employeeName",
          "type": "string"
        }
      ],
      "name": "PlantedByFarmer",
      "type": "event"
    },
    {
      "anonymous": false,
      "inputs": [
        {
          "indexed": true,
          "name": "previousOwner",
          "type": "address"
        },
        {
          "indexed": true,
          "name": "newOwner",
          "type": "address"
        }
      ],
      "name": "OwnershipTransferred",
      "type": "event"
    },
    {
      "constant": false,
      "inputs": [
        {
          "name": "date",
          "type": "uint256"
        },
        {
          "name": "variety",
          "type": "string"
        },
        {
          "name": "quantity",
          "type": "int256"
        },
        {
          "name": "nurseryName",
          "type": "string"
        },
        {
          "name": "lat",
          "type": "int256"
        },
        {
          "name": "long",
          "type": "int256"
        },
        {
          "name": "ownerAddress",
          "type": "address"
        }
      ],
      "name": "propogatePlants",
      "outputs": [],
      "payable": false,
      "stateMutability": "nonpayable",
      "type": "function"
    },
    {
      "constant": false,
      "inputs": [
        {
          "name": "plantId",
          "type": "uint256"
        },
        {
          "name": "orderId",
          "type": "uint256"
        },
        {
          "name": "nurseryId",
          "type": "uint256"
        },
        {
          "name": "nurseryName",
          "type": "string"
        },
        {
          "name": "farmId",
          "type": "uint256"
        },
        {
          "name": "farmName",
          "type": "string"
        },
        {
          "name": "dispatchedDate",
          "type": "uint256"
        },
        {
          "name": "lat",
          "type": "int256"
        },
        {
          "name": "long",
          "type": "int256"
        }
      ],
      "name": "dispatchedByNursery",
      "outputs": [],
      "payable": false,
      "stateMutability": "nonpayable",
      "type": "function"
    },
    {
      "constant": false,
      "inputs": [
        {
          "name": "id",
          "type": "uint256"
        },
        {
          "name": "state",
          "type": "uint8"
        },
        {
          "name": "date",
          "type": "uint256"
        },
        {
          "name": "lat",
          "type": "int256"
        },
        {
          "name": "long",
          "type": "int256"
        },
        {
          "name": "nursery",
          "type": "string"
        },
        {
          "name": "variety",
          "type": "string"
        },
        {
          "name": "ownerAddress",
          "type": "address"
        }
      ],
      "name": "addPlant",
      "outputs": [],
      "payable": false,
      "stateMutability": "nonpayable",
      "type": "function"
    },
    {
      "constant": true,
      "inputs": [],
      "name": "getPlantCount",
      "outputs": [
        {
          "name": "",
          "type": "uint256"
        }
      ],
      "payable": false,
      "stateMutability": "view",
      "type": "function"
    },
    {
      "constant": true,
      "inputs": [
        {
          "name": "index",
          "type": "uint256"
        }
      ],
      "name": "getPlant",
      "outputs": [
        {
          "name": "",
          "type": "uint256"
        },
        {
          "name": "",
          "type": "uint8"
        },
        {
          "name": "",
          "type": "uint256"
        },
        {
          "name": "",
          "type": "int256"
        },
        {
          "name": "",
          "type": "int256"
        },
        {
          "name": "",
          "type": "string"
        },
        {
          "name": "",
          "type": "string"
        },
        {
          "name": "ownerAddress",
          "type": "address"
        }
      ],
      "payable": false,
      "stateMutability": "view",
      "type": "function"
    },
    {
      "constant": false,
      "inputs": [
        {
          "name": "index",
          "type": "uint256"
        },
        {
          "name": "ownerAddress",
          "type": "address"
        },
        {
          "name": "date",
          "type": "uint256"
        },
        {
          "name": "storeName",
          "type": "string"
        },
        {
          "name": "storeTemp",
          "type": "int256"
        }
      ],
      "name": "receivePlant",
      "outputs": [],
      "payable": false,
      "stateMutability": "nonpayable",
      "type": "function"
    },
    {
      "constant": false,
      "inputs": [
        {
          "name": "plantId",
          "type": "uint256"
        },
        {
          "name": "farmName",
          "type": "string"
        },
        {
          "name": "ownerAddress",
          "type": "address"
        },
        {
          "name": "lat",
          "type": "int256"
        },
        {
          "name": "long",
          "type": "int256"
        },
        {
          "name": "employeeName",
          "type": "string"
        },
        {
          "name": "date",
          "type": "uint256"
        }
      ],
      "name": "plantOnFarm",
      "outputs": [],
      "payable": false,
      "stateMutability": "nonpayable",
      "type": "function"
    }
  ],
  "bytecode": "0x608060405234801561001057600080fd5b5061001f6100df60201b60201c565b6000806101000a81548173ffffffffffffffffffffffffffffffffffffffff021916908373ffffffffffffffffffffffffffffffffffffffff1602179055506000809054906101000a900473ffffffffffffffffffffffffffffffffffffffff1673ffffffffffffffffffffffffffffffffffffffff16600073ffffffffffffffffffffffffffffffffffffffff167f8be0079c531659141344cd1fd0a4f28419497f9722a3daafe3b4186f6b6457e060405160405180910390a36100e7565b600033905090565b611f0c806100f66000396000f3fe608060405234801561001057600080fd5b50600436106100b45760003560e01c80638da5cb5b116100715780638da5cb5b146108315780638dd2361c1461087b5780638f32d59b146109f2578063c0d3e1f914610a14578063ed0b1f5f14610a32578063f2fde38b14610ba9576100b4565b80630cc438cd146100b957806359c4a94e146102535780636071dcee1461034c578063715018a6146104e657806382b691f1146104f057806386d6a0f314610698575b600080fd5b610251600480360360e08110156100cf57600080fd5b8101908080359060200190929190803590602001906401000000008111156100f657600080fd5b82018360208201111561010857600080fd5b8035906020019184600183028401116401000000008311171561012a57600080fd5b91908080601f016020809104026020016040519081016040528093929190818152602001838380828437600081840152601f19601f820116905080830192505050505050509192919290803573ffffffffffffffffffffffffffffffffffffffff1690602001909291908035906020019092919080359060200190929190803590602001906401000000008111156101c157600080fd5b8201836020820111156101d357600080fd5b803590602001918460018302840111640100000000831117156101f557600080fd5b91908080601f016020809104026020016040519081016040528093929190818152602001838380828437600081840152601f19601f82011690508083019250505050505050919291929080359060200190929190505050610bed565b005b61034a600480360360a081101561026957600080fd5b8101908080359060200190929190803573ffffffffffffffffffffffffffffffffffffffff16906020019092919080359060200190929190803590602001906401000000008111156102ba57600080fd5b8201836020820111156102cc57600080fd5b803590602001918460018302840111640100000000831117156102ee57600080fd5b91908080601f016020809104026020016040519081016040528093929190818152602001838380828437600081840152601f19601f82011690508083019250505050505050919291929080359060200190929190505050610d94565b005b6104e4600480360360e081101561036257600080fd5b81019080803590602001909291908035906020019064010000000081111561038957600080fd5b82018360208201111561039b57600080fd5b803590602001918460018302840111640100000000831117156103bd57600080fd5b91908080601f016020809104026020016040519081016040528093929190818152602001838380828437600081840152601f19601f820116905080830192505050505050509192919290803590602001909291908035906020019064010000000081111561042a57600080fd5b82018360208201111561043c57600080fd5b8035906020019184600183028401116401000000008311171561045e57600080fd5b91908080601f016020809104026020016040519081016040528093929190818152602001838380828437600081840152601f19601f8201169050808301925050505050505091929192908035906020019092919080359060200190929190803573ffffffffffffffffffffffffffffffffffffffff169060200190929190505050610f05565b005b6104ee610f4e565b005b610696600480360361010081101561050757600080fd5b8101908080359060200190929190803560ff1690602001909291908035906020019092919080359060200190929190803590602001909291908035906020019064010000000081111561055957600080fd5b82018360208201111561056b57600080fd5b8035906020019184600183028401116401000000008311171561058d57600080fd5b91908080601f016020809104026020016040519081016040528093929190818152602001838380828437600081840152601f19601f820116905080830192505050505050509192919290803590602001906401000000008111156105f057600080fd5b82018360208201111561060257600080fd5b8035906020019184600183028401116401000000008311171561062457600080fd5b91908080601f016020809104026020016040519081016040528093929190818152602001838380828437600081840152601f19601f820116905080830192505050505050509192919290803573ffffffffffffffffffffffffffffffffffffffff169060200190929190505050611087565b005b61082f60048036036101208110156106af57600080fd5b81019080803590602001909291908035906020019092919080359060200190929190803590602001906401000000008111156106ea57600080fd5b8201836020820111156106fc57600080fd5b8035906020019184600183028401116401000000008311171561071e57600080fd5b91908080601f016020809104026020016040519081016040528093929190818152602001838380828437600081840152601f19601f820116905080830192505050505050509192919290803590602001909291908035906020019064010000000081111561078b57600080fd5b82018360208201111561079d57600080fd5b803590602001918460018302840111640100000000831117156107bf57600080fd5b91908080601f016020809104026020016040519081016040528093929190818152602001838380828437600081840152601f19601f820116905080830192505050505050509192919290803590602001909291908035906020019092919080359060200190929190505050611349565b005b610839611720565b604051808273ffffffffffffffffffffffffffffffffffffffff1673ffffffffffffffffffffffffffffffffffffffff16815260200191505060405180910390f35b6108a76004803603602081101561089157600080fd5b8101908080359060200190929190505050611749565b604051808981526020018860068111156108bd57fe5b60ff16815260200187815260200186815260200185815260200180602001806020018473ffffffffffffffffffffffffffffffffffffffff1673ffffffffffffffffffffffffffffffffffffffff168152602001838103835286818151815260200191508051906020019080838360005b8381101561094957808201518184015260208101905061092e565b50505050905090810190601f1680156109765780820380516001836020036101000a031916815260200191505b50838103825285818151815260200191508051906020019080838360005b838110156109af578082015181840152602081019050610994565b50505050905090810190601f1680156109dc5780820380516001836020036101000a031916815260200191505b509a505050505050505050505060405180910390f35b6109fa6118fb565b604051808215151515815260200191505060405180910390f35b610a1c611959565b6040518082815260200191505060405180910390f35b610a5e60048036036020811015610a4857600080fd5b8101908080359060200190929190505050611966565b60405180898152602001886006811115610a7457fe5b60ff16815260200187815260200186815260200185815260200180602001806020018473ffffffffffffffffffffffffffffffffffffffff1673ffffffffffffffffffffffffffffffffffffffff168152602001838103835286818151815260200191508051906020019080838360005b83811015610b00578082015181840152602081019050610ae5565b50505050905090810190601f168015610b2d5780820380516001836020036101000a031916815260200191505b50838103825285818151815260200191508051906020019080838360005b83811015610b66578082015181840152602081019050610b4b565b50505050905090810190601f168015610b935780820380516001836020036101000a031916815260200191505b509a505050505050505050505060405180910390f35b610beb60048036036020811015610bbf57600080fd5b81019080803573ffffffffffffffffffffffffffffffffffffffff169060200190929190505050611bdd565b005b600060018881548110610bfc57fe5b9060005260206000209060080201905060048160010160006101000a81548160ff02191690836006811115610c2d57fe5b0217905550848160030181905550838160040181905550877f5bc17c82ce0f6cbb9291694160f4ec430572ea818f73273cd2edc0d4aa90544b87848a87604051808573ffffffffffffffffffffffffffffffffffffffff1673ffffffffffffffffffffffffffffffffffffffff1681526020018481526020018060200180602001838103835285818151815260200191508051906020019080838360005b83811015610ce6578082015181840152602081019050610ccb565b50505050905090810190601f168015610d135780820380516001836020036101000a031916815260200191505b50838103825284818151815260200191508051906020019080838360005b83811015610d4c578082015181840152602081019050610d31565b50505050905090810190601f168015610d795780820380516001836020036101000a031916815260200191505b50965050505050505060405180910390a25050505050505050565b600060018681548110610da357fe5b9060005260206000209060080201905060038160010160006101000a81548160ff02191690836006811115610dd457fe5b0217905550848160070160006101000a81548173ffffffffffffffffffffffffffffffffffffffff021916908373ffffffffffffffffffffffffffffffffffffffff160217905550857f2d95137e2d9281cd000935f6c50a1401554a858b13fd0aebdbcc9728cf8aebb586868686604051808573ffffffffffffffffffffffffffffffffffffffff1673ffffffffffffffffffffffffffffffffffffffff16815260200184815260200180602001838152602001828103825284818151815260200191508051906020019080838360005b83811015610ec0578082015181840152602081019050610ea5565b50505050905090810190601f168015610eed5780820380516001836020036101000a031916815260200191505b509550505050505060405180910390a2505050505050565b6000600180549050905060008090505b86811215610f4357610f2e8260008b88888b8e8a611087565b81806001019250508080600101915050610f15565b505050505050505050565b610f566118fb565b610fc8576040517f08c379a00000000000000000000000000000000000000000000000000000000081526004018080602001828103825260208152602001807f4f776e61626c653a2063616c6c6572206973206e6f7420746865206f776e657281525060200191505060405180910390fd5b600073ffffffffffffffffffffffffffffffffffffffff166000809054906101000a900473ffffffffffffffffffffffffffffffffffffffff1673ffffffffffffffffffffffffffffffffffffffff167f8be0079c531659141344cd1fd0a4f28419497f9722a3daafe3b4186f6b6457e060405160405180910390a360008060006101000a81548173ffffffffffffffffffffffffffffffffffffffff021916908373ffffffffffffffffffffffffffffffffffffffff160217905550565b61108f611daf565b6040518061010001604052808a81526020018960068111156110ad57fe5b81526020018881526020018781526020018681526020018581526020018481526020018373ffffffffffffffffffffffffffffffffffffffff168152509050600181908060018154018082558091505090600182039060005260206000209060080201600090919290919091506000820151816000015560208201518160010160006101000a81548160ff0219169083600681111561114857fe5b021790555060408201518160020155606082015181600301556080820151816004015560a0820151816005019080519060200190611187929190611e15565b5060c08201518160060190805190602001906111a4929190611e15565b5060e08201518160070160006101000a81548173ffffffffffffffffffffffffffffffffffffffff021916908373ffffffffffffffffffffffffffffffffffffffff1602179055505050508173ffffffffffffffffffffffffffffffffffffffff16897fe26855ee5eb28cff6326e660f0bd104719febe1a0a9d7926002d6ed0480d2f9e8a8a8a8a8a8a6040518087600681111561123e57fe5b60ff1681526020018681526020018581526020018481526020018060200180602001838103835285818151815260200191508051906020019080838360005b8381101561129857808201518184015260208101905061127d565b50505050905090810190601f1680156112c55780820380516001836020036101000a031916815260200191505b50838103825284818151815260200191508051906020019080838360005b838110156112fe5780820151818401526020810190506112e3565b50505050905090810190601f16801561132b5780820380516001836020036101000a031916815260200191505b509850505050505050505060405180910390a3505050505050505050565b600060018a8154811061135857fe5b9060005260206000209060080201905060028160010160006101000a81548160ff0219169083600681111561138957fe5b0217905550897fbddff65982b0910e6fcbd4a3e36b677fa26d4e6b4f59593a5f2efa86a70403308a8988604051808481526020018060200180602001838103835285818151815260200191508051906020019080838360005b838110156113fd5780820151818401526020810190506113e2565b50505050905090810190601f16801561142a5780820380516001836020036101000a031916815260200191505b50838103825284818151815260200191508051906020019080838360005b83811015611463578082015181840152602081019050611448565b50505050905090810190601f1680156114905780820380516001836020036101000a031916815260200191505b509550505050505060405180910390a2897fed26eb219c0005d6fc97736d901bfe7bcaf24d50b2003ecf76daae656ee36ae38a8a8a8a8a8a8a8a604051808981526020018881526020018060200187815260200180602001868152602001858152602001848152602001838103835289818151815260200191508051906020019080838360005b83811015611532578082015181840152602081019050611517565b50505050905090810190601f16801561155f5780820380516001836020036101000a031916815260200191505b50838103825287818151815260200191508051906020019080838360005b8381101561159857808201518184015260208101905061157d565b50505050905090810190601f1680156115c55780820380516001836020036101000a031916815260200191505b509a505050505050505050505060405180910390a2897ff72594244eb9888b64eb1b4014a7d25c1958dea2a149d0a7aa905c22f437650d8a8a8a8a8a8a8a8a604051808981526020018881526020018060200187815260200180602001868152602001858152602001848152602001838103835289818151815260200191508051906020019080838360005b8381101561166c578082015181840152602081019050611651565b50505050905090810190601f1680156116995780820380516001836020036101000a031916815260200191505b50838103825287818151815260200191508051906020019080838360005b838110156116d25780820151818401526020810190506116b7565b50505050905090810190601f1680156116ff5780820380516001836020036101000a031916815260200191505b509a505050505050505050505060405180910390a250505050505050505050565b60008060009054906101000a900473ffffffffffffffffffffffffffffffffffffffff16905090565b6001818154811061175657fe5b90600052602060002090600802016000915090508060000154908060010160009054906101000a900460ff1690806002015490806003015490806004015490806005018054600181600116156101000203166002900480601f01602080910402602001604051908101604052809291908181526020018280546001816001161561010002031660029004801561182d5780601f106118025761010080835404028352916020019161182d565b820191906000526020600020905b81548152906001019060200180831161181057829003601f168201915b505050505090806006018054600181600116156101000203166002900480601f0160208091040260200160405190810160405280929190818152602001828054600181600116156101000203166002900480156118cb5780601f106118a0576101008083540402835291602001916118cb565b820191906000526020600020905b8154815290600101906020018083116118ae57829003601f168201915b5050505050908060070160009054906101000a900473ffffffffffffffffffffffffffffffffffffffff16905088565b60008060009054906101000a900473ffffffffffffffffffffffffffffffffffffffff1673ffffffffffffffffffffffffffffffffffffffff1661193d611c63565b73ffffffffffffffffffffffffffffffffffffffff1614905090565b6000600180549050905090565b6000806000806000606080600061197b611daf565b60018a8154811061198857fe5b906000526020600020906008020160405180610100016040529081600082015481526020016001820160009054906101000a900460ff1660068111156119ca57fe5b60068111156119d557fe5b8152602001600282015481526020016003820154815260200160048201548152602001600582018054600181600116156101000203166002900480601f016020809104026020016040519081016040528092919081815260200182805460018160011615610100020316600290048015611a905780601f10611a6557610100808354040283529160200191611a90565b820191906000526020600020905b815481529060010190602001808311611a7357829003601f168201915b50505050508152602001600682018054600181600116156101000203166002900480601f016020809104026020016040519081016040528092919081815260200182805460018160011615610100020316600290048015611b325780601f10611b0757610100808354040283529160200191611b32565b820191906000526020600020905b815481529060010190602001808311611b1557829003601f168201915b505050505081526020016007820160009054906101000a900473ffffffffffffffffffffffffffffffffffffffff1673ffffffffffffffffffffffffffffffffffffffff1673ffffffffffffffffffffffffffffffffffffffff16815250509050806000015181602001518260400151836060015184608001518560a001518660c001518760e001518292508191509850985098509850985098509850985050919395975091939597565b611be56118fb565b611c57576040517f08c379a00000000000000000000000000000000000000000000000000000000081526004018080602001828103825260208152602001807f4f776e61626c653a2063616c6c6572206973206e6f7420746865206f776e657281525060200191505060405180910390fd5b611c6081611c6b565b50565b600033905090565b600073ffffffffffffffffffffffffffffffffffffffff168173ffffffffffffffffffffffffffffffffffffffff161415611cf1576040517f08c379a0000000000000000000000000000000000000000000000000000000008152600401808060200182810382526026815260200180611ebb6026913960400191505060405180910390fd5b8073ffffffffffffffffffffffffffffffffffffffff166000809054906101000a900473ffffffffffffffffffffffffffffffffffffffff1673ffffffffffffffffffffffffffffffffffffffff167f8be0079c531659141344cd1fd0a4f28419497f9722a3daafe3b4186f6b6457e060405160405180910390a3806000806101000a81548173ffffffffffffffffffffffffffffffffffffffff021916908373ffffffffffffffffffffffffffffffffffffffff16021790555050565b6040518061010001604052806000815260200160006006811115611dcf57fe5b81526020016000815260200160008152602001600081526020016060815260200160608152602001600073ffffffffffffffffffffffffffffffffffffffff1681525090565b828054600181600116156101000203166002900490600052602060002090601f016020900481019282601f10611e5657805160ff1916838001178555611e84565b82800160010185558215611e84579182015b82811115611e83578251825591602001919060010190611e68565b5b509050611e919190611e95565b5090565b611eb791905b80821115611eb3576000816000905550600101611e9b565b5090565b9056fe4f776e61626c653a206e6577206f776e657220697320746865207a65726f2061646472657373a165627a7a72305820688ae37a2aef74231a952de1baf4c72c1d77b829df1ae491c86f4b1781a4e1d40029",
  "source": "pragma solidity  > 0.5.0;\n\nimport \"../node_modules/openzeppelin-solidity/contracts/ownership/Ownable.sol\";\nimport \"./NurseryManager.sol\";\nimport \"./FarmManager.sol\";\nimport \"./OrderManager.sol\";\nimport \"./SupplyDataTypes.sol\";\n\ncontract Supply is Ownable {\n  // Dynamically sized plant array\n  SupplyDataTypes.Plant[] public plants;\n\n  event PropogatedByNursery(uint indexed plantId, SupplyDataTypes.State state, uint date, int lat, int long, string name, string variety, address indexed ownerAddress);\n  event AssignedToOrder(uint indexed plantId, uint orderId, string nurseryName, string farmName);\n  event PurchasedByFarmer(uint indexed plantId, uint orderId, uint nurseryId, string nurseryName, uint farmId, string farmName, uint date, int lat, int long);\n  event DispatchedByNursery(uint indexed plantId, uint orderId, uint nurseryId, string nurseryName, uint farmId, string farmName, uint date, int lat, int long);\n  event StoredByFarmer(uint indexed plantId, address plantOwner, uint date, string storeName, int storeTemp);\n  event PlantedByFarmer(uint indexed plantId, address plantOwner, uint date, string farmName, string employeeName);\n\n  constructor() public {\n    // addNurseryOwner(0x21111104e6933e6fb2bB4dc99AB5B65439226043);\n    // addNursery(0, \"Raspberry Nursery\", 56, 3, \"Small nursery for raspberries\", 0x21111104e6933e6fb2bB4dc99AB5B65439226043);\n    // addFarmer(0xdacF2A85BEbdD88e49DF032A61b5d7679eafb25E);\n    // addFarm(0, \"Invergowrie\", 56, 3, 0xdacF2A85BEbdD88e49DF032A61b5d7679eafb25E);\n  }\n\n  function propogatePlants(uint date, string memory variety, int quantity, string memory nurseryName, int lat, int long, address ownerAddress) public {\n    uint plantId = plants.length;\n    for (int i = 0; i < quantity; i++){\n      addPlant(plantId, SupplyDataTypes.State.Propogated, date, lat, long, nurseryName, variety, ownerAddress);\n      plantId++;\n    }\n  }\n\n  function dispatchedByNursery(uint plantId, uint orderId, uint nurseryId, string memory nurseryName, uint farmId, string memory farmName, uint dispatchedDate, int lat, int long) public {\n    SupplyDataTypes.Plant storage plant = plants[plantId];\n    plant.state = SupplyDataTypes.State.Shipped;\n\n    emit AssignedToOrder(plantId, orderId, nurseryName, farmName);\n    emit PurchasedByFarmer(plantId, orderId, nurseryId, nurseryName, farmId, farmName, dispatchedDate, lat, long);\n    emit DispatchedByNursery(plantId, orderId, nurseryId, nurseryName, farmId, farmName, dispatchedDate, lat, long);\n  }\n\n  function addPlant(uint id, SupplyDataTypes.State state, uint date, int lat, int long, string memory nursery, string memory variety, address ownerAddress) public {\n    SupplyDataTypes.Plant memory plant = SupplyDataTypes.Plant(id, state, date, lat, long, nursery, variety, ownerAddress);\n    plants.push(plant);\n    emit PropogatedByNursery(id, state, date, lat, long, nursery, variety, ownerAddress);\n  }\n\n  function getPlantCount() public view returns(uint) {\n    return plants.length;\n  }\n\n  function getPlant(uint index) public view returns(uint, SupplyDataTypes.State, uint, int, int, string memory, string memory, address ownerAddress) {\n    SupplyDataTypes.Plant memory plant = plants[index];\n    return (plant.id, plant.state, plant.plantedDate, plant.lat, plant.long, plant.sourceNursery, plant.variety, plant.ownerAddress);\n  }\n\n  function receivePlant(uint index, address ownerAddress, uint date, string memory storeName, int storeTemp) public {\n    SupplyDataTypes.Plant storage plant = plants[index];\n    plant.state = SupplyDataTypes.State.Stored;\n    plant.ownerAddress = ownerAddress;\n\n    emit StoredByFarmer(index, ownerAddress, date, storeName, storeTemp);\n  }\n\n  function plantOnFarm(uint plantId, string memory farmName, address ownerAddress, int lat, int long, string memory employeeName, uint date) public {\n    SupplyDataTypes.Plant storage plant = plants[plantId];\n    plant.state = SupplyDataTypes.State.Planted;\n    plant.lat = lat;\n    plant.long = long;\n\n    emit PlantedByFarmer(plantId, ownerAddress, date, farmName, employeeName);\n  }\n\n  // modifier purchasedByFarmer(uint id) {\n  //   require(plants[id].state == SupplyDataTypes.State.Purchased, \"the state of the plant in this function must be Purchased\");\n  //   _;\n  // }\n}",
  "sourcePath": "/home/gordon/projects/blockchain/basic/contracts/Supply.sol",
  "compiler": {
    "name": "solc",
    "version": "0.5.8+commit.23d335f2.Emscripten.clang"
  },
  "schemaVersion": "3.0.11",
  "updatedAt": "2020-04-03T10:55:25.453Z",
  "devdoc": {
    "methods": {
      "isOwner()": {
        "details": "Returns true if the caller is the current owner."
      },
      "owner()": {
        "details": "Returns the address of the current owner."
      },
      "renounceOwnership()": {
        "details": "Leaves the contract without owner. It will not be possible to call `onlyOwner` functions anymore. Can only be called by the current owner.     * NOTE: Renouncing ownership will leave the contract without an owner, thereby removing any functionality that is only available to the owner."
      },
      "transferOwnership(address)": {
        "details": "Transfers ownership of the contract to a new account (`newOwner`). Can only be called by the current owner."
      }
    }
  },
  "userdoc": {
    "methods": {}
  }
}