{
  "contractName": "Supply",
  "abi": [
    {
      "constant": true,
      "inputs": [
        {
          "name": "",
          "type": "uint256"
        }
      ],
      "name": "nurseries",
      "outputs": [
        {
          "name": "id",
          "type": "uint256"
        },
        {
          "name": "name",
          "type": "string"
        },
        {
          "name": "lat",
          "type": "int256"
        },
        {
          "name": "long",
          "type": "int256"
        },
        {
          "name": "description",
          "type": "string"
        },
        {
          "name": "nurseryOwner",
          "type": "address"
        }
      ],
      "payable": false,
      "stateMutability": "view",
      "type": "function"
    },
    {
      "constant": true,
      "inputs": [
        {
          "name": "",
          "type": "uint256"
        }
      ],
      "name": "nurseryOwnerList",
      "outputs": [
        {
          "name": "name",
          "type": "string"
        },
        {
          "name": "ownerAddress",
          "type": "address"
        }
      ],
      "payable": false,
      "stateMutability": "view",
      "type": "function"
    },
    {
      "constant": false,
      "inputs": [],
      "name": "renounceOwnership",
      "outputs": [],
      "payable": false,
      "stateMutability": "nonpayable",
      "type": "function"
    },
    {
      "constant": true,
      "inputs": [
        {
          "name": "",
          "type": "uint256"
        }
      ],
      "name": "farms",
      "outputs": [
        {
          "name": "id",
          "type": "uint256"
        },
        {
          "name": "name",
          "type": "string"
        },
        {
          "name": "lat",
          "type": "int256"
        },
        {
          "name": "long",
          "type": "int256"
        },
        {
          "name": "farmer",
          "type": "address"
        }
      ],
      "payable": false,
      "stateMutability": "view",
      "type": "function"
    },
    {
      "constant": true,
      "inputs": [],
      "name": "owner",
      "outputs": [
        {
          "name": "",
          "type": "address"
        }
      ],
      "payable": false,
      "stateMutability": "view",
      "type": "function"
    },
    {
      "constant": true,
      "inputs": [
        {
          "name": "",
          "type": "uint256"
        }
      ],
      "name": "plants",
      "outputs": [
        {
          "name": "id",
          "type": "uint256"
        },
        {
          "name": "state",
          "type": "uint8"
        },
        {
          "name": "plantedDate",
          "type": "uint256"
        },
        {
          "name": "lat",
          "type": "int256"
        },
        {
          "name": "long",
          "type": "int256"
        },
        {
          "name": "sourceNursery",
          "type": "string"
        },
        {
          "name": "variety",
          "type": "string"
        },
        {
          "name": "plantOwner",
          "type": "address"
        }
      ],
      "payable": false,
      "stateMutability": "view",
      "type": "function"
    },
    {
      "constant": true,
      "inputs": [],
      "name": "isOwner",
      "outputs": [
        {
          "name": "",
          "type": "bool"
        }
      ],
      "payable": false,
      "stateMutability": "view",
      "type": "function"
    },
    {
      "constant": true,
      "inputs": [
        {
          "name": "",
          "type": "address"
        }
      ],
      "name": "farmsByOwners",
      "outputs": [
        {
          "name": "id",
          "type": "uint256"
        },
        {
          "name": "name",
          "type": "string"
        },
        {
          "name": "lat",
          "type": "int256"
        },
        {
          "name": "long",
          "type": "int256"
        },
        {
          "name": "farmer",
          "type": "address"
        }
      ],
      "payable": false,
      "stateMutability": "view",
      "type": "function"
    },
    {
      "constant": true,
      "inputs": [
        {
          "name": "",
          "type": "uint256"
        }
      ],
      "name": "orders",
      "outputs": [
        {
          "name": "orderId",
          "type": "uint256"
        },
        {
          "name": "nursery",
          "type": "address"
        },
        {
          "name": "farmer",
          "type": "address"
        },
        {
          "name": "state",
          "type": "uint8"
        }
      ],
      "payable": false,
      "stateMutability": "view",
      "type": "function"
    },
    {
      "constant": true,
      "inputs": [
        {
          "name": "",
          "type": "address"
        }
      ],
      "name": "nurseriesByOwners",
      "outputs": [
        {
          "name": "id",
          "type": "uint256"
        },
        {
          "name": "name",
          "type": "string"
        },
        {
          "name": "lat",
          "type": "int256"
        },
        {
          "name": "long",
          "type": "int256"
        },
        {
          "name": "description",
          "type": "string"
        },
        {
          "name": "nurseryOwner",
          "type": "address"
        }
      ],
      "payable": false,
      "stateMutability": "view",
      "type": "function"
    },
    {
      "constant": true,
      "inputs": [
        {
          "name": "",
          "type": "uint256"
        }
      ],
      "name": "farmOwnerList",
      "outputs": [
        {
          "name": "name",
          "type": "string"
        },
        {
          "name": "ownerAddress",
          "type": "address"
        }
      ],
      "payable": false,
      "stateMutability": "view",
      "type": "function"
    },
    {
      "constant": false,
      "inputs": [
        {
          "name": "newOwner",
          "type": "address"
        }
      ],
      "name": "transferOwnership",
      "outputs": [],
      "payable": false,
      "stateMutability": "nonpayable",
      "type": "function"
    },
    {
      "inputs": [],
      "payable": false,
      "stateMutability": "nonpayable",
      "type": "constructor"
    },
    {
      "anonymous": false,
      "inputs": [
        {
          "indexed": false,
          "name": "name",
          "type": "string"
        },
        {
          "indexed": false,
          "name": "nurseryOwner",
          "type": "address"
        }
      ],
      "name": "AddedNurseryOwner",
      "type": "event"
    },
    {
      "anonymous": false,
      "inputs": [
        {
          "indexed": false,
          "name": "name",
          "type": "string"
        },
        {
          "indexed": false,
          "name": "farmOwner",
          "type": "address"
        }
      ],
      "name": "AddedFarmOwner",
      "type": "event"
    },
    {
      "anonymous": false,
      "inputs": [
        {
          "indexed": true,
          "name": "plantId",
          "type": "uint256"
        },
        {
          "indexed": false,
          "name": "plantOwner",
          "type": "address"
        },
        {
          "indexed": false,
          "name": "nurseryName",
          "type": "string"
        },
        {
          "indexed": false,
          "name": "date",
          "type": "uint256"
        },
        {
          "indexed": false,
          "name": "lat",
          "type": "int256"
        },
        {
          "indexed": false,
          "name": "long",
          "type": "int256"
        }
      ],
      "name": "PropogatedByNursery",
      "type": "event"
    },
    {
      "anonymous": false,
      "inputs": [
        {
          "indexed": true,
          "name": "plantId",
          "type": "uint256"
        },
        {
          "indexed": false,
          "name": "plantOwner",
          "type": "address"
        },
        {
          "indexed": false,
          "name": "nurseryName",
          "type": "string"
        },
        {
          "indexed": false,
          "name": "farmName",
          "type": "string"
        },
        {
          "indexed": false,
          "name": "date",
          "type": "uint256"
        },
        {
          "indexed": false,
          "name": "lat",
          "type": "int256"
        },
        {
          "indexed": false,
          "name": "long",
          "type": "int256"
        }
      ],
      "name": "PurchasedByFarmer",
      "type": "event"
    },
    {
      "anonymous": false,
      "inputs": [
        {
          "indexed": true,
          "name": "plantId",
          "type": "uint256"
        },
        {
          "indexed": false,
          "name": "plantOwner",
          "type": "address"
        },
        {
          "indexed": false,
          "name": "date",
          "type": "uint256"
        }
      ],
      "name": "ShippedByNursery",
      "type": "event"
    },
    {
      "anonymous": false,
      "inputs": [
        {
          "indexed": true,
          "name": "plantId",
          "type": "uint256"
        },
        {
          "indexed": false,
          "name": "plantOwner",
          "type": "address"
        },
        {
          "indexed": false,
          "name": "date",
          "type": "uint256"
        }
      ],
      "name": "ReceivedByFarmer",
      "type": "event"
    },
    {
      "anonymous": false,
      "inputs": [
        {
          "indexed": true,
          "name": "plantId",
          "type": "uint256"
        },
        {
          "indexed": false,
          "name": "plantOwner",
          "type": "address"
        },
        {
          "indexed": false,
          "name": "date",
          "type": "uint256"
        }
      ],
      "name": "PlantedByFarmer",
      "type": "event"
    },
    {
      "anonymous": false,
      "inputs": [
        {
          "indexed": true,
          "name": "previousOwner",
          "type": "address"
        },
        {
          "indexed": true,
          "name": "newOwner",
          "type": "address"
        }
      ],
      "name": "OwnershipTransferred",
      "type": "event"
    },
    {
      "constant": false,
      "inputs": [
        {
          "name": "name",
          "type": "string"
        },
        {
          "name": "nurseryOwner",
          "type": "address"
        }
      ],
      "name": "addNurseryOwner",
      "outputs": [],
      "payable": false,
      "stateMutability": "nonpayable",
      "type": "function"
    },
    {
      "constant": true,
      "inputs": [],
      "name": "getNurseryOwnerCount",
      "outputs": [
        {
          "name": "",
          "type": "uint256"
        }
      ],
      "payable": false,
      "stateMutability": "view",
      "type": "function"
    },
    {
      "constant": true,
      "inputs": [
        {
          "name": "index",
          "type": "uint256"
        }
      ],
      "name": "getNurseryOwner",
      "outputs": [
        {
          "name": "",
          "type": "string"
        },
        {
          "name": "",
          "type": "address"
        }
      ],
      "payable": false,
      "stateMutability": "view",
      "type": "function"
    },
    {
      "constant": false,
      "inputs": [
        {
          "name": "id",
          "type": "uint256"
        },
        {
          "name": "name",
          "type": "string"
        },
        {
          "name": "lat",
          "type": "int256"
        },
        {
          "name": "long",
          "type": "int256"
        },
        {
          "name": "nurseryDescription",
          "type": "string"
        },
        {
          "name": "nurseryOwner",
          "type": "address"
        }
      ],
      "name": "addNursery",
      "outputs": [],
      "payable": false,
      "stateMutability": "nonpayable",
      "type": "function"
    },
    {
      "constant": true,
      "inputs": [],
      "name": "getNurseryCount",
      "outputs": [
        {
          "name": "",
          "type": "uint256"
        }
      ],
      "payable": false,
      "stateMutability": "view",
      "type": "function"
    },
    {
      "constant": true,
      "inputs": [
        {
          "name": "index",
          "type": "uint256"
        }
      ],
      "name": "getNursery",
      "outputs": [
        {
          "name": "",
          "type": "uint256"
        },
        {
          "name": "",
          "type": "string"
        },
        {
          "name": "",
          "type": "int256"
        },
        {
          "name": "",
          "type": "int256"
        },
        {
          "name": "",
          "type": "string"
        },
        {
          "name": "",
          "type": "address"
        }
      ],
      "payable": false,
      "stateMutability": "view",
      "type": "function"
    },
    {
      "constant": false,
      "inputs": [
        {
          "name": "date",
          "type": "uint256"
        }
      ],
      "name": "propogatePlant",
      "outputs": [],
      "payable": false,
      "stateMutability": "nonpayable",
      "type": "function"
    },
    {
      "constant": false,
      "inputs": [
        {
          "name": "name",
          "type": "string"
        },
        {
          "name": "farmOwner",
          "type": "address"
        }
      ],
      "name": "addFarmOwner",
      "outputs": [],
      "payable": false,
      "stateMutability": "nonpayable",
      "type": "function"
    },
    {
      "constant": true,
      "inputs": [],
      "name": "getFarmOwnerCount",
      "outputs": [
        {
          "name": "",
          "type": "uint256"
        }
      ],
      "payable": false,
      "stateMutability": "view",
      "type": "function"
    },
    {
      "constant": true,
      "inputs": [
        {
          "name": "index",
          "type": "uint256"
        }
      ],
      "name": "getFarmOwner",
      "outputs": [
        {
          "name": "",
          "type": "string"
        },
        {
          "name": "",
          "type": "address"
        }
      ],
      "payable": false,
      "stateMutability": "view",
      "type": "function"
    },
    {
      "constant": false,
      "inputs": [
        {
          "name": "id",
          "type": "uint256"
        },
        {
          "name": "name",
          "type": "string"
        },
        {
          "name": "lat",
          "type": "int256"
        },
        {
          "name": "long",
          "type": "int256"
        },
        {
          "name": "farmer",
          "type": "address"
        }
      ],
      "name": "addFarm",
      "outputs": [],
      "payable": false,
      "stateMutability": "nonpayable",
      "type": "function"
    },
    {
      "constant": false,
      "inputs": [
        {
          "name": "id",
          "type": "uint256"
        },
        {
          "name": "_state",
          "type": "uint8"
        },
        {
          "name": "_date",
          "type": "uint256"
        },
        {
          "name": "_lat",
          "type": "int256"
        },
        {
          "name": "_long",
          "type": "int256"
        },
        {
          "name": "_nursery",
          "type": "string"
        },
        {
          "name": "variety",
          "type": "string"
        },
        {
          "name": "plantOwner",
          "type": "address"
        }
      ],
      "name": "addPlant",
      "outputs": [],
      "payable": false,
      "stateMutability": "nonpayable",
      "type": "function"
    },
    {
      "constant": true,
      "inputs": [],
      "name": "getPlantCount",
      "outputs": [
        {
          "name": "",
          "type": "uint256"
        }
      ],
      "payable": false,
      "stateMutability": "view",
      "type": "function"
    },
    {
      "constant": true,
      "inputs": [
        {
          "name": "index",
          "type": "uint256"
        }
      ],
      "name": "getPlant",
      "outputs": [
        {
          "name": "",
          "type": "uint256"
        },
        {
          "name": "",
          "type": "uint8"
        },
        {
          "name": "",
          "type": "uint256"
        },
        {
          "name": "",
          "type": "int256"
        },
        {
          "name": "",
          "type": "int256"
        },
        {
          "name": "",
          "type": "string"
        },
        {
          "name": "",
          "type": "string"
        },
        {
          "name": "plantOwner",
          "type": "address"
        }
      ],
      "payable": false,
      "stateMutability": "view",
      "type": "function"
    },
    {
      "constant": true,
      "inputs": [],
      "name": "isNurseryOwner",
      "outputs": [
        {
          "name": "",
          "type": "bool"
        }
      ],
      "payable": false,
      "stateMutability": "view",
      "type": "function"
    },
    {
      "constant": true,
      "inputs": [],
      "name": "isFarmer",
      "outputs": [
        {
          "name": "",
          "type": "bool"
        }
      ],
      "payable": false,
      "stateMutability": "view",
      "type": "function"
    },
    {
      "constant": true,
      "inputs": [],
      "name": "getOrderCount",
      "outputs": [
        {
          "name": "",
          "type": "uint256"
        }
      ],
      "payable": false,
      "stateMutability": "view",
      "type": "function"
    },
    {
      "constant": false,
      "inputs": [
        {
          "name": "plantIds",
          "type": "uint256[]"
        },
        {
          "name": "nurseryOwner",
          "type": "address"
        },
        {
          "name": "purchaseDate",
          "type": "uint256"
        }
      ],
      "name": "orderPlants",
      "outputs": [],
      "payable": false,
      "stateMutability": "nonpayable",
      "type": "function"
    }
  ],
  "bytecode": "0x60806040523480156200001157600080fd5b5062000022620000e360201b60201c565b6000806101000a81548173ffffffffffffffffffffffffffffffffffffffff021916908373ffffffffffffffffffffffffffffffffffffffff1602179055506000809054906101000a900473ffffffffffffffffffffffffffffffffffffffff1673ffffffffffffffffffffffffffffffffffffffff16600073ffffffffffffffffffffffffffffffffffffffff167f8be0079c531659141344cd1fd0a4f28419497f9722a3daafe3b4186f6b6457e060405160405180910390a3620000eb565b600033905090565b61479580620000fb6000396000f3fe608060405234801561001057600080fd5b50600436106101da5760003560e01c80639f46626811610104578063b30a2627116100a2578063e753eb1e11610071578063e753eb1e146114b6578063ea2a33a1146114e4578063ed0b1f5f146115dd578063f2fde38b14611754576101da565b8063b30a262714611209578063bc7aa933146112e3578063c0d3e1f9146113bd578063e2033fd2146113db576101da565b8063a85c38ef116100de578063a85c38ef14610e2d578063a9bfa3bc14610eea578063aa6825621461107a578063aef7076d146111eb576101da565b80639f46626814610baf5780639ff7ddf114610bcd578063a38921e814610cd2576101da565b806375d019e11161017c5780638da5cb5b1161014b5780638da5cb5b146108ea5780638dd2361c146109345780638f32d59b14610aab578063954aba9f14610acd576101da565b806375d019e11461055a5780637da470ea1461063557806382b691f1146107245780638d0a5fbb146108cc576101da565b80635f28d0df116101b85780635f28d0df1461037e5780636b8180b214610458578063715018a61461053257806372201a9e1461053c576101da565b8063116fe555146101df5780631422f2221461033a57806354db27441461035c575b600080fd5b61020b600480360360208110156101f557600080fd5b8101908080359060200190929190505050611798565b6040518087815260200180602001868152602001858152602001806020018473ffffffffffffffffffffffffffffffffffffffff1673ffffffffffffffffffffffffffffffffffffffff168152602001838103835288818151815260200191508051906020019080838360005b83811015610293578082015181840152602081019050610278565b50505050905090810190601f1680156102c05780820380516001836020036101000a031916815260200191505b50838103825285818151815260200191508051906020019080838360005b838110156102f95780820151818401526020810190506102de565b50505050905090810190601f1680156103265780820380516001836020036101000a031916815260200191505b509850505050505050505060405180910390f35b610342611931565b604051808215151515815260200191505060405180910390f35b61036461194c565b604051808215151515815260200191505060405180910390f35b6103aa6004803603602081101561039457600080fd5b8101908080359060200190929190505050611967565b60405180806020018373ffffffffffffffffffffffffffffffffffffffff1673ffffffffffffffffffffffffffffffffffffffff168152602001828103825284818151815260200191508051906020019080838360005b8381101561041c578082015181840152602081019050610401565b50505050905090810190601f1680156104495780820380516001836020036101000a031916815260200191505b50935050505060405180910390f35b6104846004803603602081101561046e57600080fd5b8101908080359060200190929190505050611a50565b60405180806020018373ffffffffffffffffffffffffffffffffffffffff1673ffffffffffffffffffffffffffffffffffffffff168152602001828103825284818151815260200191508051906020019080838360005b838110156104f65780820151818401526020810190506104db565b50505050905090810190601f1680156105235780820380516001836020036101000a031916815260200191505b50935050505060405180910390f35b61053a611b93565b005b610544611ccc565b6040518082815260200191505060405180910390f35b6106336004803603604081101561057057600080fd5b810190808035906020019064010000000081111561058d57600080fd5b82018360208201111561059f57600080fd5b803590602001918460018302840111640100000000831117156105c157600080fd5b91908080601f016020809104026020016040519081016040528093929190818152602001838380828437600081840152601f19601f820116905080830192505050505050509192919290803573ffffffffffffffffffffffffffffffffffffffff169060200190929190505050611cd9565b005b6106616004803603602081101561064b57600080fd5b8101908080359060200190929190505050611f06565b60405180868152602001806020018581526020018481526020018373ffffffffffffffffffffffffffffffffffffffff1673ffffffffffffffffffffffffffffffffffffffff168152602001828103825286818151815260200191508051906020019080838360005b838110156106e55780820151818401526020810190506106ca565b50505050905090810190601f1680156107125780820380516001836020036101000a031916815260200191505b50965050505050505060405180910390f35b6108ca600480360361010081101561073b57600080fd5b8101908080359060200190929190803560ff1690602001909291908035906020019092919080359060200190929190803590602001909291908035906020019064010000000081111561078d57600080fd5b82018360208201111561079f57600080fd5b803590602001918460018302840111640100000000831117156107c157600080fd5b91908080601f016020809104026020016040519081016040528093929190818152602001838380828437600081840152601f19601f8201169050808301925050505050505091929192908035906020019064010000000081111561082457600080fd5b82018360208201111561083657600080fd5b8035906020019184600183028401116401000000008311171561085857600080fd5b91908080601f016020809104026020016040519081016040528093929190818152602001838380828437600081840152601f19601f820116905080830192505050505050509192919290803573ffffffffffffffffffffffffffffffffffffffff169060200190929190505050612001565b005b6108d4612174565b6040518082815260200191505060405180910390f35b6108f2612181565b604051808273ffffffffffffffffffffffffffffffffffffffff1673ffffffffffffffffffffffffffffffffffffffff16815260200191505060405180910390f35b6109606004803603602081101561094a57600080fd5b81019080803590602001909291905050506121aa565b6040518089815260200188600b81111561097657fe5b60ff16815260200187815260200186815260200185815260200180602001806020018473ffffffffffffffffffffffffffffffffffffffff1673ffffffffffffffffffffffffffffffffffffffff168152602001838103835286818151815260200191508051906020019080838360005b83811015610a025780820151818401526020810190506109e7565b50505050905090810190601f168015610a2f5780820380516001836020036101000a031916815260200191505b50838103825285818151815260200191508051906020019080838360005b83811015610a68578082015181840152602081019050610a4d565b50505050905090810190601f168015610a955780820380516001836020036101000a031916815260200191505b509a505050505050505050505060405180910390f35b610ab361235c565b604051808215151515815260200191505060405180910390f35b610bad60048036036060811015610ae357600080fd5b8101908080359060200190640100000000811115610b0057600080fd5b820183602082011115610b1257600080fd5b80359060200191846020830284011164010000000083111715610b3457600080fd5b919080806020026020016040519081016040528093929190818152602001838360200280828437600081840152601f19601f820116905080830192505050505050509192919290803573ffffffffffffffffffffffffffffffffffffffff169060200190929190803590602001909291905050506123ba565b005b610bb7612b2e565b6040518082815260200191505060405180910390f35b610c0f60048036036020811015610be357600080fd5b81019080803573ffffffffffffffffffffffffffffffffffffffff169060200190929190505050612b3b565b60405180868152602001806020018581526020018481526020018373ffffffffffffffffffffffffffffffffffffffff1673ffffffffffffffffffffffffffffffffffffffff168152602001828103825286818151815260200191508051906020019080838360005b83811015610c93578082015181840152602081019050610c78565b50505050905090810190601f168015610cc05780820380516001836020036101000a031916815260200191505b50965050505050505060405180910390f35b610cfe60048036036020811015610ce857600080fd5b8101908080359060200190929190505050612c29565b6040518087815260200180602001868152602001858152602001806020018473ffffffffffffffffffffffffffffffffffffffff1673ffffffffffffffffffffffffffffffffffffffff168152602001838103835288818151815260200191508051906020019080838360005b83811015610d86578082015181840152602081019050610d6b565b50505050905090810190601f168015610db35780820380516001836020036101000a031916815260200191505b50838103825285818151815260200191508051906020019080838360005b83811015610dec578082015181840152602081019050610dd1565b50505050905090810190601f168015610e195780820380516001836020036101000a031916815260200191505b509850505050505050505060405180910390f35b610e5960048036036020811015610e4357600080fd5b8101908080359060200190929190505050612e56565b604051808581526020018473ffffffffffffffffffffffffffffffffffffffff1673ffffffffffffffffffffffffffffffffffffffff1681526020018373ffffffffffffffffffffffffffffffffffffffff1673ffffffffffffffffffffffffffffffffffffffff168152602001826002811115610ed357fe5b60ff16815260200194505050505060405180910390f35b611078600480360360c0811015610f0057600080fd5b810190808035906020019092919080359060200190640100000000811115610f2757600080fd5b820183602082011115610f3957600080fd5b80359060200191846001830284011164010000000083111715610f5b57600080fd5b91908080601f016020809104026020016040519081016040528093929190818152602001838380828437600081840152601f19601f820116905080830192505050505050509192919290803590602001909291908035906020019092919080359060200190640100000000811115610fd257600080fd5b820183602082011115610fe457600080fd5b8035906020019184600183028401116401000000008311171561100657600080fd5b91908080601f016020809104026020016040519081016040528093929190818152602001838380828437600081840152601f19601f820116905080830192505050505050509192919290803573ffffffffffffffffffffffffffffffffffffffff169060200190929190505050612ee0565b005b6110bc6004803603602081101561109057600080fd5b81019080803573ffffffffffffffffffffffffffffffffffffffff1690602001909291905050506131e8565b6040518087815260200180602001868152602001858152602001806020018473ffffffffffffffffffffffffffffffffffffffff1673ffffffffffffffffffffffffffffffffffffffff168152602001838103835288818151815260200191508051906020019080838360005b83811015611144578082015181840152602081019050611129565b50505050905090810190601f1680156111715780820380516001836020036101000a031916815260200191505b50838103825285818151815260200191508051906020019080838360005b838110156111aa57808201518184015260208101905061118f565b50505050905090810190601f1680156111d75780820380516001836020036101000a031916815260200191505b509850505050505050505060405180910390f35b6111f3613374565b6040518082815260200191505060405180910390f35b6112356004803603602081101561121f57600080fd5b8101908080359060200190929190505050613381565b60405180806020018373ffffffffffffffffffffffffffffffffffffffff1673ffffffffffffffffffffffffffffffffffffffff168152602001828103825284818151815260200191508051906020019080838360005b838110156112a757808201518184015260208101905061128c565b50505050905090810190601f1680156112d45780820380516001836020036101000a031916815260200191505b50935050505060405180910390f35b61130f600480360360208110156112f957600080fd5b810190808035906020019092919050505061346a565b60405180806020018373ffffffffffffffffffffffffffffffffffffffff1673ffffffffffffffffffffffffffffffffffffffff168152602001828103825284818151815260200191508051906020019080838360005b83811015611381578082015181840152602081019050611366565b50505050905090810190601f1680156113ae5780820380516001836020036101000a031916815260200191505b50935050505060405180910390f35b6113c56135ad565b6040518082815260200191505060405180910390f35b6114b4600480360360408110156113f157600080fd5b810190808035906020019064010000000081111561140e57600080fd5b82018360208201111561142057600080fd5b8035906020019184600183028401116401000000008311171561144257600080fd5b91908080601f016020809104026020016040519081016040528093929190818152602001838380828437600081840152601f19601f820116905080830192505050505050509192919290803573ffffffffffffffffffffffffffffffffffffffff1690602001909291905050506135ba565b005b6114e2600480360360208110156114cc57600080fd5b81019080803590602001909291905050506137e7565b005b6115db600480360360a08110156114fa57600080fd5b81019080803590602001909291908035906020019064010000000081111561152157600080fd5b82018360208201111561153357600080fd5b8035906020019184600183028401116401000000008311171561155557600080fd5b91908080601f016020809104026020016040519081016040528093929190818152602001838380828437600081840152601f19601f8201169050808301925050505050505091929192908035906020019092919080359060200190929190803573ffffffffffffffffffffffffffffffffffffffff169060200190929190505050613bb2565b005b611609600480360360208110156115f357600080fd5b8101908080359060200190929190505050613e79565b6040518089815260200188600b81111561161f57fe5b60ff16815260200187815260200186815260200185815260200180602001806020018473ffffffffffffffffffffffffffffffffffffffff1673ffffffffffffffffffffffffffffffffffffffff168152602001838103835286818151815260200191508051906020019080838360005b838110156116ab578082015181840152602081019050611690565b50505050905090810190601f1680156116d85780820380516001836020036101000a031916815260200191505b50838103825285818151815260200191508051906020019080838360005b838110156117115780820151818401526020810190506116f6565b50505050905090810190601f16801561173e5780820380516001836020036101000a031916815260200191505b509a505050505050505050505060405180910390f35b6117966004803603602081101561176a57600080fd5b81019080803573ffffffffffffffffffffffffffffffffffffffff1690602001909291905050506140f0565b005b600581815481106117a557fe5b9060005260206000209060060201600091509050806000015490806001018054600181600116156101000203166002900480601f0160208091040260200160405190810160405280929190818152602001828054600181600116156101000203166002900480156118575780601f1061182c57610100808354040283529160200191611857565b820191906000526020600020905b81548152906001019060200180831161183a57829003601f168201915b505050505090806002015490806003015490806004018054600181600116156101000203166002900480601f0160208091040260200160405190810160405280929190818152602001828054600181600116156101000203166002900480156119015780601f106118d657610100808354040283529160200191611901565b820191906000526020600020905b8154815290600101906020018083116118e457829003601f168201915b5050505050908060050160009054906101000a900473ffffffffffffffffffffffffffffffffffffffff16905086565b600061194733600161417690919063ffffffff16565b905090565b600061196233600261417690919063ffffffff16565b905090565b6003818154811061197457fe5b9060005260206000209060020201600091509050806000018054600181600116156101000203166002900480601f016020809104026020016040519081016040528092919081815260200182805460018160011615610100020316600290048015611a205780601f106119f557610100808354040283529160200191611a20565b820191906000526020600020905b815481529060010190602001808311611a0357829003601f168201915b5050505050908060010160009054906101000a900473ffffffffffffffffffffffffffffffffffffffff16905082565b60606000611a5c61447b565b60038481548110611a6957fe5b9060005260206000209060020201604051806040016040529081600082018054600181600116156101000203166002900480601f016020809104026020016040519081016040528092919081815260200182805460018160011615610100020316600290048015611b1b5780601f10611af057610100808354040283529160200191611b1b565b820191906000526020600020905b815481529060010190602001808311611afe57829003601f168201915b505050505081526020016001820160009054906101000a900473ffffffffffffffffffffffffffffffffffffffff1673ffffffffffffffffffffffffffffffffffffffff1673ffffffffffffffffffffffffffffffffffffffff16815250509050806000015181602001518191509250925050915091565b611b9b61235c565b611c0d576040517f08c379a00000000000000000000000000000000000000000000000000000000081526004018080602001828103825260208152602001807f4f776e61626c653a2063616c6c6572206973206e6f7420746865206f776e657281525060200191505060405180910390fd5b600073ffffffffffffffffffffffffffffffffffffffff166000809054906101000a900473ffffffffffffffffffffffffffffffffffffffff1673ffffffffffffffffffffffffffffffffffffffff167f8be0079c531659141344cd1fd0a4f28419497f9722a3daafe3b4186f6b6457e060405160405180910390a360008060006101000a81548173ffffffffffffffffffffffffffffffffffffffff021916908373ffffffffffffffffffffffffffffffffffffffff160217905550565b6000600480549050905090565b611ce161235c565b611d53576040517f08c379a00000000000000000000000000000000000000000000000000000000081526004018080602001828103825260208152602001807f4f776e61626c653a2063616c6c6572206973206e6f7420746865206f776e657281525060200191505060405180910390fd5b611d6781600161425490919063ffffffff16565b611d6f61447b565b60405180604001604052808481526020018373ffffffffffffffffffffffffffffffffffffffff168152509050600381908060018154018082558091505090600182039060005260206000209060020201600090919290919091506000820151816000019080519060200190611de69291906144ab565b5060208201518160010160006101000a81548173ffffffffffffffffffffffffffffffffffffffff021916908373ffffffffffffffffffffffffffffffffffffffff1602179055505050507f02558f2ae393cac7270a7f9a8dfaefb76eeb51ca6f7652ace69fad261d4bf69d838360405180806020018373ffffffffffffffffffffffffffffffffffffffff1673ffffffffffffffffffffffffffffffffffffffff168152602001828103825284818151815260200191508051906020019080838360005b83811015611ec6578082015181840152602081019050611eab565b50505050905090810190601f168015611ef35780820380516001836020036101000a031916815260200191505b50935050505060405180910390a1505050565b60098181548110611f1357fe5b9060005260206000209060050201600091509050806000015490806001018054600181600116156101000203166002900480601f016020809104026020016040519081016040528092919081815260200182805460018160011615610100020316600290048015611fc55780601f10611f9a57610100808354040283529160200191611fc5565b820191906000526020600020905b815481529060010190602001808311611fa857829003601f168201915b5050505050908060020154908060030154908060040160009054906101000a900473ffffffffffffffffffffffffffffffffffffffff16905085565b61200961452b565b6040518061010001604052808a815260200189600b81111561202757fe5b81526020018881526020018781526020018681526020018581526020018481526020018373ffffffffffffffffffffffffffffffffffffffff168152509050600781908060018154018082558091505090600182039060005260206000209060080201600090919290919091506000820151816000015560208201518160010160006101000a81548160ff0219169083600b8111156120c257fe5b021790555060408201518160020155606082015181600301556080820151816004015560a08201518160050190805190602001906121019291906144ab565b5060c082015181600601908051906020019061211e9291906144ab565b5060e08201518160070160006101000a81548173ffffffffffffffffffffffffffffffffffffffff021916908373ffffffffffffffffffffffffffffffffffffffff160217905550505050505050505050505050565b6000600880549050905090565b60008060009054906101000a900473ffffffffffffffffffffffffffffffffffffffff16905090565b600781815481106121b757fe5b90600052602060002090600802016000915090508060000154908060010160009054906101000a900460ff1690806002015490806003015490806004015490806005018054600181600116156101000203166002900480601f01602080910402602001604051908101604052809291908181526020018280546001816001161561010002031660029004801561228e5780601f106122635761010080835404028352916020019161228e565b820191906000526020600020905b81548152906001019060200180831161227157829003601f168201915b505050505090806006018054600181600116156101000203166002900480601f01602080910402602001604051908101604052809291908181526020018280546001816001161561010002031660029004801561232c5780601f106123015761010080835404028352916020019161232c565b820191906000526020600020905b81548152906001019060200180831161230f57829003601f168201915b5050505050908060070160009054906101000a900473ffffffffffffffffffffffffffffffffffffffff16905088565b60008060009054906101000a900473ffffffffffffffffffffffffffffffffffffffff1673ffffffffffffffffffffffffffffffffffffffff1661239e61432f565b73ffffffffffffffffffffffffffffffffffffffff1614905090565b6123ce33600261417690919063ffffffff16565b612440576040517f08c379a00000000000000000000000000000000000000000000000000000000081526004018080602001828103825260178152602001807f61646472657373206973206e6f742061206661726d657200000000000000000081525060200191505060405180910390fd5b60006008805490509050612452614591565b6040518060a001604052808381526020018573ffffffffffffffffffffffffffffffffffffffff1681526020013373ffffffffffffffffffffffffffffffffffffffff168152602001868152602001600060028111156124ae57fe5b81525090506124bb6145f7565b600a60003373ffffffffffffffffffffffffffffffffffffffff1673ffffffffffffffffffffffffffffffffffffffff1681526020019081526020016000206040518060a001604052908160008201548152602001600182018054600181600116156101000203166002900480601f0160208091040260200160405190810160405280929190818152602001828054600181600116156101000203166002900480156125a85780601f1061257d576101008083540402835291602001916125a8565b820191906000526020600020905b81548152906001019060200180831161258b57829003601f168201915b5050505050815260200160028201548152602001600382015481526020016004820160009054906101000a900473ffffffffffffffffffffffffffffffffffffffff1673ffffffffffffffffffffffffffffffffffffffff1673ffffffffffffffffffffffffffffffffffffffff1681525050905061262561463c565b600660008773ffffffffffffffffffffffffffffffffffffffff1673ffffffffffffffffffffffffffffffffffffffff1681526020019081526020016000206040518060c001604052908160008201548152602001600182018054600181600116156101000203166002900480601f0160208091040260200160405190810160405280929190818152602001828054600181600116156101000203166002900480156127125780601f106126e757610100808354040283529160200191612712565b820191906000526020600020905b8154815290600101906020018083116126f557829003601f168201915b505050505081526020016002820154815260200160038201548152602001600482018054600181600116156101000203166002900480601f0160208091040260200160405190810160405280929190818152602001828054600181600116156101000203166002900480156127c85780601f1061279d576101008083540402835291602001916127c8565b820191906000526020600020905b8154815290600101906020018083116127ab57829003601f168201915b505050505081526020016005820160009054906101000a900473ffffffffffffffffffffffffffffffffffffffff1673ffffffffffffffffffffffffffffffffffffffff1673ffffffffffffffffffffffffffffffffffffffff1681525050905060008760008151811061283857fe5b602002602001015190505b87518860008151811061285257fe5b602002602001015101811015612a155760016007828154811061287157fe5b906000526020600020906008020160010160006101000a81548160ff0219169083600b81111561289d57fe5b0217905550807febebf7373f5f00bf4b6ce952f765f1c296eafd71c4e1468646c8f785131de90688846020015186602001518a87604001518860600151604051808773ffffffffffffffffffffffffffffffffffffffff1673ffffffffffffffffffffffffffffffffffffffff1681526020018060200180602001868152602001858152602001848152602001838103835288818151815260200191508051906020019080838360005b83811015612962578082015181840152602081019050612947565b50505050905090810190601f16801561298f5780820380516001836020036101000a031916815260200191505b50838103825287818151815260200191508051906020019080838360005b838110156129c85780820151818401526020810190506129ad565b50505050905090810190601f1680156129f55780820380516001836020036101000a031916815260200191505b509850505050505050505060405180910390a28080600101915050612843565b50600883908060018154018082558091505090600182039060005260206000209060050201600090919290919091506000820151816000015560208201518160010160006101000a81548173ffffffffffffffffffffffffffffffffffffffff021916908373ffffffffffffffffffffffffffffffffffffffff16021790555060408201518160020160006101000a81548173ffffffffffffffffffffffffffffffffffffffff021916908373ffffffffffffffffffffffffffffffffffffffff1602179055506060820151816003019080519060200190612af8929190614688565b5060808201518160040160006101000a81548160ff02191690836002811115612b1d57fe5b021790555050505050505050505050565b6000600580549050905090565b600a602052806000526040600020600091509050806000015490806001018054600181600116156101000203166002900480601f016020809104026020016040519081016040528092919081815260200182805460018160011615610100020316600290048015612bed5780601f10612bc257610100808354040283529160200191612bed565b820191906000526020600020905b815481529060010190602001808311612bd057829003601f168201915b5050505050908060020154908060030154908060040160009054906101000a900473ffffffffffffffffffffffffffffffffffffffff16905085565b6000606060008060606000612c3c61463c565b60058881548110612c4957fe5b90600052602060002090600602016040518060c001604052908160008201548152602001600182018054600181600116156101000203166002900480601f016020809104026020016040519081016040528092919081815260200182805460018160011615610100020316600290048015612d055780601f10612cda57610100808354040283529160200191612d05565b820191906000526020600020905b815481529060010190602001808311612ce857829003601f168201915b505050505081526020016002820154815260200160038201548152602001600482018054600181600116156101000203166002900480601f016020809104026020016040519081016040528092919081815260200182805460018160011615610100020316600290048015612dbb5780601f10612d9057610100808354040283529160200191612dbb565b820191906000526020600020905b815481529060010190602001808311612d9e57829003601f168201915b505050505081526020016005820160009054906101000a900473ffffffffffffffffffffffffffffffffffffffff1673ffffffffffffffffffffffffffffffffffffffff1673ffffffffffffffffffffffffffffffffffffffff16815250509050806000015181602001518260400151836060015184608001518560a001518494508191509650965096509650965096505091939550919395565b60088181548110612e6357fe5b90600052602060002090600502016000915090508060000154908060010160009054906101000a900473ffffffffffffffffffffffffffffffffffffffff16908060020160009054906101000a900473ffffffffffffffffffffffffffffffffffffffff16908060040160009054906101000a900460ff16905084565b612ee861235c565b612f5a576040517f08c379a00000000000000000000000000000000000000000000000000000000081526004018080602001828103825260208152602001807f4f776e61626c653a2063616c6c6572206973206e6f7420746865206f776e657281525060200191505060405180910390fd5b612f6e81600161417690919063ffffffff16565b612fe0576040517f08c379a000000000000000000000000000000000000000000000000000000000815260040180806020018281038252601e8152602001807f61646472657373206973206e6f742061206e757273657279206f776e6572000081525060200191505060405180910390fd5b612fe861463c565b6040518060c001604052808881526020018781526020018681526020018581526020018481526020018373ffffffffffffffffffffffffffffffffffffffff168152509050600581908060018154018082558091505090600182039060005260206000209060060201600090919290919091506000820151816000015560208201518160010190805190602001906130819291906144ab565b50604082015181600201556060820151816003015560808201518160040190805190602001906130b29291906144ab565b5060a08201518160050160006101000a81548173ffffffffffffffffffffffffffffffffffffffff021916908373ffffffffffffffffffffffffffffffffffffffff16021790555050505080600660008473ffffffffffffffffffffffffffffffffffffffff1673ffffffffffffffffffffffffffffffffffffffff1681526020019081526020016000206000820151816000015560208201518160010190805190602001906131639291906144ab565b50604082015181600201556060820151816003015560808201518160040190805190602001906131949291906144ab565b5060a08201518160050160006101000a81548173ffffffffffffffffffffffffffffffffffffffff021916908373ffffffffffffffffffffffffffffffffffffffff16021790555090505050505050505050565b6006602052806000526040600020600091509050806000015490806001018054600181600116156101000203166002900480601f01602080910402602001604051908101604052809291908181526020018280546001816001161561010002031660029004801561329a5780601f1061326f5761010080835404028352916020019161329a565b820191906000526020600020905b81548152906001019060200180831161327d57829003601f168201915b505050505090806002015490806003015490806004018054600181600116156101000203166002900480601f0160208091040260200160405190810160405280929190818152602001828054600181600116156101000203166002900480156133445780601f1061331957610100808354040283529160200191613344565b820191906000526020600020905b81548152906001019060200180831161332757829003601f168201915b5050505050908060050160009054906101000a900473ffffffffffffffffffffffffffffffffffffffff16905086565b6000600380549050905090565b6004818154811061338e57fe5b9060005260206000209060020201600091509050806000018054600181600116156101000203166002900480601f01602080910402602001604051908101604052809291908181526020018280546001816001161561010002031660029004801561343a5780601f1061340f5761010080835404028352916020019161343a565b820191906000526020600020905b81548152906001019060200180831161341d57829003601f168201915b5050505050908060010160009054906101000a900473ffffffffffffffffffffffffffffffffffffffff16905082565b6060600061347661447b565b6004848154811061348357fe5b9060005260206000209060020201604051806040016040529081600082018054600181600116156101000203166002900480601f0160208091040260200160405190810160405280929190818152602001828054600181600116156101000203166002900480156135355780601f1061350a57610100808354040283529160200191613535565b820191906000526020600020905b81548152906001019060200180831161351857829003601f168201915b505050505081526020016001820160009054906101000a900473ffffffffffffffffffffffffffffffffffffffff1673ffffffffffffffffffffffffffffffffffffffff1673ffffffffffffffffffffffffffffffffffffffff16815250509050806000015181602001518191509250925050915091565b6000600780549050905090565b6135c261235c565b613634576040517f08c379a00000000000000000000000000000000000000000000000000000000081526004018080602001828103825260208152602001807f4f776e61626c653a2063616c6c6572206973206e6f7420746865206f776e657281525060200191505060405180910390fd5b61364881600261425490919063ffffffff16565b61365061447b565b60405180604001604052808481526020018373ffffffffffffffffffffffffffffffffffffffff1681525090506004819080600181540180825580915050906001820390600052602060002090600202016000909192909190915060008201518160000190805190602001906136c79291906144ab565b5060208201518160010160006101000a81548173ffffffffffffffffffffffffffffffffffffffff021916908373ffffffffffffffffffffffffffffffffffffffff1602179055505050507f1019884191f1911c9d6a29d86255f39fd3a37e10528950c8ad926d2438bc234b838360405180806020018373ffffffffffffffffffffffffffffffffffffffff1673ffffffffffffffffffffffffffffffffffffffff168152602001828103825284818151815260200191508051906020019080838360005b838110156137a757808201518184015260208101905061378c565b50505050905090810190601f1680156137d45780820380516001836020036101000a031916815260200191505b50935050505060405180910390a1505050565b6137fb33600161417690919063ffffffff16565b613850576040517f08c379a00000000000000000000000000000000000000000000000000000000081526004018080602001828103825260278152602001806147216027913960400191505060405180910390fd5b61385861463c565b600660003373ffffffffffffffffffffffffffffffffffffffff1673ffffffffffffffffffffffffffffffffffffffff1681526020019081526020016000206040518060c001604052908160008201548152602001600182018054600181600116156101000203166002900480601f0160208091040260200160405190810160405280929190818152602001828054600181600116156101000203166002900480156139455780601f1061391a57610100808354040283529160200191613945565b820191906000526020600020905b81548152906001019060200180831161392857829003601f168201915b505050505081526020016002820154815260200160038201548152602001600482018054600181600116156101000203166002900480601f0160208091040260200160405190810160405280929190818152602001828054600181600116156101000203166002900480156139fb5780601f106139d0576101008083540402835291602001916139fb565b820191906000526020600020905b8154815290600101906020018083116139de57829003601f168201915b505050505081526020016005820160009054906101000a900473ffffffffffffffffffffffffffffffffffffffff1673ffffffffffffffffffffffffffffffffffffffff1673ffffffffffffffffffffffffffffffffffffffff1681525050905060006007805490509050613ab8816000858560400151866060015187602001516040518060400160405280600881526020017f476c656e204d6f7900000000000000000000000000000000000000000000000081525033612001565b807fea8a60e825f42ce9a9de8f9482350a671c8b01a7699ea9601b9df06b2aed6c743384602001518686604001518760600151604051808673ffffffffffffffffffffffffffffffffffffffff1673ffffffffffffffffffffffffffffffffffffffff16815260200180602001858152602001848152602001838152602001828103825286818151815260200191508051906020019080838360005b83811015613b6f578082015181840152602081019050613b54565b50505050905090810190601f168015613b9c5780820380516001836020036101000a031916815260200191505b50965050505050505060405180910390a2505050565b613bba61235c565b613c2c576040517f08c379a00000000000000000000000000000000000000000000000000000000081526004018080602001828103825260208152602001807f4f776e61626c653a2063616c6c6572206973206e6f7420746865206f776e657281525060200191505060405180910390fd5b613c4081600261417690919063ffffffff16565b613cb2576040517f08c379a00000000000000000000000000000000000000000000000000000000081526004018080602001828103825260178152602001807f61646472657373206973206e6f742061206661726d657200000000000000000081525060200191505060405180910390fd5b613cba6145f7565b6040518060a001604052808781526020018681526020018581526020018481526020018373ffffffffffffffffffffffffffffffffffffffff16815250905060098190806001815401808255809150509060018203906000526020600020906005020160009091929091909150600082015181600001556020820151816001019080519060200190613d4d9291906144ab565b50604082015181600201556060820151816003015560808201518160040160006101000a81548173ffffffffffffffffffffffffffffffffffffffff021916908373ffffffffffffffffffffffffffffffffffffffff16021790555050505080600a60008473ffffffffffffffffffffffffffffffffffffffff1673ffffffffffffffffffffffffffffffffffffffff168152602001908152602001600020600082015181600001556020820151816001019080519060200190613e129291906144ab565b50604082015181600201556060820151816003015560808201518160040160006101000a81548173ffffffffffffffffffffffffffffffffffffffff021916908373ffffffffffffffffffffffffffffffffffffffff160217905550905050505050505050565b60008060008060006060806000613e8e61452b565b60078a81548110613e9b57fe5b906000526020600020906008020160405180610100016040529081600082015481526020016001820160009054906101000a900460ff16600b811115613edd57fe5b600b811115613ee857fe5b8152602001600282015481526020016003820154815260200160048201548152602001600582018054600181600116156101000203166002900480601f016020809104026020016040519081016040528092919081815260200182805460018160011615610100020316600290048015613fa35780601f10613f7857610100808354040283529160200191613fa3565b820191906000526020600020905b815481529060010190602001808311613f8657829003601f168201915b50505050508152602001600682018054600181600116156101000203166002900480601f0160208091040260200160405190810160405280929190818152602001828054600181600116156101000203166002900480156140455780601f1061401a57610100808354040283529160200191614045565b820191906000526020600020905b81548152906001019060200180831161402857829003601f168201915b505050505081526020016007820160009054906101000a900473ffffffffffffffffffffffffffffffffffffffff1673ffffffffffffffffffffffffffffffffffffffff1673ffffffffffffffffffffffffffffffffffffffff16815250509050806000015181602001518260400151836060015184608001518560a001518660c001518760e001518292508191509850985098509850985098509850985050919395975091939597565b6140f861235c565b61416a576040517f08c379a00000000000000000000000000000000000000000000000000000000081526004018080602001828103825260208152602001807f4f776e61626c653a2063616c6c6572206973206e6f7420746865206f776e657281525060200191505060405180910390fd5b61417381614337565b50565b60008073ffffffffffffffffffffffffffffffffffffffff168273ffffffffffffffffffffffffffffffffffffffff1614156141fd576040517f08c379a00000000000000000000000000000000000000000000000000000000081526004018080602001828103825260228152602001806147486022913960400191505060405180910390fd5b8260000160008373ffffffffffffffffffffffffffffffffffffffff1673ffffffffffffffffffffffffffffffffffffffff16815260200190815260200160002060009054906101000a900460ff16905092915050565b61425e8282614176565b156142d1576040517f08c379a000000000000000000000000000000000000000000000000000000000815260040180806020018281038252601f8152602001807f526f6c65733a206163636f756e7420616c72656164792068617320726f6c650081525060200191505060405180910390fd5b60018260000160008373ffffffffffffffffffffffffffffffffffffffff1673ffffffffffffffffffffffffffffffffffffffff16815260200190815260200160002060006101000a81548160ff0219169083151502179055505050565b600033905090565b600073ffffffffffffffffffffffffffffffffffffffff168173ffffffffffffffffffffffffffffffffffffffff1614156143bd576040517f08c379a00000000000000000000000000000000000000000000000000000000081526004018080602001828103825260268152602001806146fb6026913960400191505060405180910390fd5b8073ffffffffffffffffffffffffffffffffffffffff166000809054906101000a900473ffffffffffffffffffffffffffffffffffffffff1673ffffffffffffffffffffffffffffffffffffffff167f8be0079c531659141344cd1fd0a4f28419497f9722a3daafe3b4186f6b6457e060405160405180910390a3806000806101000a81548173ffffffffffffffffffffffffffffffffffffffff021916908373ffffffffffffffffffffffffffffffffffffffff16021790555050565b604051806040016040528060608152602001600073ffffffffffffffffffffffffffffffffffffffff1681525090565b828054600181600116156101000203166002900490600052602060002090601f016020900481019282601f106144ec57805160ff191683800117855561451a565b8280016001018555821561451a579182015b828111156145195782518255916020019190600101906144fe565b5b50905061452791906146d5565b5090565b604051806101000160405280600081526020016000600b81111561454b57fe5b81526020016000815260200160008152602001600081526020016060815260200160608152602001600073ffffffffffffffffffffffffffffffffffffffff1681525090565b6040518060a0016040528060008152602001600073ffffffffffffffffffffffffffffffffffffffff168152602001600073ffffffffffffffffffffffffffffffffffffffff16815260200160608152602001600060028111156145f157fe5b81525090565b6040518060a0016040528060008152602001606081526020016000815260200160008152602001600073ffffffffffffffffffffffffffffffffffffffff1681525090565b6040518060c001604052806000815260200160608152602001600081526020016000815260200160608152602001600073ffffffffffffffffffffffffffffffffffffffff1681525090565b8280548282559060005260206000209081019282156146c4579160200282015b828111156146c35782518255916020019190600101906146a8565b5b5090506146d191906146d5565b5090565b6146f791905b808211156146f35760008160009055506001016146db565b5090565b9056fe4f776e61626c653a206e6577206f776e657220697320746865207a65726f20616464726573736f6e6c79206e757273657279206f776e65722063616e2070726f706f6761746520706c616e7473526f6c65733a206163636f756e7420697320746865207a65726f2061646472657373a165627a7a7230582085ee289a63117869da744963cb28b4ad553821a4340dfb934e423f5a68c40b760029",
  "source": "pragma solidity  > 0.5.0;\n\nimport \"../node_modules/openzeppelin-solidity/contracts/access/Roles.sol\";\nimport \"../node_modules/openzeppelin-solidity/contracts/ownership/Ownable.sol\";\n\ncontract Supply is Ownable {\n  using Roles for Roles.Role;\n\n  Roles.Role private nurseryOwners;\n  Roles.Role private farmers;\n\n  Owner[] public nurseryOwnerList;\n  Owner[] public farmOwnerList;\n\n  enum State { Propogated, Purchased, Shipped, Received, Planted, Harvested, Packed, Weighed, Stored, AtDistribution, Distributed, Sold }\n\n  enum OrderState { Ordered, Dispatched, Recevied }\n\n  struct Owner {\n    string name;\n    address ownerAddress;\n  }\n\n  struct Nursery {\n    uint id;\n    string name;\n    int lat;\n    int long;\n    string description;\n    address nurseryOwner;\n  }\n\n  struct Plant {\n    uint id; // id of the plant\n    State state; // the state of the plant in the supply chain\n    uint plantedDate; // date the plant was planeted\n    int lat; // Latitute of plant location\n    int long; // Longitude of plant location\n    string sourceNursery; // Nursery plant was grown at\n    string variety;\n    address plantOwner;\n  }\n\n  struct Farm {\n    uint id;\n    string name;\n    int lat;\n    int long;\n    address farmer;\n  }\n\n  struct Order {\n    uint orderId;\n    address nursery;\n    address farmer;\n    uint[] plantIds;\n    OrderState state;\n  }\n\n  Nursery[] public nurseries;\n  mapping(address => Nursery) public nurseriesByOwners;\n\n  // Dynamically sized plant array\n  Plant[] public plants;\n\n  Order[] public orders;\n\n  Farm[] public farms;\n  mapping(address => Farm) public farmsByOwners;\n\n  event AddedNurseryOwner(string name, address nurseryOwner);\n  event AddedFarmOwner(string name, address farmOwner);\n  event PropogatedByNursery(uint indexed plantId, address plantOwner, string nurseryName, uint date, int lat, int long);\n  event PurchasedByFarmer(uint indexed plantId, address plantOwner, string nurseryName, string farmName, uint date, int lat, int long);\n  event ShippedByNursery(uint indexed plantId, address plantOwner, uint date);\n  event ReceivedByFarmer(uint indexed plantId, address plantOwner, uint date);\n  event PlantedByFarmer(uint indexed plantId, address plantOwner, uint date);\n\n  constructor() public {\n    // addNurseryOwner(0x21111104e6933e6fb2bB4dc99AB5B65439226043);\n    // addNursery(0, \"Raspberry Nursery\", 56, 3, \"Small nursery for raspberries\", 0x21111104e6933e6fb2bB4dc99AB5B65439226043);\n    // addFarmer(0xdacF2A85BEbdD88e49DF032A61b5d7679eafb25E);\n    // addFarm(0, \"Invergowrie\", 56, 3, 0xdacF2A85BEbdD88e49DF032A61b5d7679eafb25E);\n  }\n\n  function addNurseryOwner(string memory name, address nurseryOwner) public onlyOwner {\n    nurseryOwners.add(nurseryOwner);\n    Owner memory owner = Owner(name, nurseryOwner);\n    nurseryOwnerList.push(owner);\n    emit AddedNurseryOwner(name, nurseryOwner);\n  }\n\n  function getNurseryOwnerCount() public view returns(uint) {\n    return nurseryOwnerList.length;\n  }\n\n  function getNurseryOwner(uint index) public view returns(string memory, address) {\n    Owner memory nurseryOwner = nurseryOwnerList[index];\n    return (nurseryOwner.name, nurseryOwner.ownerAddress);\n  }\n\n  function addNursery(uint id, string memory name, int lat, int long, string memory nurseryDescription, address nurseryOwner) public onlyOwner {\n    require(nurseryOwners.has(nurseryOwner), \"address is not a nursery owner\");\n    Nursery memory nursery = Nursery(id, name, lat, long, nurseryDescription, nurseryOwner);\n    nurseries.push(nursery);\n    nurseriesByOwners[nurseryOwner] = nursery;\n  }\n\n  function getNurseryCount() public view returns(uint) {\n    return nurseries.length;\n  }\n\n  function getNursery(uint index) public view returns(uint, string memory, int, int, string memory, address) {\n    Nursery memory nursery = nurseries[index];\n    return (nursery.id, nursery.name, nursery.lat, nursery.long, nursery.description, nursery.nurseryOwner);\n  }\n\n  function propogatePlant(uint date) public {\n    require(nurseryOwners.has(msg.sender), \"only nursery owner can propogate plants\");\n    Nursery memory nursery = nurseriesByOwners[msg.sender];\n    uint plantId = plants.length;\n    addPlant(plantId, State.Propogated, date, nursery.lat, nursery.long, nursery.name, \"Glen Moy\", msg.sender);\n    emit PropogatedByNursery(plantId, msg.sender, nursery.name, date, nursery.lat, nursery.long);\n  }\n\n   function addFarmOwner(string memory name, address farmOwner) public onlyOwner {\n    farmers.add(farmOwner);\n    Owner memory owner = Owner(name, farmOwner);\n    farmOwnerList.push(owner);\n    emit AddedFarmOwner(name, farmOwner);\n  }\n\n  function getFarmOwnerCount() public view returns(uint) {\n    return farmOwnerList.length;\n  }\n\n  function getFarmOwner(uint index) public view returns(string memory, address) {\n    Owner memory farmOwner = farmOwnerList[index];\n    return (farmOwner.name, farmOwner.ownerAddress);\n  }\n\n  function addFarm(uint id, string memory name, int lat, int long, address farmer) public onlyOwner {\n    require(farmers.has(farmer), \"address is not a farmer\");\n    Farm memory farm = Farm(id, name, lat, long, farmer);\n    farms.push(farm);\n    farmsByOwners[farmer] = farm;\n  }\n\n  function addPlant(uint id, State _state, uint _date, int _lat, int _long, string memory _nursery, string memory variety, address plantOwner) public {\n    Plant memory plant = Plant(id, _state, _date, _lat, _long, _nursery, variety, plantOwner);\n    plants.push(plant);\n  }\n\n  function getPlantCount() public view returns(uint) {\n    return plants.length;\n  }\n\n  function getPlant(uint index) public view returns(uint, State, uint, int, int, string memory, string memory, address plantOwner) {\n    Plant memory plant = plants[index];\n    return (plant.id, plant.state, plant.plantedDate, plant.lat, plant.long, plant.sourceNursery, plant.variety, plant.plantOwner);\n  }\n\n  modifier purchasedByFarmer(uint id) {\n    require(plants[id].state == State.Purchased, \"the state of the plant in this function must be Purchased\");\n    _;\n  }\n\n  function isNurseryOwner() public view returns(bool) {\n    return nurseryOwners.has(msg.sender);\n  }\n\n  function isFarmer() public view returns(bool) {\n    return farmers.has(msg.sender);\n  }\n\n  function getOrderCount() public view returns(uint) {\n    return orders.length;\n  }\n\n  function orderPlants(uint[] memory plantIds, address nurseryOwner, uint purchaseDate) public {\n    require(farmers.has(msg.sender), \"address is not a farmer\");\n    uint orderId = orders.length;\n    Order memory order = Order(orderId, nurseryOwner, msg.sender, plantIds, OrderState.Ordered);\n\n    Farm memory farm = farmsByOwners[msg.sender];\n    Nursery memory nursery = nurseriesByOwners[nurseryOwner];\n\n    for (uint i = plantIds[0]; i < plantIds[0] + plantIds.length; i++) {\n      plants[i].state = State.Purchased;\n      emit PurchasedByFarmer(i, nurseryOwner, nursery.name, farm.name, purchaseDate, nursery.lat, nursery.long);\n    }\n\n    orders.push(order);\n  }\n}",
  "sourcePath": "/home/gordon/projects/blockchain/basic/contracts/Supply.sol",
  "compiler": {
    "name": "solc",
    "version": "0.5.8+commit.23d335f2.Emscripten.clang"
  },
  "schemaVersion": "3.0.11",
  "updatedAt": "2020-03-11T16:01:07.228Z",
  "devdoc": {
    "methods": {
      "isOwner()": {
        "details": "Returns true if the caller is the current owner."
      },
      "owner()": {
        "details": "Returns the address of the current owner."
      },
      "renounceOwnership()": {
        "details": "Leaves the contract without owner. It will not be possible to call `onlyOwner` functions anymore. Can only be called by the current owner.     * NOTE: Renouncing ownership will leave the contract without an owner, thereby removing any functionality that is only available to the owner."
      },
      "transferOwnership(address)": {
        "details": "Transfers ownership of the contract to a new account (`newOwner`). Can only be called by the current owner."
      }
    }
  },
  "userdoc": {
    "methods": {}
  }
}